:020000040800F2
:100000000080012031DC0008E13E000881DC0008AE
:10001000F13E0008013F0008113F00080000000009
:10002000000000000000000000000000213F000868
:10003000313F000800000000413F0008C13E0008B9
:1000400081DC000881DC000881DC000881DC00081C
:1000500081DC000881DC000881DC000881DC00080C
:1000600081DC000881DC000881DC000881DC0008FC
:1000700081DC000881DC0008D13F0008DD3F00087A
:1000800081DC000881DC000801400008000000005D
:1000900000000000000000000000000081DC0008FB
:1000A00081DC000881DC000881DC000881DC0008BC
:1000B000C53F000881DC000881DC000881DC000805
:1000C00081DC000881DC000881DC000881DC00089C
:1000D000E93F000881DC0008AD3F00080000000097
:1000E00081DC000881DC000881DC000800000000E1
:1000F00000000000000000000000000081DC00089B
:100100000000000081DC0008A13F000881DC00083D
:1001100000000000000000000000000000000000DF
:10012000F53F00087D3F0008893F000881DC00089A
:1001300081DC00080000000000000000000000005A
:1001400000000000000000000000000081DC00084A
:10015000953F000881DC000881DC0008B93F0008F9
:1001600081DC000881DC00080000000000000000C5
:10017000000000000000000000000000000000007F
:100180000000000081DC000800000000000000000A
:0401900081DC000806
:1001C000134B002B08BF114B9D46A3F5803A00212D
:1001D0008B460F461148124A121A0DF09DFB0D4B2B
:1001E000002B00D098470C4B002B00D098470020E4
:1001F000002104000D000B480DF03CFB0DF064FBEA
:10020000200029000DF09EFC0DF03AFB00000800D4
:10021000000000000000000000000000F0090020C5
:10022000A84D0020A1D8000808B507200BF0AEFBB0
:10023000002211466FF00B000BF0BAFB00221146B2
:100240006FF00A000BF0B4FB002211466FF00900BA
:100250000BF0AEFB002211466FF004000BF0A8FB80
:10026000002211466FF003000BF0A2FB00221146A2
:100270006FF001000BF09CFB002211464FF0FF30A5
:10028000BDE808400BF094BBF8B51E4C1E4E00258F
:10029000042329464FF4887204F108006380258006
:1002A00065600DF039FB194B84F82551186893F8F7
:1002B00004E01F8A84F8285184F8295184F82A51CF
:1002C00084F82C5184F82D5184F82E5184F82F5144
:1002D00053F8085F94F82B210D49C4F81801988849
:1002E000366884F81CE1012342F0010284F82431CD
:1002F000A4F82671C4F81E51A4F8220184F82B2119
:100300000E60F8BD10130020DC000020F86D01081D
:1003100008130020002310B48B704B706AB90123BE
:100320004A604B7090F834315DF8044B092243F079
:10033000010380F834310A707047042A0DD103227A
:10034000012348600A704B7090F834315DF8044B1B
:1003500063F07F0380F834317047082A34D0B2F557
:10036000047FC0F09D80A2F58054B4F5805F30D248
:10037000B2F5805F4ED041F20104A2424FD041F26B
:100380000204A24250D041F20304A24256D041F2EC
:1003900004039A425ED041F206039A4266D041F2CB
:1003A00008039A4270D041F210039A4272D041F28F
:1003B00014039A42B6D10123002400F225120C70D6
:1003C0008B704B704A60BFE70222031D0A704B60BE
:1003D000BAE7A2F50054B4F5805FA3D2B2F5005F8E
:1003E00027D042F20204A2422FD042F204039A42E2
:1003F00036D042F208039A423ED042F20C039A42AF
:1004000090D10123002400F22F120C708B704B70DE
:100410004A6099E700F58C720B704A6094E700F22D
:1004200019120B704A608FE700F21B120B704A60C2
:100430008AE700F593720B704A6085E700F58E74C9
:1004400001220B704C604A707EE700F227120B709D
:100450004A6079E7012200F58F730A704B6073E7F9
:10046000072200F594730A704B606DE7012200F5D6
:1004700090730A704B6067E70824062200F59673B4
:100480000C708A704B605FE7002200F591730A7070
:100490004B6059E7002200F592730A704B6053E7F6
:1004A000A2F580740123FF2C4B7008D8A3070AD152
:1004B00000F10803234402224B600A7044E7B4F5BC
:1004C000887FBFF42FAFA2F58472024400234A60F4
:1004D0000B7039E7F0B583B002AB03E906009DF875
:1004E0000230012B37D0062B02D0002003B0F0BD24
:1004F00090F82B5190F82A2190F8291190F8284172
:1005000090F8193190F81B6190F82671ED070DD520
:100510000132D2B2934245D0B1424FD0BC4245D015
:1005200080F82A2180F8291180F828419A421AD2AD
:10053000B1424FF0010320D390F82F31BC4243F079
:10054000020380F82F3103D343F0010380F82F31E9
:10055000012003B0F0BD9DF80030002B0CBF02203D
:10056000002003B0F0BD90F82F31B14243F00403F6
:1005700080F82F314FF00003DED2BC4202D390F856
:100580002F31E1E7002BE3D00E4B186800F0D4FBCD
:10059000019BC0F30721C0F30742187059709A708D
:1005A0000020A3E70131C9B20022B5E790F82F413E
:1005B00064F07F0480F82F410024B1E70134E4B2F5
:1005C0000021ABE7081300202DE9F04782B002AB11
:1005D00003E906009DF80130012B07D09DF8023099
:1005E000062B07D0002002B0BDE8F087032002B040
:1005F000BDE8F08790F82A5190F8198190F82961A8
:1006000090F8287190F81BA190F82691454538D3B1
:1006100090F82F3143F0040380F82F310023564522
:100620000DD390F82F314F4543F0020380F82F315E
:1006300003D343F0010380F82F310120D3E74F4566
:1006400021D2002BF9D0019A517813789278044680
:100650001A4843EA012343EA024300682A46314626
:1006600000F0F8F994F82B31DB07BBD50135EDB27A
:10067000A8450BD084F82A5184F8296184F82871A0
:10068000B0E70123CBE790F82F31D2E70136F6B27D
:10069000B2450DD10137FFB2B9450BD194F82F31D6
:1006A000002663F07F0384F82F3135463746E1E7B3
:1006B0000025DFE700263546DCE700BF08130020F1
:1006C00070B582B002460E46002569461A4801956B
:1006D0000095FFF71FFE9DE806001748FFF7FAFE9A
:1006E0000128307114D09DF80030082B21D8DFE8A4
:1006F00003F016120505050512051A00019B1B687B
:100700003360022802D1019B00221A7002B070BD32
:10071000356002B070BD019B1B883360F1E7019B1F
:100720001B783360EDE7019B1B6823F07F43336048
:10073000E7E700233360E4E71013002030B583B00F
:10074000002302460D461848019369460093FFF7BF
:10075000E1FD9DF80130012B6C4612D09DF8003070
:10076000082B1ED8DFE803F01A17141414141714FA
:100770000500019A136825F07F4503F07F431D4370
:10078000156094E806000848FFF71EFF03B030BD6F
:10079000019B1D60F5E7019B1D80F2E7019B1D7029
:1007A000EFE70120F2E700BF101300200A4A08B566
:1007B000136873B118446946884202D8106018461D
:1007C00008BD0EF00FFC0C2303604FF0FF331846FA
:1007D00008BD024B1360EDE7F0090020A84D002092
:1007E00011B100230B604B6000207047704700BFC1
:1007F0000120704708B50EF0F5FB162303604FF09B
:10080000FF3008BD08B50EF0EDFB16230360FEE7D0
:1008100070B5161E07DD0C468D1914F8010BAFF3E9
:100820000080AC42F9D1304670BD00BF4FF0FF30C0
:10083000704700BF4FF400534B600020704700BF6B
:10084000012070470020704770B5161E07DD0C466A
:100850008D19AFF3008004F8010BA542F9D13046A1
:1008600070BD00BF0EB44FF0FF3003B0704700BF43
:1008700008B50EF0B7FB0A2303604FF0FF3008BD48
:1008800008B50EF0AFFB022303604FF0FF3008BD48
:100890004FF0FF30704700BF4FF400534B60002013
:1008A000704700BF08B50EF09DFB1F2303604FF09B
:1008B000FF3008BD08B50EF095FB0B2303604FF029
:1008C000FF3008BD08B50EF08DFB0C2303604FF020
:1008D000FF3008BDC3B207EE103AB8EEC77ADFEDBD
:1008E000306A27EE006AC0F30723B4EEE66AF1EE41
:1008F00010FA84B007EE903AC0F307404ADC9FED4F
:10090000296A60EE066A26EE877AC7EE066ABCEEB2
:10091000E67A8DED007A9DF800109FED217AF8EED1
:10092000E77A60EE276AF4EEC76AF1EE10FA33DC7C
:10093000DFED1C6A20EE267A67EE277A87EEA67A2C
:10094000FCEEC77ACDED007A9DF800209FED147A79
:1009500007EE900AF8EEE77A60EE276AF4EEC76ACF
:10096000F1EE10FA1ADC9FED0F7A20EE070A20EE66
:10097000270AC0EE077AFCEEE77ACDED007A9DF803
:100980000030002061F3070062F30F2063F317408B
:1009900004B07047FF21C0E7FF22D7E7FF23F0E74D
:1009A00000007F430000C842C2B2C0F3072302EB3D
:1009B000820202EB820203EB8303C0F3074030B5EF
:1009C0009200124C03EB830300EB800001FB02F268
:1009D00000EB80009B00A4FB025201FB03F38500A7
:1009E000C2F34732A4FB03E301FB05F1002062F3ED
:1009F0000700C3F34733A4FB012163F30F20C1F3C6
:100A0000473161F3174085B005B030BD5917B7D1F4
:100A100010B4C0F3072251FA80F40A44FF2CC0F34B
:100A20000743194428BFFF24FF2AE4B228BFFF224E
:100A30000020FF2964F30700D2B228BFFF2162F330
:100A40000F20C9B261F3174085B005B05DF8044BC3
:100A5000704700BF2DE9F04F02EB420285B0D20093
:100A6000DFB2019702F1080802F1100CC3F3072668
:100A7000012402968C4006F08007019E10F8029037
:100A800010F808E010F80C50C3F30743E44364B2D5
:100A9000C1F1070103F0800A06F080060F410E4104
:100AA0004AFA01FA04EA090904EA0E0E254049EA65
:100AB00007094EEA060E45EA0A0500F8029002F11F
:100AC000010B00F808E002F1090A00F80C5002F1ED
:100AD0001109029E019D10F80B8010F80AC010F851
:100AE00009704FEA430E76006D0006F0800605F0AF
:100AF00080050EF0800E04EA080804EA0C0C4EFA99
:100B000001FE0E4127400D4148EA06064CEA050564
:100B100047EA0E0700F80B6000F80A5002F1020BDA
:100B200000F8097002F10A0A02F11209029E019D01
:100B300010F80B8010F80AC010F809704FEA830E05
:100B4000B600AD0006F0800605F080050EF0800EC0
:100B500004EA080804EA0C0C4EFA01FE0E41274094
:100B60000D4148EA06064CEA050547EA0E0700F87B
:100B70000B6000F80A5002F1030B00F8097002F153
:100B80000B0A02F11309029E019D10F80B8010F868
:100B90000AC010F809704FEAC30EF600ED0006F027
:100BA000800605F080050EF0800E04EA080804EACD
:100BB0000C0C4EFA01FE0E4127400D4148EA060694
:100BC0004CEA050547EA0E0700F80B6000F80A50EA
:100BD00002F1040B00F8097002F10C0A02F1140989
:100BE000029E019D10F80B8010F80AC010F80970E1
:100BF0004FEA031E36012D0106F0800605F0800540
:100C00000EF0800E04EA080804EA0C0C4EFA01FE0D
:100C10000E4127400D4148EA06064CEA050547EA21
:100C20000E0700F80B6000F80A5002F1050B00F8FF
:100C3000097002F10D0A02F11509029E019D10F8DA
:100C40000B8010F80AC010F809704FEA431E7601B5
:100C50006D0106F0800605F080050EF0800E04EAB6
:100C6000080804EA0C0C4EFA01FE27400E410D4123
:100C700048EA06064CEA050547EA0E0700F80B604D
:100C800000F80A5002F1060B00F8097002F10E0A92
:100C900002F11609029D019E10F809C010F80B70B0
:100CA00010F80A804FEA851EB6019D010EF0800EF5
:100CB00006F0800605F080054EFA01FE04EA0808F9
:100CC00004EA0C0C27400E410D4147EA0E0748EAA2
:100CD00006064CEA050500F80B7000F80A6000F8FB
:100CE0000950029DD71D02F10F064FEAC51E1732AB
:100CF000019D10F8078010F806C010F80290ED0171
:100D0000DB01DBB25FFA8EFEEDB204EA080804EA0A
:100D10000C0C4EFA01FE0D4104EA090443FA01F1FC
:100D200048EA0E0E4CEA0505214300F807E0855518
:100D3000815405B0BDE8F08F2DE9F04702EB420287
:100D4000D6008319875D5A7A5D7893F80AC01C7AB9
:100D50009E7893F80BE093F811A093F8039093F822
:100D600012800A410D414CFA01F00C4193F810C079
:100D70000F410E4152006D004EFA01FE04F00104D5
:100D800007F001074AFA01FA49FA01F902F00202F2
:100D900005F00205B60022433D434FEACE0406F0BB
:100DA000040693F80CE01F794CFA01FC4FEA4A0A5A
:100DB0004FEAC90935430CF0010C80000AF0020A21
:100DC00009F0080900F004004EFA01FE4AEA0C0A94
:100DD00045EA090993F813C09D7B5E79024348FAFE
:100DE00001F804F008044FEA0E1E22434CFA01FCFD
:100DF0000EF010040D4193F80DE0187D4FEA8808BD
:100E00000F4108F00408AD014FEACC0C22434EFA22
:100E100001FE4AEA080A0CF0080C05F040043F0104
:100E20009D7993F80F804AEA0C0A07F0100793F8AF
:100E300015C00E414FEA4E1E49EA070908419F7D41
:100E40000D410EF0200E760142EA0E0E00014CFA22
:100E500001FC06F02006AD0149EA060600F010028A
:100E600005F040054EEA04040F4193F807E04FEA0D
:100E70004C1C46EA050048FA01F84AEA0202DE7D07
:100E80000CF0200CBF014EFA01FE42EA0C0344EACA
:100E9000C81407F0400540EACE12E4B22B4346FAEC
:100EA00001F10020D2B264F3070043EAC11162F3FA
:100EB0000F20C9B261F3174082B002B0BDE8F087DD
:100EC0002DE9F04F02EB420200EBC2069BB0306806
:100ED000F368B2680C46716814AD0FC5716930696A
:100EE00003C59DF8503001939DF8583002939DF84A
:100EF000603003939DF8513004939DF85930059369
:100F00009DF8613006939DF8523007939DF85A3052
:100F100008939DF8623009939DF853300A939DF829
:100F20005B300B939DF863300C939DF854300D9318
:100F30009DF85C300E939DF864300F939DF86630F9
:100F400010939DF8573011939DF85F3012939DF8E0
:100F500055B09DF867309DF85DA09DF865909DF8AF
:100F600056809DF85EC0139321464FF0000E119BF2
:100F70000198029F069D43FA0EF240FA0EF002F02D
:100F8000010242EAC0121298049B40FA0EF405983E
:100F900040FA0EF647FA0EF704F00104B60143FAE0
:100FA0000EF306F0400644EAC71434439B01089E42
:100FB00003F04003134346FA0EF6079A760142FA0D
:100FC0000EF006F02006139A2643039C42FA0EF216
:100FD00045FA0EF544FA0EF402F00102AD0142EAC0
:100FE000C41205F040051543099A42FA0EF70B9A10
:100FF00042FA0EF2120102F0100216430C9A7F011F
:1010000042FA0EF207F02007120102F010023D43EF
:1010100015430E9A400142FA0EF200F02000D20071
:10102000034302F008020A9816430F9A40FA0EF0A2
:1010300042FA0EF2000100F01000D200034302F069
:1010400008020D9815434AFA0EF240FA0EF092008B
:1010500002F00402C00000F00800164349FA0EF244
:10106000034392004BFA0EF002F004028000154395
:1010700000F004004CFA0EF218435200109B02F0EC
:10108000020248FA0EF4164343FA0EF264005200CC
:1010900004F0020402F002020EF1010E2043154397
:1010A000BEF1080F48700E708D7001F103017FF4DE
:1010B0005EAF1BB0BDE8F08F2DE9F04F9FB000236D
:1010C00016901792189312939B46119310930F93B7
:1010D0000E930D930C930B930A9309930893079324
:1010E00006930593049303930293994601931C4638
:1010F0009A469E4619931A931B931C931D93139320
:1011000014930E467178049D139F3278B378C80902
:1011100000FA0EF040EA0A0AC1F3801000FA0EF05D
:1011200040EA0909C1F3401000FA0EF00543C1F38B
:10113000001000FA0EF007430495C1F3C000099DAA
:10114000139700FA0EF005430C9F0995C1F3800038
:1011500000FA0EF00743C1F3400001F0010101FA6B
:101160000EF141EA0B0BD1090F9D0C9701FA0EF11C
:1011700000FA0EF02143054315910298059C0F9546
:10118000C2F3801101FA0EF10843C2F3401101FAD3
:101190000EF10C430290C2F300110798059401FA76
:1011A0000EF108430A9C0790C2F3C00101FA0EF148
:1011B0000C430D980A94C2F3800101FA0EF1084322
:1011C000109C0D90C2F3400101FA0EF10C4302F0A5
:1011D00001021299109402FA0EF24FEAD3180A4350
:1011E000019908FA0EF8C3F3801C48EA0108039934
:1011F0000CFA0EFCC3F340174CEA010C069907FAEF
:101200000EF7C3F300150F43089905FA0EF5C3F363
:10121000C0040D430B9904FA0EF421430B91C3F360
:1012200080000E9C00FA0EF0C3F340012043119C95
:1012300001FA0EF1214303F00103149C03FA0EF3AB
:10124000234314939DF8103004939DF84C3013936E
:101250009DF8243009939DF830300C939DF83C3074
:101260000F939DF8083002939DF8143005939DF874
:101270001C3007939DF828300A939DF834300D9365
:101280009DF840301093D3B212935FFA88F3019324
:101290005FFA8CF30393FBB20693EBB29DF85440D4
:1012A00008939DF82C300B93C3B20EF1010E0E93F0
:1012B000CBB21193BEF1080F9DF8503014935FFA32
:1012C0008AFA5FFA89F95FFA8BFB06F103067FF46D
:1012D00019AF002209980A9D019EDDF84CC01F46F7
:1012E0001346194660F30703084664F307010446F2
:1012F00065F30700254666F307040B9E66F30705B2
:101300000C9E66F30F23029E66F30F210D9E66F37B
:101310000F20039E66F30F240E9E6AF3070266F306
:101320000F25049E69F30F2266F317420F9E66F3A2
:101330001743059E66F31741109E66F31740069EFD
:1013400066F31744119E66F31745079E66F31F6107
:10135000129E1A9166F31F60089E1B906CF31F6229
:101360006BF31F6366F31F6467F31F651C941D9581
:1013700018921993179C169F18AE0FCE04EB4404D5
:10138000E4003D4625443851696003CEAA60EB6015
:10139000286169611FB0BDE8F08F00BF2DE9F04FF3
:1013A00002EB4205A3B000EBC5051592EB68AA68F5
:1013B00013901491286869681CAC0FC42869696986
:1013C00003C49DF8703000939DF8783001939DF828
:1013D000803002939DF8713003939DF87930049327
:1013E0009DF8813005939DF8723006939DF87A3010
:1013F00007939DF8823008939DF8733009939DF808
:101400007B300A939DF883300B939DF874300C93D6
:101410009DF87C300D939DF884300E939DF87530C7
:101420000F939DF8773010939DF87F3011939DF8BE
:101430007DB09DF887309DF885A09DF876909DF849
:101440007E809DF886C012934FF0000E039A019F94
:10145000109B059D42FA0EF1119A42FA0EF4049A7D
:1014600042FA0EF647FA0EF704F00104B60106F050
:10147000400644EAC714009A344343FA0EF3079E29
:1014800042FA0EF203F0010343EAC21346FA0EF6E3
:10149000069A760142FA0EF006F02006129A2643CA
:1014A000029C42FA0EF245FA0EF544FA0EF402F0EE
:1014B0000102AD0142EAC41205F04005154389015D
:1014C000089A01F04001400142FA0EF70B4300F088
:1014D000200009990A9A03437F010C9841FA0EF102
:1014E00007F0200740FA0EF03D43090142FA0EF7DB
:1014F0000B9A01F01001C0000B4342FA0EF200F00B
:101500000800184312010E9B0F9902F010021543B8
:1015100043FA0EF30D9ADB0042FA0EF203F00803D1
:101520003F0107F010071D43D2004BFA0EF33E4374
:1015300002F008029B00164303F004031E434AFA1C
:101540000EF341FA0EF19B0003F00403890001F051
:1015500004011D4348FA0EF349FA0EF408435B00F8
:101560004CFA0EF10EEB4E0703F00203640016AACC
:1015700049003A441E4304F0020401F002010EF156
:10158000010E16AB20430D43BEF1080F5070DE551F
:1015900095707FF45BAF149E159A1398314616AC84
:1015A000FFF78AFD0FCC3060716003CCB260F3604E
:1015B0003061716123B0BDE8F08F00BF01F006BF5C
:1015C00070B5354C354B236092B000236322204622
:1015D000E2606360A360236106F070FC00284CD1D8
:1015E00012A94FF4805341F8403D2B4806F0B0F962
:1015F00000283FD1284806F099FC002837D1002365
:1016000006A925480693079306F06AFA60BB0023F3
:1016100069462148009301930AF04CF908BB002366
:1016200060261E251A460BA91B480D930F93109395
:1016300011930B960C9506F04FFE78B950230BA929
:10164000042215480C9306F047FE08B101F0BEFED7
:10165000124B2068984213D012B070BD01F0B6FE54
:10166000ECE701F0B3FEDAE701F0B0FECFE701F0FE
:10167000ADFEC4E701F0AAFEBCE701F0A7FEAFE7AC
:101680000122002106F010FF20680122042106F04B
:101690000BFF12B070BD00BF081500200000014014
:1016A00010B5174C002384B04FF080414FF4C8723E
:1016B00020462160E2606360A360236106F0FEFBC8
:1016C00080B904A94FF4805341F8103D0C4806F04E
:1016D0003FF908B101F07AFE0A4B2068984204D025
:1016E00004B010BD01F072FEEBE70122002106F00C
:1016F000DBFE20680122042106F0D6FE04B010BDF6
:1017000080150020000001400368B3F1804F00D035
:1017100070470A4B1B68196A41F21112114208D135
:10172000196A40F24442114203D11A6822F00102C0
:101730001A60034B01221A70704700BF8015002009
:10174000C4000020F0B5594A0368934283B013D017
:10175000B3F1804F01D003B0F0BD03F50E3300228A
:1017600001921A6C42F001021A641B6C03F001032F
:101770000193019B03B0F0BD002302F59C3200935E
:10178000516C4B4DDFF840C1EB6041F001015164F9
:10179000526C2B6102F001020446009240204FF08F
:1017A000406E4FF480474FF44036009A6B61EB6116
:1017B0002B63042103224FF40003A8602846C5F8D8
:1017C00000C0C5F804E0AF612E626962AA62EB62F4
:1017D00004F0BCFB002865D1364EE5614FF0406156
:1017E00040224FF480604FF48043DFF8E0E0AC63C8
:1017F0004FF4403704257160B26003214FF40002BA
:101800003061B36130460023C6F800E0376275628C
:10181000B162F262F3607361F361336304F096FBCB
:1018200000283CD1244D254A26624FF040604023D9
:10183000B4634FF48037042603212A6068604FF4B4
:101840000002AB60284600232F626E62A962EA6242
:10185000EB602B616B61AB61EB612B6304F076FB9A
:10186000D0B92A68656213681248AC6343F010036C
:1018700013600021124A04F077FE50B9114A0D4856
:10188000042104F071FE00283FF465AF01F09EFDD5
:1018900061E701F09BFDF1E701F098FDE1E701F060
:1018A00095FDBFE701F092FD96E700BF0000014003
:1018B00048140020BC150020A814002040640240F9
:1018C000A13C0008BD15000888640240286402405D
:1018D000094A0368934200D0704710B504460122BC
:1018E0001846002106F0E0FD206801220421BDE831
:1018F000104006F0D9BD00BF00000140114A036846
:1019000093420BD0B3F1804F00D070470E4A136C56
:1019100023F0010313641C200AF08CB802F50B328B
:1019200010B5136C044623F00803006A136404F036
:10193000A5FBE06904F0A2FB606ABDE8104004F07A
:101940009DBB00BF000C004000380240414B0268C4
:101950009A4200D070472DE9F041054682B03E48DA
:101960003E4C3F4EDFF80C810EF06AF904F1080797
:10197000617840460EF064F914F8013F06F8013F23
:10198000A742F5D137480EF0AFF9374B1A78CAB9EC
:101990005A78DAB99A78CAB9DA78BAB91A79AAB992
:1019A0005A799AB99A798AB9DA797AB92F4B1A6041
:1019B0005A60284608232C4A2C4909F0D5F802B071
:1019C000BDE8F081294B81225A70F2E79978D878E6
:1019D0005A7840EA012092B1012AF3D15A791E794E
:1019E000DC799979130443EA0663234343EA01212E
:1019F000FEF7A4FE68B91D4B08225A70D9E7694664
:101A0000FEF75EFE9DF804305BB1184B84225A70DD
:101A1000CFE701281AD0032814D1144B8C225A7016
:101A2000C7E7009A1149100E60F30703100C60F32A
:101A30000F23100A60F3174362F31F6304224B6005
:101A40004A70B6E70A480EF04FF9B2E7074B882212
:101A50005A70AEE700380040546E01083B17002072
:101A6000D3160020786E01083C170020D416002001
:101A7000686E0108606E01080D4B0E4A10B50A2110
:101A80001A604FF40074002218469C61D9625A60B3
:101A90009A60DA601A615A611A625A629A6208F0B0
:101AA00015FD00B910BDBDE8104001F08FBC00BFAE
:101AB0001C160020003800402F4B02689A4200D0CC
:101AC0007047F0B587B0002503F5003300951A6C18
:101AD0002A4E42F480421A641B6C039503F480433F
:101AE0004FF4444100930322052301910446022749
:101AF0002348049201A90593DDF800E0029703F062
:101B0000D3FC204A75604FF480633046B560F560C1
:101B10007561B561F561356275623260336104F0FB
:101B200015FA18BB3268184D1368E66443F01003C9
:101B3000B46340211360154E2E6000234FF4806281
:101B40002846A9602A616B60EB606B61AB61EB6159
:101B50002B626B6204F0FAF958B92A68A56413681D
:101B6000AC6343F01003136007B0F0BD01F02EFC2E
:101B7000D8E701F02BFCF0E7003800407416002095
:101B80000004024058600240DC16002070600240F1
:101B90000C4B02689A4200D070470B4A10B5136C88
:101BA000044623F48043094813644FF4444103F08E
:101BB00069FDE06C04F062FAA06CBDE8104004F02E
:101BC0005DBA00BF00380040003802400004024007
:101BD0002DE9F0478AB0394B394F3A4D3A4E00243F
:101BE00001941A6B42F004021A631A6B02F00402A9
:101BF0000192019A02941A6B42F080021A631A6BE6
:101C000002F080020292029A03941A6B42F00102DF
:101C10001A631A6B02F001020392039A04941A6B7E
:101C200042F002021A631B6B069603F00203049350
:101C300038464FF4005305A90126049A05934FF046
:101C400002094FF0FF0A079403F02EFC05A938465D
:101C50000794CDF814A00696CDF8209003F024FC4C
:101C600007230C2205A92846099305924FF0200866
:101C7000CDF818900794089403F016FC05A928469F
:101C8000CDF8209006960796CDF8148003F00CFC52
:101C900032464146284603F08BFD642002F090FE58
:101CA00022464146284603F083FD224651463846E7
:101CB00003F07EFD0AB0BDE8F08700BF00380240A7
:101CC0000008024000000240000012100000000066
:101CD0002DE9F04F0378B74A613B87B0D2F8304125
:101CE000132B00F21281DFE813F03A005D001001BF
:101CF000100110011001100110011001100110015C
:101D00001001100110011001830010011001AE003C
:101D100014004378692B00F0A181732B40F0F5800B
:101D200008460A2205A90FF013F90546059803781D
:101D3000002B40F073812B464FF0FF329E499F48A5
:101D40000DF07EFFABB223806380A380E38023810C
:101D50006381A381E381002007B0BDE8F08F437861
:101D60006F2B08464FF00A0205A900F0E4800FF03F
:101D7000EFF805460598037804F12006002B40F0A3
:101D80003F812B464FF0FF328D498C480DF058FFB4
:101D9000ABB223846384A384E38423856385A38512
:101DA000E385D8E708460A2205A90FF0D1F80546D1
:101DB0000598037804F14006002B40F0AB802B46D9
:101DC0004FF0FF327F497D480DF03AFFA8B2A4F8EA
:101DD0004000A4F84200A4F84400A4F84600A4F887
:101DE0004800A4F84A00A4F84C00A4F84E00B2E75A
:101DF0004378732B08464FF00A0205A900F0B6801D
:101E00000FF0A6F805460598037804F15006002B5C
:101E100040F015812B464FF0FF326B4967480DF0BB
:101E20000FFFABB2A4F85030A4F85230A4F85430ED
:101E3000A4F85630A4F85830A4F85A30A4F85C300E
:101E4000A4F85E3087E7614BB4F840106048039314
:101E50001D460DF0F5FE218C5E480DF0F1FEB4F844
:101E600060105D480DF0ECFEB4F850105B480DF0CA
:101E7000E7FE21885A480DF0E3FE05F1100A05F14E
:101E8000300B4FF0000949465648DFF870810DF0DD
:101E9000D7FE039B544853F8041B03930DF0D0FE68
:101EA00052480DF021FF5D46002428680AF02CFE00
:101EB000064668680F460AF027FE3246CDE9000163
:101EC0003B462146404601340DF0BAFE042C05F194
:101ED0000805EAD1DAF800000AF016FE0446DAF83E
:101EE00004000D460AF010FE09F10109CDE90001D8
:101EF00022462B463E480DF0A3FEB9F1040F0BF12C
:101F0000200B0AF1080ABED125E74FF0FF3007B0D9
:101F1000BDE8F08F05A90A220FF01AF82B460746F4
:101F20000246284925480DF08BFE072F3FF64EAF9D
:101F300026F817500FE70FF00BF8054605980378C1
:101F400004F13006002B40F0A5802B464FF0FF3205
:101F500028491A480DF074FEABB223866386A38627
:101F6000E38623876387A387E387F4E60EF0F0FF19
:101F700005460598037804F16006002B40F099802F
:101F80002B464FF0FF321C490C480DF059FEABB206
:101F9000A4F86030A4F86230A4F86430A4F8663085
:101FA000A4F86830A4F86A30A4F86C30A4F86E3055
:101FB000D1E600BF10130020E06E0108886E010812
:101FC000AC6E01087C6E0108C46E010800000020A0
:101FD000EC6E0108006F0108106F0108246F010802
:101FE000386F0108486F0108586F0108686F0108D1
:101FF000946F0108A06E0108B86E0108786F01089F
:1020000005A90A220EF0A4FF2B46074602463849CE
:1020100038480DF015FE072F8AD9B9E605A90A221E
:102020000EF096FF2B4606460246334931480DF026
:1020300007FE072E3FF686AE24F816508BE605A95C
:102040000A220EF085FF2B46074602462B492948F7
:102050000DF0F6FD072F7FF66BAFE2E608460A2289
:1020600005A90EF075FF05460598037804F11006E2
:1020700073BB2B464FF0FF3221491E480DF0E0FDA7
:10208000ABB223826382A382E38223836383A3832D
:10209000E38360E605A90A220EF05AFF2B460746A5
:1020A0000246184913480DF0CBFD072F7FF640AFCD
:1020B00052E705A90A220EF04BFF2B4607460246BF
:1020C00011490C480DF0BCFD072F7FF631AF5EE7DC
:1020D00005A90A220EF03CFF2B4607460246084996
:1020E00004480DF0ADFD072F7FF622AFC8E700BF13
:1020F000AC6E0108886E0108E06E0108C46E01082C
:10210000D06E0108A06E0108B86E0108024BD3F82A
:10211000B03080B21880704700000020034BD3F825
:10212000B030188880B202F04BBC00BF0000002025
:10213000F8B52DED028BDFED448A70EE287AB0EE13
:10214000408A17EE900A0AF0DFFC3BA3D3E9002394
:102150000AF07AFB3AA3D3E900230AF053FE0AF00F
:1021600059FF07EE900A67EEE77A17EE900A0AF039
:10217000CBFC41EC100B14F00FFC78EE687A55ECB8
:10218000104B17EE900A0AF0BFFC2BA3D3E90023F3
:102190000AF05AFB2AA3D3E900230AF033FE0AF01F
:1021A00039FF07EE900A67EEE77A17EE900A0AF019
:1021B000ABFC41EC100B14F0EFFB18EE100A57ECDF
:1021C000106B0AF0A1FC1CA3D3E900230AF03CFB2E
:1021D0001BA3D3E900230AF015FE0AF01BFF07EE4C
:1021E000900A67EEE77A17EE900A0AF08DFC41EC50
:1021F000100B14F0D1FB51EC100B0AF00BFF394619
:1022000008EE900A30460AF005FF294608EE100A4B
:1022100020460AF0FFFE07EE100ADFED0C7A38EEDA
:10222000078A28EE278A88EE270A38EEC00ABDEC16
:10223000028BF8BDAFF300800000000000F06F409B
:102240009A99999999995940000000444B07FD3A91
:102250002DE9F84F124CDFF850904FF0000804F1D0
:1022600010070125A34654F8046B30460AF03AFCE7
:1022700002460B46404649460AF0C4FD094B03EBB3
:10228000850A0AF0C7FE314600EE100A50460BF0F0
:10229000F9FCDBF80030BC421D44E3D1BDE8F88F07
:1022A00000000020F80900200000F03F2DE9F84F61
:1022B0000FF2A419D9E9008969A7D7E900672DEDC4
:1022C0000A8BDFF8A4B1DFF8A4A15B4D9FED5BAAF8
:1022D000DFED5B9A9FED5B9A002407EE904AB8EE23
:1022E000E78AABEC01AA78EE297AAAEC01AA17EEEC
:1022F000900A0AF009FC42464B460AF0A5FA32461B
:102300003B460AF07FFD0AF085FE07EE900A67EE75
:10231000E77A013417EE900A0AF0F6FB41EC100B55
:1023200014F03AFB78EE697AB0EE40CAF0EE60CA7B
:1023300017EE900A0AF0E8FB42464B460AF084FA90
:1023400032463B460AF05EFD0AF064FE07EE900A54
:1023500067EEE77A17EE900A0AF0D6FB41EC100B15
:1023600014F01AFB18EE100AB0EE40BAF0EE60BAA4
:102370000AF0CAFB42464B460AF066FA32463B4632
:102380000AF040FD0AF046FE07EE900A67EEE77A93
:1023900017EE900A0AF0B8FB41EC100B14F0FCFAAF
:1023A00051EC100B0AF036FE08EE100A51EC1C0B33
:1023B0000AF030FE08EE900A51EC1B0B0AF02AFEE0
:1023C00007EE900A78EEA78AB4F5007F68EE898A56
:1023D000C8EE897A38EE678AA5EC018A7FF47DAF72
:1023E00021461948194C1A4F0BF06AFC002604F1DB
:1023F00010090125A24654F8048B40460AF072FBEE
:1024000002460B46304639460AF0FCFC114B03EB02
:10241000850B0AF0FFFD414600EE100A58460BF00E
:1024200031FCDAF80030A1451D44E3D1BDEC0A8B44
:10243000BDE8F88FAFF30080841700200000000093
:10244000000000444B07FD3A043600200000002045
:102450000000F03FF80900200000000000F06F408D
:102460009A999999999959401C3600204442002024
:10247000002A2DE9F0470D4619DD002B3ED000EB78
:10248000C20490ED017AD1ED007A0646D6ED006ADD
:1024900027EE877A0830A6EE807AA04277EE677A38
:1024A000B0EE470AE3EC017AA1EC017AE9D1012A06
:1024B0003ADD9200AB181EA7D7E90067043A53F83B
:1024C00004ACAC1854F8040C0AF01EFB80465046CD
:1024D00089460AF019FB32463B460AF0B5F9024636
:1024E0000B46404649460AF0B1F90AF093FD44F81C
:1024F000040DA5428246E5D1BDE8F0870B4601EB0D
:102500008201D0ED016AD3ED007A044694ED007AA1
:1025100067EEA67A0830E0EE077AE3EC017A99429A
:10252000B0EE670AEDD1C2E7BDE8F087AFF30080F7
:102530002D431CEBE2361A3F2DE9F84FEC4CED4BE6
:10254000D4F8B4202DED048B03F50061023A32F883
:10255000020F07EE900AF8EE677AE3EC017A8B42FD
:10256000F5D1E44AE449E24DDFF8A4A3E34E104676
:102570004FF400730CF08AF90023E14ADD49E14889
:102580000BF0D2FCDE494FF4007208460CF00AFA58
:1025900005F1100BD0460127D94BB800A9463118D8
:1025A00055F8042B184443460CF0B6F9D9F800301E
:1025B0005D4508F104081F44EED1D34D94ED0D8A1A
:1025C000D5ED009A94ED0C4ADAED004AD4ED0F3ABD
:1025D000D5ED018AD4ED0E5A94ED115A95ED029A7B
:1025E000D4ED106A94ED136AD5ED037A94ED127A66
:1025F000C64F29EE888A68EEA38AA4EE248A29EEC3
:10260000059AE5EE888A67EE867AA6EEA89AE7EE46
:10261000097A17EE900AC5ED037A0AF075FAB2A3AB
:10262000D3E900230AF010F9804619EE100A894612
:102630000AF06AFA02460B46404649460AF006F995
:102640000AF0E8FCA8600AF05FFAA7A3D3E9002328
:102650000AF0FAF8804618EE900A89460AF054FA11
:1026600002460B46404649460AF0F0F80AF0D2FC12
:1026700068600AF049FA9CA3D3E900230AF0E4F861
:10268000804618EE100A89460AF03EFA02460B46CA
:10269000404649460AF0DAF80AF0BCFCD4ED056A77
:1026A000D7ED007A94ED047A286038EE698A67EEF7
:1026B000A67AE7EE087AC7ED007AD5ED049A94ED94
:1026C000158A94ED144ADAED014AD4ED173AD5EDA6
:1026D000058AD4ED165A94ED195A95ED069AD4ED63
:1026E000186A94ED1B6AD5ED077A94ED1A7A29EEF3
:1026F000888A68EEA38AA4EE248A29EE059AE5EE7C
:10270000888A67EE867AA6EEA89AE7EE097A17EE2F
:10271000900AC5ED077A0AF0F7F973A3D3E900230D
:102720000AF092F8804619EE100A89460AF0ECF990
:1027300002460B46404649460AF088F80AF06AFC11
:10274000A8610AF0E1F968A3D3E900230AF07CF854
:10275000804618EE900A89460AF0D6F902460B46E2
:10276000404649460AF072F80AF054FC68610AF0E3
:10277000CBF95DA3D3E900230AF066F8804618EE92
:10278000100A89460AF0C0F902460B4640464946FF
:102790000AF05CF80AF03EFCD4ED076AD7ED017A46
:1027A00094ED067A286138EE698A67EEA67AE8EE3B
:1027B000077AC7ED017AD5ED089A94ED1D8A9AED56
:1027C000024AD4ED1C4AD5ED093AD4ED1F8AD4ED66
:1027D0001E5A95ED0A5A94ED219AD4ED206A95ED92
:1027E0000B6AD4ED237A94ED227A29EE888A68EE7A
:1027F000A38AA4EE248A29EE059AE8EE258A67EEDC
:10280000867AA8EEA69AE9EE077A17EE900AC5ED49
:102810000B7A0AF079F934A3D3E900230AF014F80B
:10282000804619EE100A89460AF06EF902460B46F8
:10283000404649460AF00AF80AF0ECFBA8620AF0A2
:1028400063F929A3D3E9002309F0FEFF804618EEBF
:10285000900A89460AF058F902460B464046494616
:1028600009F0F4FF0AF0D6FB68620AF04DF91EA3E6
:10287000D3E9002309F0E8FF804618EE100A8946E4
:102880000AF042F902460B464046494609F0DEFF8F
:102890000AF0C0FBD7ED026AD4ED097A94ED087A0C
:1028A000286238EE698A67EEA67AE8EE077AC7ED05
:1028B000027AD5ED0C9A94ED258A9AED034AD4ED6F
:1028C000244AD5ED0D3AD4ED278AD4ED265A95ED5C
:1028D0000E5A94ED299AD4ED286A95ED0F6AD4ED3D
:1028E0002B7A94ED2A7A15E02D431CEBE2361A3F41
:1028F000000000201C36002084170020F80900206A
:1029000044420020043600204417002020420020CA
:102910003042002029EE888A68EEA38AA4EE248A39
:1029200029EE059AE8EE258A67EE867AA8EEA69A41
:10293000E9EE077A17EE900AC5ED0F7A0AF0E4F88F
:102940002DA3D3E9002309F07FFF804619EE100A7A
:1029500089460AF0D9F802460B464046494609F036
:1029600075FF0AF057FBA8630AF0CEF822A3D3E95B
:10297000002309F069FF804618EE900A89460AF0A4
:10298000C3F802460B464046494609F05FFF0AF08D
:1029900041FB68630AF0B8F817A3D3E9002309F0F4
:1029A00053FF804618EE100A89460AF0ADF8024639
:1029B0000B464046494609F049FF0AF02BFBD7ED8C
:1029C000037AD4ED0B6A94ED0A7A286338EE698AAB
:1029D00067EEA67AE7EE087AC7ED037ABDEC048BC2
:1029E000D6F80028D6F8043801320133C6F800289A
:1029F000C6F80438BDE8F88F2D431CEBE2361A3FC9
:102A0000F0B585B004AC0A2244F8040D21460EF05E
:102A10009FFA214605460A2203980EF099FA2146AC
:102A20000A22064603980EF093FA00210446039802
:102A30000EF0DAF96B1C042B2ED8032E2FD8012CA4
:102A400027D86B1C17D006EB8503164A04EB43030B
:102A500002EB830383ED0C0A10EE100A0AF054F81F
:102A60002346CDE90001324629460F480DF0E8F82B
:102A7000002005B0F0BD0B4B04EB460203EB8207D0
:102A800087ED0C0A87ED140A87ED1C0A87ED240AEE
:102A9000E2E76FF00300ECE76FF00100E9E76FF0A9
:102AA0000200E6E700000020B46F010830B585B0F1
:102AB00004AC0A2244F8040D21460EF049FA2146DE
:102AC00005460A2203980EF043FA002104460398B3
:102AD0000EF08AF96B1C042B26D8012C21D86A1C15
:102AE000134B13D004EB450203EB820383ED040A7E
:102AF00010EE100A0AF008F82246CDE90001294636
:102B00000C480DF09DF8002005B030BD03EB8400AB
:102B100080ED040A80ED060A80ED080A80ED0A0ABD
:102B2000E6E76FF00200EFE76FF00100ECE700BFAF
:102B300000000020EC6F01082DE9F04F83B002A9DE
:102B40000A2241F8040D0EF003FA0A22054600217C
:102B500001980EF0FDF9032D39D8214C54F8256069
:102B600044F8250023686168A268C3F500735B1A06
:102B70009B1A002B2EDB024629461A48DFF86C9080
:102B80000DF05EF84FF0000804F110070125A34690
:102B900054F8046B304609F0A5FF02460B46404648
:102BA00049460AF02FF9104B03EB850A0AF032FA76
:102BB000314600EE100A50460BF064F8DBF80030A6
:102BC000BC421D44E3D1002003B0BDE8F08F6FF09C
:102BD0000100F9E744F825606FF00200F4E700BF58
:102BE0000000002020700108F80900200000F03FDC
:102BF0002DE9F04F264B85B003F1100A039303F142
:102C0000300B4FF0000949462248DFF898800DF05C
:102C100017F8039B204853F8041B03930DF010F89A
:102C20001E480DF061F85D460024286809F06CFF2D
:102C3000064668680F4609F067FF3246CDE9000195
:102C40003B462146404601340CF0FAFF042C05F1C6
:102C50000805EAD1DAF8000009F056FF0446DAF870
:102C600004000D4609F050FF09F10109CDE900010A
:102C700022462B460A480CF0E3FFB9F1040F0BF192
:102C8000200B0AF1080ABED105B0BDE8F08F00BFE5
:102C900000000020486F0108586F0108686F0108A4
:102CA000946F0108786F01082DE9F04F0378652BC8
:102CB00085B000F08A80662B3CD0642B04D04FF0A6
:102CC000FF3005B0BDE8F08F4378652BF7D18378EE
:102CD000712BF4D104AC084644F8041D0A222146A5
:102CE0000EF036F9214605460A2203980EF030F917
:102CF0000021044603980EF077F86B1C042B7CD857
:102D0000012C77D86A1C414B69D004EB450203EBD8
:102D1000820383ED040A10EE100A09F0F5FE224644
:102D2000CDE9000129463A480CF08AFF002005B0A1
:102D3000BDE8F08F4378732BC1D104AB084643F84C
:102D4000041D0A2219460EF003F90A220546002145
:102D500003980EF0FDF8032D4FD82C4C54F8256045
:102D600044F8250023686168A268C3F500735B1A04
:102D70009B1A002B44DB024629462648DFF89C902C
:102D80000CF05EFF4FF0000804F110070125A34688
:102D900054F8046B304609F0A5FE02460B46404647
:102DA00049460AF02FF81C4B03EB850A0AF032F96A
:102DB000314600EE100A50460AF064FFDBF800309E
:102DC000BC421D44E3D10020B1E74378712B7FF46E
:102DD00076AF0846FFF714FE05B0BDE8F08F03EBB1
:102DE000840080ED040A80ED060A80ED080A80ED7B
:102DF0000A0A90E76FF0020063E76FF0010060E7F6
:102E000044F825606FF002005BE700BF000000207F
:102E1000EC6F010820700108F80900200000F03F65
:102E2000F0B583B00546164608460A2201A90EF001
:102E30008FF804460198037893B9314623464FF042
:102E4000FF3210480CF0FCFEA0B228806880A880F9
:102E5000E88028816881A881E881002003B0F0BD66
:102E600001A90A220EF074F82346074602463146AD
:102E700004480CF0E5FE072FE6D8002025F817409F
:102E800003B0F0BD886E0108F0B583B00546164664
:102E900008460A2201A90EF05BF80446019803785F
:102EA00073B9314623464FF0FF320E480CF0C8FE8E
:102EB000E1B2284608220AF02FFD002003B0F0BD41
:102EC00001A90A220EF044F823460746024631467D
:102ED00004480CF0B5FE072FEAD80020EC5503B0EB
:102EE000F0BD00BF886E010808B510220EF030F862
:102EF000B0F5803F05D3014602480CF0A1FE4FF02B
:102F0000FF3008BD3C70010810B5102282B00021CE
:102F10000EF01EF8B0F5803F04460ED26946FDF76C
:102F2000CFFB9DF80430012B0FD0224600990A48B0
:102F30000CF086FE002002B010BD014607480CF0E0
:102F40007FFE4FF0FF3002B010BD214604480CF068
:102F500077FE022002B010BD907001083C7001089D
:102F60006070010830B583B001A910220DF0F0FFA8
:102F7000B0F5803F04461CD201A9102201980DF043
:102F8000E7FF014605462046FDF7D8FB012818D08B
:102F9000032807D0224629460D480CF051FE002098
:102FA00003B030BD21460B480CF04AFE042003B0AC
:102FB00030BD014608480CF043FE4FF0FF3003B02F
:102FC00030BD214605480CF03BFE022003B030BD69
:102FD000D4700108A47001083C70010860700108F9
:102FE00000B5144BD3F8B8301A78012A85B019D03F
:102FF0001B78022B0FD004AB0F4A43F8102D194653
:103000000E480CF01DFE0E4B1B6898680CF0AAF8D9
:1030100005B05DF804FB0B4B93E803006B468DE8AD
:103020000300ECE7084B93E803006B468DE80300D0
:10303000E5E700BF000000206C656400E87001084F
:1030400050050020186E0108106E01082DE9F04FA0
:10305000002391B005461946202208A80593049341
:10306000069307930AF058FC202128460CF09AFE9C
:103070000D21064628460CF095FE002800F09480AD
:103080000446002E00F0A180771B29463A4604A88A
:103090000CF0ECFEA21B013A711C08A80CF0E6FE35
:1030A0009DF81030633B142B11D8DFE803F0241097
:1030B000102D401010101010511010101060101032
:1030C00010100B009DF81130722B00F01F81B24BD5
:1030D00008A904A81B689847411C09D19DF8103025
:1030E000652B00F0FA80662B00F0AB80642B6FD06C
:1030F00011B0BDE8F08F9DF81130682B00F0F6801C
:10310000002011B0BDE8F08F9DF81140002CDED1F9
:1031100008A80BF05FFF05460146A0480CF090FDA3
:103120009F4BD3F8B030ADB220461D80E0E708A831
:103130000BF050FF014604469A480CF081FD984B75
:10314000D3F8BC30A4B200201C8011B0BDE8F08FD1
:10315000012FD5D108A80BF03DFFFE2800F2108109
:103160008F4BD3F8B830C0B218700020C0E79DF87C
:103170001130642BABD11022002108A80DF0E8FE1D
:10318000B0F5803F044680F0DE8002A9FDF798FA92
:103190009DF80C30012B00F0DB802246029982481A
:1031A0000CF04EFD0020A3E70A2128460CF0FAFDA2
:1031B000044600287FF465AF014628460CF0F2FD76
:1031C000044616B100287FF45FAF4FF0FF308FE761
:1031D0009DF81130652BF8D19DF81230712BF4D188
:1031E00010AC08A844F8380D0A2221460DF0B0FEB4
:1031F000214605460A2202980DF0AAFE0021044647
:1032000002980DF0F1FD6B1C042B00F2B980012C2B
:1032100000F2B9806A1C624B00F0A08004EB45020A
:1032200003EB820383ED040A10EE100A09F06CFC34
:103230002246CDE9000129465C480CF001FD002042
:1032400056E79DF81130732BBFD110A908A841F89B
:10325000380D0A220DF07CFE0A2205460021029854
:103260000DF076FE032D00F28B804D4C54F8256056
:1032700044F8250023686168A268C3F500735B1AEF
:103280009B1A002BC0F28280024629464848DFF88C
:1032900038910CF0D5FC4FF0000804F1100701251F
:1032A000A34654F8046B304609F01CFC02460B465A
:1032B0004046494609F0A6FD3E4B03EB850A09F05E
:1032C000A9FE314600EE100A50460AF0DBFCDBF89E
:1032D0000030A7421D44E3D112E79DF81130712B55
:1032E0007FF473AF08A8FFF78BFB01E79DF812305E
:1032F000612B7FF405AF08A80BF06CFEF0283FD8D7
:10330000274BD3F8C030C0B21870F9E602A91022DA
:1033100008A80DF01DFEB0F5803F044613D202A9A7
:10332000102202980DF014FE014605462046FDF7D6
:1033300005FA01280CD003281BD121461E480CF0A9
:103340007FFC0420D4E621461C480CF079FCBEE644
:1033500021461B480CF074FC0220C9E603EB8400F4
:1033600080ED040A80ED060A80ED080A80ED0A0A65
:103370005AE72246294613480CF062FC0020B7E6C3
:103380006FF00100B4E66FF00200B1E644F825608A
:103390006FF00200ACE600BF40420020F47001086C
:1033A000000000200871010890700108EC6F01080E
:1033B00020700108F8090020A47001083C70010881
:1033C00060700108D47001080000F03F08B5044C9B
:1033D0002046202102F0F0F9642001F0F1FAF7E72D
:1033E0000000024070B5214C94F8C43006460D46EA
:1033F00033B9012001F0E4FA94F8C430002BF8D07E
:1034000000231B4884F8C43001F060FE2B46194AA3
:1034100019491A4802F09AFE28BB31462B46154A34
:10342000174802F093FEF0B92B46124A1549164888
:1034300002F08CFEB8B9154B1B68DA6842F4807252
:10344000DA60DA6842F40072DA60DA68A0F5803097
:1034500042F480625121DA60186159621A6842F0C0
:1034600001021A6070BDFFF7B1FF00BF000000202D
:10347000D84C002014080240C80000204814002046
:10348000BC15002000120020A81400200815002000
:103490002DE9F04FDFF84881DFF848A1464A474D53
:1034A000474E484B484C4948C8F87C284FF06411B7
:1034B0004FF00112464FC8F81C2808F60C0C2DEDF1
:1034C0000A8BC8F82C28C8F82028C8F83028C8F873
:1034D0002428C8F83428C8F82828C8F83828C8F894
:1034E0003C38C8F84C38C8F84038C8F85038C8F8E4
:1034F0004438C8F85438C8F84838C8F85838C5F8B7
:1035000030C1C8F80C48C8F81048C8F81448C8F8C2
:103510001848C8F85C08C8F86008C8F86408C8F813
:103520006808C8F86C18C8F87018C8F87418C8F893
:1035300078183760DAF8C030DAF8CC201B789FEDC5
:1035400025CADFED25AADFED259A9DB0DBB20392F7
:1035500004930DF16C0BDAF8D0301B7803F0FF0206
:103560004BB1C82001F02CFADAF8D0301B7803F008
:10357000FF02002BF5D1DAF8B030C8F8002818881F
:1035800080B201F01DFA049BDAF8B820F02B98BF46
:1035900003EB4303117894BFDB004FF4B4539BB2A9
:1035A0000129059320D01378022B00F0BD810599E5
:1035B0000398FFF717FFCEE705E800081013002077
:1035C0004042002020032003701770172C012C01AB
:1035D000D11C0008DB0FC940920A064000007F435F
:1035E000F809002000000020B8F85C38B8F832284C
:1035F000B8F84258B8F83448B8F84408DAF8CC605B
:10360000039606EE903AF8EE666AC34BD8F87C78DB
:10361000D3ED004AB8F82238CCEE267A05EE103AFF
:10362000BD4B93ED016AB8F8243807EE103AB8F8AC
:103630001238F8EE476A01EE903A27EE867AB8F82B
:10364000143867EEA44A27EE267AB8EE455A06EEFD
:10365000903A24EE856AF8EE611AF8EE664A86EE34
:10366000215AD8F880380133C8F88038B8F84C3877
:10367000C7EE246A03EE102AA84A92ED002AD2ED82
:10368000042AA74AD2ED033A92ED044AA24A07EE71
:10369000105AD2ED025ADAF8D420B8EE433AB8EE16
:1036A000476A1278DAF8C020A3EE026A1178DAF8D5
:1036B000BC2007EE104AF8EE474A07EE100A01F068
:1036C000FF0074EE666A8DED176A049033EEC56AEA
:1036D0009348128880ED036A0AEE103AB8EE477AF2
:1036E000B8F86C38C0ED046AB8F82608A4EEA27ADF
:1036F00092B206EE100A88488DED187AD0ED036A72
:10370000B8F8280807EE100A844890ED083AD0ED82
:103710000C3A8348D0ED054A90ED065AB8F81608E1
:1037200067EEA55A04EE100AB8EE466AB8F8180813
:1037300025EE866A67EEA66AB8EE477A05EE900A2D
:1037400066EE877AB8EE444AF8EE655AC6EE046A29
:10375000B8F8360887EEA57A04EE100AB8F84608DD
:1037600006EE100AB8F83808B8EE444A05EE900A9A
:10377000B8EE466AB8F84808A4EE036A07EE900A65
:10378000F8EE655AF8EE677A8DED196AE5EEA37AE0
:1037900006EE103A74EEE66A614BCDED1A7A35EE1C
:1037A000477AB8EE466AC3ED056A83ED067ACCEE39
:1037B00006BAB8EE4AAA00293FF4F9AE07EE902AFD
:1037C0000023B8EE67BA0193DDED017A554DB8EEEE
:1037D000E79A17AE29EE2B9A0CAC95ED000AF6ECA1
:1037E00001CA39EE000AB847A946F5EC017A79EE2C
:1037F000277AF0EE4A8AECEE808A37EEAA0AB847BA
:10380000D9ED007A79EE277AB0EE4A8AACEE808A5A
:1038100037EEEA0AB847B0EE4A7AACEE807A78EE34
:10382000886A76EE876ACBEE267A68EEA76A68EE3B
:10383000278AF4EEE96AF1EE10FA27EE278A61DCB6
:10384000F5EEC06AF1EE10FA5ED416EE900A09F0B9
:103850005BF941EC100B13F047F851EC100B09F039
:10386000B9FBC3B2B4EEE98AF1EE10FA47DCB5EE6B
:10387000C08AF1EE10FA4BD418EE100A029309F048
:1038800043F941EC100B13F02FF851EC100B09F039
:10389000A1FB029B5FFA80F9F4EEE98AF1EE10FADF
:1038A0002BDCF5EEC08AF1EE10FA2FD418EE900A58
:1038B000029309F029F941EC100B13F015F851ECC3
:1038C000100B09F087FB029BC0B2B3456372A07274
:1038D00084F80B9004F103047FF47FAF019B0398FD
:1038E0001A460CA901331C460193FDF7E5FB049B26
:1038F0001A46A2427FF468AF59E6FF20E5E74FF091
:10390000FF09C9E7FF23ADE70023ABE70020DCE7B1
:103910004FF00009C0E700BF2042002044170020FC
:103920007C12002088120020B8F85C38B8F81428FF
:10393000B8F84218B8F83408D8F87C78D44D06EEB8
:10394000903AF8EE666AD34BCCEE267A17AE0DF1BC
:103950003C0906AC93ED005AB8F8223805EE903ACF
:10396000CC4B93ED016AB8F8243827EE855A07EE60
:10397000103AF8EE655AB8F81238F8EE476A27EEB2
:10398000867A25EE256A05EE903A02EE102AB8EE08
:10399000655A27EE267AC6EE055AB8F83228DAF8C4
:1039A000BC30B8EE422A03EE102AC7EE026ABA4AC9
:1039B000D2ED042AD2ED001AB84A07EE101A92EDA1
:1039C000034AD2ED044ADAF8D420B8F85418127831
:1039D000DAF8C020B8EE433AB8EE476A12781B888E
:1039E000A3EE216AD2B2049203EE900AB8F852080C
:1039F000B8F844288DED0F6A05EE100A34EE656ABA
:103A000005EE901A07EE102AD8F88028A34974EE24
:103A1000E66AB8EE455AF8EE655A501CC8F88008B8
:103A200081ED036AC1ED046A8DED175ACDED185A88
:103A3000B8F86C18B8F8180803EE101A9549F8EEA3
:103A4000633AD1ED025AB8F82618B8EE477A06EE76
:103A5000101AA3EEA27A8F49D1ED036AB8F828189C
:103A60008DED107A07EE101A8B49D1ED082AD1EDB1
:103A70000C3A8A4991ED065AD1ED054AB8F8161864
:103A800067EEA55A67EEA66AB8EE477A07EE901A77
:103A9000B8EE466A02EE100A25EE866AB8EE422AB1
:103AA000F8EE675A66EE877AB8F8361887EE827AAB
:103AB0009BB2B8EE433AC6EE256A8CEE032A05EEB9
:103AC000901AB8F8461806EE101AF8EE655AB8F8CB
:103AD0003818B8EE466A04EE101AA5EEA26AB8F8D5
:103AE000481807EE901AB8F856188DED116A05EED1
:103AF000901A06EE102AB8EE444AF8EE677AB8F843
:103B00005818B8EEC6AAE4EE237A06EE101A35EE7F
:103B1000477A05EE103A74EEE66AF8EE655AB8EEAA
:103B2000466AA5F10C03F8EE45BA2AEE02AAC5EDE5
:103B3000026A83ED067ACDED127ACDED195A8DED3C
:103B40001A6A95ED000AB6EC018AB9EC01BA3AEEB0
:103B5000000AB8470195F5EC017A7AEE277AB0EEC3
:103B6000489AABEE009A37EEAA0AB847019BD3ED0C
:103B7000007A7AEE277AF0EE488AEBEE008A37EE8A
:103B8000EA0AB847ABEE008A39EE287A37EE087AAF
:103B9000CBEE877A29EE279A68EEA78AB4EEE99AE7
:103BA000F1EE10FA28EE278A6ADCB5EEC09AF1EE43
:103BB00010FA67D419EE100A08F0A6FF41EC100BBA
:103BC00012F092FE51EC100B09F004FAC2B2B4EEFE
:103BD000E98AF1EE10FA51DCB5EEC08AF1EE10FA86
:103BE00054D418EE100A019208F08EFF41EC100B2D
:103BF00012F07AFE51EC100B09F0ECF9019AC3B205
:103C0000F4EEE98AF1EE10FA36DCF5EEC08AF1EE58
:103C100010FA39D418EE900A0292019308F074FF5A
:103C200041EC100B12F060FE51EC100B09F0D2F9D0
:103C3000019B029AC0B25E456272A072E37204F107
:103C400003047FF47EAF039C4FF0FF3206A92046A9
:103C5000FDF732FA049B06A95A1E2046FDF72CFAFE
:103C6000DAF8CC30A4F118029A4298BFDAF8D830CA
:103C7000039298BF03939AE4FF20DCE7FF23BFE79A
:103C8000FF22A4E70022A2E70020D4E70023B7E741
:103C90008812002020420020441700207C120020BF
:103CA000294B2A48D3F8B41070B54FF4007201F0D4
:103CB00081F9002846D1264B1A6800E00130536A8A
:103CC0004F2BFBD91328F9DD136823F00103136090
:103CD000116A41F21113194208D1116A40F24443AA
:103CE000194203D1136823F001031360194D1A4CD4
:103CF0001A491B481B4B00681B6800266E6125682B
:103D00000C68296821F001012960216821F0010176
:103D10002160016821F001010160D16821F4807106
:103D2000D160D16821F40071D160D16821F4806143
:103D3000D160DA6842F00102DA601A6842F00102EA
:103D40001A6070BDFFF742FB00000020D84C002035
:103D50000815002000080240A81400204814002084
:103D6000BC15002080150020F0B595B00022284B2E
:103D70000192186C274940F0805018641B6C03F0C6
:103D800080530193019B02920B6823F4404343F458
:103D900000430B600B680F9203F44043029302242C
:103DA000102301264FF4A8710425072208A8029FBA
:103DB00008940E940B960C931093119112951392F4
:103DC00007F020FF08BB034621464FF480520F2620
:103DD00003A80494059307930396069208F030F91C
:103DE000044690B908F0E4F90B4BA3FB00308009BE
:103DF00007F040FE284607F0F1FE224621464FF02C
:103E0000FF3007F0D5FD15B0F0BDFFF7DFFA00BFBA
:103E10000038024000700040D34D621008B5FFF733
:103E200037FB00BF08B5042007F0B0FD00220721D2
:103E3000262007F0BDFD262007F0F0FD0122072116
:103E4000472007F0B5FD472007F0E8FD00220121DB
:103E50000F2007F0ADFD0F2007F0E0FD0122114615
:103E6000242007F0A5FD242007F0D8FD00221146EC
:103E7000392007F09DFD392007F0D0FD00221146C2
:103E8000442007F095FD442007F0C8FD01220021E1
:103E90003A2007F08DFD3A2007F0C0FD00221146C0
:103EA0001C2007F085FD1C2007F0B8FD38200022FB
:103EB000022107F07DFD3820BDE8084007F0AEBDC7
:103EC00008B500F06FFDBDE8084007F095BE00BFE3
:103ED000024B00221A60FFF779BA00BF04010020EC
:103EE000024B01221A60FFF771BA00BF04010020E3
:103EF000024B03221A60FFF769BA00BF04010020D9
:103F0000024B04221A60FFF761BA00BF04010020CF
:103F1000024B05221A60FFF759BA00BF04010020C6
:103F2000024B06221A60FFF751BA00BF04010020BD
:103F3000024B07221A60FFF749BA00BF04010020B4
:103F4000024B08221A60FFF741BA00BF04010020AB
:103F500080B500F114010EC988B0D0F800E04768C0
:103F60008668C5680469CDF800E00197029603955C
:103F70000494059106920793FEE700BF014802F002
:103F80001FBA00BFBC150020014802F019BA00BFDB
:103F9000A8140020014802F013BA00BF4814002002
:103FA000014803F067BE00BF08150020014805F076
:103FB000A3BE00BF944B0020014805F09DBE00BF8A
:103FC000544B0020014803F055BE00BF801500206F
:103FD000014BD86C02F0F4B91C160020014B986C10
:103FE00002F0EEB91C160020014807F033B800BFFC
:103FF0001C160020014802F0E3B900BF204D00204C
:10400000014801F0D5B800BFD84C002082B00C4B5D
:10401000002100911A6B42F400121A631A6B02F429
:1040200000120092009A01911A6B42F480021A6306
:104030001B6B03F480030193019B02B0704700BF28
:1040400000380240084B094A196812680329C4BFA6
:1040500001F1FF3119601068054B0122984214BF2D
:104060004720262007F0A4BC08010020D44C0020E3
:1040700000440040084B094A196812680629DCBF51
:10408000013119601068064B0122984214BF472085
:10409000262007F08DBC00BF08010020D44C002072
:1040A00000440040002A2DE9F84F264D3EDDDFF8A0
:1040B000A0806B68DFF890B00C468F18A8F5807A66
:1040C0004FF0000901E0A7420DD014F8012B1A703F
:1040D0006B68013343456B60F5D3AE689E1B09D115
:1040E000B144A742F1D1AC681C1B10D109EB04000C
:1040F000BDE8F88F4FF47A73B2B25146DBF8000096
:1041000005F012FBB0B9AB686B60B144E9E70E4B48
:104110000E491868A2B24FF47A7305F005FB70B926
:10412000AB686B6009EB0400BDE8F88F4FF0000945
:104130006B68D8E74FF0FF366B68B144D1E74FF0BA
:10414000FF34D3E708010020D44C0020D44B0020DA
:10415000D44C002038B50D4B1B68834211D10C4D57
:104160006B68AC681C1B01D1204638BD4FF47A73D4
:10417000A2B2084905F0D8FA18B9AB686B602046BE
:1041800038BD4FF0FF34204638BD00BFD44C00206E
:1041900008010020D44B002070B5144B144C154D71
:1041A000216800221A602A68134B06290646106807
:1041B000DCBF013121600122984214BF4720262034
:1041C00007F0F6FB2B689E4203D16268A368D21AFF
:1041D00000D170BD92B230464FF47A73074905F0B2
:1041E000A3FA0028F5D1A368636070BDA012002077
:1041F00008010020D44C002000440040D44B002093
:10420000F8B50378E3B10446124F134E134D04E0A2
:104210000BF016FD14F8013F93B10A2B11D00D2BB2
:104220000F48F5D032681A441946527812F0200F20
:1042300028460AD00BF004FD14F8013F002BECD106
:10424000F8BD38460BF0FCFCE4E718460BF010FD17
:10425000E0E700BF1C71010854050020247101082B
:1042600020710108F8B5A04DEA682969531AFE2BA0
:1042700009DC3BB112F8013C0D2B31D07F2B74D0FF
:104280000A2B2ED0F8BD994C9948E960002384F898
:10429000FF300BF0D5FC2378DBB1964F964E974D4F
:1042A00004E00BF0CDFC14F8013F93B10A2B45D08C
:1042B0000D2B9348F5D032681A441946527812F003
:1042C000200F284649D00BF0BBFC14F8013F002B0F
:1042D000ECD18C480BF008FDBDE8F840FEF780BE3D
:1042E000013A00231370814C2B698748EB600BF077
:1042F000A7FC2378A3B17F4F7F4E804D07E00D2BA5
:104300007F481FD10BF09CFC14F8013F43B10A2BEE
:10431000F5D138460BF094FC14F8013F002BF6D190
:1043200078480BF0E1FC7148FEF790FE10B1774839
:104330000BF0DAFCBDE8F840FEF752BE38460BF051
:104340007FFCB0E732681A441946527812F0200F09
:10435000284606D00BF074FCD6E718460BF088FC14
:10436000A1E718460BF084FCCEE76B68684C1B2273
:104370001A706B680133A3426B6080F092805B22FD
:104380001A706B680133A3426B6080F09C804422FA
:104390001A706B680133A3426B6072D21B221A70D1
:1043A0006B680133A3426B605BD25B221A706B684F
:1043B0000133A3426B6044D233221A706B6801331D
:1043C000A3426B602DD27E221A706A680132A2422B
:1043D0006A6016D2AB68D21A06D1EB680022991E29
:1043E000E96003F8022CF8BD4A4B4B49186892B2B9
:1043F0004FF47A7305F098F90028EED1AB686B6042
:10440000EBE7AB68D21AE8D0424B4349186892B246
:104410004FF47A7305F088F900287FD1AA686A60A2
:10442000D8E7AA689A1ACED03A4B3B49186892B29C
:104430004FF47A7305F078F9002871D1AB686B609E
:10444000C1E7AA689A1AB7D0324B3349186892B2BA
:104450004FF47A7305F068F9002863D1AB686B609C
:10446000AAE7AA689A1AA0D02A4B2B49186892B2D8
:104470004FF47A7305F058F9002855D1AB686B609A
:1044800093E7AA689A1A89D0224B2349186892B2F6
:104490004FF47A7305F048F9002849D1AB686B6096
:1044A0007CE7AA689A1A3FF46AAF1A4B92B218686E
:1044B000A4F580714FF47A7305F036F9002835D1F0
:1044C000AB686B605BE7AA689A1A3FF460AF114B68
:1044D0001149186892B24FF47A7305F025F948BB78
:1044E000AB686B6053E700BF08010020544A00200E
:1044F0002C7101081C710108540500202471010869
:1045000020710108407101084471010858710108C7
:10451000D44C0020D44C0020D44B00206A6859E7CA
:104520006B6850E76B6847E76B683EE76B6826E7A8
:104530006B6833E76B682AE770B51D4B1D4EDA6870
:10454000317911701C49DA68096801320446DA6071
:10455000A9B91A4D2C6001233360194DFFF782FE73
:1045600001E000F02DFA01222946204605F0FEF96F
:1045700002284FF01400F4D00023336070BD196896
:104580000E4D03292A68C4BF01F1FF31196010687C
:104590000C4B0122984214BF4720262007F008FA4E
:1045A000642301220649204605F0BEF8D2E700BF89
:1045B00008010020A0120020FC000020D44C0020A4
:1045C000A41200200044004010B5124C124B23608E
:1045D0004FF4E13100230C22204661606261A36048
:1045E000E3602361A361E36104F0A4FF08B1FEF777
:1045F000EDFE22680949D3680C6043F06003D36084
:104600000748082200210BF01BFBBDE81040FEF715
:10461000E7BC00BF944B002000440040D44C002075
:1046200074710108F0B5214A0368934289B020D023
:104630001F4A934201D009B0F0BD00211D4B0291E9
:104640005A6C1D4842F020025A645B6C059103F0DD
:1046500020030293012208234FF4C055022403A92A
:10466000029E039504940692079300F01DFF09B083
:10467000F0BD002302F5FA320193116C41F40031D0
:104680001164126C0593044602F400320C26019268
:1046900009480693072202250DEB0601019F0396A8
:1046A0000495079200F000FF2368C1E70044004032
:1046B00000140140003802400000024010B5124CC6
:1046C000124B23604FF4E13100230C22204661603D
:1046D0006261A360E3602361A361E36104F02AFFE8
:1046E00008B1FEF773FE22680949D3680C6043F0F5
:1046F0006003D3600748082200210BF0A1FABDE84F
:104700001040FEF76DBC00BF544B00200014014068
:10471000D44C00207471010810B5144B144A1A606F
:104720000121002284B04FF4803418465C609A6006
:104730001A611A62DA62DA609961D96119635961A2
:1047400000F0BAF970B9042401220723694607482A
:1047500000940192029300F0CDFD08B1FEF736FE01
:1047600004B010BDFEF732FEEDE700BFD84C0020CC
:10477000002001401F4B02689A4200D07047F0B5FC
:1047800087B0002603F58C3300965A6C1A4D42F41C
:1047900080725A645B6C039603F48073009310225A
:1047A000032301A904461548009F019202934FF488
:1047B000806700F079FEDFF848E06E604FF400613A
:1047C0004FF400524FF480732846AE60EE602E62C4
:1047D0006E62C5F800E02F616961AA61EB6101F0CA
:1047E000B5FB18B9A563AC6307B0F0BDFEF7EEFDED
:1047F000F8E700BF00200140204D002000000240EB
:10480000106402400A4B02689A4200D07047094A7D
:1048100010B5536C044623F4807307485364102189
:1048200000F030FFA06BBDE8104001F027BC00BFD6
:104830000020014000380240000002401049114BA6
:10484000D1F8882042F4700210B4C1F888201A68A8
:104850000D4C002042F001021A6098601A6822F0A4
:10486000847222F480321A605C601A684FF000642F
:1048700022F480221A60D8608C605DF8044B704787
:1048800000ED00E00038024010300024164A936822
:1048900003F00C03042B24D0082B0AD0134B124A2C
:1048A000134892681349C2F30312825CD3400B6031
:1048B00070475068516852684302C2F3881201F091
:1048C0003F014CBF0C4B094BB3FBF1F303FB02F36D
:1048D000054A5268C2F3014201325200B3FBF2F3BF
:1048E000DDE7054BDBE700BF003802400024F400A1
:1048F000246E01081C01002040787D01D4C4040806
:1049000000000020EC090020F0090020A84D002044
:10491000704700BF704700BF10B5094B4FF0FF3222
:1049200000241A621C625A625C621A611C615A613C
:104930005C619A619C61FFF7EDFF204610BD00BFEE
:1049400000380240084B094A1B6810B5A2FB03233C
:104950000446980907F08EF8214600224FF0FF30F8
:1049600007F026F8002010BD1C010020D34D621076
:1049700008B50B4B1A6842F400721A601A6842F4C8
:1049800080621A601A6842F480721A60032006F08E
:10499000FDFF0020FFF7D6FFFBF746FC002008BD17
:1049A000003C0240024A136801331360704700BFA5
:1049B000804D0020014B1868704700BF804D0020DB
:1049C00010B582B00190FFF7F5FF0446FFF7F2FF44
:1049D000019B001B9842F9D302B010BD024A136834
:1049E00023F002031360704710E000E0024A1368EE
:1049F00043F002031360704710E000E00048704786
:104A000000000501014B1868000C7047002004E00D
:104A1000024B1868C0F30B00704700BF002004E091
:104A2000024A536843F0010353607047002004E0DA
:104A3000024A536823F0010353607047002004E0EA
:104A4000024A536843F0020353607047002004E0B9
:104A5000024A536823F0020353607047002004E0C9
:104A6000024A536843F0040353607047002004E097
:104A7000024A536823F0040353607047002004E0A7
:104A8000012191FAA1F2034BB2FA82F213449B0086
:104A90001960704700C18910012292FAA2F2044BFA
:104AA000B2FA82F213449B0000221A60704700BFE2
:104AB00000C18910704700BF002800F0AA80F8B537
:104AC000036C04463BB1236CDB060CD500230120AC
:104AD00084F83C30F8BD436480F83C30FFF74AFE70
:104AE000236CDB06F2D4226C4B4923684B4D22F435
:104AF000885222F0020242F0020222644A6822F442
:104B000040324A604A68606802434A6059682069D6
:104B1000D4F808E0E768A26A21F4807159605E6801
:104B200046EA00265E605E6826F040765E60586861
:104B300040EA0E005860986820F400609860996818
:104B4000AA4241EA0701996046D09968E06A21F0DB
:104B50007061996099680A439A60996821F04051A0
:104B600099609A6802439A609968A569206A21F061
:104B7000020199609A6842EA45029A605A680028E0
:104B800033D122F400625A60DA6AE569276B6669FC
:104B900022F47002DA62D86A013D40EA0550D86218
:104BA000986820F400709860996841EA47219960FC
:104BB000996821F4806199609A68002042EA86220F
:104BC0009A606064236C23F0030343F001032364C1
:104BD000002384F83C30F8BD9A6822F070629A6035
:104BE0009A6822F040529A60BEE742F400625A602E
:104BF0005A6822F460425A604FF4604191FAA1F180
:104C0000626A5868B1FA81F1013A8A4002435A60F7
:104C1000BAE70120704700BF002301400100000FE8
:104C2000704700BFD0B1026C38B542F00202036891
:104C300002649A6822F001029A609D6815F00105ED
:104C4000044603D0002084F83C0038BDFFF7DAFDAD
:104C50000020656484F83C00256438BD012070475D
:104C600010B490F83C3083B00022012B019255D053
:104C7000026893680121DB0780F83C1014D42A4BAA
:104C80002A4C1B689168A4FB03439B0C03EB430372
:104C900041F0010191600193019B2BB1019B013B0C
:104CA0000193019B002BF9D19368DC0731D5036C8C
:104CB00023F4E06323F0010343F480730364536837
:104CC000590505D5036C23F4405343F48053036422
:104CD000036C13F480531CBF436C23F0060343643E
:104CE00000246FF02201124B80F83C4011605B6899
:104CF000DB060BD1906810F040500AD1936843F066
:104D00008043936003B05DF8044B7047094B9A42AF
:104D1000F0D0002003B05DF8044B7047022003B0D0
:104D20005DF8044B704700BF1C01002083DE1B436D
:104D3000002301400020014090F83C30012B16D0A8
:104D400003689A68012122F0010280F83C109A6001
:104D50009B68DB0706D4036C23F4885323F001031C
:104D60000B430364002380F83C3018467047022050
:104D7000704700BF03689A68520502D59B68DB053F
:104D80003ED470B50C460546FFF714FE06462A6869
:104D900001E0601C25D113689907FAD56FF0120362
:104DA00013602B6C43F400732B64936813F0405F23
:104DB00015D1AB699BB9D36A13F4700F0CD12B6C6E
:104DC00023F480732B64286C10F4805007D12B6C73
:104DD00043F001032B6470BD93685B05EFD50020A1
:104DE00070BD24B1FFF7E6FD801B8442CFD22B6C4F
:104DF000002243F004032B6485F83C20032070BD9F
:104E0000036C002243F02003036480F83C2001205F
:104E1000704700BF2DE9F04107460D461646FFF7E3
:104E2000C9FD80463C6801E0731C13D1236835EA54
:104E30000303F9D1012D3B6C1DD043F480633B6427
:104E40007B6C6FF0200243F002037B640020226041
:104E5000BDE8F0812EB1FFF7ADFDA0EB0800864262
:104E6000E0D23B6C002243F004033B6487F83C2013
:104E70000320BDE8F0816FF0010243F480333B640E
:104E800000202260BDE8F08110B490F83C3083B07F
:104E90000022012B01925BD0026893680121DB079D
:104EA00080F83C1014D42D4B2D4C1B689168A4FB4A
:104EB00003439B0C03EB430341F001019160019319
:104EC000019B2BB1019B013B0193019B002BF9D16D
:104ED0009368DC0737D5036C23F4E06323F0010308
:104EE00043F4807303645368590505D5036C23F4B8
:104EF000405343F480530364036C13F480531CBF8A
:104F0000436C23F00603436400216FF0220380F812
:104F10003C1013605368134943F0806343F020034F
:104F200053604B68DB060BD1906810F040500AD1FB
:104F3000936843F08043936003B05DF8044B70477F
:104F4000094B9A42F0D0002003B05DF8044B704743
:104F5000022003B05DF8044B704700BF1C01002025
:104F600083DE1B43002301400020014090F83C30C9
:104F7000012B1CD003689A68012122F0010280F8FD
:104F80003C109A609A68D2070CD45A6822F080626A
:104F900022F020025A60036C23F4885323F00103AB
:104FA0000B430364002380F83C301846704702200E
:104FB000704700BFF0B590F83C3083B00024012B5F
:104FC000019469D00568AB680124DF0780F83C4094
:104FD00014D4374B374E1C68AB68A6FB0464A40C92
:104FE00043F0010304EB4404AB600194019B2BB13B
:104FF000019C013C0194019C002CF9D1AB68DE07B7
:1050000047D5046C24F4E06424F0010444F4807473
:1050100004646B685C0505D5036C23F4405343F4CA
:1050200080530364036C244C244F13F480531CBF3F
:10503000436C23F0060343640646806B13464FF02F
:10504000000E1F4A86F83CE0C2636FF02202C4647F
:1050500007642A606C6844F080646C60AC6844F457
:1050600080740A46AC6005F14C0101F06FF8154BF5
:105070005B68DB0609D13368986810F0405008D1AE
:105080009A6842F080429A6004E032680E4B9A427D
:1050900005D0002003B0F0BD022003B0F0BD906841
:1050A00010F04050F5D1936843F080439360F1E7EE
:1050B0001C01002083DE1B43DD5200089D510008C7
:1050C00039510008002301400020014090F83C3095
:1050D000012B11D003689A68012122F0010210B55A
:1050E00080F83C109A609A68D207044606D50023DF
:1050F000002084F83C3010BD022070479A68806B15
:1051000022F480729A6001F063F82268536823F0F9
:1051100080635360236C23F4885323F0010343F02E
:1051200001032364002384F83C3010BD0368D86C6D
:10513000704700BF704700BF836B1A6C12F0500FAE
:1051400022D11A6C196842F4007210B51A648A6888
:1051500012F0405F14D19A6992B9CA6A12F4700FC2
:1051600015D14A6822F020024A601A6C22F480723B
:105170001A641A6CD20403D41A6C42F001021A6445
:105180001846FDF7D9F910BD9B6BDB6C18478A6890
:105190005005F5D4E5E700BF704700BF08B5806B48
:1051A000FFF7FAFF08BD00BF704700BF704700BFA0
:1051B00038B503681A6859680446900701D58A060D
:1051C00053D41A685968520701D50D061BD41A68C2
:1051D0005968D00701D54A0606D41A68596890065E
:1051E00001D54A0169D438BD1A68D507F5D5236CB5
:1051F00043F4803323642046FFF7D6FF23686FF023
:1052000001021A60E9E7226CD00603D4226C42F452
:10521000005222649A6812F4401F1ED19A6B12F455
:10522000401F02D09A68510517D45A68520514D409
:105230009A6812F0405F10D1A26972B95A6822F0E0
:1052400080025A60236C23F480532364236CDD05B1
:1052500003D4236C43F001032364204600F06EFD69
:1052600023686FF00C021A60B1E7226CD50603D4F4
:10527000226C42F4007222649A6812F0405F14D1EA
:10528000A26992B9DA6A12F4700F23D15A6822F037
:1052900020025A60236C23F480732364236CD904A6
:1052A00003D4236C43F0010323642046FDF744F943
:1052B00023686FF012021A6083E7626C6FF02005BA
:1052C00042F00202626420461D60FFF76FFF236810
:1052D0001D6038BD9A685005E7D4D7E7806B08B5E4
:1052E00040230364436C43F004034364FFF75EFF11
:1052F00008BD00BFF0B590F83C3083B00022012B10
:10530000019257D00D680123092D2E4680F83C30BC
:1053100029D804688B68226905EB450E072707FA30
:105320000EF722EA07022261226903FA0EF3134301
:1053300023614B68062B2BD803EB8303626B053B81
:105340001F21994022EA01026263626B06FA03F3AD
:1053500013436363364B9C423ED0002380F83C30BD
:10536000184603B0F0BD04688B68E768AEB206EB80
:1053700046021E3A4FF0070E0EFA02FE27EA0E070B
:10538000E760E76893403B43E3604B68062BD3D963
:105390000C2B12D803EB8303A3F123011F22236BF1
:1053A0008A4023EA02032363236B06FA01F11943BF
:1053B0002163CFE7022003B0F0BD03EB8302413A43
:1053C000E36A1F21914023EA0103E362E36A06FADC
:1053D00002F11943E162BDE7122D23D0A5F11003BC
:1053E000012BBAD8134A5368102D43F400035360BD
:1053F000B3D1114B02F1467202F52E321B6802F254
:105400008332A2FB03239B0C03EB83035B0001931A
:10541000019B002BA1D0019B013B0193019B002B21
:10542000F9D19AE7034A536843F48003536094E741
:1054300000200140002301401C01002090F83C3076
:10544000012B2AD00B690246012083421368F0B475
:1054500082F83C0058680CBF40F0400020F040004B
:10546000586058680F688C894E688D6820F4400039
:1054700020F4007058605968394359605E629D623B
:10548000596821F01F0159605968002521432846B9
:10549000596082F83C50F0BC70470220704700BF52
:1054A000006C7047406C70472DE9F04FD1F800C098
:1054B000DFF8CCE183B000254FF0010803E00135AF
:1054C000102D00F0878008FA05F303EA0C029342DE
:1054D000F5D14E6826F0100ABAF1020F7DD04FEADE
:1054E00045090324D0F800B004FA09F4E44306F0B7
:1054F00003070BEA040B07FA09F70AF1FF3A47EA38
:105500000B07BAF1010F076040F28E80C7688B6805
:105510003C4003FA09F32343C360F300CFD50023D3
:105520000193524B514C5B6C43F480436364636C56
:1055300025F0030707F1804703F4804307F59C3704
:10554000019305F00303019CD7F808909B000F24FA
:105550009C4029EA040A464CA04278D004F58064B5
:10556000A04276D0434CA04276D0434CA04278D0A3
:10557000424CA0420CBF4FF004094FF0050909FA54
:1055800003F343EA0A03BB60DEF80030D443F703B9
:1055900054BF23401343CEF80030DEF80430B70385
:1055A00054BF23401343CEF80430DEF80830F7022E
:1055B00054BF23401343CEF80830DEF80C30B60257
:1055C00005F1010554BF23401343102DCEF80C30D4
:1055D0007FF479AF03B0BDE8F08F4FEAD50900EB57
:1055E000890905F00704D9F82070A4004FF00F0BCB
:1055F0000BFA04FB27EA0B0A0F6907FA04F444EAE2
:105600000A04C9F820404FEA45090324D0F800A055
:1056100004FA09F4E44306F003070AEA040A07FA65
:1056200009F747EA0A070760876807EA040ACF68AC
:1056300007FA09F747EA0A078760D0F804A0C6F31B
:1056400000172AEA0303AF401F4347605EE70023C9
:1056500097E708FA03F394E74FF0020909FA03F316
:105660008FE74FF0030909FA03F38AE70038024095
:105670000000024000080240000C024000100240FE
:10568000003C01402DE9F04F002383B0DFF80C917E
:10569000DFF80C814FF0010E4FF0030B4FF00F0AB3
:1056A00002E00133102B61D00EFA03F232EA01045A
:1056B000F7D15C0005680BFA04F4E443DE082540EA
:1056C00000EB8606056003F00705376AAD000AFAAD
:1056D00005F527EA0505356285682540856045683A
:1056E000D24315404560C66823F0030505F18045A7
:1056F000344005F59C35C46003F00304AE68A40093
:105700000AFA04F73E404845019632D01F4EB04297
:1057100031D01F4EB04231D01E4EB04233D01E4E5B
:10572000B0420CBF4FF0040C4FF0050C0CFA04F41F
:10573000019EA642B5D1AC6824EA0707AF60D8F84D
:1057400000401440C8F80040D8F804401440C8F89D
:105750000440D8F808401440C8F80840D8F80C4075
:1057600001332240102BC8F80C209DD103B0BDE8B6
:10577000F08F0024DCE70EFA04F4D9E74FF0020CB6
:105780000CFA04F4D4E70BFA04F4D1E70004024065
:1057900000080240000C02400010024000000240DD
:1057A000003C01400369194214BF012000207047EA
:1057B00002B90904816170474369594041617047EA
:1057C00082B04FF480330193019B0B430193019B03
:1057D000C361C161019BC361C3690193C06980F466
:1057E0008030C0F3004002B0704700BF704700BF78
:1057F000044A5169014200D1704708B55061FFF772
:10580000F5FF08BD003C0140806B40230364436CFE
:1058100043F004034364FFF7C9BC00BF806BFFF78C
:10582000BBBC00BF836B1A6C12F0500F20D11A6CF6
:10583000196842F400721A648A6812F0405F14D149
:105840009A6992B9CA6A12F4700F14D14A6822F0A8
:1058500020024A601A6C22F480721A641A6CD20414
:1058600003D41A6C42F001021A641846FCF764BEB5
:105870009B6BDB6C18478A685005F6D4E6E700BFDF
:1058800010B490F83C3083B00022012B01924CD030
:10589000026893680121DC0780F83C1014D4294B7E
:1058A000294C1B689168A4FB03439B0C03EB430347
:1058B00041F0010191600193019B2BB1019B013BE0
:1058C0000193019B002BF9D19368D90728D5036C6C
:1058D00023F4405323F0010343F480530364036C27
:1058E00013F4807308BF436400246FF00401174B66
:1058F00080F83C4011605B68DB060CD1936850680F
:1059000013F4401F0CD110F4806009D1936843F464
:105910008003936005E00E49906853688A4209D07D
:10592000002003B05DF8044B7047022003B05DF81F
:10593000044B704710F4401FF2D113F48060E5D09F
:10594000EEE700BF1C01002083DE1B430023014063
:105950000020014010B490F83C3083B00022012BAD
:10596000019250D0026893680121DC0780F83C1056
:1059700014D42B4B2B4C1B689168A4FB03439B0C4A
:1059800003EB430341F0010191600193019B2BB1B3
:10599000019B013B0193019B002BF9D19368D9072F
:1059A0002CD5036C23F4405323F0010343F48053BC
:1059B0000364036C13F4807308BF436400216FF029
:1059C000040380F83C1013605368174943F08003C8
:1059D00053604B68DB060CD19368506813F4401F8A
:1059E0000CD110F4806009D1936843F48003936074
:1059F00005E00E49906853688A4209D0002003B040
:105A00005DF8044B7047022003B05DF8044B70470B
:105A100010F4401FF2D113F48060E5D0EEE700BF30
:105A20001C01002083DE1B430023014000200140B5
:105A300090F83C20012A034625D0026C0121D205B2
:105A400080F83C1008D51A6C42F020021A6401203C
:105A5000002283F83C2070470268506810F4806090
:105A6000F1D1916821F001019160926812F0010278
:105A7000EED1196C21F4885121F0010141F00101AE
:105A800010461964E4E70220704700BF70B5054670
:105A90000C46FEF78FFF06462A6801E0631C27D1FB
:105AA00013685807FAD56FF00C0313602B6C43F49E
:105AB00000532B64936813F4401F29D1936B13F4A4
:105AC000401F22D153685B0522D4936813F0405FD6
:105AD0001ED1AB69E3B92B6C23F480532B64286C83
:105AE00010F4807014D12B6C43F001032B6470BD53
:105AF00024B1FEF75FFF801B8442CDD20422002335
