:020000040800F2
:1000000000800120D55B0008315C0008315C0008ED
:10001000315C0008315C0008315C00080000000021
:10002000000000000000000000000000315C00083B
:10003000315C000800000000315C00087D09000808
:10004000315C0008315C0008315C0008315C00085C
:10005000315C0008315C0008315C0008315C00084C
:10006000315C0008315C0008315C0008315C00083C
:10007000315C0008315C0008315C0008315C00082C
:10008000315C0008315C0008315C000800000000B1
:10009000000000000000000000000000315C0008CB
:1000A000315C0008B1090008315C0008315C0008CF
:1000B000315C0008315C0008315C0008315C0008EC
:1000C000315C0008315C0008315C0008315C0008DC
:1000D000315C0008315C0008315C00080000000061
:1000E000315C0008315C0008315C00080000000051
:1000F000000000000000000000000000315C00086B
:1001000000000000315C0008315C0008315C000830
:1001100000000000000000000000000000000000DF
:10012000315C00088D09000899090008315C00085D
:10013000315C00080000000000000000000000002A
:10014000000000000000000000000000315C00081A
:10015000A5090008315C0008315C0008315C00082A
:10016000315C0008315C0008000000000000000065
:10017000000000000000000000000000000000007F
:1001800000000000315C00080000000000000000DA
:04019000315C0008D6
:1001A000174B184A1B68184818490068096810B4AA
:1001B00014681A6822F001021A60226822F0010213
:1001C000226002685DF8044B22F0010202600A68B6
:1001D00022F001020A60DA6822F48072DA60DA68DA
:1001E00022F40072DA60DA6822F48062DA60DA6897
:1001F00042F00102DA601A6842F001021A607047A8
:100200003C0C0020DC0B00207C0B0020780C002034
:1002100000F0A2BA70B5064686B00223002501247C
:100220004FF4407201A90A48029301920395049584
:10023000059402F0A3FE22462946306802F08EFEA5
:1002400022463068042102F089FE06B070BD00BF6E
:100250000000024070B5374C374B236092B000234A
:100260007C222046E2606360A360236102F076FB9B
:10027000002844D112A94FF4805341F8403D2D4845
:1002800002F0B2F800284CD12A4802F09FFB002867
:1002900044D1002306A927480693079302F06CF97E
:1002A000002838D10023694622480093019305F0C5
:1002B000EFFA68BB0023602628251A460BA91D48C3
:1002C0000D930F93109311930B960C9502F05EFD16
:1002D000D8B950230BA9042216480C9302F056FDFE
:1002E00080B902220021192003F002F8192003F03E
:1002F00037F82268104B9A4216D012B070BD00F049
:100300002BFAB7E700F028FAEBE700F025FAE0E770
:1003100000F022FACEE700F01FFAC3E700F01CFA63
:10032000B7E700F019FAAFE70248FFF773FF12B022
:1003300070BD00BF3C0C0020000001400368134A60
:10034000934200D07047124A1178262907D81378B3
:100350000133DBB213700F4B01221A70704700217A
:100360001170196A41F211120A4042B9196A40F239
:1003700044420A401AB91A6822F001021A60034A7C
:10038000D36823F00103D360E5E700BF000001401C
:10039000540B0020000000204F4B02689A4200D00E
:1003A0007047F0B583B000234C4A0193516C4C4D1B
:1003B000DFF844C1EB6041F001015164526C2B61E4
:1003C00002F001020446019240204FF0406E4FF4CB
:1003D00080474FF40036019A6B61EB612B63042177
:1003E00003224FF40003A8602846C5F800C0C5F8F2
:1003F00004E0AF612E626962AA62EB6203F0A2F8C8
:10040000002865D1374EE5614FF0406140224FF43E
:1004100080604FF48043DFF8E4E0AC634FF40037D2
:1004200004257160B26003214FF400023061B361B2
:1004300030460023C6F800E037627562B162F262AE
:10044000F3607361F361336303F07CF800283CD1FF
:10045000254D264A26624FF040604023B4634FF496
:1004600080474FF4003603212A6068604FF4000291
:10047000AB6028460023AF612E62A962EA62EB609E
:100480002B616B61EB616B622B6303F05BF8C8B9A6
:100490002A68656213681448AC6343F01003136064
:1004A0000021134A03F044FB48B9124A0E480421C4
:1004B00003F03EFB08B100F04FF903B0F0BD00F0CF
:1004C0004BF9F2E700F048F9E2E700F045F9BFE741
:1004D00000F042F996E700BF0000014000380240FA
:1004E0007C0B0020780C0020DC0B002040640240D4
:1004F000A10100081102000888640240286402403B
:10050000024B02689A4200D0704783E60000014027
:100510000B4B02689A4200D070470A4A10B5136C20
:10052000044623F00103006A136403F0A1F8E069B4
:1005300003F09EF8606ABDE8104003F099B800BF70
:10054000000001400038024008B5072002F0BEFE5E
:10055000002211466FF00B0002F0CAFE0022114685
:100560006FF00A0002F0C4FE002211466FF009008D
:1005700002F0BEFE002211466FF0040002F0B8FE49
:10058000002211466FF0030002F0B2FE0022114675
:100590006FF0010002F0ACFE002211464FF0FF3078
:1005A000BDE8084002F0A4BE2DE9F0478AB03A4BFE
:1005B0003A4E3B4D3B4F002401941A6B42F004022B
:1005C0001A631A6B02F004020192019A02941A6BE8
:1005D00042F080021A631A6B02F080020292029AC1
:1005E00003941A6B42F001021A631A6B02F00102C3
:1005F0000392039A04941A6B42F002021A631B6B73
:10060000069703F002030493304605A94FF4005304
:10061000049A05934FF002094FF0FF0A079402F085
:10062000ADFC05A93046112306930794CDF814A01C
:10063000CDF8209002F0A2FC07230C2205A9284641
:100640000993059220274FF00108CDF818900794E0
:10065000089402F093FC05A92846CDF82090059750
:10066000CDF81880CDF81C8002F088FC424639464F
:10067000284602F0FFFD642000F0A8FB2246394620
:10068000284602F0F7FD22465146304602F0F2FDC0
:100690000AB0BDE8F08700BF003802400008024001
:1006A00000000240000012102DE9F04102EB42026E
:1006B0000124D2008C4002F1080702F11006E44345
:1006C00007440644C3F3072C10445FFA83FEE2B2EA
:1006D00082B0C1F10701C3F3074300240578154038
:1006E00005703D7815403D703578154035700CFA31
:1006F00004F590F8008005F080050D4145EA0805F5
:1007000000F8015B0EFA04F597F8008005F080050B
:100710000D4145EA080507F8015B03FA04F596F870
:10072000008005F080050D41013445EA0805082CDC
:1007300006F8015BD2D102B0BDE8F081034A044B58
:10074000044911604FF4E0221A60704778120020CB
:1007500024ED00E00008024008B52021034802F023
:100760008DFD642000F032FBF7E700BF000002407F
:1007700070B51D4C23780D462BB9012000F026FBE7
:100780002378002BF9D000262B46184A184919481F
:10079000267002F0D5FF28BB2B46144A164917488D
:1007A00002F0CEFFF0B92B46104A1549154802F069
:1007B000C7FFB8B9144B1B68DA6842F48072DA607C
:1007C000DA6842F40072DA60DA68A0F5803042F448
:1007D00080627C21DA60186159621A6842F0010275
:1007E0001A6070BDFFF7B8FF000000201408024037
:1007F000040000207C0B0020D80C0020780C002086
:10080000580B0020DC0B00203C0C0020F0B595B00C
:100810000022284B0192186C274940F08050186440
:100820001B6C03F080530193019B02920B6823F42D
:10083000404343F400430B600B680F9203F44043C2
:1008400002930224102301264FF4A87104250722E5
:1008500008A8029F08940E940B960C931093119184
:100860001295139203F0DEFD08BB034621464FF4B8
:1008700080520F2603A804940593079303960692CB
:1008800003F0F8FF044690B904F0AAF80B4BA3FB61
:100890000030800902F090FD284602F041FE224619
:1008A00021464FF0FF3002F023FD15B0F0BDFFF7F9
:1008B00053FF00BF0038024000700040D34D62106B
:1008C0002DE9F043DFF8AC90DFF8AC80254F83B022
:1008D0000026254A86FB02233344F417C4EB231376
:1008E000C3EB0313B6EB430337D0062B35D02120DF
:1008F00000F06CFA88FB0623C4EBA3144FF41673C4
:1009000003FB146303EB43034B44002433F8082F29
:10091000ADF804209B788DF80630A5B22A46019BDD
:1009200012480021FFF7C0FE01342A46019B0F4800
:100930000121FFF7B9FE3C2CEFD14FF4B4610B4815
:10094000FFF716FF731C87FB0326DA17C2EBA61608
:1009500040F6B83202FB1636BBE72021044802F00D
:100960008DFCC4E7F119760589888888D80C0020A9
:100970000000024000000020B5814E1B08B500F0C9
:1009800017FABDE8084002F0D9BD00BF014802F0E7
:10099000FBBF00BF780C0020014802F0F5BF00BF8C
:1009A000DC0B0020014802F0EFBF00BF7C0B0020F1
:1009B000014801F0AFBE00BF3C0C002000B583B081
:1009C000134B002201921A6B42F480021A631B6BD4
:1009D000012203F48003114601933920019B02F0A8
:1009E00087FC392002F0BCFC01221146442002F0B1
:1009F0007FFC442002F0B4FC012211463A2002F0B0
:100A000077FC3A2002F0ACFC03B05DF804FB00BFB9
:100A1000003802401049114BD1F8882042F470028E
:100A200010B4C1F888201A680D4C002042F0010271
:100A30001A6098601A6822F0847222F480321A6078
:100A40005C601A684FF0006422F480221A60D8605B
:100A50008C605DF8044B704700ED00E00038024008
:100A6000103000241848836803F00C03042B29D0AD
:100A7000082B0AD0154B144A154892681549C2F341
:100A80000312825CD3400B6070474368416813F4E3
:100A9000800F436818BF104801F03F020CBF0B499C
:100AA000B0FBF2F1C3F3881308BFB1FBF2F101FB15
:100AB00003F2054B5B68C3F3014301335B00B2FBF8
:100AC000F3F3D8E7044BD6E7003802400024F400E3
:100AD000505F00081007002040787D018C5F0008FF
:100AE00000000020500B0020540B0020A01200201A
:100AF000134B14481A68002142F0810230B41A6086
:100B000099601A68104C114D22F0A16222F48032D3
:100B10001A6059605A6810435860C3F88410D3F8BB
:100B2000842042F0005242F44052C3F884201A68F4
:100B300022F480221A60D960256030BC704700BF63
:100B40000038024010300004100700200024F40098
:100B5000F0B505460068C20783B00AD4840750D4B4
:100B600010F0080003D04F4B2A7C1A60002003B01D
:100B7000F0BD4D4B4D4C00221A6000F021F90646A5
:100B800004E000F01DF9801B022837D82368474A8B
:100B90001B01F6D447F6C07191FAA1F14FF0E04085
:100BA000B1FA81F190FAA0F06C68AB683E4EB0FAF1
:100BB00080F004FA01F183400B430121C2F8843034
:100BC0003160144600F0FCF8064604E000F0F8F846
:100BD000801B022812D823681F01F7D52868BDE7BB
:100BE0000C4600F0EDF841F288360746236F9B076C
:100BF0003AD400F0E5F8C01BB042F7D9032003B0A7
:100C0000F0BD2A4B2A4C002201921A6C42F080520D
:100C10001A641B6C03F080530193019B236843F417
:100C20008073236000F0CCF8064604E000F0C8F8BA
:100C3000801B0228E2D82368D905F7D51B490B6F22
:100C400013F44072EB6803F4407010D082420ED06F
:100C50000B6F184A23F440730124002014601060C5
:100C60000B670B6FDA07BBD4EB6803F44070B0F589
:100C7000407F0CD00D498A6822F4F8128A600B4933
:100C80000A6FC3F30B0313430B67286868E7074831
:100C9000816823F0704221F4F81122F440720A4373
:100CA0008260ECE7E01147426800474200380240AA
:100CB00000700040400E47420322174B026010B400
:100CC00047F6C071D3F8844091FAA1F147F6C0729B
:100CD000B1FA81F12240CA404260D3F884204FF03B
:100CE000E04191FAA1F1B1FA81F102F0E042CA408B
:100CF000826099681A6F5DF8044B01F4F81102F4F0
:100D000040720A43C260D3F88C3013F0807318BF6E
:100D100001230374704700BF00380240704700BFD2
:100D2000704700BF10B5094B4FF0FF3200241A6224
:100D30001C625A625C621A611C615A615C619A6150
:100D40009C61FFF7EDFF204610BD00BF0038024058
:100D5000084B094A1B6810B5A2FB032304469809F7
:100D600002F02AFB214600224FF0FF3002F0C0FAC9
:100D7000002010BD10070020D34D621008B50B4BAA
:100D80001A6842F400721A601A6842F480621A60AB
:100D90001A6842F480721A60032002F097FA002069
:100DA000FFF7D6FFFFF7D0FB002008BD003C024054
:100DB000024A136801331360704700BF7C120020A1
:100DC000014B1868704700BF7C12002010B582B03C
:100DD0000190FFF7F5FF0446FFF7F2FF019B001BB0
:100DE0009842F9D302B010BD024A136823F00203FF
:100DF0001360704710E000E0024A136843F00203FA
:100E00001360704710E000E00048704700000501E3
:100E1000014B1868000C7047002004E0024B186872
:100E2000C0F30B00704700BF002004E0024A536883
:100E300043F0010353607047002004E0024A536806
:100E400023F0010353607047002004E0024A536816
:100E500043F0020353607047002004E0024A5368E5
:100E600023F0020353607047002004E0024A5368F5
:100E700043F0040353607047002004E0024A5368C3
:100E800023F0040353607047002004E0012191FA2D
:100E9000A1F2034BB2FA82F213449B00196070472F
:100EA00000C18910012292FAA2F2044BB2FA82F236
:100EB00013449B0000221A60704700BF00C18910D4
:100EC000044B1A6A42F080521A621A6A22F0805267
:100ED0001A627047003802404FF4807393FAA3F30C
:100EE000B3FA83F303F1845303F560339B000122CB
:100EF0001A6070474FF4807393FAA3F3B3FA83F345
:100F000003F1845303F560339B0000221A6070479D
:100F100010B41B4C1B4B226822F0E00102680A430C
:100F200022605A6822F480325A601A6822F48032B1
:100F30001A609A6822F480329A60DA6822F4803269
:100F4000DA604268D40303D5196841F4803119602E
:100F5000900304D50B494B6843F480334B60D107B1
:100F600004D508498B6843F480338B60930704D51C
:100F7000044AD36843F48033D3605DF8044B704770
:100F800000700040003C0140102393FAA3F3B3FA31
:100F900083F303F1845303F560339B0001221A604D
:100FA000704700BF102393FAA3F3B3FA83F303F15E
:100FB000845303F560339B0000221A60704700BF22
:100FC000024A536818435060704700BF00700040E9
:100FD000024A536823EA00005060704700700040E6
:100FE000064A1369012923F00403136103D040BFAB
:100FF00020BF20BF704730BF704700BF00ED00E04A
:1010000010B40D4C0D4A236823F0030318432060ED
:101010001369012943F0040313610AD040BF20BFC4
:1010200020BF064A5DF8044B136923F004031361E3
:10103000704730BFF5E700BF0070004000ED00E0F2
:101040000549064A0B6843F002030B60136943F03D
:101050000403136130BF70470070004000ED00E0F2
:10106000704700BF10B5054C6369DB0304D5FFF77B
:10107000F7FF4FF48033636110BD00BF003C0140B7
:10108000024A136943F002031361704700ED00E068
:10109000024A136923F002031361704700ED00E078
:1010A000024A136943F010031361704700ED00E03A
:1010B000024A136923F010031361704700ED00E04A
:1010C000036A8A6823F00103F0B40C680362036AC0
:1010D000104E4768856923F0020325F07305B0427E
:1010E00043EA020345EA040206D049684760826188
:1010F000F0BC416303627047CD684E698C6923F090
:10110000080327F440772B43344323F00403274399
:10111000EBE700BF00000140026A22F48072F0B4E5
:101120008E680C680262036A114D4768C26923F435
:10113000007322F07302A84243EA062342EA040243
:1011400006D049684760C261F0BCC1630362704762
:10115000CE684D698C6927F4405723F4006343EA55
:10116000062347EA051523F4806345EA0417E8E7F8
:1011700000000140F0B4046A8F680E680E4D24F43C
:1011800080540462036A4468C26923F4005322F461
:10119000E642A84243EA073342EA062206D04968FB
:1011A0004460C261F0BC0164036270474D6924F47D
:1011B000804444EA8514F2E7000001400268486870
:1011C000936823F0700330B403430C6823F00703E3
:1011D00023435028936036D024D960280ED070283D
:1011E0000AD1CB688C6890680D69234320F47F4155
:1011F0000B4343EA0523936030BC7047106A8C6848
:101200000D6920F0100010629169136A21F4704199
:1012100023F0A00341EA053143EA0413916130BC95
:10122000136270474028E7D1146A106A0D6920F0F4
:1012300001011162936923F0F00343EA05139361FE
:10124000146230BC7047136A106A8D680C6920F014
:1012500001001062916923F00A0321F0F0012B4391
:1012600041EA0411916130BC13627047704700BFBE
:10127000704700BF0223026810B580F83930116A48
:1012800041F211130B40044643B9116A40F2444342
:101290000B401BB9136823F0010313602046FFF7CE
:1012A00037F9002084F8390084F8380010BD00BFF9
:1012B0000168022210B480F839200A68012403462C
:1012C00022430A60002083F839405DF8044B7047E0
:1012D0000223026880F83930116A41F211130B4081
:1012E00043B9116A40F244430B401BB9136823F021
:1012F00001031360012380F839300020704700BFDC
:101300000368DA6842F00102DA601A6842F001020A
:101310001A600020704700BF0368DA6822F00102FB
:10132000DA60196A41F211120A4042B9196A40F2B0
:1013300044420A401AB91A6822F001021A600020D9
:10134000704700BF70B590F83940E4B2022C21D04C
:1013500090F83940E4B2012C15D004461346C06918
:1013600022680D4E0D4DC663C5642C3202F0E8F9BB
:101370002368DA6842F48072DA601A6842F0010287
:101380001A60002070BD19B1022380F83930E4E7FB
:10139000002AF9D0204670BD5D2600087D2800088F
:1013A0000368D96821F48071D960196A41F2111279
:1013B0000A4042B9196A40F244420A401AB91A680E
:1013C00022F001021A60012380F8393000207047B2
:1013D000704700BF704700BF0223026810B580F855
:1013E0003930116A41F211130B40044643B9116AB6
:1013F00040F244430B401BB9136823F00103136010
:101400002046FFF7E7FF002084F8390084F8380011
:1014100010BD00BF036801201A6A00FA01F110B480
:1014200022EA0102144C1A621A6A1A62A34211D00B
:10143000196A41F211120A4042B9196A40F2444253
:101440000A401AB91A6822F001021A6000205DF8F9
:10145000044B7047196A41F211120A40002AE7D181
:10146000196A40F244420A40002AE1D15A6C22F43F
:1014700000425A64DCE700BF00000140704700BF33
:10148000704700BF0223026810B580F83930116A36
:1014900041F211130B40044643B9116A40F2444330
:1014A0000B401BB9136823F0010313602046FFF7BC
:1014B000E7FF002084F8390084F8380010BD00BF31
:1014C00003680122186A02FA01F120EA010010B44F
:1014D00018621A6A084C1143A342196207D01A68AD
:1014E0005DF8044B42F0010200201A6070475A6C0C
:1014F00042F400425A64F2E700000140FFF7E0BF07
:10150000036830B41A6A184D012404FA01F122EA82
:1015100001021A621A6A1A62AB4213D0196A41F2C6
:1015200011120A4042B9196A40F244420A401AB9FB
:101530001A6822F001021A60012380F8393030BCA9
:1015400000207047196A41F211120A40002AE5D1C1
:10155000196A40F244420A40002ADFD15A6C22F450
:1015600000425A64DAE700BF0000014010B40C29C1
:1015700035D8DFE801F0283434342E3434342234C2
:10158000343407000368DA6842F01002DA60186A3F
:10159000164C012202FA01F120EA01021A621A6ACB
:1015A000A34241EA020119621BD01A685DF8044B9C
:1015B00042F0010200201A6070470368DA6842F0C6
:1015C0000802DA60E3E70368DA6842F00202DA60F0
:1015D000DDE70368DA6842F00402DA60D7E70368FF
:1015E000D5E75A6C42F400425A64DEE7000001403D
:1015F000FFF7BCBF10B40C293DD8DFE801F0363C42
:101600003C3C303C3C3C2A3C3C3C07000368DA68EC
:1016100022F01002DA601A6A204C012000FA01F16F
:1016200022EA010119621A6A1A62A34225D0196AD4
:1016300041F211120A4042B9196A40F244420A408A
:101640001AB91A6822F001021A6000205DF8044BF2
:1016500070470368DA6822F00802DA60DBE70368A3
:10166000DA6822F00402DA60D5E70368DA6822F06B
:101670000202DA60CFE70368CDE7196A41F211127E
:101680000A40002AD3D1196A40F244420A40002A93
:10169000CDD15A6C22F400425A64C8E700000140E0
:1016A000FFF7A8BFF8B590F83940E4B2022C15D086
:1016B00090F83940E4B2012C0CD00D4604460C2DB4
:1016C00065D8DFE805F00D646464426464643164E5
:1016D00064645300002A5CD1002B5AD02046F8BD28
:1016E0002668006A2F49304FC163C764114606F16E
:1016F000340202F025F82368DA6842F40072DA60F6
:10170000186A2A4C012202FA05F120EA01021A6243
:101710001A6AA34241EA020119623ED01A6842F0F5
:1017200001021A600020F8BD2668806A1D491E4F1C
:10173000C163C764114606F13C0202F001F8236858
:10174000DA6842F40062DA60DAE72668406A15492E
:10175000154FC163C764114606F1380201F0F0FF6E
:101760002368DA6842F48062DA60C9E72668C06AF2
:101770000C490D4FC163C764114606F1400201F0E8
:10178000DFFF2368DA6842F48052DA60B8E7036862
:10179000B6E7022480F839408FE75A6C42F40042E1
:1017A0005A64BBE7C52600087D28000800000140F8
:1017B000FFF778BF30B40C293FD8DFE801F0383E9E
:1017C0003E3E323E3E3E2C3E3E3E07000368DA6817
:1017D00022F48052DA601A6A214D012404FA01F1E0
:1017E00022EA010119621A6A1A62AB4227D0196A09
:1017F00041F211120A4042B9196A40F244420A40C9
:101800001AB91A6822F001021A60012380F83930EF
:1018100030BC002070470368DA6822F40062DA60A6
:10182000D9E70368DA6822F48062DA60D3E70368F4
:10183000DA6822F40072DA60CDE70368CBE7196A50
:1018400041F211120A40002AD1D1196A40F24442F1
:101850000A40002ACBD15A6C22F400425A64C6E7EF
:1018600000000140FFF7A6BF704700BF704700BFF0
:101870000223026810B580F83930116A41F2111361
:101880000B40044643B9116A40F244430B401BB974
:10189000136823F0010313602046FFF7E7FF0020E1
:1018A00084F8390084F8380010BD00BF03680122B5
:1018B000186A02FA01F120EA010018621A6A11435B
:1018C00019621A6842F001021A600020704700BFD6
:1018D000036801201A6A00FA01F122EA01021A6281
:1018E0001A6A1A62196A41F211120A4042B9196A57
:1018F00040F244420A401AB91A6822F001021A6002
:10190000002070470C292FD8DFE801F0282E2E2E5A
:10191000222E2E2E1C2E2E2E07000368DA6842F08F
:101920001002DA60186A012202FA01F120EA0102CB
:101930001A621A6A114319621A6842F001021A60A7
:10194000002070470368DA6842F00802DA60E9E7CD
:101950000368DA6842F00402DA60E3E70368DA68F1
:1019600042F00202DA60DDE70368DBE70C2938D8D1
:10197000DFE801F0313737372B373737253737373F
:1019800007000368DA6822F01002DA601A6A0120A0
:1019900000FA01F122EA010119621A6A1A62196A4F
:1019A00041F211120A4042B9196A40F244420A4017
:1019B0001AB91A6822F001021A6000207047036801
:1019C000DA6822F00802DA60E0E70368DA6822F0F9
:1019D0000402DA60DAE70368DA6822F00202DA6009
:1019E000D4E70368D2E700BFF8B590F83940E4B215
:1019F000022C12D090F83940E4B2012C0FD00D46E1
:101A000004460C2D5CD8DFE805F0105B5B5B2E5BB9
:101A10005B5B3D5B5B5B4C001BB12046F8BD002A65
:101A2000FAD0022480F83940E9E72168006A254F9E
:101A3000254EC763C664343101F082FE2068C36856
:101A400043F40073C360026A012303FA05F122EA3A
:101A500001030362036A19430162036843F001034F
:101A600003600020F8BD2168406A164F164EC76318
:101A7000C664383101F064FE2068C36843F48063B3
:101A8000C360E0E72168806A0E4F0F4EC763C664EB
:101A90003C3101F055FE2068C36843F40063C36025
:101AA000D1E72168C06A074F074EC763C66440315B
:101AB00001F046FE2068C36843F48053C360C2E768
:101AC0000068C0E7752600087D28000810B40C29BE
:101AD0003DD8DFE801F0363C3C3C303C3C3C2A3C05
:101AE0003C3C07000368DA6822F48052DA601A6A24
:101AF000012404FA01F122EA010119621A6A1A6248
:101B0000196A41F211120A4042B9196A40F244427C
:101B10000A401AB91A6822F001021A60012380F8FB
:101B200039305DF8044B002070470368DA6822F40E
:101B30000062DA60DBE70368DA6822F48062DA6068
:101B4000D5E70368DA6822F40072DA60CFE7036849
:101B5000CDE700BF704700BF704700BF0223026897
:101B600010B580F83930116A41F211130B40044668
:101B700043B9116A40F244430B401BB9136823F088
:101B8000010313602046FFF7E7FF002084F83900C7
:101B900084F8380010BD00BF03680D491A6A22F0AE
:101BA00001021A621A6A42F001021A621A6A22F0EB
:101BB00010021A621A6A8B4242F010021A6201D0B5
:101BC000002070475A6C42F400425A64002070476B
:101BD00000000140036818491A6A22F001021A62E3
:101BE0001A6A1A621A6A22F010021A621A6A1A62D1
:101BF0008B420FD0196A41F211120A4042B9196A98
:101C000040F244420A401AB91A6822F001021A60EE
:101C100000207047196A41F211120A40002AE9D1E6
:101C2000196A40F244420A40002AE3D15A6C22F475
:101C300000425A64DEE700BF00000140036811491A
:101C4000DA6842F00202DA60DA6842F00402DA602E
:101C50001A6A22F001021A621A6A42F001021A623A
:101C60001A6A22F010021A621A6A8B4242F01002BB
:101C70001A6201D0002070475A6C42F400425A6444
:101C8000002070470000014003681C49DA6822F018
:101C90000202DA60DA6822F00402DA601A6A22F0DC
:101CA00001021A621A6A1A621A6A22F010021A6291
:101CB0001A6A1A628B420FD0196A41F211120A4055
:101CC00042B9196A40F244420A401AB91A6822F02D
:101CD00001021A6000207047196A41F211120A408D
:101CE000002AE9D1196A40F244420A40002AE3D1AD
:101CF0005A6C22F400425A64DEE700BF0000014043
:101D0000704700BF704700BF0223026810B580F81B
:101D10003930116A41F211130B40044643B9116A7C
:101D200040F244430B401BB9136823F001031360D6
:101D30002046FFF7E7FF002084F8390084F83800D8
:101D400010BD00BFD1B1042916D003681A6A22F071
:101D500001021A621A6A42F001021A621A6A22F039
:101D600010021A621A6A42F010021A621A6842F0ED
:101D700001021A60002070470368EFE703681A6ADF
:101D800022F001021A621A6A42F001021A62EDE7B9
:101D900001B304291CD003681A6A22F001021A62F6
:101DA0001A6A1A621A6A22F010021A621A6A1A620F
:101DB000196A41F211120A4042B9196A40F24442CA
:101DC0000A401AB91A6822F001021A60002070470E
:101DD0000368E7E703681A6A22F001021A621A6AC6
:101DE0001A62E5E700292ED004291ED003681A6A7A
:101DF00022F001021A621A6A42F001021A621A6A99
:101E000022F010021A621A6A42F010021A62DA68AC
:101E100042F00202DA60DA6842F00402DA601A681C
:101E200042F001021A600020704703681A6A22F02B
:101E300010021A621A6A42F010021A62DA6842F05C
:101E40000402DA60EBE703681A6A22F001021A6200
:101E50001A6A42F001021A62DA6842F00202DA609B
:101E6000DDE700BF03681A6AD9B922F001021A62DD
:101E70001A6A1A62DA6822F00202DA60196A41F21A
:101E800011120A4042B9196A40F244420A401AB992
:101E90001A6822F001021A60012380F8393000200C
:101EA0007047042913D022F001021A621A6A1A62DA
:101EB0001A6A22F010021A621A6A1A62DA6822F0AA
:101EC0000202DA60DA6822F00402DA60D6E722F071
:101ED00010021A621A6A1A62DA6822F00402DA60E0
:101EE000CCE700BF2DE9F04190F83940BDF818600B
:101EF000E4B2022C0FD090F83940012C0ED0042906
:101F00001F460C46054615D0182950D0002930D060
:101F10000020BDE8F0812046BDE8F081002A7CD099
:101F2000002B7AD00224042980F839401F460C4641
:101F30000546E9D12968406A3A4B3B4CC3633A46AF
:101F40003346C464383101F0FBFB2B68DA6842F495
:101F50008062DA601A6842F001021A601A6A22F09E
:101F600010021A621A6A42F010021A620020BDE8DA
:101F7000F0812968006A2B4B2B4FC363C76433463B
:101F8000343101F0DDFB2B68DA6842F40072DA606C
:101F90001A6842F001021A601A6A22F001021A62FB
:101FA0001A6A42F0010220461A62BDE8F0812968EF
:101FB000006ADFF870801C4CC0F83C803346C46473
:101FC000343101F0BDFB2968686A33463A46C0F8EF
:101FD0003C80C464383101F0B3FB2B681A6842F0CE
:101FE00001021A601A6A22F001021A621A6A42F0A9
:101FF00001021A621A6A22F010021A621A6A42F088
:1020000010021A62DA6842F40072DA60DA6842F4A6
:102010008062DA600020BDE8F081002E82D00120CD
:10202000BDE8F081752600087D28000803681A6A5B
:10203000D9B922F001021A621A6A1A62DA6822F425
:102040000072DA60196A41F211120A4042B9196A43
:1020500040F244420A401AB91A6822F001021A609A
:10206000012380F8393000207047042913D022F072
:1020700001021A621A6A1A621A6A22F010021A62BD
:102080001A6A1A62DA6822F40072DA60DA6822F4F4
:102090008062DA60D6E722F010021A621A6A1A62C7
:1020A000DA6822F48062DA60CCE700BFF8B590F815
:1020B0003940069DE4B2022C19D090F83940E4B2C0
:1020C000012C2AD0B2F5006F16460F4604462FD0D9
:1020D0000FD8B2F5007F40D0B2F5806F41D0B2F595
:1020E000807F0FD1C0692268244924E0BDB1204619
:1020F000F8BDB2F5005F2CD0B2F5804F39D0B2F503
:10210000805F32D023683D439D64DA680121164325
:10211000DE60002084F83910F8BD002BE6D00224E0
:10212000B2F5006F80F8394016460F460446CFD10D
:10213000806A22681249DFF854C0C1634FEA152E45
:102140001946C0F84CC04C320EF1010301F0F8FA08
:10215000D8E7006B22680B49EDE7006A226808495E
:10216000E9E7406A22680649E5E7C06A226804494F
:10217000E1E7406B22680449DDE700BF5D26000807
:10218000C52600084D590008692800087D28000868
:10219000F8B590F83940069DE4B2022C19D090F8B9
:1021A0003940E4B2012C2AD0B2F5006F16460F4632
:1021B00004462FD00FD8B2F5007F40D0B2F5806F23
:1021C00041D0B2F5807F0FD1C0692168244A24E054
:1021D000BDB12046F8BDB2F5005F2CD0B2F5804FFE
:1021E00039D0B2F5805F32D023683D439D64DA6810
:1021F00001211643DE60002084F83910F8BD002B61
:10220000E6D00224B2F5006F80F8394016460F463A
:102210000446CFD1806A2168124ADFF854C0C263F5
:102220004FEA152E1A46C0F84CC04C310EF101038E
:1022300001F086FAD8E7006B21680B4AEDE7006AE7
:102240002168084AE9E7406A2168064AE5E7C06A6A
:102250002168044AE1E7406B2168044ADDE700BFDA
:102260005D260008752600084D59000869280008F9
:102270007D280008B1F5006F38B50C46054630D012
:1022800012D9B1F5005F24D0B1F5804F1DD0B1F562
:10229000805F02D1C06A01F095FA2B68D96821EA03
:1022A0000404DC60002038BDB1F5007F15D0B1F525
:1022B000806F06D0B1F5807FEFD1C06901F082FA5E
:1022C000EBE7406A01F07EFAE7E7406B01F07AFA4B
:1022D000E3E7006B01F076FADFE7006A01F072FADB
:1022E000DBE7806A01F06EFAD7E700BFFFF7C2BFF5
:1022F00090F83820012A0FD030B403460568012435
:102300000220002283F839006961104683F83940C1
:1023100083F8382030BC70470220704790F838307E
:10232000012B25D04B68F0B401250224AB4280F884
:10233000385080F839401DD00C2A10D8DFE802F060
:10234000270F0F0F2F0F0F0F070F0F0F37000B68FF
:102350000268002B42D0D36943F08003D36100238D
:10236000012280F8392080F83830F0BC18467047D8
:10237000022070470768CB68BC688D680E6924F43A
:102380007F442B43234343EA0623BB60D4E70B6817
:102390000268A3B1936943F080039361DFE70B68A0
:1023A0000268B3B1936943F400439361D7E70B68C4
:1023B00002684BB1D36943F40043D361CFE793691B
:1023C00023F080039361CAE7D36923F40043D36108
:1023D000C5E7936923F400439361C0E7D36923F011
:1023E0008003D361BBE700BF90F83830012B40D0A9
:1023F0000222036870B480F839209A680C6822F4CD
:102400007F4222F077020125402C80F838509A60F4
:1024100073D018D9702C60D02DD9B4F5805F57D007
:10242000B4F5005F1CD19C688A684D68CE682A4369
:1024300024F47F410A4342EA06229A609A6842F4F1
:1024400080429A600CE0102C32D038D9202C6CD00D
:10245000302C05D19A6822F0700242F037029A605F
:102460000023012280F8392080F8383070BC1846EB
:10247000704702207047502C5ED0602CF0D11C6A4F
:102480004D68CE6824F010041C6299691A6A21F420
:10249000704122F0A00242EA051241EA0631996138
:1024A0001A629A6822F0700242F067029A60D7E7D7
:1024B0009A6822F0700242F017029A60D0E7002C6E
:1024C000CED19A6822F0700242F007029A60C7E704
:1024D0009A6822F007029A60C2E79C688A684D6891
:1024E000CE682A4324F47F410A4342EA06229A60D6
:1024F0009A6842F077029A60B2E71A6A1C6A4E68DC
:10250000CD6824F001041C62996922F00A0221F0CE
:10251000F001324341EA051199611A629A6822F08A
:10252000700242F047029A609AE79A6822F07002BD
:1025300042F027029A6093E71A6A1C6A4E68CD68D7
:1025400024F001041C62996922F00A0221F0F001D2
:10255000324341EA051199611A629A6822F07002C9
:1025600042F057029A607BE70268536823F08003C9
:10257000194351600020704790F83820012A01D19A
:102580000220704738B504460125022380F83850F0
:1025900080F83930FEF712FE2368DA6822F0400234
:1025A000DA60DA68002122F48042DA60084684F8B2
:1025B000395084F8381038BD90F83820012A01D1FC
:1025C0000220704738B504460125022380F83850B0
:1025D00080F83930FEF7F2FD2368DA6842F04002F5
:1025E000DA60DA68002122F48042DA60084684F872
:1025F000395084F8381038BD90F83830012B024635
:102600000AD00C2926D8DFE801F01025252517254A
:1026100025251E25252509000220704703681B6C0F
:102620000021184682F83810704703685B6B002160
:10263000184682F83810704703689B6B00211846D3
:1026400082F8381070470368DB6B0021184682F867
:10265000381070470023E3E7704700BF08B5806B70
:10266000012380F83930FDF769FE08BD704700BFCF
:10267000704700BF10B5846B226A0123904284F832
:1026800039300FD0636A984213D0A36A984213D0AE
:10269000E36A984205D02046FFF7EAFF002323763D
:1026A00010BD082323762046FFF7E2FF00232376A0
:1026B00010BD02232376EEE704232376EBE700BF69
:1026C000704700BF10B5846B226A0123904284F8E2
:1026D00039300FD0636A984213D0A36A984213D05E
:1026E000E36A984205D02046FFF7EAFF00232376ED
:1026F00010BD082323762046FFF7E2FF0023237650
:1027000010BD02232376EEE704232376EBE700BF18
:10271000704700BF03681A69910710B5044602D5D7
:10272000DA68920762D41A69500702D5DA6851074D
:1027300049D41A69120702D5DA68100731D41A6928
:10274000D20602D5DA68D00618D41A69D10702D5A4
:10275000DA68D2076BD41A69100602D5DA68110656
:102760006DD41A69520602D5DA68500657D41A6930
:10277000910602D5DA68920649D410BD6FF01002B6
:102780001A61DB69082213F4407F2276204661D16A
:10279000FFF76CFF2046FFF793FF002223682276A5
:1027A000D3E76FF008021A61DB69042299072276E9
:1027B000204655D1FFF75AFF2046FFF781FF002240
:1027C00023682276BBE76FF004021A619B6902223C
:1027D00013F4407F227620463FD1FFF747FF204683
:1027E000FFF76EFF002223682276A2E76FF0020255
:1027F0001A619B6901229B07027628D1FFF736FFF9
:102800002046FFF75DFF0022236822768BE76FF0FA
:10281000200220461A61BDE8104003F095B86FF021
:1028200040021A612046FFF773FF23689FE76FF0AD
:1028300001021A612046FDF781FD23688BE76FF0E6
:1028400080021A61204603F089F8236889E7FFF7C0
:102850000FFFD8E7FFF70CFF9FE7FFF709FFC1E77E
:10286000FFF706FFABE700BF08B5806B012380F8D8
:102870003930FFF74DFF08BD704700BF08B5806BCA
:10288000012380F83930FFF7F7FF08BD90F83900D1
:10289000704700BF90F83900704700BF90F83900CA
:1028A000704700BF90F83900704700BF90F83900BA
:1028B000704700BF90F83900704700BF264A036890
:1028C000904270B434D0B0F1804F20D0A2F57C4259
:1028D00090421CD002F58062904218D002F58062CE
:1028E000904214D002F59A32904214D002F58062E0
:1028F000904210D002F5806290420CD08C680A6839
:1029000003600123C462826270BC436170474A68FD
:1029100023F070031343CA688C68096823F440737A
:10292000134303600123C462816270BC436170473A
:102930004A68CC688E680D68096923F070031343F8
:1029400023F44073234303600123C662856201635D
:1029500070BC4361704700BF00000140B8B190F8FF
:10296000393010B503F0FF0204465BB1022384F84E
:1029700039302068211DFFF7A1FF012384F8393089
:10298000002010BD80F83820FDF706FDEEE701209D
:10299000704700BFB8B190F8393010B503F0FF02AE
:1029A00004465BB1022384F839302068211DFFF70B
:1029B00085FF012384F83930002010BD80F83820CD
:1029C000FEF706FDEEE70120704700BFB8B190F8B2
:1029D000393010B503F0FF0204465BB1022384F8DE
:1029E00039302068211DFFF769FF012384F8393051
:1029F000002010BD80F83820FEF740FDEEE70120F2
:102A0000704700BFB8B190F8393010B503F0FF023D
:102A100004465BB1022384F839302068211DFFF79A
:102A20004DFF012384F83930002010BD80F8382094
:102A3000FEF71AFFEEE70120704700BF00B338B57C
:102A400090F8393004460D4603F0FF029BB1022393
:102A500084F83930211D2068FFF730FF23681A6899
:102A600022F008021A601968012229431960002027
:102A700084F8392038BD80F83820FFF76BF8E6E796
:102A80000120704700284ED02DE9F04190F83930F0
:102A900082B005460C4603F0FF02002B3ED02946CB
:102AA000022351F8040B85F83930836823F00703BB
:102AB0008360FFF703FF2E68A769D6F808C0B169E5
:102AC000326A206821F44073E169019123F0030325
:102AD000A16843EA072327690B4301993F0147EAAD
:102AE0000121E76822F0AA08226A0F4347EA023769
:102AF0006269616823F47C434CEA000048EA0212F0
:102B000023F0FC03B0600A433B4301210020B36182
:102B1000326285F8391002B0BDE8F08180F83820C3
:102B2000FFF7EEF8BBE70120704700BF70B4046AFE
:102B3000184E24F001040462B0428569046A17D07B
:102B4000B0F1804F14D0A6F57C46B04210D006F507
:102B50008066B0420CD006F58066B04208D006F51B
:102B60009A36B04204D025F0030242F0010202E09E
:102B700025F003052A431B01DBB222F0F00224F00A
:102B80000A0401F00A010C431A438261046270BC1A
:102B9000704700BF00000140F8B590F83830012BB5
:102BA00039D00D4602230121044680F8381080F800
:102BB0003930002A31D0042A3FD0082A63D0016876
:102BC000EB680A6A2E68D5F804E0AF6822F48052F8
:102BD0000A62CA69086A22F4407235031E0342EA97
:102BE0000E2305F42045B6B223F4704320F42042AE
:102BF00033432A43CB610A62CB6923F44063CB6140
:102C0000CB6943EA0727CF610123002084F83930DC
:102C100084F83800F8BD0220F8BD95E80600EB689E
:102C20000068FFF783FF2368AA68996921F00C0107
:102C3000996199690A439A61E6E70368EA68196A43
:102C40002E68D5F804E0AF6821F010011962996987
:102C5000186A21F440713501160341EA0E2205F08D
:102C6000A005B6B222F4704220F0A00132432943FD
:102C70009A6119629A6922F440629A619A6942EAF9
:102C800007279F61C0E70368EA68196A2E68D5F8CC
:102C900004E0AF6821F480711962D969186A21F0E3
:102CA0000301350216014EEA010205F42065F6B271
:102CB00022F0F00220F4206132432943DA611962E4
:102CC000DA6922F00C02DA61DA691743DF619BE707
:102CD000F0B5046AD1F808E00E68134D24F0100432
:102CE0000462036A4768826923F0200322F4E64203
:102CF000A84243EA0E1342EA062205D0496847601B
:102D0000826181630362F0BDCE684D698C6927F4EE
:102D1000406723F0800343EA061347EA850523F062
:102D2000400345EA8407E9E70000014090F83830A5
:102D3000012B1CD010B504460223012084F8380072
:102D400084F839300C2A0BD8DFE802F0170A0A0A97
:102D5000070A0A0A1B0A0A0A13002068FFF7B8FFCD
:102D60000123002084F8393084F8380010BD022097
:102D700070472068FEF7FEF9F2E72068FEF7A0F939
:102D8000EEE72068FEF7C8F9EAE700BF38B590F82B
:102D90003830012B2BD00D4602230121044680F848
:102DA000381080F839300C2A1AD8DFE802F03519CB
:102DB0001919071919194719191922002946006804
:102DC000FFF786FF23682869996941F400619961DA
:102DD000996921F4806199619A6942EA00229A61B5
:102DE0000123002084F8393084F8380038BD0220EF
:102DF00038BD29460068FEF7BDF923682869D969FE
:102E000041F40061D961D96921F48061D961DA693D
:102E100042EA0022DA61E3E729460068FEF750F94A
:102E200023682A69996941F008019961996921F03B
:102E30000401996199690A439A61D1E729460068BA
:102E4000FEF76AF923682A69D96941F00801D96156
:102E5000D96921F00401D961D9690A43DA61BFE770
:102E60009A4274D0F0B590F83850012D89B052D004
:102E70000C461E460AC905460127022085F838700F
:102E80000191A768216985F839000293E0686369B8
:102E90000397049006910793002A5AD0042A3DD044
:102EA000002E41D0042E2ED12B68A669196AE26942
:102EB000276A21F0100119629969186A21F440719A
:102EC000340141EA02223E0304F0A004B6B222F427
:102ED000704220F0A001324321439A6119629A693D
:102EE00022F440629A619A6822F070029A609A68AD
:102EF00042F060029A609A6822F007029A609A682B
:102F000042F006029A600020012385F8393085F8E6
:102F1000380009B0F0BD022009B0F0BD01A9286851
:102F2000FFF7D6FE002EBDD104F118010EC92868A6
:102F3000FFF7FCFD2B689A6922F00C029A619A68EF
:102F400022F070029A609A6842F05002D2E70120A3
:102F5000704701A92868FEF7B3F8A1E710B4012370
:102F6000046A8B4024EA03030362036A5DF8044B9E
:102F70008A4042EA03010162704700BF2DE9F04F29
:102F8000D1F800C0DFF8B881DFF8B8E183B00025E0
:102F90004FF0010903E00135102D00F0838009FA9C
:102FA00005F232EA0C03F6D14C6824F01006022E2A
:102FB0007BD04FEA450A0323076803FA0AF3DB4391
:102FC00004F0030B1F400BFA0AFB013E4BEA070714
:102FD000012E076040F28C80C7688E683B4006FA7D
:102FE0000AF63343C360E300D5D500230193D8F834
:102FF000443043F48043C8F84430D8F8443025F0D6
:10300000030606F1804603F4804306F59C360193DF
:1030100005F00303019FD6F808A09B000F279F40EF
:103020002AEA070B424FB84272D007F58067B842D0
:1030300070D0404FB84270D03F4FB84272D03F4F2F
:10304000B8420CBF4FF0040A4FF0050A0AFA03F326
:1030500043EA0B03B360DEF80030D643E7034CBF0E
:1030600013433340CEF80030DEF80430A7034CBFE2
:1030700013433340CEF80430DEF80830E7024CBF8B
:1030800013433340CEF80830DEF80C30A40205F1CB
:10309000010554BF06EA03021A43102DCEF80C2096
:1030A0007FF47DAF03B0BDE8F08F4FEAD50A00EBA7
:1030B0008A0A05F00703DAF820700E699B004FF0CA
:1030C0000F0B0BFA03FB27EA0B0706FA03F33B434C
:1030D000CAF820304FEA450A0323066803FA0AF3C8
:1030E000DB4304F003071E4007FA0AF73E4306607D
:1030F0008668CF681E4007FA0AF73743876046683C
:10310000C4F3001726EA0206AF403E43466063E779
:1031100000239DE709FA03F39AE74FF0020A0AFA3F
:1031200003F395E74FF0030A0AFA03F390E700BFB1
:103130000000024000080240000C02400010024063
:1031400000380240003C01402DE9F04F002383B0DD
:10315000DFF80C91DFF80C814FF0010E4FF0030BFC
:103160004FF00F0A02E00133102B61D00EFA03F288
:1031700032EA0104F7D15C0005680BFA04F4E44379
:10318000DE08254000EB8606056003F00705376A78
:10319000AD000AFA05F527EA050535628568254080
:1031A00085604568D24315404560C66823F0030535
:1031B00005F18045344005F59C35C46003F00304F7
:1031C000AE68A4000AFA04F73E404845019632D0A2
:1031D0001F4EB04231D01F4EB04231D01E4EB042D1
:1031E00033D01E4EB0420CBF4FF0040C4FF0050C14
:1031F0000CFA04F4019EA642B5D1AC6824EA070794
:10320000AF60D8F800401440C8F80040D8F8044037
:103210001440C8F80440D8F808401440C8F80840E2
:10322000D8F80C4001332240102BC8F80C209DD157
:1032300003B0BDE8F08F0024DCE70EFA04F4D9E710
:103240004FF0020C0CFA04F4D4E70BFA04F4D1E7C3
:103250000004024000080240000C0240001002403E
:1032600000000240003C01400369194214BF0120E4
:103270000020704702B909048161704743695940D1
:103280004161704782B04FF480330193019B0B433F
:103290000193019BC361C161019BC361C369019338
:1032A000C06980F48030C0F3004002B0704700BFB6
:1032B000704700BF044A5169014200D1704708B508
:1032C0005061FFF7F5FF08BD003C0140074AD16897
:1032D0004FF6FF030B4043F0BF6300F0070043F4D9
:1032E000003343EA0023D360704700BF00ED00E0E5
:1032F000194BDB68C3F3022330B4C3F10705042D77
:1033000003F1040428BF0425062C18D9033B01242B
:103310009C40013C22400124AC40013C214001FA88
:1033200003F3002842EA03020CDB00F1604000F5E1
:1033300061401201D2B280F8002330BC70470022F5
:103340001346E8E7054B00F00F0012010344D2B228
:103350001A7630BC704700BF00ED00E0FCEC00E0E6
:1033600000F01F0101234009024A8B4042F820303F
:10337000704700BF00E100E04309203300F01F0068
:103380000122034902FA00F041F82300704700BF10
:1033900000E100E0BFF34F8F0549064BCA6802F415
:1033A000E0621343CB60BFF34F8F00BFFDE700BF68
:1033B00000ED00E00400FA050138B0F1807F0ED284
:1033C000084B10B4084C5860F02084F82300002209
:1033D000072110469A6019605DF8044B7047012080
:1033E000704700BF10E000E000ED00E0F0B4134EC5
:1033F0004378B36003781BB9F3603361F0BC704766
:103400004368F360C47A037B0578817A427B877BCB
:10341000240644EA03742C4344EAC141C37B447A42
:10342000007A41EA824141EA474242EA034242EAE3
:10343000042343EA40033361F0BC704790ED00E0A1
:10344000024BD868C0F30220704700BF00ED00E0D7
:10345000002870B422DB00F1604000F5614090F874
:103460000003000901F00701C1F10706042E01F174
:10347000040428BF0426062C0DD9033901248C40EE
:10348000013C04400125B540C840691E0840106059
:103490001C6070BC704700242146F3E7034C00F029
:1034A0000F000444207E0009DCE700BFFCEC00E0D4
:1034B0004309403300F01F000122034902FA00F0E3
:1034C00041F82300704700BF00E100E04309054ACE
:1034D000403300F01F0052F8233023FA00F000F0D0
:1034E0000100704700E100E04309603300F01F0075
:1034F0000122034902FA00F041F82300704700BF9F
:1035000000E100E04309054A803300F01F0052F853
:10351000233023FA00F000F00100704700E100E0E2
:10352000044A136804280CBF43F0040323F0040387
:103530001360704710E000E0704700BF08B5FFF768
:10354000FBFF08BDF8B50446FDF73AFC002C6ED031
:103550000222236884F835201A68002122F0010233
:1035600084F8341005461A6005E0FDF729FC401B7D
:1035700005283AD823681A68D107F6D404F10C005C
:1035800027C86768A6683E43304301431143E66994
:10359000206A1F68334A29430E43616A30433A4028
:1035A000042942EA000227D01A605A6922F0070271
:1035B0001143DAB22C4D5961103AA5FB02121209DF
:1035C0002A4823F47F73815CE16523F00303032A17
:1035D00088BF04333F228A4001250021A3650846A5
:1035E0009A60616584F83550F8BD03232022626536
:1035F000184684F83530F8BDE66A216BA06A31437D
:103600000A431A605A6940F0040122F0070211438C
:103610007DB9012822D001D30228CAD1F201C8D530
:10362000012340226265184684F83530F8BD012038
:10363000F8BDB5F5005F04D00228F1D90328B8D150
:10364000ECE70328B5D801A252F820F02136000893
:103650001D360008213600085D360008B6F1C07F2F
:10366000A7D1DDE73F8010F0ABAAAAAA605F0008EF
:10367000002830D090F83530DBB2022B2CD0036814
:103680001649DAB270B4103A1C68154DA1FB02124B
:103690001209002124F0010421261C6019605960E0
:1036A0009960D96019615E6123F47F73AD5CC56573
:1036B00023F00303032A88BF04333F2202FA05F1F3
:1036C0000022836570BC9960426580F8342080F8E0
:1036D000352010467047012318467047ABAAAAAAA6
:1036E000605F000870B490F83440012C0CD090F862
:1036F00035400125AC4280F8345008D0002380F8D2
:103700003430022070BC7047022070BC70470468DF
:103710000226002580F8356045652568866825F411
:103720008020402E206063600BBFA260A160E1603A
:10373000E260236843F0010323600020E2E700BF5A
:10374000F0B490F83440012C0DD090F83540866DDF
:103750000125AC4280F8345008D0002380F8343082
:103760000220F0BC70470220F0BC704704680227BA
:10377000002580F8357045652568876825F4802523
:10378000402F256063600ABFA260A160E160C16D47
:1037900018BFE2603F238B40026CB360236843F0A4
:1037A00016032360636943F0800363611AB12368E1
:1037B00043F008032360236843F0010323600020E3
:1037C000CFE700BF70B50446866DFDF7F9FA94F8AF
:1037D0003530022B06D080220023626584F8343015
:1037E000012070BD2368216C1A6822F016021A604D
:1037F0005A6922F0800205465A6131B31A6822F0F4
:1038000008021A601A6822F001021A6005E0FDF74A
:10381000D7FA401B05280FD823681B6813F0010353
:10382000F5D1E16D3F228A400121B260184684F84B
:10383000343084F8351070BD2022002303206265E7
:1038400084F8343084F8350070BDA26C002AD5D1DC
:10385000D8E700BF90F83530022B03D080234365B2
:10386000012070470268052380F83530136823F083
:1038700001031360002070472DE9F84F0446894684
:103880009346FDF79DFA23681B68D9053DD482460F
:10389000E36DB9F1000F35D010229A40A66DDFF824
:1038A000E4803568364F2A4240D14FF00809BBF119
:1038B000FF3F09D0BBF1000F2DD0FDF781FACAEB15
:1038C0000000834527D3E36D09FA03F10D4208FA9E
:1038D00003F207FA03F006D0D4F854E04EF0010EDC
:1038E000C4F854E0B160154204D0616D41F00201AA
:1038F0006165B2600542DAD0626D42F00402626531
:10390000B060D2E720229A40C8E74FF48073636525
:103910000120BDE8F88F202100220123616584F891
:10392000342084F835300320BDE8F88F606D18B17D
:10393000626DD20714D40120B9F1000F05D0102216
:1039400002FA03F3B360BDE8F88F302202FA03F302
:103950000122B36084F8349084F83520BDE8F88FF4
:103960002046FFF72FFFE26D302393400021012214
:10397000B360104684F8341084F83520BDE8F88F21
:103980000400800001008000F0B583B00023876D43
:103990000193C36D3D68624908229A40154204466E
:1039A0000E6803D001680868400776D45D4A9A40E3
:1039B000154203D021684969080668D45A4A9A40DA
:1039C000154203D02168096889075AD410229A4009
:1039D000154203D02168086800073FD420229A408E
:1039E000154203D021680868C00625D4636D0BB367
:1039F000636DDA071AD50523216884F835300B6822
:103A00004A4A23F00103A2FB06020B60920A02E07D
:103A10000B68DB0704D5019B01339A420193F7D26F
:103A20000022012384F8342084F83530E36C0BB194
:103A30002046984703B0F0BDBA6094F83520052AB7
:103A40003BD00B6813F4802F0B6854D019035FD55B
:103A5000E36B002BCAD020469847C7E7BA600A68D4
:103A600012F4802F0A6822D1D20503D40A6822F00A
:103A700008020A60226C002AB0D020469047E36D0D
:103A8000ACE7BA60626D42F0040262659EE7BA601C
:103A9000626D42F00202626590E7086820F004005F
:103AA0000860BA60626D42F0010262657EE7110350
:103AB000E0D5A26C002AE0D190E70A68206C22F0E1
:103AC00016020A604A6922F080024A6120B30A683D
:103AD00022F008020A603F22216D02FA03F300205F
:103AE0000122BB6084F8340084F835200029A1D07D
:103AF000204688479EE713F48073A9D10A68012005
:103B000022F010020A6084F8343084F835009FE710
:103B1000636C002B9FD169E7A26C002AD7D1DAE74A
:103B2000100700200100800004008000B5814E1BBA
:103B300090F83430012B0FD010B4044690F83500C3
:103B40000123984284F8343008D00022184684F8C3
:103B500034205DF8044B704702207047052916D8C1
:103B6000DFE801F0120F0C09060322650023ECE7E1
:103B7000E2640023E9E7A2640023E6E7626400232D
:103B8000E3E722640023E0E7E2630023DDE70023AC
:103B9000DBE700BF90F83430012B02460BD090F8E1
:103BA00035000123984282F8343006D000211846AF
:103BB00082F8341070470220704706291FD8DFE8CA
:103BC00001F01B1815120F0C04000023D3631364BB
:103BD00053649364D3641365E8E700231365E5E752
:103BE0000023D364E2E700239364DFE700235364F8
:103BF000DCE700231364D9E70023D363D6E701236E
:103C0000D4E700BF90F83500704700BF406D7047A3
:103C100070B52F4D2B7E012B29D003680446DE079B
:103C20004FF0010028760FD56368A66883424CF2F6
:103C300050303DD001F0ECF900283CD125492368F3
:103C40000A88324392B20A80990724D45A0710D4C2
:103C50001B0709D5204B207D197801F0F30119705D
:103C60001A7802431A70002000232B7670BD0220C0
:103C700070BD4CF25030267E01F0CAF938B9164AB0
:103C8000137806F0E00603F01F0333431370236834
:103C90001B07E9D5DEE74CF25030266901F0B8F990
:103CA00010B90E4BF6B21E7023685A07D0D5E0E764
:103CB00001F0AEF918B123689907C7D5EBE70549BC
:103CC00023680A8892B222EA06020A80BCE700BF93
:103CD00080120020163C0240143C0240153C024079
:103CE0000D4B0E4A1B880F219BB201608360137835
:103CF000DBB2CC2B04D01378552B14BFAA23552349
:103D0000074A0361536923F01F030376137D03F011
:103D10000C034361704700BF163C0240153C024053
:103D2000003C02400368DB0712D542680346012AC3
:103D300010B54CF250301C890CD001F069F930B943
:103D4000094A13889BB223EA0403138010BD10BDF7
:103D50000120704701F05CF90028F8D1024A13886D
:103D60009BB21C43148010BD163C0240014B1B88C3
:103D700003817047163C0240034A137843F08003E6
:103D800013700020704700BF173C0240034A1378AD
:103D900003F07F0313700020704700BF173C024000
:103DA00039B1012921D002290CBF4FF400714FF421
:103DB00040710F4B1A6922F440721A611A6911435B
:103DC00019611A6922F0F8021A61F82191FAA1F139
:103DD0001A69B1FA81F142F0020288401043186179
:103DE0001A6942F480321A6170474FF48071E0E73B
:103DF000003C02401C4A38B5137E012B31D01B4BCE
:103E0000196941F0807119611969F32441F0007159
:103E10001961DC6001680124A14214760BD0C568E9
:103E20008368017C14705560D36011728068FFF75D
:103E3000B7FF002038BD41680224147011611A696F
:103E4000016922F440721A611A6942F004021A618F
:103E50001A69C9B242F4803242EA01221A61002092
:103E600038BD022038BD00BF80120020003C024057
:103E7000144B1A6891050FD51A6822F400721A6063
:103E80001A6842F400621A601A6822F400621A602A
:103E90001A6842F400721A600A4B1A6852050FD56C
:103EA0001A6822F480621A601A6842F480521A601A
:103EB0001A6822F480521A601A6842F480621A600A
:103EC000704700BF003C02402DE9F8432D4F3B7E78
:103ED000012B02D10220BDE8F883012304464CF2F5
:103EE000503088463B7601F093F8064648BB4FF0C9
:103EF000FF33C8F800302368012B27D0A568E3689A
:103F00002B449D421BD2DFF8809005E0E268A36855
:103F100001351344AB4212D9217C2846FFF740FFFC
:103F20004CF2503001F074F8D9F8103023F0FA0355
:103F3000C9F810300028E9D0C8F800500646FFF74D
:103F400097FF002330463B76BDE8F8830E4D22698B
:103F50002B6923F440732B612B6943F004032B611D
:103F60002B69D2B243F4803343EA02232B614CF233
:103F7000503001F04DF82B6923F0040306462B6105
:103F8000DDE700BF80120020003C024070B484686E
:103F9000802C24D090F83450012D06D090F8355064
:103FA0000126B54280F8346002D0022070BC704710
:103FB0000568022680F83560286840F48020286073
:103FC000402C2B61039B6B600BBFAA60A960E9606A
:103FD000EA602B6843F001032B600020E6E74FF412
:103FE0008073436570BC0120704700BFF0B48468E3
:103FF000802C1ED0C56BBDB1456CADB1C56C9DB1FB
:1040000090F83450012D0CD090F835500126B5426F
:1040100080F8346013D0002380F834300220F0BCE4
:1040200070470220F0BC704740234365F0BC01207C
:1040300070474FF480734365F0BC012070470568FA
:104040000026022780F8357046652E6846F48026E3
:104050002E602B61049B6B60B34B402C0BBFAA609E
:10406000A960E960EA609D4251D8B04B9D4240F2A0
:10407000878003F556739D4200F0048118339D42FA
:1040800000F0398118339D4200F07F81A84B4FF03A
:1040900000629A604FF08061A64AA54B95429960F4
:1040A00000F0F580A44A954200F01881183295423C
:1040B00000F079814FF000729A604FF080719D4B53
:1040C0009B4A9D42916000F094819B4B9D4200F081
:1040D00019819A4A954214BF4FF480024FF48032FE
:1040E000934B9A602B68026C43F016032B606B694C
:1040F00043F080036B61002A7ED02B6843F00803F5
:104100002B602B6843F001032B60002087E78C4B6A
:104110009D4200F0AB8018339D4200F0E5801833DB
:104120009D4200F03981824B4FF00062DA604FF01F
:104130008061834A7E4B9542D96000F09C80814A21
:10414000954200F0C5801832954200F032814FF060
:104150000072DA604FF08071794B754A9D42D160F0
:1041600000F04981774B9D4200F0B080764A95423D
:1041700014BF4FF480024FF480326D4BDA60B1E728
:10418000724B9D423DD918339D4200F09380183305
:104190009D4200F0F38018339D4200F023816C4B68
:1041A0004FF00062DA604FF080616A4A684B9542D6
:1041B000D96000F08480684A954200F0D9801832B6
:1041C000954200F0FC804FF00072DA604FF0807191
:1041D000604B5F4A9D42D16000F00F815E4B9D4273
:1041E00000F0C48018339D4214BF4FF480034FF495
:1041F0008033574AD36075E7836C002B7FF47DAF23
:104200007FE7564B9D4249D018339D4200F0848091
:1042100018339D4200F0DF804D4B4FF000629A60F2
:104220004FF080614D4A4A4B954299603BD04C4AD1
:1042300095426BD01832954200F0C7804FF0007263
:104240009A604FF08071454B414A9D42916000F069
:10425000D680434B9D4257D018339D4214BF4FF434
:1042600080034FF480333A4A93603BE7304B202180
:104270001022D960DA602E4B3A493B4A0824DC60B0
:10428000D9607AE72A4B2021102299609A60284B46
:104290003449354A08249C60996021E72C4B202141
:1042A000102299609A602A4A2E492F4B0824946064
:1042B0009160D8E7264B20211022D960DA60244A89
:1042C0002849294B0824D460D16092E7402254E762
:1042D0004FF40072DA604FF480713DE74FF40072E2
:1042E0009A604FF48071EAE6114B4FF40062DA6095
:1042F0004FF480611DE70E4B4FF400629A604FF45B
:104300008061C9E64022EBE64023ACE74FF400723F
:104310009A604FF4807196E70D4B4FF400629A60FB
:104320004FF480617EE700BF58640240B8600240ED
:10433000006402401064024028640240406402406D
:104340007064024088640240A064024058600240E9
:1043500000600240706002408860024010600240CD
:10436000286002400400800001008000402340E7F4
:104370004FF40072DA604FF4807129E7214B4FF45B
:104380000062DA604FF480610FE71F4B4FF40012B8
:104390009A604FF480117FE61B4B4FF40012DA60F5
:1043A0004FF48011C5E64FF400229A604FF480214B
:1043B00085E64FF40022DA604FF48021CCE64FF41A
:1043C0000022DA604FF4802102E74FF400229A6065
:1043D0004FF4802137E70B4B4FF400129A604FF4F3
:1043E00080111FE7074B4FF40012DA604FF4801181
:1043F000DBE6064A74E6054ABFE6044BF9E6034BE2
:1044000031E700BF0060024000640240010080000C
:10441000036812B1196100207047D960002070470D
:10442000704700BFF0B50368DD0783B0044622D5AE
:10443000AD498A6802F00C02042A00F0EB808A6819
:1044400002F00C02082A00F0E180A84B22791A70D1
:104450006368002B00F0CC80FCF7B2FCA24D06464E
:1044600005E0FCF7ADFC801B642800F2A0802B68FF
:104470009A03F6D523689F072ED59B4A916811F0C1
:104480000C0F00F09B80916801F00C01082900F0EE
:104490009180E368002B00F0D980954B924D01226A
:1044A0001A60FCF78DFC064604E0FCF789FC801BD3
:1044B00002287CD82B688C4A9807F6D51168F82317
:1044C00093FAA3F32069B3FA83F321F0F80100FA19
:1044D00003F30B43136023681A0720D4590734D41D
:1044E000A269CAB1804B996801F00C0108296CD00F
:1044F000022A804A4FF00001116000F0B8801C468B
:10450000FCF75EFC054604E0FCF75AFC401B022861
:104510004DD823689B01F7D4002003B0F0BD636938
:10452000002B55D0744B704D01221A60FCF748FCEB
:10453000064604E0FCF744FC801B022837D86B6F6A
:104540009F07F7D523685907CAD5674B6B4D0022E3
:1045500001921A6C42F080521A641B6C03F0805373
:104560000193019B2B6843F480732B60FCF728FCBC
:10457000064604E0FCF724FC801B022817D82B68B1
:10458000DA05F7D55E4B227A1A70A368002B00F08B
:10459000C380FCF715FC544D074641F288362B6F5B
:1045A0009B079DD4FCF70CFCC01BB042F7D903203D
:1045B00003B0F0BD526856023FF56BAF4A4A12682D
:1045C000950731D5E268012A2ED0012003B0F0BD55
:1045D000494A454D1360FCF7F3FB064604E0FCF73F
:1045E000EFFB801B0228E2D86B6F9807F7D4A9E78E
:1045F000FCF7E6FB3C4D064604E0FCF7E1FB801BC4
:104600006428D4D82B689B03F7D433E74A68500258
:104610007FF51BAF344A126891037FF52CAF6268B7
:10462000002A7FF428AFD0E72F4DF822296892FAAC
:10463000A2F22069B2FA82F221F0F80100FA02F245
:104640000A432A601A077FF549AF68E7284A264DD2
:104650001360FCF7B5FB064604E0FCF7B1FB801BDA
:104660000228A4D82B689907F7D4236834E71D469D
:10467000FCF7A6FB064604E0FCF7A2FB801B022821
:1046800095D82B68184A9901F6D447F6C07696FA61
:10469000A6F64FF44033B6FA86F793FAA3F34FF039
:1046A0007065B3FA83F395FAA5F5A16A666AD4F842
:1046B0001CC0D4F820E0E06A4908BE4001394CEA49
:1046C0000E07B5FA85F401FA03F347EA060500FA86
:1046D00004F12B4307480B4301215360016014464A
:1046E000FCF76EFB054613E000380240023802403A
:1046F0000000474260004742800E47420070004081
:1047000070380240FCF75CFB401B02283FF64FAFBD
:1047100023689A01F6D5FFE6FCF752FB064D0746E3
:1047200041F288362B6F98077FF5DAAEFCF748FB2D
:10473000C01BB042F6D93AE700380240F0B50D464A
:1047400089B0164610B3234C234800230293226BF2
:1047500042F004022263216B059301F004010291EF
:104760004FF4007E032202990793022703A90692C1
:10477000CDF80CE00497FEF701FCA36845EAC602F9
:1047800023F078431A43A26009B0F0BD114C0190A8
:10479000226B42F001022263226B02F001020192BD
:1047A00003464FF4807E032201990C4805930227AB
:1047B00003A907930692CDF80CE00497FEF7DEFB01
:1047C000A36823F0EC6343EA06021543A56009B031
:1047D000F0BD00BF00380240000802400000024067
:1047E000014B01221A6070474C004742014B0022E6
:1047F0001A6070474C0047421B4A936803F00C0351
:10480000042B2ED0082B2AD15368516803F03F03A4
:1048100011F4800F47F6C070516890FAA0F047F687
:10482000C07202EA0102B0FA80F022FA00F014BF6E
:104830000E4A0F4AB2FBF3F30B4A03FB00F3526834
:104840004FF4403090FAA0F002F44032B0FA80F019
:1048500022FA00F001304000B3FBF0F0704704484A
:1048600070470248704700BF0038024000127A00CB
:104870000024F400564A136803F00F038B422DE91D
:10488000F04109D2CBB21370136803F00F039942C1
:1048900002D00120BDE8F08103689A0706D54D4D8E
:1048A0008268AC6824F0F0042243AA60DF07064661
:1048B0000C4626D54368012B00F084809A1E012AFD
:1048C000444A126878D99107E3D5424DAA6822F08C
:1048D00003021343AB60FCF773FA7368012B0746BE
:1048E00041F288384CD0022B55D0032B05D15DE026
:1048F000FCF766FAC01B404561D8AB6813F00C0F9B
:10490000F6D1334A136803F00F039C4206D2E3B298
:104910001370136803F00F039C42BAD133685A072F
:1049200006D52C48F268816821F4E0510A43826080
:104930001B0707D5274A3169936823F4604343EA8C
:10494000C1039360FFF758FF224B0146F0229B689A
:1049500092FAA2F2B2FA82F203F0F003D3401E48B8
:104960001E4AC35C002021FA03F31360FCF7F0F940
:104970000020BDE8F081FCF723FAC01B40451ED89B
:10498000AB6803F00C03042BF5D1BAE7FCF718FA77
:10499000C01B404513D8AB6803F00C03082BF5D1BE
:1049A000AFE7FCF70DFAC01B404508D8AB6803F031
:1049B0000C030C2BF5D1A4E7900186D469E7032002
:1049C000BDE8F081034A126895033FF57EAF60E7CA
:1049D000003C024000380240685F000810070020D9
:1049E000014B1868704700BF10070020084B4FF4B8
:1049F000E0529B6892FAA2F2B2FA82F203F4E05318
:104A0000D3400449044ACB5C1068D840704700BFCB
:104A100000380240685F000810070020084B4FF480
:104A200060429B6892FAA2F2B2FA82F203F4604307
:104A3000D3400449044ACB5C1068D840704700BF9B
:104A400000380240685F0008100700200F22364B34
:104A500002601A68510310B458D505234360324BE5
:104A600031491B6813F0010318BF0123C360F8220A
:104A70000B6892FAA2F2B2FA82F203F0F803D34082
:104A800003610B6F5A0748D505238360264B2649DF
:104A90005B6F13F0010318BF01234361224B1B68B6
:104AA000DB014CBF0223012383614B6803F48003C5
:104AB000C3614B6803F03F0303624C6847F6C07262
:104AC00092FAA2F247F6C073B2FA82F22340D340C0
:104AD00043624A684FF4403393FAA3F302F440323E
:104AE00002F580325200B3FA83F322FA03F38362B1
:104AF0004B684FF0706292FAA2F2B2FA82F203F0BF
:104B00007063D340C3625DF8044B70471B6813F4B5
:104B1000803318BF01234360A1E70B6F13F001033B
:104B200018BF01238360B1E7003802400E4B0F220B
:104B300002609A6802F0030242609A6802F0F00292
:104B400082609A6802F4E052C2609B6803F460439A
:104B500010B4DB08054C036123685DF8044B03F0D7
:104B60000F030B60704700BF00380240003C02405A
:104B7000704700BF08B5054BDB681B0604D5FFF77F
:104B8000F7FF034B80221A7008BD00BF00380240B7
:104B90000E38024038B54FF4007292FAA2F20C4B74
:104BA0000C4CB2FA82F213449B0001221A60FCF70B
:104BB00007F9054605E0FCF703F9401BB0F57A7FDD
:104BC00004D863681B07F6D5002038BD032038BD24
:104BD000208083100070004038B54FF4007292FAC4
:104BE000A2F20C4B0C4CB2FA82F213449B0000224E
:104BF0001A60FCF7E5F8054605E0FCF7E1F8401B14
:104C0000B0F57A7F04D8606810F00800F5D138BD9F
:104C1000032038BD20808310007000404FF40073E3
:104C200093FAA3F3B3FA83F303F1845303F56033E8
:104C30009B0001221A6070474FF4007393FAA3F3AC
:104C4000B3FA83F303F1845303F560339B0000222E
:104C50001A607047024B186800F44040704700BF6C
:104C60000070004070B582B0294C00220092236C85
:104C700043F080532364236C03F080530093009B24
:104C8000A36803F00C03082B3ED0224B1A600646A3
:104C9000FCF796F8054604E0FCF792F8401B022862
:104CA0002FD8236813F00073F6D11B4A01931368C1
:104CB0001849174C23F440431E431660136803F44D
:104CC000404301930123019A0B60FCF779F80546F4
:104CD00004E0FCF775F8401B022812D823689A01FB
:104CE000F7D5FCF76DF80C4C054605E0FCF768F8C5
:104CF000401BB0F57A7F04D863685B04F6D50020CA
:104D000000E0032002B070BD012002B070BD00BF02
:104D10000038024060004742007000404FF40063DA
:104D200093FAA3F3B3FA83F303F1845303F56033E7
:104D30009B0001221A6070474FF4006393FAA3F3BB
:104D4000B3FA83F303F1845303F560339B0000222D
:104D50001A6070474FF4806393FAA3F3B3FA83F3B6
:104D600003F1845303F560339B0001221A607047FE
:104D70004FF4806393FAA3F3B3FA83F303F18453FC
:104D800003F560339B0000221A607047214BDA68FC
:104D9000D00605D52049CA6910200243CA61D860EF
:104DA0001C4BDA68910606D51B49CA69202042F0DF
:104DB0000802CA61D860174BDA68520606D5164950
:104DC000CA69402042F00402CA61D860114BDA6817
:104DD000100606D51049CA69802042F00202CA6155
:104DE000D8600C4BDA68D10507D50B49CA694FF476
:104DF000807042F00102CA61D860064BDA689207FF
:104E000006D50549CA69022042F02002CA61D8606D
:104E1000704700BF003C024080120020F0B5254CD6
:104E2000257E012D2ED01F46234B16461A6942F0CF
:104E300080721A611D694FF0030E45F000751D6107
:104E4000012284F800E0616122761A6922F440723E
:104E50001A611A6970B1012816D002281FD042F4D5
:104E600040721A611A6942F001021A610020C1E918
:104E70000067F0BD1A611C69F6B244F001041C61C0
:104E80000E70F0BD0220F0BD42F480721A61186904
:104E9000B6B240F00100186100200E80F0BD42F46F
:104EA00000721A611A6942F001021A6100200E6054
:104EB000F0BD00BF80120020003C0240704700BFE0
:104EC000704700BF314BDB6803F4F973B3F5F97F2A
:104ED00070B52F4C25D02D4BDA68D2070DD50122A5
:104EE000DA6023782A4D93422BD02B78022B38D0CE
:104EF0006869FFF7E3FF002323702378244A03F057
:104F0000FF016BB9214B11761A6922F0FF021A6179
:104F10001A6922F080721A611A6922F000721A610D
:104F200070BD2378012B22D02378022B0CBF25697A
:104F30006569FFF72BFF2846FFF7C2FF00232370A8
:104F4000C9E76B68013B6B606B68ABB1E868FFF762
:104F5000B5FFEB680133EB60E868297AFEF720FFC4
:104F6000CBE7FEF785FF2869FFF7A8FFC3E74FF0FF
:104F7000FF33E568E360DCE74FF0FF36EE602B704F
:104F8000FEF776FF3046FFF799FFB6E7003C024098
:104F900080120020054B1A69002A01DB01207047AE
:104FA0000349044A596000205A607047003C02409F
:104FB00023016745AB89EFCD034A136943F00043F2
:104FC00013610020704700BF003C0240054B5A6946
:104FD000D20705D50449054A996000209A607047B8
:104FE00001207047003C02403B2A19087F6E5D4C4F
:104FF000034A536943F0010353610020704700BF27
:10500000003C0240014BD869704700BF801200206D
:10501000144B70B500220446DA61FBF7D1FE124D45
:10502000064601E0601C11D1EB680F4AD903F9D4A0
:10503000D368DB0744BF0123D3600B4BDB6803F469
:10504000F973B3F5F97F09D0002070BD24B1FBF7E7
:10505000B7FE801B8442E7D2032070BDFFF796FEA7
:10506000012070BD80120020003C02402DE9F0417B
:10507000284C257E012D02D10220BDE8F0811F467B
:10508000054601234CF25030164688462376FFF73A
:10509000BFFFB8B9204B1A6922F440721A611A692D
:1050A000A5B91A611969F6B241F00101196188F8D0
:1050B00000604CF25030FFF7ABFF174A136923F042
:1050C0000103136100232376BDE8F081012D15D083
:1050D000022D09D042F440721A611A6942F00102AD
:1050E0001A61C8E90067E4E742F400721A611A69BC
:1050F00042F001021A61C8F80060DAE742F48072F7
:105100001A611969B6B241F001011961A8F800608D
:10511000CFE700BF80120020003C0240044A137811
:1051200043F0020313704CF25030FFF771BF00BF21
:10513000143C0240704700BF00284BD030B502231A
:10514000044689B00D4680F83930FFF7F3FF211D82
:105150002068FDF7B3FBAB68296820680322FDF7E0
:10516000E5FC2068E96882696B6822F00C028261C4
:10517000826913438361436843F08003436083681B
:10518000029123F070038360836843F040038360DF
:10519000836823F007038360836843F0040383601C
:1051A0000025702301A9019305950695079504959F
:1051B0000395FDF78DFD23685A6822F070025A604E
:1051C0005A68012142F0500228465A6084F839108A
:1051D00009B030BD01207047704700BF022302684C
:1051E00010B580F83930116A41F211130B400446B2
:1051F00043B9116A40F244430B401BB9136823F0D2
:10520000010313602046FFF7E7FF002084F8390010
:1052100084F8380010BD00BF10B5044601220068B4
:105220000021FDF79BFE2268136843F00103136021
:10523000002010BD002210B5044611460068FDF79D
:105240008DFE2268116A41F211130B4043B9116AB5
:1052500040F244430B401BB9136823F00103136071
:10526000002010BD10B504460068C36843F0020377
:10527000C36001220021FDF771FE2268136843F02C
:1052800001031360002010BD002210B50446114632
:105290000068FDF763FE2368DA6822F00202DA6034
:1052A000196A41F211120A4042B9196A40F24442A5
:1052B0000A401AB91A6822F001021A60002010BDD3
:1052C000F8B590F83940E4B2022C28D090F8394073
:1052D000E4B2012C1DD0044616460D4601220021E1
:1052E0000068104FFDF73AFE2168206A0E4BC36339
:1052F0002A463346C7643431FEF722FA2368DA6857
:1053000042F40072DA601A6842F001021A6000206A
:10531000F8BD01B91AB9022380F83930DBE720461D
:10532000F8BD00BF7D28000875260008002210B5D2
:10533000044611460068FDF711FE2368DA6822F47E
:105340000072DA60196A41F211120A4042B9196A10
:1053500040F244420A401AB91A6822F001021A6067
:10536000002010BD03680422186A02FA01F120EA45
:10537000010018621A6A114319625A6C42F4004221
:105380005A641A6842F001021A600020704700BF98
:10539000FFF7E8BF0C2937D8DFE801F030363636A2
:1053A0002A3636362436363607000368DA6842F085
:1053B0001002DA60DA6842F08002DA60186A0422C9
:1053C00002FA01F120EA01021A621A6A1143196213
:1053D0005A6C42F400425A641A6842F001021A60A0
:1053E000002070470368DA6842F00802DA60E1E7FB
:1053F0000368DA6842F00402DA60DBE70368DA681F
:1054000042F00202DA60D5E70368D3E7FFF7C2BFD4
:105410000C294FD8DFE801F0484E4E4E424E4E4E1A
:105420003C4E4E4E07000368DA6822F01002DA6044
:105430001A6A042000FA01F122EA010119621A6ACB
:105440001A62196A40F244420A401AB9DA6822F034
:105450008002DA60196A41F211120A4042B9196AEF
:1054600040F244420A401AB95A6C22F400425A648B
:10547000196A41F211120A4042B9196A40F24442D3
:105480000A401AB91A6822F001021A600020704717
:105490000368DA6822F00802DA60C9E70368DA68AC
:1054A00022F00402DA60C3E70368DA6822F002023D
:1054B000DA60BDE70368BBE7FFF7AABFF8B590F86D
:1054C0003940E4B2022C15D090F83940E4B2012CF6
:1054D0000CD00D4604460C2D65D8DFE805F00D64B0
:1054E000646453646464316464644200002A5CD17F
:1054F000002B5AD02046F8BD2668006A2D492E4F51
:10550000C163C764114606F13402FEF719F9236836
:10551000DA6842F40072DA60186A042202FA05F1CD
:1055200020EA01021A621A6A114319625A6C42F4A3
:1055300000425A641A6842F001021A600020F8BD65
:105540002668806A1B491C4FC163C764114606F177
:105550003C02FEF7F5F82368DA6842F40062DA608C
:10556000DAE72668C06A1349134FC163C76411465E
:1055700006F14002FEF7E4F82368DA6842F480524C
:10558000DA60C9E72668406A0A490B4FC163C764FD
:10559000114606F13802FEF7D3F82368DA6842F4C0
:1055A0008062DA60B8E70368B6E7022480F8394021
:1055B0008FE700BFC52600087D280008FFF77EBFE3
:1055C00010B40C294BD8DFE801F0444A4A4A3E4A5D
:1055D0004A4A384A4A4A07000368DA6822F4805285
:1055E000DA601A6A042404FA01F122EA010119625C
:1055F0001A6A1A62196A41F211120A4042B9196A0A
:1056000040F244420A401AB95A6C22F400425A64E9
:10561000196A41F211120A4042B9196A40F2444231
:105620000A401AB91A6822F001021A60012380F8B0
:1056300039305DF8044B002070470368DA6822F4C3
:105640000062DA60CDE70368DA6822F48062DA602B
:10565000C7E70368DA6822F40072DA60C1E703681A
:10566000BFE700BFFFF7ACBF03680422186A02FA65
:1056700001F120EA010018621A6A114319625A6C9A
:1056800042F400425A640020704700BF03680420BF
:105690001A6A00FA01F122EA01021A621A6A1A620F
:1056A000196A41F211120A4022B9196A40F24442C1
:1056B0000A407AB1196A41F211120A4042B9196AD4
:1056C00040F244420A401AB91A6822F001021A60F4
:1056D000002070475A6C22F400425A64EAE700BF87
:1056E000FFF7D4BFFFF7D2BF0368DA6842F00202C7
:1056F000DA60DA6842F00402DA60186A042202FA18
:1057000001F120EA010018621A6A114319625A6C09
:1057100042F400425A640020704700BF0368DA6810
:1057200022F00202DA60DA6822F00402DA601A6A11
:10573000042000FA01F122EA01021A621A6A1A62CE
:10574000196A41F211120A4022B9196A40F2444220
:105750000A407AB1196A41F211120A4042B9196A33
:1057600040F244420A401AB91A6822F001021A6053
:10577000002070475A6C22F400425A64EAE700BFE6
:1057800090F83830012B20D0012310B480F8383045
:1057900031F03003036806D19C6824F070049C60EB
:1057A0009C6821439960596841F00101596059682A
:1057B00021F0040159605C68002122435A605DF8C1
:1057C000044B80F83810084670470223184670478B
:1057D00090F83830012B24D0012310B480F83830F1
:1057E00031F03003036806D19C6824F070049C609B
:1057F0009C682143996059685DF8044B41F00101B0
:105800005960596821F00401596059680A435A6087
:10581000DA68002142F02002DA6080F83810084689
:10582000704702231846704790F83830012B28D073
:10583000012370B480F8383031F03003036806D1AA
:105840009C6824F070049C609C68214399605968AE
:10585000056B0D4C0D4E41F001015960596821F066
:105860000401596059680A435A60DA68EC6342F4EB
:1058700000520024EE64DA6080F83840204670BCA4
:1058800070470221084670474D5900087D280008DE
:1058900090F83830012B1DD002460220136830B436
:1058A00082F839005C6824F0700403C95C605C68AD
:1058B00020435860986820F0800098609868002421
:1058C000012501439960204682F8395082F838401A
:1058D00030BC70470220704790F83820012A1CD055
:1058E000F0B44A680F688E68CD680C693A43324359
:1058F00003462A43486989691D68224302430A43D3
:1059000002200124002183F839006A64084683F8E4
:10591000394083F83810F0BC70470220704700BF50
:1059200090F83820012A0DD00346006810B40022F8
:1059300001240165104683F8394083F838205DF86A
:10594000044B704702207047704700BF08B5806B5A
:10595000012380F83930FFF7F7FF08BD704700BF1B
:1059600090F83900704700BF1BDFABE22DDFA9E2E2
:105970000CDFA7E20FDFA5E2B6DFA3E206DFA1E2BC
:1059800029DF9FE23FDF9DE20BDF9BE201DF99E22F
:1059900037DF97E26CDF95E25DDF93E28DDF91E226
:1059A00032DF8FE231DF8DE22FDF8BE250DF89E2E1
:1059B00084DF87E241DF85E214DF83E218DF81E2E2
:1059C0004EDF7FE236DF7DE225DF7BE210DF79E22A
:1059D00009DF77E213DF75E26BDF73E227DF71E245
:1059E0000EDF6FE2A2DF6DE205DF6BE21DDF69E231
:1059F0002ADF67E203DF65E255DF63E258DF61E239
:105A000028DF5FE230B4029C039D52DF30BC59E2D4
:105A100039DF57E22EDF55E242DF53E217DF51E272
:105A20007EDF4FE266DF4DE26ADF4BE219DF49E2DB
:105A300053DF47E224DF45E274DF43E22BDF41E23C
:105A40005CDF3FE23CDF3DE27ADF3BE20ADF39E246
:105A50001EDF37E2BEDF35E272DF33E204DF31E220
:105A6000694600B5FFF7DEFF08BC04B018470FB465
:105A70000520F5E70FB40220F2E70FB40320EFE7AB
:105A80000FB40720ECE70FB40620E9E70FB40F20AE
:105A9000E6E70FB40420E3E70FB40A20E0E70FB411
:105AA0000C20DDE70FB41120DAE70FB40920D7E7A7
:105AB0000FB41020D4E70FB40B20D1E70FB40E20A1
:105AC000CEE70FB40D20CBE70FB40120C8E70FB429
:105AD0000820C5E76946064C51F8040B431C01EB4E
