:020000040800F2
:100000000080012071CF0008FD310008C1CF000839
:100010000D3200081D3200082D32000800000000DB
:100020000000000000000000000000003D32000859
:100030004D320008000000005D320008DD3100088C
:10004000C1CF0008C1CF0008C1CF0008C1CF000850
:10005000C1CF0008C1CF0008C1CF0008C1CF000840
:10006000C1CF0008C1CF0008C1CF0008C1CF000830
:10007000C1CF0008C1CF0008ED320008F9320008F6
:10008000C1CF0008C1CF00081D33000800000000E8
:10009000000000000000000000000000C1CF0008C8
:1000A000C1CF0008C1CF0008C1CF0008C1CF0008F0
:1000B000E1320008C1CF0008C1CF0008C1CF00085D
:1000C000C1CF0008C1CF0008C1CF0008C1CF0008D0
:1000D00005330008C1CF0008C93200080000000045
:1000E000C1CF0008C1CF0008C1CF00080000000048
:1000F000000000000000000000000000C1CF000868
:1001000000000000C1CF0008BD320008C1CF0008C8
:1001100000000000000000000000000000000000DF
:100120001133000899320008A5320008C1CF000839
:10013000C1CF000800000000000000000000000027
:10014000000000000000000000000000C1CF000817
:10015000B1320008C1CF0008C1CF0008D532000875
:10016000C1CF0008C1CF000800000000000000005F
:10017000000000000000000000000000000000007F
:1001800000000000C1CF00080000000000000000D7
:04019000C1CF0008D3
:1001C000134B002B08BF114B9D46A3F5803A00212D
:1001D0008B460F461148124A121A0CF03DFD0D4B8A
:1001E000002B00D098470C4B002B00D098470020E4
:1001F000002104000D000B480CF0DCFC0CF004FDA9
:10020000200029000CF03EFE0CF0DAFC0000080093
:10021000000000000000000000000000F0090020C5
:10022000A84D0020E1CB000808B507200AF03CFDEE
:10023000002211466FF00B000AF048FD0022114623
:100240006FF00A000AF042FD002211466FF009002B
:100250000AF03CFD002211466FF004000AF036FD62
:10026000002211466FF003000AF030FD0022114613
:100270006FF001000AF02AFD002211464FF0FF3016
:10028000BDE808400AF022BDF8B51E4C1E4E002500
:10029000042329464FF4887204F108006380258006
:1002A00065600CF0D9FC194B84F82551186893F857
:1002B00004E01F8A84F8285184F8295184F82A51CF
:1002C00084F82C5184F82D5184F82E5184F82F5144
:1002D00053F8085F94F82B210D49C4F81801988849
:1002E000366884F81CE1012342F0010284F82431CD
:1002F000A4F82671C4F81E51A4F8220184F82B2119
:100300000E60F8BD10130020D800002038610108ED
:1003100008130020002310B48B704B706AB90123BE
:100320004A604B7090F834315DF8044B092243F079
:10033000010380F834310A707047042A0DD103227A
:10034000012348600A704B7090F834315DF8044B1B
:1003500063F07F0380F834317047082A34D0B2F557
:10036000047FC0F09D80A2F58054B4F5805F30D248
:10037000B2F5805F4ED041F20104A2424FD041F26B
:100380000204A24250D041F20304A24256D041F2EC
:1003900004039A425ED041F206039A4266D041F2CB
:1003A00008039A4270D041F210039A4272D041F28F
:1003B00014039A42B6D10123002400F225120C70D6
:1003C0008B704B704A60BFE70222031D0A704B60BE
:1003D000BAE7A2F50054B4F5805FA3D2B2F5005F8E
:1003E00027D042F20204A2422FD042F204039A42E2
:1003F00036D042F208039A423ED042F20C039A42AF
:1004000090D10123002400F22F120C708B704B70DE
:100410004A6099E700F58C720B704A6094E700F22D
:1004200019120B704A608FE700F21B120B704A60C2
:100430008AE700F593720B704A6085E700F58E74C9
:1004400001220B704C604A707EE700F227120B709D
:100450004A6079E7012200F58F730A704B6073E7F9
:10046000072200F594730A704B606DE7012200F5D6
:1004700090730A704B6067E70824062200F59673B4
:100480000C708A704B605FE7002200F591730A7070
:100490004B6059E7002200F592730A704B6053E7F6
:1004A000A2F580740123FF2C4B7008D8A3070AD152
:1004B00000F10803234402224B600A7044E7B4F5BC
:1004C000887FBFF42FAFA2F58472024400234A60F4
:1004D0000B7039E7F0B583B002AB03E906009DF875
:1004E0000230012B37D0062B02D0002003B0F0BD24
:1004F00090F82B5190F82A2190F8291190F8284172
:1005000090F8193190F81B6190F82671ED070DD520
:100510000132D2B2934245D0B1424FD0BC4245D015
:1005200080F82A2180F8291180F828419A421AD2AD
:10053000B1424FF0010320D390F82F31BC4243F079
:10054000020380F82F3103D343F0010380F82F31E9
:10055000012003B0F0BD9DF80030002B0CBF02203D
:10056000002003B0F0BD90F82F31B14243F00403F6
:1005700080F82F314FF00003DED2BC4202D390F856
:100580002F31E1E7002BE3D00E4B186800F0A6FAFC
:10059000019BC0F30721C0F30742187059709A708D
:1005A0000020A3E70131C9B20022B5E790F82F413E
:1005B00064F07F0480F82F410024B1E70134E4B2F5
:1005C0000021ABE7081300202DE9F04782B002AB11
:1005D00003E906009DF80130012B07D09DF8023099
:1005E000062B07D0002002B0BDE8F087032002B040
:1005F000BDE8F08790F82A5190F8198190F82961A8
:1006000090F8287190F81BA190F82691454538D3B1
:1006100090F82F3143F0040380F82F310023564522
:100620000DD390F82F314F4543F0020380F82F315E
:1006300003D343F0010380F82F310120D3E74F4566
:1006400021D2002BF9D0019A517813789278044680
:100650001A4843EA012343EA024300682A46314626
:1006600000F0F8F994F82B31DB07BBD50135EDB27A
:10067000A8450BD084F82A5184F8296184F82871A0
:10068000B0E70123CBE790F82F31D2E70136F6B27D
:10069000B2450DD10137FFB2B9450BD194F82F31D6
:1006A000002663F07F0384F82F3135463746E1E7B3
:1006B0000025DFE700263546DCE700BF08130020F1
:1006C00070B582B002460E46002569461A4801956B
:1006D0000095FFF71FFE9DE806001748FFF7FAFE9A
:1006E0000128307114D09DF80030082B21D8DFE8A4
:1006F00003F016120505050512051A00019B1B687B
:100700003360022802D1019B00221A7002B070BD32
:10071000356002B070BD019B1B883360F1E7019B1F
:100720001B783360EDE7019B1B6823F07F43336048
:10073000E7E700233360E4E71013002030B583B00F
:10074000002302460D461848019369460093FFF7BF
:10075000E1FD9DF80130012B6C4612D09DF8003070
:10076000082B1ED8DFE803F01A17141414141714FA
:100770000500019A136825F07F4503F07F431D4370
:10078000156094E806000848FFF71EFF03B030BD6F
:10079000019B1D60F5E7019B1D80F2E7019B1D7029
:1007A000EFE70120F2E700BF101300200A4A08B566
:1007B000136873B118446946884202D8106018461D
:1007C00008BD0DF0AFFD0C2303604FF0FF3318465A
:1007D00008BD024B1360EDE7F0090020A84D002092
:1007E00011B100230B604B6000207047704700BFC1
:1007F0000120704708B50DF095FD162303604FF0FA
:10080000FF3008BD08B50DF08DFD16230360FEE72F
:1008100070B5161E07DD0C468D1914F8010BAFF3E9
:100820000080AC42F9D1304670BD00BF4FF0FF30C0
:10083000704700BF4FF400534B600020704700BF6B
:10084000012070470020704770B5161E07DD0C466A
:100850008D19AFF3008004F8010BA542F9D13046A1
:1008600070BD00BF0EB44FF0FF3003B0704700BF43
:1008700008B50DF057FD0A2303604FF0FF3008BDA7
:1008800008B50DF04FFD022303604FF0FF3008BDA7
:100890004FF0FF30704700BF4FF400534B60002013
:1008A000704700BF08B50DF03DFD1F2303604FF0FA
:1008B000FF3008BD08B50DF035FD0B2303604FF088
:1008C000FF3008BD08B50DF02DFD0C2303604FF07F
:1008D000FF3008BDC3B207EE103AB8EEC77ADFEDBD
:1008E000306A27EE006AC0F30723B4EEE66AF1EE41
:1008F00010FA84B007EE903AC0F307404ADC9FED4F
:10090000296A60EE066A26EE877AC7EE066ABCEEB2
:10091000E67A8DED007A9DF800109FED217AF8EED1
:10092000E77A60EE276AF4EEC76AF1EE10FA33DC7C
:10093000DFED1C6A20EE267A67EE277A87EEA67A2C
:10094000FCEEC77ACDED007A9DF800209FED147A79
:1009500007EE900AF8EEE77A60EE276AF4EEC76ACF
:10096000F1EE10FA1ADC9FED0F7A20EE070A20EE66
:10097000270AC0EE077AFCEEE77ACDED007A9DF803
:100980000030002061F3070062F30F2063F317408B
:1009900004B07047FF21C0E7FF22D7E7FF23F0E74D
:1009A00000007F430000C842C2B2C0F3072302EB3D
:1009B000820202EB820203EB8303C0F3074030B5EF
:1009C0009200124C03EB830300EB800001FB02F268
:1009D00000EB80009B00A4FB025201FB03F38500A7
:1009E000C2F34732A4FB03E301FB05F1002062F3ED
:1009F0000700C3F34733A4FB012163F30F20C1F3C6
:100A0000473161F3174085B005B030BD5917B7D1F4
:100A100010B4C0F3072251FA80F40A44FF2CC0F34B
:100A20000743194428BFFF24FF2AE4B228BFFF224E
:100A30000020FF2964F30700D2B228BFFF2162F330
:100A40000F20C9B261F3174085B005B05DF8044BC3
:100A5000704700BF2DE9F04101268E4082B002EBC5
:100A60004202F6430193C3F3072EDFB200EBC2004C
:100A700076B2C1F10701C3F3074300250EFA05F46E
:100A8000027890F8088090F810C004F080040C41BF
:100A90003240224306EA080806EA0C0C80F8088077
:100AA00080F810C000F8012B07FA05F403FA05F2EC
:100AB00090F8078090F80FC004F0800402F08002E4
:100AC0000C410A41013544EA080442EA0C02082DAF
:100AD000C471C273D2D102B0BDE8F081F0B502EBAF
:100AE0004202002500EBC20083B02A462E462F4664
:100AF00010F801EBC479C37B4EFA01FE0C410B41A7
:100B00000EF0010E04F0010403F001030EFA05FEDD
:100B1000AC40AB4001354EEA06063C431343082D7A
:100B2000F6B2E7B2DAB2E3D1002067F3070066F36A
:100B30000F2062F3174003B0F0BD00BFF0B502EB29
:100B4000420287B000EBC202013A0DF1FF330DF112
:100B5000170412F8010F03F8010F9C42F9D1002588
:100B60000026B64637460DF1FF34072014F801CFB2
:100B7000237C227A2B414CFA05FC2A4103F0010325
:100B800083400CF0010C02F001020CFA00FC8240E0
:100B9000334301384CEA070742EA0E02DEB2431C37
:100BA000FFB25FFA82FEE1D10135082D4F7081F866
:100BB00000E08E7001F10301D2D107B0F0BD00BF9B
:100BC0002DE9F04786B000231F4600931E4601938F
:100BD000029303930493059391F8018091F800C068
:100BE00091F802E06C46072501E02778013D48FABC
:100BF00005F303F00103B3403B4304F8013B4CFA17
:100C000005FA4EFA05F394F80790E77B0AF0010A1B
:100C100003F001030AFA06FAB3404AEA09093B4322
:100C200084F80790E373002DDFD10136082E01F11F
:100C3000030102D09DF80070CEE702EB420200EB08
:100C4000C202013A0DF1FF330DF1170013F8011F35
:100C500002F8011F9842F9D106B0BDE8F08700BF45
:100C600070B586B00C46054669461646FFF766FF26
:100C7000324621462846FFF7A3FF00230DEB03026F
:100C8000E1181088E052033392788A70182BF5D15E
:100C900006B070BD01F0EABE70B5354C354B23602F
:100CA00092B0002363222046E2606360A360236168
:100CB00006F092FA00284CD112A94FF4805341F863
:100CC000403D2B4805F0D2FF00283FD1284806F0D0
:100CD000BBFA002837D1002306A9254806930793BD
:100CE00006F08CF860BB002369462148009301930D
:100CF00009F06EFF08BB002360261E251A460BA9CB
:100D00001B480D930F93109311930B960C9506F0BF
:100D100071FC78B950230BA9042215480C9306F0F6
:100D200069FC08B101F0A2FE124B2068984213D072
:100D300012B070BD01F09AFEECE701F097FEDAE721
:100D400001F094FECFE701F091FEC4E701F08EFEC2
:100D5000BCE701F08BFEAFE70122002106F032FD77
:100D600020680122042106F02DFD12B070BD00BFE5
:100D7000081500200000014010B5174C002384B076
:100D80004FF080414FF4C87220462160E2606360FA
:100D9000A360236106F020FA80B904A94FF48053C0
:100DA00041F8103D0C4805F061FF08B101F05EFE0E
:100DB0000A4B2068984204D004B010BD01F056FEE2
:100DC000EBE70122002106F0FDFC2068012204214E
:100DD00006F0F8FC04B010BD8015002000000140B2
:100DE0000368B3F1804F00D070470A4B1B68196A43
:100DF00041F21112114208D1196A40F244421142E3
:100E000003D11A6822F001021A60034B01221A7002
:100E1000704700BF80150020C4000020F0B5594A7B
:100E20000368934283B013D0B3F1804F01D003B075
:100E3000F0BD03F50E33002201921A6C42F001025C
:100E40001A641B6C03F001030193019B03B0F0BD16
:100E5000002302F59C320093516C4B4DDFF840C1EA
:100E6000EB6041F001015164526C2B6102F0010210
:100E70000446009240204FF0406E4FF480474FF4FC
:100E80004036009A6B61EB612B63042103224FF41F
:100E90000003A8602846C5F800C0C5F804E0AF61AB
:100EA0002E626962AA62EB6204F0DEF9002865D165
:100EB000364EE5614FF0406140224FF480604FF4C0
:100EC0008043DFF8E0E0AC634FF440370425716005
:100ED000B26003214FF400023061B3613046002359
:100EE000C6F800E037627562B162F262F360736166
:100EF000F361336304F0B8F900283CD1244D254A4E
:100F000026624FF040604023B4634FF480370426DC
:100F100003212A6068604FF40002AB60284600237A
:100F20002F626E62A962EA62EB602B616B61AB615A
:100F3000EB612B6304F098F9D0B92A6865621368F5
:100F40001248AC6343F0100313600021124A04F00E
:100F500099FC50B9114A0D48042104F093FC002873
:100F60003FF465AF01F082FD61E701F07FFDF1E73D
:100F700001F07CFDE1E701F079FDBFE701F076FDCE
:100F800096E700BF0000014048140020BC15002077
:100F9000A814002040640240BD2F0008950C0008F2
:100FA0008864024028640240094A0368934200D0E2
:100FB000704710B5044601221846002106F002FCD5
:100FC000206801220421BDE8104006F0FBBB00BFF1
:100FD00000000140114A036893420BD0B3F1804FE7
:100FE00000D070470E4A136C23F0010313641C20D9
:100FF00009F0AEBE02F50B3210B5136C044623F0B7
:101000000803006A136404F0C7F9E06904F0C4F946
:10101000606ABDE8104004F0BFB900BF000C00409A
:1010200000380240414B02689A4200D070472DE9D7
:10103000F041054682B03E483E4C3F4EDFF80C8101
:101040000DF09EFF04F10807617840460DF098FF0F
:1010500014F8013F06F8013FA742F5D137480DF0DB
:10106000E3FF374B1A78CAB95A78DAB99A78CAB90D
:10107000DA78BAB91A79AAB95A799AB99A798AB939
:10108000DA797AB92F4B1A605A60284608232C4A1D
:101090002C4908F0F7FE02B0BDE8F081294B81220F
:1010A0005A70F2E79978D8785A7840EA012092B1DC
:1010B000012AF3D15A791E79DC799979130443EA2C
:1010C0000663234343EA0121FFF738FB68B91D4B50
:1010D00008225A70D9E76946FFF7F2FA9DF8043002
:1010E0005BB1184B84225A70CFE701281AD003282D
:1010F00014D1144B8C225A70C7E7009A1149100E74
:1011000060F30703100C60F30F23100A60F317431A
:1011100062F31F6304224B604A70B6E70A480DF081
:1011200083FFB2E7074B88225A70AEE700380040D1
:101130008C6101083B170020D3160020B061010824
:101140003C170020D4160020A06101089861010816
:101150000D4B0E4A10B50A211A604FF4007400229C
:1011600018469C61D9625A609A60DA601A615A61C5
:101170001A625A629A6208F037FB00B910BDBDE8E6
:10118000104001F073BC00BF1C1600200038004066
:101190002F4B02689A4200D07047F0B587B0002507
:1011A00003F5003300951A6C2A4E42F480421A640B
:1011B0001B6C039503F480434FF4444100930322D6
:1011C00005230191044602272348049201A90593AF
:1011D000DDF800E0029703F0F5FA204A75604FF45D
:1011E00080633046B560F5607561B561F561356263
:1011F00075623260336104F037F818BB3268184DFD
:101200001368E66443F01003B46340211360154E85
:101210002E6000234FF480622846A9602A616B602B
:10122000EB606B61AB61EB612B626B6204F01CF8ED
:1012300058B92A68A5641368AC6343F010031360BF
:1012400007B0F0BD01F012FCD8E701F00FFCF0E7A9
:10125000003800407416002000040240586002402C
:10126000DC160020706002400C4B02689A4200D0ED
:1012700070470B4A10B5136C044623F480430948A9
:1012800013644FF4444103F08BFBE06C04F084F8EA
:10129000A06CBDE8104004F07FB800BF00380040EB
:1012A00000380240000402402DE9F0478AB0394B73
:1012B000394F3A4D3A4E002401941A6B42F0040221
:1012C0001A631A6B02F004020192019A02941A6BDB
:1012D00042F080021A631A6B02F080020292029AB4
:1012E00003941A6B42F001021A631A6B02F00102B6
:1012F0000392039A04941A6B42F002021A631B6B66
:10130000069603F00203049338464FF4005305A9F0
:101310000126049A05934FF002094FF0FF0A079443
:1013200003F050FA05A938460794CDF814A00696A4
:10133000CDF8209003F046FA07230C2205A9284691
:10134000099305924FF02008CDF81890079408945F
:1013500003F038FA05A92846CDF82090069607969E
:10136000CDF8148003F02EFA32464146284603F0A9
:10137000ADFB642002F0B2FC22464146284603F051
:10138000A5FB22465146384603F0A0FB0AB0BDE853
:10139000F08700BF00380240000802400000024011
:1013A00000001210000000002DE9F04F0378B74A4A
:1013B000613B87B0D2F83041132B00F21281DFE895
:1013C00013F03A005D00100110011001100110012E
:1013D0001001100110011001100110011001100185
:1013E000830010011001AE0014004378692B00F057
:1013F000A181732B40F0F58008460A2205A90EF062
:1014000047FF054605980378002B40F073812B4673
:101410004FF0FF329E499F480DF0B2FDABB22380E2
:101420006380A380E38023816381A381E381002023
:1014300007B0BDE8F08F43786F2B08464FF00A02E3
:1014400005A900F0E4800EF023FF05460598037817
:1014500004F12006002B40F03F812B464FF0FF3275
:101460008D498C480DF08CFDABB223846384A3843A
:10147000E38423856385A385E385D8E708460A22AC
:1014800005A90EF005FF05460598037804F140060E
:10149000002B40F0AB802B464FF0FF327F497D4858
:1014A0000DF06EFDA8B2A4F84000A4F84200A4F824
:1014B0004400A4F84600A4F84800A4F84A00A4F8A0
:1014C0004C00A4F84E00B2E74378732B08464FF067
:1014D0000A0205A900F0B6800EF0DAFE054605986E
:1014E000037804F15006002B40F015812B464FF095
:1014F000FF326B4967480DF043FDABB2A4F85030A2
:10150000A4F85230A4F85430A4F85630A4F8583057
:10151000A4F85A30A4F85C30A4F85E3087E7614B39
:10152000B4F84010604803931D460DF029FD218C4E
:101530005E480DF025FDB4F860105D480DF020FD0B
:10154000B4F850105B480DF01BFD21885A480DF08F
:1015500017FD05F1100A05F1300B4FF0000949465F
:101560005648DFF870810DF00BFD039B544853F88B
:10157000041B03930DF004FD52480DF055FD5D462C
:10158000002428680AF04EFC064668680F460AF0F8
:1015900049FC3246CDE900013B4621464046013434
:1015A0000DF0EEFC042C05F10805EAD1DAF8000094
:1015B0000AF038FC0446DAF804000D460AF032FC62
:1015C00009F10109CDE9000122462B463E480DF004
:1015D000D7FCB9F1040F0BF1200B0AF1080ABED1B8
:1015E00025E74FF0FF3007B0BDE8F08F05A90A22CC
:1015F0000EF04EFE2B4607460246284925480DF0C0
:10160000BFFC072F3FF64EAF26F817500FE70EF03E
:101610003FFE05460598037804F13006002B40F0A4
:10162000A5802B464FF0FF3228491A480DF0A8FC40
:10163000ABB223866386A386E38623876387A3876B
:10164000E387F4E60EF024FE05460598037804F1DE
:101650006006002B40F099802B464FF0FF321C496A
:101660000C480DF08DFCABB2A4F86030A4F86230E9
:10167000A4F86430A4F86630A4F86830A4F86A309E
:10168000A4F86C30A4F86E30D1E600BF101300202F
:1016900018620108C0610108E4610108B461010831
:1016A000FC61010800000020246201083862010882
:1016B000486201085C6201087062010880620108EA
:1016C00090620108A0620108CC620108D86101089B
:1016D000F0610108B062010805A90A220EF0D8FDE8
:1016E0002B4607460246384938480DF049FC072F7B
:1016F0008AD9B9E605A90A220EF0CAFD2B4606468C
:101700000246334931480DF03BFC072E3FF686AECA
:1017100024F816508BE605A90A220EF0B9FD2B46D7
:10172000074602462B4929480DF02AFC072F7FF671
:101730006BAFE2E608460A2205A90EF0A9FD0546B0
:101740000598037804F1100673BB2B464FF0FF3267
:1017500021491E480DF014FCABB223826382A382A0
:10176000E38223836383A383E38360E605A90A22DC
:101770000EF08EFD2B4607460246184913480DF021
:10178000FFFB072F7FF640AF52E705A90A220EF0B4
:101790007FFD2B460746024611490C480DF0F0FB31
:1017A000072F7FF631AF5EE705A90A220EF070FD24
:1017B0002B4607460246084904480DF0E1FB072F77
:1017C0007FF622AFC8E700BFE4610108C0610108ED
:1017D00018620108FC61010808620108D86101086B
:1017E000F0610108024BD3F8B03080B21880704726
:1017F00000000020034BD3F8B030188880B202F00C
:101800006DBA00BF00000020F8B52DED028BDFEDB2
:10181000448A70EE287AB0EE408A17EE900A0AF0F9
:1018200001FB3BA3D3E900230AF09CF93AA3D3E9D7
:1018300000230AF075FC0AF07BFD07EE900A67EEC4
:10184000E77A17EE900A0AF0EDFA41EC100B14F06B
:1018500043FA78EE687A55EC104B17EE900A0AF0CE
:10186000E1FA2BA3D3E900230AF07CF92AA3D3E9F8
:1018700000230AF055FC0AF05BFD07EE900A67EEC4
:10188000E77A17EE900A0AF0CDFA41EC100B14F04B
:1018900023FA18EE100A57EC106B0AF0C3FA1CA3D7
:1018A000D3E900230AF05EF91BA3D3E900230AF071
:1018B00037FC0AF03DFD07EE900A67EEE77A17EE77
:1018C000900A0AF0AFFA41EC100B14F005FA51EC53
:1018D000100B0AF02DFD394608EE900A30460AF04A
:1018E00027FD294608EE100A20460AF021FD07EEE2
:1018F000100ADFED0C7A38EE078A28EE278A88EE88
:10190000270A38EEC00ABDEC028BF8BDAFF30080A9
:101910000000000000F06F409A99999999995940F8
:10192000000000444B07FD3A2DE9F84F124CDFF858
:1019300050904FF0000804F110070125A34654F819
:10194000046B30460AF05CFA02460B4640464946B4
:101950000AF0E6FB094B03EB850A0AF0E9FC314685
:1019600000EE100A50460BF02DFBDBF80030BC42B5
:101970001D44E3D1BDE8F88F00000020F8090020E5
:101980000000F03F2DE9F84F0FF2A419D9E90089C2
:1019900069A7D7E900672DED0A8BDFF8A4B1DFF85E
:1019A000A4A15B4D9FED5BAADFED5B9A9FED5B9A77
:1019B000002407EE904AB8EEE78AABEC01AA78EE75
:1019C000297AAAEC01AA17EE900A0AF02BFA4246ED
:1019D0004B460AF0C7F832463B460AF0A1FB0AF034
:1019E000A7FC07EE900A67EEE77A013417EE900A3B
:1019F0000AF018FA41EC100B14F06EF978EE697ADF
:101A0000B0EE40CAF0EE60CA17EE900A0AF00AFA89
:101A100042464B460AF0A6F832463B460AF080FBA7
:101A20000AF086FC07EE900A67EEE77A17EE900A56
:101A30000AF0F8F941EC100B14F04EF918EE100A08
:101A4000B0EE40BAF0EE60BA0AF0ECF942464B460E
:101A50000AF088F832463B460AF062FB0AF068FC5E
:101A600007EE900A67EEE77A17EE900A0AF0DAF9C5
:101A700041EC100B14F030F951EC100B0AF058FC4B
:101A800008EE100A51EC1C0B0AF052FC08EE900A0A
:101A900051EC1B0B0AF04CFC07EE900A78EEA78A7B
:101AA000B4F5007F68EE898AC8EE897A38EE678AD5
:101AB000A5EC018A7FF47DAF21461948194C1A4FD5
:101AC0000BF09EFA002604F110090125A24654F8F5
:101AD000048B40460AF094F902460B4630463946DC
:101AE0000AF01EFB114B03EB850B0AF021FC41466B
:101AF00000EE100A58460BF065FADAF80030A145FE
:101B00001D44E3D1BDEC0A8BBDE8F88FAFF3008034
:101B10008417002000000000000000444B07FD3A3D
:101B200004360020000000200000F03FF8090020EB
:101B30000000000000F06F409A99999999995940D6
:101B40001C36002044420020002A2DE9F0470D46B3
:101B500019DD002B3ED000EBC20490ED017AD1EDEF
:101B6000007A0646D6ED006A27EE877A0830A6EEA0
:101B7000807AA04277EE677AB0EE470AE3EC017A0A
:101B8000A1EC017AE9D1012A3ADD9200AB181EA737
:101B9000D7E90067043A53F804ACAC1854F8040CC5
:101BA0000AF040F98046504689460AF03BF9324631
:101BB0003B4609F0D7FF02460B464046494609F02E
:101BC000D3FF0AF0B5FB44F8040DA5428246E5D1E7
:101BD000BDE8F0870B4601EB8201D0ED016AD3ED41
:101BE000007A044694ED007A67EEA67A0830E0EEBB
:101BF000077AE3EC017A9942B0EE670AEDD1C2E7C9
:101C0000BDE8F087AFF300802D431CEBE2361A3FAE
:101C10002DE9F84FEC4CED4BD4F8B4202DED048BAE
:101C200003F50061023A32F8020F07EE900AF8EE6F
:101C3000677AE3EC017A8B42F5D1E44AE449E24D5C
:101C4000DFF8A4A3E34E10464FF400730BF0BEFF81
:101C50000023E14ADD49E1480BF006FBDE494FF481
:101C6000007208460CF03EF805F1100BD046012733
:101C7000D94BB800A946311855F8042B18444346EF
:101C80000BF0EAFFD9F800305D4508F104081F4465
:101C9000EED1D34D94ED0D8AD5ED009A94ED0C4A1A
:101CA000DAED004AD4ED0F3AD5ED018AD4ED0E5AA3
:101CB00094ED115A95ED029AD4ED106A94ED136AE1
:101CC000D5ED037A94ED127AC64F29EE888A68EE34
:101CD000A38AA4EE248A29EE059AE5EE888A67EEA7
:101CE000867AA6EEA89AE7EE097A17EE900AC5ED75
:101CF000037A0AF097F8B2A3D3E9002309F032FF80
:101D0000804619EE100A89460AF08CF802460B4606
:101D10004046494609F028FF0AF00AFBA8600AF08D
:101D200081F8A7A3D3E9002309F01CFF804618EE31
:101D3000900A89460AF076F802460B464046494624
:101D400009F012FF0AF0F4FA68600AF06BF89CA33D
:101D5000D3E9002309F006FF804618EE100A8946F1
:101D60000AF060F802460B464046494609F0FCFE80
:101D70000AF0DEFAD4ED056AD7ED007A94ED047A24
:101D8000286038EE698A67EEA67AE7EE087AC7ED32
:101D9000007AD5ED049A94ED158A94ED144ADAEDA3
:101DA000014AD4ED173AD5ED058AD4ED165A94EDD3
:101DB000195A95ED069AD4ED186A94ED1B6AD5ED83
:101DC000077A94ED1A7A29EE888A68EEA38AA4EE3F
:101DD000248A29EE059AE5EE888A67EE867AA6EED1
:101DE000A89AE7EE097A17EE900AC5ED077A0AF08D
:101DF00019F873A3D3E9002309F0B4FE804619EE65
:101E0000100A89460AF00EF802460B46404649463B
:101E100009F0AAFE0AF08CFAA8610AF003F868A398
:101E2000D3E9002309F09EFE804618EE900A894609
:101E300009F0F8FF02460B464046494609F094FE79
:101E40000AF076FA686109F0EDFF5DA3D3E900239B
:101E500009F088FE804618EE100A894609F0E2FF74
:101E600002460B464046494609F07EFE0AF060FAFB
:101E7000D4ED076AD7ED017A94ED067A286138EE41
:101E8000698A67EEA67AE8EE077AC7ED017AD5EDA2
:101E9000089A94ED1D8A9AED024AD4ED1C4AD5EDBC
:101EA000093AD4ED1F8AD4ED1E5A95ED0A5A94EDE5
:101EB000219AD4ED206A95ED0B6AD4ED237A94ED46
:101EC000227A29EE888A68EEA38AA4EE248A29EE73
:101ED000059AE8EE258A67EE867AA8EEA69AE9EEDC
:101EE000077A17EE900AC5ED0B7A09F09BFF34A331
:101EF000D3E9002309F036FE804619EE100A894620
:101F000009F090FF02460B464046494609F02CFE78
:101F10000AF00EFAA86209F085FF29A3D3E900238D
:101F200009F020FE804618EE900A894609F07AFFF3
:101F300002460B464046494609F016FE0AF0F8F9FB
:101F4000686209F06FFF1EA3D3E9002309F00AFEBF
:101F5000804618EE100A894609F064FF02460B46D7
:101F60004046494609F000FE0AF0E2F9D7ED026A60
:101F7000D4ED097A94ED087A286238EE698A67EE22
:101F8000A67AE8EE077AC7ED027AD5ED0C9A94EDC1
:101F9000258A9AED034AD4ED244AD5ED0D3AD4EDC5
:101FA000278AD4ED265A95ED0E5A94ED299AD4ED50
:101FB000286A95ED0F6AD4ED2B7A94ED2A7A15E014
:101FC0002D431CEBE2361A3F000000201C36002097
:101FD00084170020F8090020444200200436002025
:101FE00044170020204200203042002029EE888A39
:101FF00068EEA38AA4EE248A29EE059AE8EE258AE3
:1020000067EE867AA8EEA69AE9EE077A17EE900AAE
:10201000C5ED0F7A09F006FF2DA3D3E9002309F0DF
:10202000A1FD804619EE100A894609F0FBFE024622
:102030000B464046494609F097FD0AF079F9A86336
:1020400009F0F0FE22A3D3E9002309F08BFD8046BE
:1020500018EE900A894609F0E5FE02460B46404616
:10206000494609F081FD0AF063F9686309F0DAFE78
:1020700017A3D3E9002309F075FD804618EE100A76
:10208000894609F0CFFE02460B464046494609F014
:102090006BFD0AF04DF9D7ED037AD4ED0B6A94EDA0
:1020A0000A7A286338EE698A67EEA67AE7EE087A3C
:1020B000C7ED037ABDEC048BD6F80028D6F80438B7
:1020C00001320133C6F80028C6F80438BDE8F88F9D
:1020D0002D431CEBE2361A3FF0B585B004AC0A2262
:1020E00044F8040D21460EF0D3F8214605460A2295
:1020F00003980EF0CDF821460A22064603980EF00A
:10210000C7F80021044603980EF00EF86B1C042B50
:102110002ED8032E2FD8012C27D86B1C17D006EBF6
:102120008503164A04EB430302EB830383ED0C0A99
:1021300010EE100A09F076FE2346CDE90001324682
:1021400029460F480CF01CFF002005B0F0BD0B4BDA
:1021500004EB460203EB820787ED0C0A87ED140AB5
:1021600087ED1C0A87ED240AE2E76FF00300ECE735
:102170006FF00100E9E76FF00200E6E700000020E1
:10218000EC62010830B585B004AC0A2244F8040DB5
:1021900021460EF07DF8214605460A2203980EF0EE
:1021A00077F80021044603980DF0BEFF6B1C042B4A
:1021B00026D8012C21D86A1C134B13D004EB4502FE
:1021C00003EB820383ED040A10EE100A09F02AFEE5
:1021D0002246CDE9000129460C480CF0D1FE002032
:1021E00005B030BD03EB840080ED040A80ED060AE3
:1021F00080ED080A80ED0A0AE6E76FF00200EFE7DB
:102200006FF00100ECE700BF00000020246301082C
:102210002DE9F04F83B002A90A2241F8040D0EF017
:1022200037F80A220546002101980EF031F8032DF7
:1022300039D8214C54F8256044F82500236861689A
:10224000A268C3F500735B1A9B1A002B2EDB0246B3
:1022500029461A48DFF86C900CF092FE4FF0000807
:1022600004F110070125A34654F8046B304609F029
:10227000C7FD02460B464046494609F051FF104B48
:1022800003EB850A0AF054F8314600EE100A504676
:102290000AF098FEDBF80030BC421D44E3D1002078
:1022A00003B0BDE8F08F6FF00100F9E744F8256056
:1022B0006FF00200F4E700BF00000020586301083F
:1022C000F80900200000F03F2DE9F04F264B85B0C3
:1022D00003F1100A039303F1300B4FF00009494654
:1022E0002248DFF898800CF04BFE039B204853F8FF
:1022F000041B03930CF044FE1E480CF095FE5D4653
:102300000024286809F08EFD064668680F4609F02B
:1023100089FD3246CDE900013B4621464046013465
:102320000CF02EFE042C05F10805EAD1DAF80000C5
:1023300009F078FD0446DAF804000D4609F072FD54
:1023400009F10109CDE9000122462B460A480CF0AB
:1023500017FEB9F1040F0BF1200B0AF1080ABED1E8
:1023600005B0BDE8F08F00BF0000002080620108CA
:1023700090620108A0620108CC620108B062010805
:102380002DE9F04F0378652B85B000F08A80662B2D
:102390003CD0642B04D04FF0FF3005B0BDE8F08F87
:1023A0004378652BF7D18378712BF4D104AC0846C0
:1023B00044F8041D0A2221460DF06AFF2146054615
:1023C0000A2203980DF064FF0021044603980DF0E3
:1023D000ABFE6B1C042B7CD8012C77D86A1C414BBC
:1023E00069D004EB450203EB820383ED040A10EE8F
:1023F000100A09F017FD2246CDE9000129463A48A6
:102400000CF0BEFD002005B0BDE8F08F4378732BC3
:10241000C1D104AB084643F8041D0A2219460DF049
:1024200037FF0A220546002103980DF031FF032DE6
:102430004FD82C4C54F8256044F825002368616877
:10244000A268C3F500735B1A9B1A002B44DB02469B
:1024500029462648DFF89C900CF092FD4FF00008CA
:1024600004F110070125A34654F8046B304609F027
:10247000C7FC02460B464046494609F051FE1C4B3C
:1024800003EB850A09F054FF314600EE100A50466E
:102490000AF098FDDBF80030BC421D44E3D1002077
:1024A000B1E74378712B7FF476AF0846FFF714FE4F
:1024B00005B0BDE8F08F03EB840080ED040A80EDE9
:1024C000060A80ED080A80ED0A0A90E76FF0020024
:1024D00063E76FF0010060E744F825606FF00200E9
:1024E0005BE700BF00000020246301085863010877
:1024F000F80900200000F03FF0B583B0054616460D
:1025000008460A2201A90DF0C3FE0446019803788B
:1025100093B9314623464FF0FF3210480CF030FD9E
:10252000A0B228806880A880E88028816881A8817E
:10253000E881002003B0F0BD01A90A220DF0A8FE39
:10254000234607460246314604480CF019FD072F82
:10255000E6D8002025F8174003B0F0BDC06101089F
:10256000F0B583B00546164608460A2201A90DF0CB
:102570008FFE04460198037873B9314623464FF025
:10258000FF320E480CF0FCFCE1B2284608220AF0AB
:1025900063FB002003B0F0BD01A90A220DF078FE14
:1025A000234607460246314604480CF0E9FC072F53
:1025B000EAD80020EC5503B0F0BD00BFC0610108AF
:1025C00008B510220DF064FEB0F5803F05D301463A
:1025D00002480CF0D5FC4FF0FF3008BD74630108D1
:1025E00010B5102282B000210DF052FEB0F5803FF0
:1025F00004460ED26946FEF763F89DF80430012BBD
:102600000FD0224600990A480CF0BAFC002002B014
:1026100010BD014607480CF0B3FC4FF0FF3002B08C
:1026200010BD214604480CF0ABFC022002B010BDE6
:10263000C8630108746301089863010830B583B06A
:1026400001A910220DF024FEB0F5803F04461CD2F3
:1026500001A9102201980DF01BFE014605462046F7
:10266000FEF76CF8012818D0032807D02246294627
:102670000D480CF085FC002003B030BD21460B480E
:102680000CF07EFC042003B030BD014608480CF07D
:1026900077FC4FF0FF3003B030BD214605480CF009
:1026A0006FFC022003B030BD0C640108DC6301083C
:1026B000746301089863010800B50F4BD3F8B83074
:1026C0001B78012B85B00FD004AB0C4A43F8102DBA
:1026D00019460B480CF054FC0A4B1B6898680BF029
:1026E000E1FE05B05DF804FB074B93E803006B4681
:1026F0008DE80300ECE700BF000000206C6564007B
:1027000020640108500500204C6101082DE9F04FBC
:10271000002391B005461946202208A8059304938A
:10272000069307930AF098FA202128460CF0DAFC69
:102730000D21064628460CF0D5FC002800F08480C8
:102740000446002E00F09180721B294604A80CF06C
:102750002DFDA21B013A711C08A80CF027FD9DF865
:102760001030633B142B11D8DFE803F02410102D38
:1027700040101010101010101010105110101010E8
:102780000B009DF81130722B00F01181AA4B08A9A3
:1027900004A81B689847411C09D19DF81030652B8F
:1027A00000F0EB80662B00F09C80642B60D011B0B1
:1027B000BDE8F08F9DF81130682B00F0E780002015
:1027C00011B0BDE8F08F9DF81140002CDED108A8B3
:1027D0000BF0A0FD0546014698480CF0D1FB984B44
:1027E000D3F8B030ADB220461D80E0E708A80BF06A
:1027F00091FD0146044693480CF0C2FB904BD3F880
:10280000BC30A4B200201C8011B0BDE8F08F9DF850
:102810001130642BBAD11022002108A80DF038FD28
:10282000B0F5803F044680F0DF8002A9FDF748FF45
:102830009DF80C30012B00F0DC8022460299824882
:102840000CF09EFB0020B2E70A2128460CF04AFC5F
:10285000044600287FF475AF014628460CF042FC80
:10286000044616B100287FF46FAF4FF0FF309EE7AB
:102870009DF81130652BF8D19DF81230712BF4D1F1
:1028800010AC08A844F8380D0A2221460DF000FDCE
:10289000214605460A2202980DF0FAFC0021044662
:1028A00002980DF041FC6B1C042B00F2BD80012C42
:1028B00000F2B7806A1C624B00F0A18004EB450275
:1028C00003EB820383ED040A10EE100A09F0AAFA62
:1028D0002246CDE9000129465C480CF051FB00205E
:1028E00065E79DF81130732BBFD110A908A841F8F6
:1028F000380D0A220DF0CCFC0A2205460021029870
:102900000DF0C6FC032D00F28F804D4C54F825606D
:1029100044F8250023686168A268C3F500735B1A58
:102920009B1A002BC0F28380024629464848DFF8F4
:1029300038910CF025FB4FF0000804F11007012539
:10294000A34654F8046B304609F05AFA02460B4687
:102950004046494609F0E4FB3E4B03EB850A09F08B
:10296000E7FC314600EE100A50460AF02BFBDBF87C
:102970000030A7421D44E3D121E79DF81130712BAF
:102980007FF473AF08A8FFF7A7FB10E79DF812309C
:10299000612B7FF414AF08A80BF0BCFCF0283FF6C5
:1029A0000EAF274BD3F8C030C0B2187007E702A9AA
:1029B000102208A80DF06CFCB0F5803F044613D23D
:1029C00002A9102202980DF063FC0146054620463C
:1029D000FDF7B4FE01280CD003281BD121461E4868
:1029E0000CF0CEFA0420E2E621461C480CF0C8FAAE
:1029F000CCE621461A480CF0C3FA0220D7E603EBD6
:102A0000840080ED040A80ED060A80ED080A80ED5E
:102A10000A0A59E72246294612480CF0B1FA00206A
:102A2000C5E66FF00200C2E66FF00100BFE644F8B1
:102A300025606FF00200BAE6404200202C640108D5
:102A40000000002040640108C863010824630108F5
:102A500058630108F8090020DC6301087463010869
:102A6000986301080C6401080000F03F08B5044CAD
:102A70002046202102F02EF8642001F02FF9F7E71C
:102A80000000024070B5214C94F8C43006460D4653
:102A900033B9012001F022F994F8C430002BF8D0AA
:102AA00000231B4884F8C43001F09EFC2B46194AD1
:102AB00019491A4802F0D8FC28BB31462B46154A62
:102AC000174802F0D1FCF0B92B46124A15491648B6
:102AD00002F0CAFCB8B9154B1B68DA6842F4807280
:102AE000DA60DA6842F40072DA60DA68A0F5803001
:102AF00042F480625121DA60186159621A6842F02A
:102B000001021A6070BDFFF7B1FF00BF0000002096
:102B1000D84C002014080240C800002048140020AF
:102B2000BC15002000120020A81400200815002069
:102B30002DE9F04F324F334A3349344D344C354E42
:102B4000354B3648D5F8C0502DED0C8BC7F87C18A6
:102B500007F60C01C2F83011C7F80C484FF001120B
:102B60004FF06411C7F81048C7F81448C7F8184860
:102B70002B4CC7F83C38C7F84C38C7F84038C7F872
:102B80005038C7F84438C7F85438C7F84838C7F839
:102B90005838C7F81C28C7F82C28C7F82028C7F8C9
:102BA0003028C7F82428C7F83428C7F82828C7F8D9
:102BB0003828C7F85C08C7F86008C7F86408C7F881
:102BC0006808C7F86C18C7F87018C7F87418C7F801
:102BD0007818346091B02B78DFED12CA9FED12BAED
:102BE000DFED12AA0DF13C09084BD3F8CC301B786D
:102BF00003F0FF04E3B1C82001F070F8F4E700BF70
:102C0000F80900201013002045DB00080000002018
:102C10007017701740420020200320032C012C0164
:102C2000A9130008DB0FC940920A064000007F4349
:102C3000DC4BDD4AD3F8B030C2F80048188880B2C7
:102C400001F04CF8D84BD74AB3F82238D2F8D40068
:102C5000D2F8C0100078D3480978D0F8D00000909E
:102C600004EE903AD04BD048B3F82438D0F87C78B2
:102C7000B0F84C08D2F8BC2005EE903ACA4B128846
:102C8000B3F8263806EE903AC74BB3F8283807EE6B
:102C9000903AC64B93ED004AC34BB3F8123800EE9E
:102CA000103AC24B93ED015ABF4BB3F8143800EE03
:102CB000903ABE4B93ED026ABB4BB3F8163801EE67
:102CC000103ABA4B93ED037AB74BB3F81838F8EED5
:102CD000644A01EE903AF8EE655AF8EE666AF8EE4C
:102CE000677A64EE844A65EE855A66EE866A67EE18
:102CF000877AB8EE400AF8EE600AB8EE411AF8EEAC
:102D0000611A84EE804AAA4B01F0FF060196A84E94
:102D100092B285EEA05A86EE816A87EEA17A93ED93
:102D2000032AD3ED042A93ED053AD3ED063AA3F531
:102D3000086372EE444AD3F8A038C6ED034A72EE37
:102D4000C55A73EE466A73EEC77A09EE900A964842
:102D5000C6ED045A0133B0F85C58B0F86C08C6ED03
:102D6000056AC6ED067A3362A6F50866B6F832380B
:102D700004EE103AB6F8423806EE103A8D4B93ED59
:102D8000002AD3ED042A93ED083AD3ED0C3AB6F8B5
:102D9000343804EE903AB6F8443806EE903AB6F875
:102DA000363805EE103AB6F8463807EE103AB8EE67
:102DB000455AB6F83838B8EE477A05EE903AA5EE9F
:102DC000037AB6F84838F8EE644AF8EE666A07EE19
:102DD000903AE4EEA26AB8EE444AB8EE466AF8EEDB
:102DE000655AF8EE677A8DED0D7A07EE105AA4EE6B
:102DF000026ACDED0C6AE5EEA37AF8EE476A07EEBB
:102E0000100AB8EE477A8DED0B6ACDED0E7A8CEE96
:102E1000A6AA8CEE87CAF8EE699A002900F0A58070
:102E200007EE902AF8EE67BAA04607EE908AB8EE51
:102E3000E79A614D29EE0C9A0BAE02ACD5ED007A03
:102E4000B6EC01DAB0EE490AAAEE270AB847AA465C
:102E5000F5EC017AB0EE497AAAEE277AF0EE698AAB
:102E6000EDEE008A37EE0B0AB847DAED007AB0EEE5
:102E7000497AAAEE277AB0EE698AADEE008A37EE7B
:102E80004B0AB847B0EE697AADEE007A78EE886A00
:102E900076EE876ACBEEA67A68EEA76A68EE278A96
:102EA000F4EEEA6AF1EE10FA27EE278A6BDCF5EE13
:102EB000C06AF1EE10FA6CD416EE900A08F0B2FF78
:102EC00041EC100B12F0B0FE51EC100B09F010FAAF
:102ED0005FFA80FBB4EEEA8AF1EE10FA50DCB5EE50
:102EE000C08AF1EE10FA51D418EE100A08F09AFFD9
:102EF00041EC100B12F098FE51EC100B09F0F8F9B0
:102F00005FFA80FAF4EEEA8AF1EE10FA36DCF5EEBA
:102F1000C08AF1EE10FA3FD418EE900A08F082FF52
:102F200041EC100B12F080FE51EC100B09F0E0F9AF
:102F3000C0B24E4584F809B0A07284F80BA004F129
:102F400003047FF47BAF424602A90098FDF738FEE8
:102F5000019B08F1010898457FF467AF114BB8F168
:102F6000F00FD3F8D030009318D8019B009803EBF2
:102F70004301C90089B2FFF785FD35E6FF20D8E798
:102F80004FF0FF0ABEE74FF0FF0BA3E74FF0000A38
:102F9000B8E74FF0000B9DE70020CAE74FF4B451AB
:102FA0001846E7E700000020F80900202042002032
:102FB000781200204417002084120020294B2A4850
:102FC000D3F8B41070B54FF4007201F081F9002805
:102FD00046D1264B1A6800E00130536A4F2BFBD9CB
:102FE0001328F9DD136823F001031360116A41F21D
:102FF0001113194208D1116A40F24443194203D116
:10300000136823F001031360194D1A4C1A491B4829
:103010001B4B00681B6800266E6125680C682968D8
:1030200021F001012960216821F00101216001687E
:1030300021F001010160D16821F48071D160D16873
:1030400021F40071D160D16821F48061D160DA6827
:1030500042F00102DA601A6842F001021A6070BDA3
:10306000FFF704FD00000020D84C002008150020C8
:1030700000080240A814002048140020BC150020BD
:1030800080150020F0B595B00022284B0192186CF5
:10309000274940F0805018641B6C03F08053019363
:1030A000019B02920B6823F4404343F400430B60FE
:1030B0000B680F9203F4404302930224102301266D
:1030C0004FF4A8710425072208A8029F08940E94C3
:1030D0000B960C93109311911295139207F020FF09
:1030E00008BB034621464FF480520F2603A80494E0
:1030F000059307930396069208F030F9044690B9B9
:1031000008F0E4F90B4BA3FB0030800907F040FE08
:10311000284607F0F1FE224621464FF0FF3007F027
:10312000D5FD15B0F0BDFFF7A1FC00BF003802408F
:1031300000700040D34D621008B5FFF7F9FC00BFE6
:1031400008B5042007F0B0FD00220721262007F073
:10315000BDFD262007F0F0FD01220721472007F0E2
:10316000B5FD472007F0E8FD002201210F2007F000
:10317000ADFD0F2007F0E0FD01221146242007F0ED
:10318000A5FD242007F0D8FD00221146392007F0C4
:103190009DFD392007F0D0FD00221146442007F0A4
:1031A00095FD442007F0C8FD012200213A2007F0D8
:1031B0008DFD3A2007F0C0FD002211461C2007F0CB
:1031C00085FD1C2007F0B8FD38200022022107F001
:1031D0007DFD3820BDE8084007F0AEBD08B500F021
:1031E0006FFDBDE8084007F095BE00BF024B00220E
:1031F0001A60FFF73BBC00BF04010020024B012214
:103200001A60FFF733BC00BF04010020024B032209
:103210001A60FFF72BBC00BF04010020024B042200
:103220001A60FFF723BC00BF04010020024B0522F7
:103230001A60FFF71BBC00BF04010020024B0622EE
:103240001A60FFF713BC00BF04010020024B0722E5
:103250001A60FFF70BBC00BF04010020024B0822DC
:103260001A60FFF703BC00BF0401002080B500F125
:1032700014010EC988B0D0F800E047688668C568B8
:103280000469CDF800E00197029603950494059136
:1032900006920793FEE700BF014802F01FBA00BF85
:1032A000BC150020014802F019BA00BFA814002084
:1032B000014802F013BA00BF48140020014803F08F
:1032C00067BE00BF08150020014805F0A3BE00BF7F
:1032D000944B0020014805F09DBE00BF544B0020D8
:1032E000014803F055BE00BF80150020014BD86C8B
:1032F00002F0F4B91C160020014B986C02F0EEB9F4
:103300001C160020014807F033B800BF1C1600202F
:10331000014802F0E3B900BF204D0020014801F050
:10332000D5B800BFD84C002082B00C4B00210091D2
:103330001A6B42F400121A631A6B02F40012009224
:10334000009A01911A6B42F480021A631B6B03F41A
:1033500080030193019B02B0704700BF0038024018
:10336000084B094A196812680329C4BF01F1FF31EB
:1033700019601068054B0122984214BF472026208F
:1033800007F0A4BC08010020D44C002000440040F9
:10339000084B094A196812680629DCBF0131196017
:1033A0001068064B0122984214BF4720262007F0E0
:1033B0008DBC00BF08010020D44C00200044004018
:1033C000002A2DE9F84F264D3EDDDFF8A0806B681E
:1033D000DFF890B00C468F18A8F5807A4FF00009FE
:1033E00001E0A7420DD014F8012B1A706B6801336D
:1033F00043456B60F5D3AE689E1B09D1B144A7422B
:10340000F1D1AC681C1B10D109EB0400BDE8F88FAA
:103410004FF47A73B2B25146DBF8000005F012FBAC
:10342000B0B9AB686B60B144E9E70E4B0E49186860
:10343000A2B24FF47A7305F005FB70B9AB686B600C
:1034400009EB0400BDE8F88F4FF000096B68D8E77E
:103450004FF0FF366B68B144D1E74FF0FF34D3E74C
:1034600008010020D44C0020D44B0020D44C002074
:1034700038B50D4B1B68834211D10C4D6B68AC689D
:103480001C1B01D1204638BD4FF47A73A2B2084903
:1034900005F0D8FA18B9AB686B60204638BD4FF01C
:1034A000FF34204638BD00BFD44C00200801002066
:1034B000D44B002070B5144B144C154D21680022DC
:1034C0001A602A68134B062906461068DCBF0131D2
:1034D00021600122984214BF4720262007F0F6FB06
:1034E0002B689E4203D16268A368D21A00D170BDD6
:1034F00092B230464FF47A73074905F0A3FA0028D8
:10350000F5D1A368636070BDA012002008010020FF
:10351000D44C002000440040D44B0020F8B5037880
:10352000E3B10446124F134E134D04E00BF028FD97
:1035300014F8013F93B10A2B11D00D2B0F48F5D091
:1035400032681A441946527812F0200F28460AD0E1
:103550000BF016FD14F8013F002BECD1F8BD3846F6
:103560000BF00EFDE4E718460BF022FDE0E700BF8C
:1035700054640108540500205C6401085864010883
:10358000F8B5A04DEA682969531AFE2B09DC3BB156
:1035900012F8013C0D2B31D07F2B74D00A2B2ED08A
:1035A000F8BD994C9948E960002384F8FF300BF08E
:1035B000E7FC2378DBB1964F964E974D04E00BF075
:1035C000DFFC14F8013F93B10A2B45D00D2B934833
:1035D000F5D032681A441946527812F0200F284666
:1035E00049D00BF0CDFC14F8013F002BECD18C48F6
:1035F0000BF01AFDBDE8F840FFF75EB8013A002372
:103600001370814C2B698748EB600BF0B9FC237871
:10361000A3B17F4F7F4E804D07E00D2B7F481FD118
:103620000BF0AEFC14F8013F43B10A2BF5D138463C
:103630000BF0A6FC14F8013F002BF6D178480BF0F4
:10364000F3FC7148FFF762F810B177480BF0ECFC1F
:10365000BDE8F840FFF730B838460BF091FCB0E712
:1036600032681A441946527812F0200F284606D0C4
:103670000BF086FCD6E718460BF09AFCA1E718463B
:103680000BF096FCCEE76B68684C1B221A706B68D7
:103690000133A3426B6080F092805B221A706B68EA
:1036A0000133A3426B6080F09C8044221A706B68E7
:1036B0000133A3426B6072D21B221A706B68013314
:1036C000A3426B605BD25B221A706B680133A3422A
:1036D0006B6044D233221A706B680133A3426B6073
:1036E0002DD27E221A706A680132A2426A6016D216
:1036F000AB68D21A06D1EB680022991EE96003F884
:10370000022CF8BD4A4B4B49186892B24FF47A73B9
:1037100005F098F90028EED1AB686B60EBE7AB6879
:10372000D21AE8D0424B4349186892B24FF47A73E8
:1037300005F088F900287FD1AA686A60D8E7AA68EE
:103740009A1ACED03A4B3B49186892B24FF47A732A
:1037500005F078F9002871D1AB686B60C1E7AA6801
:103760009A1AB7D0324B3349186892B24FF47A7331
:1037700005F068F9002863D1AB686B60AAE7AA6816
:103780009A1AA0D02A4B2B49186892B24FF47A7338
:1037900005F058F9002855D1AB686B6093E7AA682B
:1037A0009A1A89D0224B2349186892B24FF47A733F
:1037B00005F048F9002849D1AB686B607CE7AA683E
:1037C0009A1A3FF46AAF1A4B92B21868A4F5807146
:1037D0004FF47A7305F036F9002835D1AB686B6089
:1037E0005BE7AA689A1A3FF460AF114B1149186859
:1037F00092B24FF47A7305F025F948BBAB686B6061
:1038000053E700BF08010020544A00206464010807
:1038100054640108540500205C64010858640108E0
:10382000786401087C64010890640108D44C00208D
:10383000D44C0020D44B00206A6859E76B6850E7ED
:103840006B6847E76B683EE76B6826E76B6833E7B2
:103850006B682AE770B51D4B1D4EDA68317911701F
:103860001C49DA68096801320446DA60A9B91A4DC0
:103870002C6001233360194DFFF782FE01E000F058
:103880002DFA01222946204605F0FEF902284FF0C4
:103890001400F4D00023336070BD19680E4D032965
:1038A0002A68C4BF01F1FF31196010680C4B012276
:1038B000984214BF4720262007F008FA642301220B
:1038C0000649204605F0BEF8D2E700BF08010020F7
:1038D000A0120020F8000020D44C0020A4120020E8
:1038E0000044004010B5124C124B23604FF4E131FC
:1038F00000230C22204661606261A360E3602361C3
:10390000A361E36104F0A4FF08B1FFF7AFF82268F8
:103910000949D3680C6043F06003D360074808226C
:1039200000210BF02DFBBDE81040FEF7C5BE00BF27
:10393000944B002000440040D44C0020AC640108AB
:10394000F0B5214A0368934289B020D01F4A9342C0
:1039500001D009B0F0BD00211D4B02915A6C1D48E9
:1039600042F020025A645B6C059103F0200302933D
:10397000012208234FF4C055022403A9029E039597
:1039800004940692079300F01DFF09B0F0BD0023D8
:1039900002F5FA320193116C41F400311164126C9A
:1039A0000593044602F400320C260192094806935E
:1039B000072202250DEB0601019F0396049507924D
:1039C00000F000FF2368C1E70044004000140140FC
:1039D000003802400000024010B5124C124B236028
:1039E0004FF4E13100230C22204661606261A36044
:1039F000E3602361A361E36104F02AFF08B1FFF7EC
:103A000035F822680949D3680C6043F06003D3603D
:103A10000748082200210BF0B3FABDE81040FEF77A
:103A20004BBE00BF544B002000140140D44C00207A
:103A3000AC64010810B5144B144A1A60012100222D
:103A400084B04FF4803418465C609A601A611A6240
:103A5000DA62DA609961D9611963596100F0BAF9E3
:103A600070B9042401220723694607480094019293
:103A7000029300F0CDFD08B1FEF7F8FF04B010BDD1
:103A8000FEF7F4FFEDE700BFD84C00200020014016
:103A90001F4B02689A4200D07047F0B587B00026ED
:103AA00003F58C3300965A6C1A4D42F480725A64B6
:103AB0005B6C039603F4807300931022032301A927
:103AC00004461548009F019202934FF4806700F06E
:103AD00079FEDFF848E06E604FF400614FF4005269
:103AE0004FF480732846AE60EE602E626E62C5F8B9
:103AF00000E02F616961AA61EB6101F0B5FB18B9C3
:103B0000A563AC6307B0F0BDFEF7B0FFF8E700BFF8
:103B100000200140204D00200000024010640240BF
:103B20000A4B02689A4200D07047094A10B5536C9C
:103B3000044623F4807307485364102100F030FFDB
:103B4000A06BBDE8104001F027BC00BF0020014081
:103B500000380240000002401049114BD1F8882083
:103B600042F4700210B4C1F888201A680D4C00208D
:103B700042F001021A6098601A6822F0847222F4FE
:103B800080321A605C601A684FF0006422F4802270
:103B90001A60D8608C605DF8044B704700ED00E05F
:103BA0000038024010300024164A936803F00C03DA
:103BB000042B24D0082B0AD0134B124A13489268C6
:103BC0001349C2F30312825CD3400B607047506804
:103BD000516852684302C2F3881201F03F014CBFA2
:103BE0000C4B094BB3FBF1F303FB02F3054A52689C
:103BF000C2F3014201325200B3FBF2F3DDE7054BA1
:103C0000DBE700BF003802400024F4005C610108DB
:103C10001C01002040787D010CB804080000002041
:103C2000EC090020F0090020A84D0020704700BFDB
:103C3000704700BF10B5094B4FF0FF3200241A62E5
:103C40001C625A625C621A611C615A615C619A6111
:103C50009C61FFF7EDFF204610BD00BF0038024019
:103C6000084B094A1B6810B5A2FB032304469809B8
:103C700007F08EF8214600224FF0FF3007F026F8BB
:103C8000002010BD1C010020D34D621008B50B4B65
:103C90001A6842F400721A601A6842F480621A606C
:103CA0001A6842F480721A60032006F0FDFF0020BB
:103CB000FFF7D6FFFCF7B8FA002008BD003C024031
:103CC000024A136801331360704700BF804D002023
:103CD000014B1868704700BF804D002010B582B0BE
:103CE0000190FFF7F5FF0446FFF7F2FF019B001B71
:103CF0009842F9D302B010BD024A136823F00203C0
:103D00001360704710E000E0024A136843F00203BA
:103D10001360704710E000E00048704700000501A4
:103D2000014B1868000C7047002004E0024B186833
:103D3000C0F30B00704700BF002004E0024A536844
:103D400043F0010353607047002004E0024A5368C7
:103D500023F0010353607047002004E0024A5368D7
:103D600043F0020353607047002004E0024A5368A6
:103D700023F0020353607047002004E0024A5368B6
:103D800043F0040353607047002004E0024A536884
:103D900023F0040353607047002004E0012191FAEE
:103DA000A1F2034BB2FA82F213449B0019607047F0
:103DB00000C18910012292FAA2F2044BB2FA82F2F7
:103DC00013449B0000221A60704700BF00C1891095
:103DD000704700BF002800F0AA80F8B5036C0446C5
:103DE0003BB1236CDB060CD50023012084F83C306A
:103DF000F8BD436480F83C30FFF74AFE236CDB06D5
:103E0000F2D4226C4B4923684B4D22F4885222F0A5
:103E1000020242F0020222644A6822F440324A60FE
:103E20004A68606802434A6059682069D4F808E02B
:103E3000E768A26A21F4807159605E6846EA00264C
:103E40005E605E6826F040765E60586840EA0E006C
:103E50005860986820F4006098609968AA4241EA26
:103E60000701996046D09968E06A21F07061996015
:103E700099680A439A60996821F0405199609A685C
:103E800002439A609968A569206A21F0020199604D
:103E90009A6842EA45029A605A68002833D122F4AF
:103EA00000625A60DA6AE569276B666922F470027B
:103EB000DA62D86A013D40EA0550D862986820F479
:103EC00000709860996841EA47219960996821F4E7
:103ED000806199609A68002042EA86229A60606454
:103EE000236C23F0030343F001032364002384F8CD
:103EF0003C30F8BD9A6822F070629A609A6822F0AD
:103F000040529A60BEE742F400625A605A6822F456
:103F100060425A604FF4604191FAA1F1626A5868B8
:103F2000B1FA81F1013A8A4002435A60BAE70120AE
:103F3000704700BF002301400100000F704700BF21
:103F4000D0B1026C38B542F00202036802649A688C
:103F500022F001029A609D6815F00105044603D025
:103F6000002084F83C0038BDFFF7DAFD00206564CE
:103F700084F83C00256438BD0120704710B490F8E7
:103F80003C3083B00022012B019255D00268936827
:103F90000121DB0780F83C1014D42A4B2A4C1B6803
:103FA0009168A4FB03439B0C03EB430341F0010125
:103FB00091600193019B2BB1019B013B0193019BFC
:103FC000002BF9D19368DC0731D5036C23F4E0634F
:103FD00023F0010343F4807303645368590505D546
:103FE000036C23F4405343F480530364036C13F4D1
:103FF00080531CBF436C23F00603436400246FF01E
:104000002201124B80F83C4011605B68DB060BD14B
:10401000906810F040500AD1936843F08043936059
:1040200003B05DF8044B7047094B9A42F0D0002072
:1040300003B05DF8044B7047022003B05DF8044BF9
:10404000704700BF1C01002083DE1B43002301409A
:104050000020014090F83C30012B16D003689A688C
:10406000012122F0010280F83C109A609B68DB0776
:1040700006D4036C23F4885323F001030B43036439
:10408000002380F83C30184670470220704700BF7C
:1040900003689A68520502D59B68DB053ED470B56B
:1040A0000C460546FFF714FE06462A6801E0601C30
:1040B00025D113689907FAD56FF0120313602B6CA2
:1040C00043F400732B64936813F0405F15D1AB6920
:1040D0009BB9D36A13F4700F0CD12B6C23F480734B
:1040E0002B64286C10F4805007D12B6C43F0010333
:1040F0002B6470BD93685B05EFD5002070BD24B1C3
:10410000FFF7E6FD801B8442CFD22B6C002243F0E8
:1041100004032B6485F83C20032070BD036C00224F
:1041200043F02003036480F83C200120704700BF67
:104130002DE9F04107460D461646FFF7C9FD8046BA
:104140003C6801E0731C13D1236835EA0303F9D1FD
:10415000012D3B6C1DD043F480633B647B6C6FF09E
:10416000200243F002037B6400202260BDE8F0815E
:104170002EB1FFF7ADFDA0EB08008642E0D23B6C0C
:10418000002243F004033B6487F83C200320BDE891
:10419000F0816FF0010243F480333B640020226021
:1041A000BDE8F08110B490F83C3083B00022012BC0
:1041B00001925BD0026893680121DB0780F83C1014
:1041C00014D42D4B2D4C1B689168A4FB03439B0C0E
:1041D00003EB430341F0010191600193019B2BB17B
:1041E000019B013B0193019B002BF9D19368DC07F4
:1041F00037D5036C23F4E06323F0010343F48073A9
:1042000003645368590505D5036C23F4405343F404
:1042100080530364036C13F480531CBF436C23F07E
:104220000603436400216FF0220380F83C10136002
:104230005368134943F0806343F0200353604B6895
:10424000DB060BD1906810F040500AD1936843F020
:104250008043936003B05DF8044B7047094B9A426A
:10426000F0D0002003B05DF8044B7047022003B08B
:104270005DF8044B704700BF1C01002083DE1B4328
:10428000002301400020014090F83C30012B1CD05D
:1042900003689A68012122F0010280F83C109A60BC
:1042A0009A68D2070CD45A6822F0806222F0200269
:1042B0005A60036C23F4885323F001030B43036417
:1042C000002380F83C30184670470220704700BF3A
:1042D000F0B590F83C3083B00024012B019469D0F4
:1042E0000568AB680124DF0780F83C4014D4374BE5
:1042F000374E1C68AB68A6FB0464A40C43F00103B2
:1043000004EB4404AB600194019B2BB1019C013C84
:104310000194019C002CF9D1AB68DE0747D5046CF1
:1043200024F4E06424F0010444F4807404646B68B1
:104330005C0505D5036C23F4405343F480530364B8
:10434000036C244C244F13F480531CBF436C23F0A4
:10435000060343640646806B13464FF0000E1F4A67
:1043600086F83CE0C2636FF02202C46407642A60EE
:104370006C6844F080646C60AC6844F480740A46F5
:10438000AC6005F14C0101F06FF8154B5B68DB0682
:1043900009D13368986810F0405008D19A6842F00B
:1043A00080429A6004E032680E4B9A4205D00020A9
:1043B00003B0F0BD022003B0F0BD906810F0405093
:1043C000F5D1936843F080439360F1E71C0100202E
:1043D00083DE1B43F9450008B94400085544000832
:1043E000002301400020014090F83C30012B11D007
:1043F00003689A68012122F0010210B580F83C1090
:104400009A609A68D207044606D50023002084F8F3
:104410003C3010BD022070479A68806B22F4807295
:104420009A6001F063F82268536823F08063536058
:10443000236C23F4885323F0010343F00103236426
:10444000002384F83C3010BD0368D86C704700BF6F
:10445000704700BF836B1A6C12F0500F22D11A6C98
:10446000196842F4007210B51A648A6812F0405F4D
:1044700014D19A6992B9CA6A12F4700F15D14A68B8
:1044800022F020024A601A6C22F480721A641A6CBC
:10449000D20403D41A6C42F001021A641846FDF7E4
:1044A000B7FB10BD9B6BDB6C18478A685005F5D4D1
:1044B000E5E700BF704700BF08B5806BFFF7FAFF64
:1044C00008BD00BF704700BF704700BF38B5036824
:1044D0001A6859680446900701D58A0653D41A68A9
:1044E0005968520701D50D061BD41A685968D007C0
:1044F00001D54A0606D41A685968900601D54A01C2
:1045000069D438BD1A68D507F5D5236C43F48033D8
:1045100023642046FFF7D6FF23686FF001021A607C
:10452000E9E7226CD00603D4226C42F400522264E4
:104530009A6812F4401F1ED19A6B12F4401F02D0E9
:104540009A68510517D45A68520514D49A6812F023
:10455000405F10D1A26972B95A6822F080025A6095
:10456000236C23F480532364236CDD0503D4236C74
:1045700043F001032364204600F06EFD23686FF0D2
:104580000C021A60B1E7226CD50603D4226C42F407
:10459000007222649A6812F0405F14D1A26992B945
:1045A000DA6A12F4700F23D15A6822F020025A609E
:1045B000236C23F480732364236CD90403D4236C09
:1045C00043F0010323642046FDF722FB23686FF0CC
:1045D00012021A6083E7626C6FF0200542F002025B
:1045E000626420461D60FFF76FFF23681D6038BDC1
:1045F0009A685005E7D4D7E7806B08B54023036479
:10460000436C43F004034364FFF75EFF08BD00BF43
:10461000F0B590F83C3083B00022012B019257D0C6
:104620000D680123092D2E4680F83C3029D80468F6
:104630008B68226905EB450E072707FA0EF722EA79
:1046400007022261226903FA0EF3134323614B68C8
:10465000062B2BD803EB8303626B053B1F2199408C
:1046600022EA01026263626B06FA03F31343636397
:10467000364B9C423ED0002380F83C30184603B0B5
:10468000F0BD04688B68E768AEB206EB46021E3ADE
:104690004FF0070E0EFA02FE27EA0E07E760E76802
:1046A00093403B43E3604B68062BD3D90C2B12D8C5
:1046B00003EB8303A3F123011F22236B8A4023EA28
:1046C00002032363236B06FA01F119432163CFE749
:1046D000022003B0F0BD03EB8302413AE36A1F21DD
:1046E000914023EA0103E362E36A06FA02F1194307
:1046F000E162BDE7122D23D0A5F11003012BBAD83A
:10470000134A5368102D43F400035360B3D1114B87
:1047100002F1467202F52E321B6802F28332A2FBCE
:1047200003239B0C03EB83035B000193019B002B92
:10473000A1D0019B013B0193019B002BF9D19AE78A
:10474000034A536843F48003536094E70020014018
:10475000002301401C01002090F83C30012B2AD09E
:104760000B690246012083421368F0B482F83C00D2
:1047700058680CBF40F0400020F040005860586876
:104780000F688C894E688D6820F4400020F400701A
:1047900058605968394359605E629D62596821F0DA
:1047A0001F0159605968002521432846596082F845
:1047B0003C50F0BC70470220704700BF006C70474F
:1047C000406C70472DE9F04FD1F800C0DFF8CCE124
:1047D00083B000254FF0010803E00135102D00F0F3
:1047E000878008FA05F303EA0C029342F5D14E687C
:1047F00026F0100ABAF1020F7DD04FEA45090324D2
:10480000D0F800B004FA09F4E44306F003070BEA19
:10481000040B07FA09F70AF1FF3A47EA0B07BAF166
:10482000010F076040F28E80C7688B683C4003FA36
:1048300009F32343C360F300CFD500230193524B08
:10484000514C5B6C43F480436364636C25F0030755
:1048500007F1804703F4804307F59C37019305F087
:104860000303019CD7F808909B000F249C4029EA81
:10487000040A464CA04278D004F58064A04276D069
:10488000434CA04276D0434CA04278D0424CA04248
:104890000CBF4FF004094FF0050909FA03F343EA8E
:1048A0000A03BB60DEF80030D443F70354BF234053
:1048B0001343CEF80030DEF80430B70354BF234072
:1048C0001343CEF80430DEF80830F70254BF23401B
:1048D0001343CEF80830DEF80C30B60205F10105BE
:1048E00054BF23401343102DCEF80C307FF479AF22
:1048F00003B0BDE8F08F4FEAD50900EB890905F058
:104900000704D9F82070A4004FF00F0B0BFA04FB3A
:1049100027EA0B0A0F6907FA04F444EA0A04C9F803
:1049200020404FEA45090324D0F800A004FA09F416
:10493000E44306F003070AEA040A07FA09F747EA1C
:104940000A070760876807EA040ACF6807FA09F7C9
:1049500047EA0A078760D0F804A0C6F300172AEADE
:104960000303AF401F4347605EE7002397E708FA61
:1049700003F394E74FF0020909FA03F38FE74FF0CE
:10498000030909FA03F38AE70038024000000240F5
:1049900000080240000C024000100240003C0140B0
:1049A0002DE9F04F002383B0DFF80C91DFF80C8184
:1049B0004FF0010E4FF0030B4FF00F0A02E00133EE
:1049C000102B61D00EFA03F232EA0104F7D15C0039
:1049D00005680BFA04F4E443DE08254000EB860684
:1049E000056003F00705376AAD000AFA05F527EA06
:1049F000050535628568254085604568D2431540C8
:104A00004560C66823F0030505F18045344005F58F
:104A10009C35C46003F00304AE68A4000AFA04F7EE
:104A20003E404845019632D01F4EB04231D01F4E15
:104A3000B04231D01E4EB04233D01E4EB0420CBFF9
:104A40004FF0040C4FF0050C0CFA04F4019EA64242
:104A5000B5D1AC6824EA0707AF60D8F8004014402D
:104A6000C8F80040D8F804401440C8F80440D8F80A
:104A700008401440C8F80840D8F80C4001332240E0
:104A8000102BC8F80C209DD103B0BDE8F08F002496
:104A9000DCE70EFA04F4D9E74FF0020C0CFA04F448
:104AA000D4E70BFA04F4D1E7000402400008024006
:104AB000000C02400010024000000240003C014097
:104AC0000369194214BF01200020704702B909048C
:104AD00081617047436959404161704782B04FF42A
:104AE00080330193019B0B430193019BC361C1611F
:104AF000019BC361C3690193C06980F48030C0F336
:104B0000004002B0704700BF704700BF044A5169BF
:104B1000014200D1704708B55061FFF7F5FF08BDAD
:104B2000003C0140806B40230364436C43F004036A
:104B30004364FFF7C9BC00BF806BFFF7BBBC00BF7D
:104B4000836B1A6C12F0500F20D11A6C196842F462
:104B500000721A648A6812F0405F14D19A6992B99F
:104B6000CA6A12F4700F14D14A6822F020024A6017
:104B70001A6C22F480721A641A6CD20403D41A6C70
:104B800042F001021A641846FDF742B89B6BDB6CD9
:104B900018478A685005F6D4E6E700BF10B490F8CD
:104BA0003C3083B00022012B01924CD00268936804
:104BB0000121DC0780F83C1014D4294B294C1B68D8
:104BC0009168A4FB03439B0C03EB430341F00101F9
:104BD00091600193019B2BB1019B013B0193019BD0
:104BE000002BF9D19368D90728D5036C23F44053DF
:104BF00023F0010343F480530364036C13F48073C4
:104C000008BF436400246FF00401174B80F83C4058
:104C100011605B68DB060CD19368506813F4401F89
:104C20000CD110F4806009D1936843F48003936041
:104C300005E00E49906853688A4209D0002003B00D
:104C40005DF8044B7047022003B05DF8044B7047D9
:104C500010F4401FF2D113F48060E5D0EEE700BFFE
:104C60001C01002083DE1B43002301400020014083
:104C700010B490F83C3083B00022012B019250D048
:104C8000026893680121DC0780F83C1014D42B4B98
:104C90002B4C1B689168A4FB03439B0C03EB430361
:104CA00041F0010191600193019B2BB1019B013BFC
:104CB0000193019B002BF9D19368D9072CD5036C84
:104CC00023F4405323F0010343F480530364036C43
:104CD00013F4807308BF436400216FF0040380F86D
:104CE0003C1013605368174943F0800353604B68CE
:104CF000DB060CD19368506813F4401F0CD110F4FC
:104D0000806009D1936843F48003936005E00E4905
:104D1000906853688A4209D0002003B05DF8044BC4
:104D20007047022003B05DF8044B704710F4401F39
:104D3000F2D113F48060E5D0EEE700BF1C01002043
:104D400083DE1B43002301400020014090F83C20FB
:104D5000012A034625D0026C0121D20580F83C10BF
:104D600008D51A6C42F020021A640120002283F850
:104D70003C2070470268506810F48060F1D191685F
:104D800021F001019160926812F00102EED1196CDC
:104D900021F4885121F0010141F00101104619640C
:104DA000E4E70220704700BF70B505460C46FEF7E9
:104DB0008FFF06462A6801E0631C27D11368580755
:104DC000FAD56FF00C0313602B6C43F400532B6483
:104DD000936813F4401F29D1936B13F4401F22D121
:104DE00053685B0522D4936813F0405F1ED1AB6912
:104DF000E3B92B6C23F480532B64286C10F480707F
:104E000014D12B6C43F001032B6470BD24B1FEF769
:104E10005FFF801B8442CDD2042200232A6485F8E0
:104E20003C30032070BD93685905D9D5002070BD72
:104E300090F83C20012A034629D0026C0121D205BA
:104E400080F83C1008D51A6C42F020021A64012048
:104E5000002283F83C2070470268506810F480609C
:104E6000F1D1916821F001019160916811F0010187
:104E7000EED1506820F0800050601A6C22F4885205
:104E800022F0010242F0010208461A64E0E7022023
:104E9000704700BF036882B000206FF00402013940
:104EA00001901A60032905D8DFE801F0110C020710
:104EB0005B6C0193019802B070479B6C0193019861
:104EC00002B070471B6C0193019802B07047DB6B16
:104ED0000193019802B07047F0B590F83C3083B070
:104EE0000024012B019465D00568AB680124DE071E
:104EF00080F83C4014D4344B344E1C68AB68A6FB9D
:104F00000464A40C43F0010304EB4404AB6001947B
:104F1000019B2BB1019C013C0194019C002CF9D117
:104F2000AB68DC0743D5046C24F4E06424F001048E
:104F300044F4807404646B685B0505D5036C23F44A
:104F4000405343F480530364036C866B204C214F21
:104F500013F480531CBF436C23F0060343644FF0EB
:104F6000000E1D4B80F83CE0F3636FF00203F46425
:104F700037642B606B68046B43F080636B60E4B94B
:104F8000164C636823F400536360044613463046AE
:104F90000A46134900F068FA2368986810F04050F8
:104FA00005D19A6842F080429A6003B0F0BD0020BB
:104FB00003B0F0BD022003B0F0BD084C636843F4B9
:104FC00000536360E1E700BF1C01002083DE1B4348
:104FD000254B0008394B0008414B000800230140D5
:104FE0000823014090F83C30012B11D003689A68E7
:104FF000012122F0010210B580F83C109A609B68F4
:10500000DB07044606D50023002084F83C3010BDA1
:10501000022070470C4A806B536823F4005353609E
:1050200000F064FA2268536823F080635360236CB5
:1050300023F4885323F0010343F001032364002386
:1050400084F83C3010BD00BF00230140014B98683C
:10505000704700BF00230140704700BF90F83C300C
:10506000012B00F08880F0B50D680123092D2C4636
:1050700080F83C306CD803688A681E6905EB450EE1
:10508000072707FA0EF726EA07061E611E6902FACD
:105090000EF232431A619F6BD1F810E04E6827F48C
:1050A00040179F639F6B0EF1FF3247EA0257F21CD5
:1050B000A2EB0E029F63D2B29F6B02EB82024FF013
:1050C0001F0E0EFA02FE27EA0E079F63D3F838E0A0
:1050D000CF6904FA02F24C4C42EA0E02A7429A63EC
:1050E0006CD09C68D1F820E024F470249C609A680D
:1050F00017439F609C6824F440149C609A6842EABD
:105100000E029A608A69002A48D05A6842F4806286
:105110005A604A69002A30D05A68022E42F48052FE
:105120005A6030D0032E52D0012E3CD01A6AC96882
:1051300022F47F6222F00F021A621A6A0A431A628C
:10514000324A93424ED0002380F83C301846F0BDDE
:1051500003688A68DF68ACB204EB44061E3E4FF079
:10516000070E0EFA06FE27EA0E07DF60DF68B24080
:105170003A43DA608FE7022070475A68022E22F421
:1051800080525A60CED19A69C96822F47F6222F0B7
:105190000F029A619A690A439A61D1E75A6822F428
:1051A00080625A60B5E75A69C96822F47F6222F0CA
:1051B0000F025A615A690A435A61C1E79A6822F498
:1051C00070229A609A6822F440129A609AE7DA692B
:1051D000C96822F47F6222F00F02DA61DA690A43B9
:1051E000DA61ADE7122D08D0103D012DABD8084A89
:1051F000536843F400035360A5E7D2F8043343F443
:105200008003C2F804339EE701000F000020014034
:105210000023014090F83C30012B21D0114B024675
:10522000586820F01F0010B4586058680C6820437C
:105230005860586820F44040586058684C682043D3
:105240005860586820F47060586088685968002475
:1052500001435960204682F83C405DF8044B70479A
:105260000220704700230140F8B50446FEF730FDE8
:10527000002C6FD00222236884F835201A680021A0
:1052800022F0010284F8341005461A6005E0FEF7AA
:105290001FFD401B05283BD823681A68D107F6D4A8
:1052A000A7686268E66825696169A0693A43324384
:1052B0002A430A43E169256A1F68344E02430A43C0
:1052C000616A2A433E40042942EA060227D01A6056
:1052D0005A6922F007021143DAB22D4D5961103A92
:1052E000A5FB021212092B4823F47F73815CE16550
:1052F00023F00303032A88BF04333F228A40012599
:105300000021A36508469A60616584F83550F8BDB0
:10531000032320226265184684F83530F8BDE66A1A
:10532000216BA56A31430A431A605A6945F00401AA
:1053300022F00702114378B9012D23D001D3022DA9
:10534000CAD1F201C8D5012340226265184684F80B
:105350003530F8BD0120F8BDB0F5005F04D0022D56
:10536000F1D9032DB8D1ECE7032DB5D801A252F83D
:1053700025F000BF47530008435300084753000877
:1053800085530008B6F1C07FA6D1DCE73F8010F05E
:10539000ABAAAAAA6C61010800282FD090F835307A
:1053A000DBB2022B2BD003681649DAB270B4103A84
:1053B0001C68154DA1FB02121209002124F0010402
:1053C00021261C60196059609960D96019615E617D
:1053D00023F47F73AD5CC56523F00303032A88BF04
:1053E00004333F210022A940836570BC9960426567
:1053F00080F8342080F83520104670470123184685
:10540000704700BFABAAAAAA6C61010870B490F8FB
:105410003440012C0CD090F835400125AC4280F886
:10542000345008D0002380F83430022070BC70471C
:10543000022070BC704704680226002580F83560A1
:1054400045652568866825F48025402E25606360C3
:105450000BBFA260A160E160E260236843F001033A
:1054600023600020E2E700BFF0B490F83440012C44
:105470000DD090F83540866D0125AC4280F834504F
:1054800008D0002380F834300220F0BC704702209E
:10549000F0BC704704680227002580F83570456528
:1054A0002568876825F48025402F256063600ABF42
:1054B000A260A160E160C16D18BFE2603F238B4034
:1054C000026CB360236843F016032360636943F002
:1054D000800363611AB1236843F0080323602368E3
:1054E00043F0010323600020CFE700BF70B50446FE
:1054F000866DFEF7EDFB94F83530022B06D0802246
:105500000023626584F83430012070BD2368216C6B
:105510001A6822F016021A605A6922F080020546C3
:105520005A6131B31A6822F008021A601A6822F030
:1055300001021A6005E0FEF7CBFB401B05280FD8DF
:1055400023681B6813F00103F5D1E16D3F228A4007
:105550000121B260184684F8343084F8351070BDEB
:10556000202200230320626584F8343084F835005B
:1055700070BDA26C002AD5D1D8E700BF90F83530B5
:10558000022B03D080234365012070470268052366
:1055900080F83530136823F0010313600020704752
:1055A0002DE9F04F044683B092460091FEF790FB40
:1055B00023681B68DD054AD4009B8146002B42D03E
:1055C000E36D10219940A56DDFF80C81D5F800B08E
:1055D000404F01EA0B0201925246A2461446019A3C
:1055E0000826002A47D1611C08D0BCB3FEF770FB27
:1055F000A0EB0900844231D3DAF85C3006FA03F0FC
:105600001BEA000F08FA03F107FA03F206D0DAF8F2
:1056100054E04EF0010ECAF854E0A8601BEA010FF6
:1056200006D0DAF8540040F00200CAF85400A9602D
:105630001BEA020FD7D0DAF8541041F00401CAF87F
:105640005410AA60CBE7E36D20219940BBE74FF4EB
:1056500080736365012003B0BDE8F08F2021002234
:1056600001230320CAF854108AF834208AF8353010
:1056700003B0BDE8F08FDAF85400544620B1DAF8F0
:105680005420D20715D40120009A32B1102202FA18
:1056900003F3AB6003B0BDE8F08F302202FA03F3EE
:1056A000AB6001229DF8003084F8343084F8352056
:1056B000D1E75046FFF71AFFDAF85C203023934019
:1056C00000210122AB6010468AF834108AF8352098
:1056D000C1E700BF0400800001008000F0B583B086
:1056E0000023876D0193C36D3D68624908229A408B
:1056F000154204460E6803D001680868400776D456
:105700005D4A9A40154203D021684969080668D469
:105710005A4A9A40154203D02168096889075AD429
:1057200010229A40154203D02168086800073FD430
:1057300020229A40154203D021680868C00625D46B
:10574000636D0BB3636DDA071AD50523216884F8FE
:1057500035300B684A4A23F00103A2FB06020B60B6
:10576000920A02E00B68DB0704D5019B01339A42E1
:105770000193F7D20022012384F8342084F83530D5
:10578000E36C0BB12046984703B0F0BDBA6094F8C3
:105790003520052A3BD00B6813F4802F0B6854D0BA
:1057A00019035FD5E36B002BCAD020469847C7E7A3
:1057B000BA600A6812F4802F0A6822D1D20503D495
:1057C0000A6822F008020A60226C002AB0D0204643
:1057D0009047E36DACE7BA60626D42F00402626527
:1057E0009EE7BA60626D42F00202626590E7086867
:1057F00020F004000860BA60626D42F00102626548
:105800007EE71103E0D5A26C002AE0D190E70A6898
:10581000206C22F016020A604A6922F080024A6176
:1058200020B30A6822F008020A603F22216D02FAC2
:1058300003F300200122BB6084F8340084F8352093
:105840000029A1D0204688479EE713F48073A9D190
:105850000A68012022F010020A6084F8343084F8CB
:1058600035009FE7636C002B9FD169E7A26C002A8B
:10587000D7D1DAE71C01002001008000040080007D
:10588000B5814E1B034690F8340001280DD010B4AA
:1058900093F835400120844283F8340007D0002279
:1058A00083F834205DF8044B7047022070470529C7
:1058B00016D8DFE801F0120F0C0906031A65002064
:1058C000EDE7DA640020EAE79A640020E7E75A642B
:1058D0000020E4E71A640020E1E7DA630020DEE755
:1058E0000020DCE790F83430012B02460BD090F812
:1058F00035000123984282F8343006D0012000237D
:1059000082F834307047022070470629F6D8DFE865
:1059100001F01B1815120F0C04000020D063106456
:1059200050649064D0641065E9E700201065E6E7F4
:105930000020D064E3E700209064E0E7002050649A
:10594000DDE700201064DAE70020D063D7E700BF6E
:1059500090F83500704700BF406D7047F0B5046A9D
:10596000D1F808E00E68124D24F001040462036AC5
:105970004768826923F0020322F07302A84243EAD7
:105980000E0342EA060205D049684760826141631E
:105990000362F0BDCE684C698D6923F0080327F4DB
:1059A000407733432C4323F004032743ECE700BF45
:1059B00000000140F0B5046AD1F808E00E68134D0C
:1059C00024F480740462036A4768C26923F4007394
:1059D00022F07302A84243EA0E2342EA060205D0EF
:1059E00049684760C261C1630362F0BDCE684C691B
:1059F0008D6923F4006327F4405743EA06232C43C0
:105A000023F4806347EA0417EAE700BF000001407F
:105A1000F0B4046A8F680E680E4D24F4805404625A
:105A2000036A4468C26923F4005322F4E642A842A0
:105A300043EA073342EA062206D049684460C2615D
:105A4000F0BC0164036270474D6924F4804444EA69
:105A50008514F2E70000014002684868936823F06B
:105A6000700370B403430C6823F0070323435028EA
:105A7000936036D024D960280ED070280AD1CB6824
:105A80008C6808699168234343EA002321F47F412D
:105A90000B43936070BC7047106A8C680D6920F0EE
:105AA000100010629169136A21F4704123F0A00381
:105AB00041EA053143EA0413916170BC13627047F7
:105AC0004028E7D1146A106A0D6920F001001062C5
:105AD000936923F0F00343EA05139361146270BCE9
:105AE0007047146A156A0E69886825F00105156209
:105AF000936924F00A0123F0F00343EA06130143FB
