:020000040800F2
:1000000000800120B9FD000811FE000811FE000863
:1000100011FE000811FE000811FE0008000000009B
:1000200000000000000000000000000011FE0008B9
:1000300011FE00080000000011FE00088D230008DA
:1000400011FE000811FE000811FE000811FE000854
:1000500011FE000811FE000811FE000811FE000844
:1000600011FE000811FE000811FE000811FE000834
:1000700011FE000811FE000811FE000811FE000824
:1000800011FE000811FE000811FE0008000000002B
:1000900000000000000000000000000011FE000849
:1000A00011FE0008D923000811FE000811FE000807
:1000B0001524000811FE00080124000811FE0008A4
:1000C00011FE000811FE000811FE000811FE0008D4
:1000D00011FE000811FE0008ED23000800000000DA
:1000E00011FE000811FE000811FE000800000000CB
:1000F00000000000000000000000000011FE0008E9
:100100000000000011FE000811FE000811FE0008AA
:1001100000000000000000000000000000000000DF
:1001200011FE00089D230008B123000811FE0008FD
:1001300011FE0008000000000000000000000000A8
:1001400000000000000000000000000011FE000898
:10015000C523000811FE000811FE000811FE00086A
:1001600011FE000811FE0008000000000000000061
:10017000000000000000000000000000000000007F
:100180000000000011FE0008000000000000000058
:0401900011FE000854
:1001C000134B002B08BF114B9D46A3F5803A00212D
:1001D0008B460F461148124A121A0FF085FE0D4B3E
:1001E000002B00D098470C4B002B00D098470020E4
:1001F000002104000D000B480FF016FE0FF04CFE1E
:100200002000290001F0E2FF0FF022FE00000800AC
:100210000000000000000000000000004810002066
:10022000E02D002071FE000880B584B000AF78603A
:10023000114B1B68002B02D10F4B104A1A600E4B5A
:100240001B68FB600C4B1A687B6813446A46934238
:1002500007D90FF0F7FD02460C2313604FF0FF3370
:1002600006E0054B1A687B681344034A1360FB6879
:1002700018461037BD4680BD48100020E02D0020F4
:1002800080B483B000AF786039603B68002B05D044
:100290003B6800221A603B6800225A60002318461F
:1002A0000C37BD465DF8047B704700BF80B400AFDB
:1002B00000BFBD465DF8047B704700BF80B400AF4F
:1002C00001231846BD465DF8047B704780B582B0B7
:1002D00000AF786039600FF0B5FD02461623136059
:1002E0004FF0FF3318460837BD4680BD80B582B059
:1002F00000AF78604FF0FF317868FFF7E7FFFEE767
:1003000080B586B000AFF860B9607A6000237B6189
:1003100009E0BB685A1CBA601B781846AFF300802E
:100320007B6901337B617A697B689A42F1DB7B6888
:1003300018461837BD4680BD80B483B000AF7860E2
:100340004FF0FF3318460C37BD465DF8047B70470D
:1003500080B483B000AF786039603B684FF40052DE
:100360005A60002318460C37BD465DF8047B704781
:1003700080B483B000AF7860012318460C37BD46C7
:100380005DF8047B704700BF80B485B000AFF860B3
:10039000B9607A60002318461437BD465DF8047BC7
:1003A000704700BF90B587B000AFF860B9607A6061
:1003B00000237B610AE0BC68631CBB60AFF3008074
:1003C0000346DBB223707B6901337B617A697B680A
:1003D0009A42F0DB7B6818461C37BD4690BD00BFD3
:1003E0000EB480B482B000AF78604FF0FF3318468F
:1003F0000837BD465DF8047B03B0704780B582B016
:1004000000AF78600FF01EFD02460A2313604FF024
:10041000FF3318460837BD4680BD00BF80B582B0A7
:1004200000AF78600FF00EFD0246022313604FF01C
:10043000FF3318460837BD4680BD00BF80B483B087
:1004400000AF78604FF0FF3318460C37BD465DF8BB
:10045000047B704780B483B000AF786039603B683C
:100460004FF400525A60002318460C37BD465DF821
:10047000047B704780B582B000AF786039600FF0C0
:10048000E1FC02461F2313604FF0FF331846083784
:10049000BD4680BD80B500AF0FF0D4FC02460B23F3
:1004A00013604FF0FF33184680BD00BF80B584B0A5
:1004B00000AFF860B9607A600FF0C4FC02460C230C
:1004C00013604FF0FF3318461037BD4680BD00BFA4
:1004D00080B487B000AFF86087ED020A3B7B07EE7F
:1004E000903AB8EEE77AD7ED027A67EE277A9FED79
:1004F000477AF4EEC77AF1EE10FA01DDFF2316E039
:10050000D7ED027A9FED427A27EE877A3B7B07EEA2
:10051000903AF8EEE77A27EE277ADFED3D6AC7EEEC
:10052000267AFCEEE77AC7ED017A3B79DBB23B73C2
:100530007B7B07EE903AB8EEE77AD7ED027A67EE6A
:10054000277A9FED327AF4EEC77AF1EE10FA01DDE8
:10055000FF2316E0D7ED027A9FED2D7A27EE877AFA
:100560007B7B07EE903AF8EEE77A27EE277ADFED0D
:10057000286AC7EE267AFCEEE77AC7ED017A3B7966
:10058000DBB27B73BB7B07EE903AB8EEE77AD7ED30
:10059000027A67EE277A9FED1D7AF4EEC77AF1EEC4
:1005A00010FA01DDFF2316E0D7ED027A9FED187AED
:1005B00027EE877ABB7B07EE903AF8EEE77A27EED4
:1005C000277ADFED136AC7EE267AFCEEE77AC7EDED
:1005D000017A3B79DBB2BB7307F1140307F10C021C
:1005E0001268114619800233120C1A7000233A7DEA
:1005F00062F307037A7D62F30F23BA7D62F3174338
:1006000018461C37BD465DF8047B704700007F43E9
:100610000000C84280B485B000AF786039603B7993
:100620001A463B6803FB02F3642202FB03F31A4AF7
:10063000A2FB03235B0BD8B27B791A463B6803FB12
:1006400002F3642202FB03F3134AA2FB03235B0BB6
:10065000D9B2BB791A463B6803FB02F3642202FB62
:1006600003F30D4AA2FB03235B0BDBB202463A7392
:100670000A467A73BB7300233A7B62F307037A7BE3
:1006800062F30F23BA7B62F3174318461437BD4653
:100690005DF8047B704700BF5917B7D180B487B0AD
:1006A00000AF7860264B1B687B613B791A46642358
:1006B00003FB02F37A6902FB03F3224A82FB031273
:1006C0001213DB17D31ADBB23B737B791A46642310
:1006D00003FB02F37A6902FB03F31A4A82FB03125B
:1006E0001213DB17D31ADBB27B73BB791A46642370
:1006F00003FB02F37A6902FB03F3124A82FB031243
:100700001213DB17D31ADBB2BB7307F1100307F127
:100710000C021268114619800233120C1A70002361
:100720003A7C62F307037A7C62F30F23BA7C62F3AC
:10073000174318461C37BD465DF8047B704700BF61
:1007400028070020AD8BDB6880B487B000AFF8606D
:100750007A603B600B46FB720023FB75E8E07A6829
:1007600013465B001344DB001A46FB7D1344FA6812
:10077000D1187A6813465B001344DB001A46FB7DF0
:100780001344FA6813441B78D8B2FB7A012202FAA8
:1007900003F3DBB2DB43DBB202461340DBB2DBB276
:1007A0000B707A6813465B001344DB001A46FB7D2E
:1007B00013440833FA68D1187A6813465B0013446F
:1007C000DB001A46FB7D13440833FA6813441B7898
:1007D000D8B2FB7A012202FA03F3DBB2DB43DBB2CD
:1007E00002461340DBB2DBB20B707A6813465B0043
:1007F0001344DB001A46FB7D13441033FA68D1180A
:100800007A6813465B001344DB001A46FB7D1344F1
:100810001033FA6813441B78D8B2FB7A012202FA2B
:1008200003F3DBB2DB43DBB202461340DBB2DBB2E5
:100830000B707A6813465B001344DB001A46FB7D9D
:100840001344FA68D1187A6813465B001344DB003E
:100850001A46FB7D1344FA6813441B78D8B27B78A0
:100860001A46FB7D02FA03F303F08002FB7AC3F120
:10087000070342FA03F3DBB202461343DBB2DBB2F7
:100880000B707A6813465B001344DB001A46FB7D4D
:1008900013440833FA68D1187A6813465B0013448E
:1008A000DB001A46FB7D13440833FA6813441B78B7
:1008B000D8B23B781A46FB7D02FA03F303F08002BC
:1008C000FB7AC3F1070342FA03F3DBB20246134398
:1008D000DBB2DBB20B707A6813465B001344DB00BB
:1008E0001A46FB7D13441033FA68D1187A68134610
:1008F0005B001344DB001A46FB7D13441033FA6897
:1009000013441B78D8B2BB781A46FB7D02FA03F376
:1009100003F08002FB7AC3F1070342FA03F3DBB270
:1009200002461343DBB2DBB20B70FB7D0133FB7578
:10093000FB7D072B7FF613AF00BF1C37BD465DF86C
:10094000047B704780B487B000AFF8600B467A60D4
:10095000FB7200233B7400237B740023BB740023D1
:10096000FB7558E07B7CD9B27A6813465B00134470
:10097000DB001A46FB7D1344FA6813441B781A46C1
:10098000FB7A42FA03F303F00102FB7D02FA03F360
:10099000DBB20A461343DBB2DBB27B743B7CD9B2D9
:1009A0007A6813465B001344DB001A46FB7D134450
:1009B0000833FA6813441B781A46FB7A42FA03F3A9
:1009C00003F00102FB7D02FA03F3DBB20A46134394
:1009D000DBB2DBB23B74BB7CD9B27A6813465B00F6
:1009E0001344DB001A46FB7D13441033FA681344AA
:1009F0001B781A46FB7A42FA03F303F00102FB7DEF
:100A000002FA03F3DBB20A461343DBB2DBB2BB7478
:100A1000FB7D0133FB75FB7D072BA3D907F1140385
:100A200007F110021268114619800233120C1A7075
:100A300000233A7D62F307037A7D62F30F23BA7DC8
:100A400062F3174318461C37BD465DF8047B7047B8
:100A500080B48FB000AFF860B9607A6000237B6328
:100A600013E07A6813465B001344DB001A467B6B85
:100A70001344FA681344197807F114027B6B13448A
:100A80000A461A707B6B01337B637B6B172BE8DDA7
:100A900000233B637AE0002387F82D3097F82D3050
:100AA00087F82E3097F82E3087F82F3000237B639D
:100AB0004BE007F114027B6B13441B781A463B6B27
:100AC00042FA03F303F001027B6BC3F1070302FA5E
:100AD00003F3DAB297F82F301343DBB287F82F30E5
:100AE0007B6B083307F13802134413F8243C1A4691
:100AF0003B6B42FA03F303F001027B6BC3F1070384
:100B000002FA03F3DAB297F82E301343DBB287F818
:100B10002E307B6B103307F13802134413F8243C5A
:100B20001A463B6B42FA03F303F001027B6BC3F1FD
:100B3000070302FA03F3DAB297F82D301343DBB25E
:100B400087F82D307B6B01337B637B6B072BB0DD2C
:100B50003A6B13465B001344BA68134497F82F208E
:100B60005A703A6B13465B001344BA68134497F803
:100B70002E201A703A6B13465B001344BA68134474
:100B800097F82D209A703B6B01333B633B6B072B2F
:100B900081DD00BF3C37BD465DF8047B704700BF78
:100BA00080B48FB000AFF860B9607A6007F11403C9
:100BB00000221A605A609A60DA601A615A61002352
:100BC0003B6383E03A6B13465B001344BA681344FB
:100BD0005B7887F82F303A6B13465B001344BA6892
:100BE00013441B7887F82E303A6B13465B0013448E
:100BF000BA6813449B7887F82D3000237B635FE04D
:100C000007F114027B6B13441B78D9B297F82F209D
:100C10007B6BC3F1070342FA03F303F001023B6B62
:100C200002FA03F3DBB20A461343DBB2D9B207F18F
:100C300014027B6B13440A461A707B6B08337A6B81
:100C4000083207F138010A4412F8242CD0B297F880
:100C50002E107A6BC2F1070241FA02F202F0010192
:100C60003A6B01FA02F2D2B201460A43D2B2D2B2D0
:100C700007F138010B4403F8242C7B6B10337A6B9B
:100C8000103207F138010A4412F8242CD0B297F838
:100C90002D107A6BC2F1070241FA02F202F0010153
:100CA0003A6B01FA02F2D2B201460A43D2B2D2B290
:100CB00007F138010B4403F8242C7B6B01337B6371
:100CC0007B6B072B9CDD3B6B01333B633B6B072B43
:100CD0007FF778AF00237B6312E07A6813465B00EE
:100CE0001344DB001A467B6B1344FA68134407F184
:100CF00014017A6B0A4412781A707B6B01337B63A0
:100D00007B6B172BE9DD00BF3C37BD465DF8047BEC
:100D1000704700BF80B58CB000AFF860B9607A60F2
:100D200007F114037A681946F868FFF791FE7A68AC
:100D3000B968F868FFF734FF0023FB6216E0FA6A2F
:100D400013465B001344BA68D118FA6A13465B0075
:100D5000134407F130021344A3F11C020B4611881F
:100D6000927819809A70FB6A0133FB62FB6A072B49
:100D7000E5DD00BF3037BD4680BD00BF80B594B013
:100D800000AF0023FB646323BB643F4B3F4A1A6000
:100D90003D4ABB6CD3603C4AFB6C53603A4B00222B
:100DA0009A60394B00221A61374802F079FE0346F7
:100DB000002B01D001F0D8FA4FF48053BB6307F148
:100DC00038031946304805F00DFD0346002B01D0CD
:100DD00001F0CAFA2C4803F023FB0346002B01D094
:100DE00001F0C2FA00237B620023BB6207F12403F7
:100DF0001946254805F0F0FD0346002B01D001F00F
:100E0000B3FA0023FB6100233B6207F11C03194680
:100E10001D480DF0A9FE0346002B01D001F0A4FAF5
:100E200060233B601E237B600023BB6000233B618B
:100E300000237B610023BB613B4600221946124818
:100E400004F0E4FF0346002B01D001F08DFA50239B
:100E50007B603B46042219460B4804F0D7FF03464B
:100E6000002B01D001F080FA02220021192008F0A5
:100E700023FD192008F03CFD034800F097FA00BF5D
:100E80005037BD4680BD00BFA411002000000140C6
:100E900080B584B000AF164B4FF080421A60144BFF
:100EA00000225A60124B00229A60114B4FF4C87214
:100EB000DA600F4B00221A610D4802F0F1FD034683
:100EC000002B01D001F050FA4FF480533B603B46B9
:100ED0001946074805F086FC0346002B01D001F0B7
:100EE00043FA034800F062FA00BF1037BD4680BDE8
:100EF0001C12002080B58EB000AF294B294A1A6021
:100F0000274B294A5A60264B00229A60244B002224
:100F1000DA60234B00221A61214802F0C1FD03462A
:100F2000002B01D001F020FA4FF48053BB6207F18F
:100F3000280319461A4805F055FC0346002B01D03A
:100F400001F012FA164802F027FF0346002B01D0E9
:100F500001F00AFA00233B6200237B6207F12003C1
:100F600019460F480DF000FE0346002B01D001F09A
:100F7000FBF900237B600023BB600023FB600023A0
:100F80007B613B1D00221946054804F043FE0346E1
:100F9000002B01D001F0E8F900BF3837BD4680BD15
:100FA000E0110020000800408038010080B582B0C8
:100FB00000AF78607B681B68174A934227D07B6834
:100FC0001B68B3F1804F1BD1144B1B681A6A41F2A6
:100FD00011131340002B0FD1104B1B681A6A40F2FB
:100FE00044431340002B07D10C4B1B680B4A12687B
:100FF000126822F001021A60094B01221A7006E001
:101000007B681B68074A934201D100F0B5FB00BF23
:101010000837BD4680BD00BF000001401C12002003
:10102000180700200008004080B586B000AF786047
:101030007B681B68894A934240F0D58000237B611E
:10104000874A874B5B6C43F001035364844B5B6CB2
:1010500003F001037B617B69824B834A1A60814BF9
:101060004FF040625A607F4B40229A607D4B0022D5
:10107000DA607C4B00221A617A4B00225A61794B6C
:101080004FF480429A61774B0022DA61754B4FF43E
:1010900000321A62734B04225A62724B03229A6224
:1010A000704B4FF40002DA626E4B00221A636D48F7
:1010B00008F014FD0346002B01D001F055F97B68C0
:1010C000684ADA61674A7B689363684B684A1A60CA
:1010D000664B4FF040625A60644B40229A60634B0B
:1010E0000022DA60614B4FF480621A615F4B00228C
:1010F0005A615E4B4FF480429A615C4B0022DA6188
:101100005A4B4FF400321A62584B04225A62574B22
:1011100003229A62554B4FF40002DA62534B0022CD
:101120001A63524808F0DAFC0346002B01D001F0A4
:101130001BF97B684D4A1A624C4A7B6893634D4B9E
:101140004D4A1A604B4B4FF040625A60494B402267
:101150009A60484B0022DA60464B00221A61454BE8
:1011600000225A61434B00229A61424B0022DA610D
:10117000404B00221A623F4B04225A623D4B03222D
:101180009A623C4B4FF40002DA623A4B00221A6337
:10119000384808F0A3FC0346002B01D001F0E4F826
:1011A0007B68344A5A62334A7B689363314B1B68CD
:1011B000304A1268126842F010021A602F4A002169
:1011C0002A4809F00FF90346002B01D001F0CCF8B2
:1011D0002B4A0421254809F005F90346002B39D094
:1011E00001F0C2F836E07B681B68264A934216D1AC
:1011F00000233B611A4A1A4B1B6C43F0040313642F
:10120000174B1B6C03F004033B613B690122012176
:101210001E2008F051FB1E2008F06AFB1AE07B68D4
:101220001B68B3F1804F15D10023FB600C4A0C4BB7
:101230001B6C43F001031364094B1B6C03F00103A7
:10124000FB60FB68022201211C2008F035FB1C20FA
:1012500008F04EFB00BF1837BD4680BD00000140BE
:1012600000380240E4100020886402405812002038
:1012700028640240441100204064024089120008A2
:10128000991300080008004080B485B000AF786072
:101290000023FB6002E0FB680133FB60384B1B68F6
:1012A0005B6A4F2BF7D9FB68132BF4DD344B1B68BB
:1012B000334A1268126822F001021A60304B1B6830
:1012C0001A6A41F211131340002B0FD12C4B1B68EB
:1012D0001A6A40F244431340002B07D1284B1B6885
:1012E000274A1268126822F001021A60254B002278
:1012F0005A61254B1B68244A1268126822F00102C9
:101300001A60224B1B68214A1268126822F00102FF
:101310001A601F4B1B681E4A1268126822F00102F5
:101320001A60174B1B68164A1268D26822F4807242
:10133000DA60134B1B68124A1268D26822F40072FA
:10134000DA600F4B1B680E4A1268D26822F4806282
:10135000DA60104B1B680F4A1268D26842F0010233
:10136000DA600C4B1B680B4A1268126842F00102EB
:101370001A6000BF1437BD465DF8047B704700BF9C
:10138000A41100200008024044110020E4100020B5
:10139000581200201C12002080B582B000AF786087
:1013A00000F0E2FF00BF0837BD4680BD80B588B0C1
:1013B00000AF78607B681B68124A93421ED14FF4DD
:1013C0004073FB6002233B6100237B610023BB6110
:1013D0000123FB6107F10C0319460B4807F0A8FD38
:1013E0007B681B6801220021184605F027FE7B68F8
:1013F0001B6801220421184605F020FE00BF20379B
:10140000BD4680BD000001400000024080B582B0B2
:1014100000AF78607B681B68154A934215D1154A66
:10142000144B1B6C23F0010313647B681B6A184682
:1014300008F0FEFB7B68DB69184608F0F9FB7B6867
:101440005B6A184608F0F4FB0DE07B681B680A4AEB
:10145000934208D1074A074B1B6C23F00403136423
:101460001E2008F053FA00BF0837BD4680BD00BFFC
:1014700000000140003802400008004080B500AF85
:10148000072008F00DFA002200216FF00B0008F091
:1014900013FA002200216FF00A0008F00DFA002272
:1014A00000216FF0090008F007FA002200216FF018
:1014B000040008F001FA002200216FF0030008F098
:1014C000FBF9002200216FF0010008F0F5F900227D
:1014D00000214FF0FF3008F0EFF900BF80BD00BFE2
:1014E00080B58AB000AF00233B61424A414B1B6B81
:1014F00043F0040313633F4B1B6B03F004033B6196
:101500003B690023FB603B4A3A4B1B6B43F0800373
:101510001363384B1B6B03F08003FB60FB680023F5
:10152000BB60344A334B1B6B43F001031363314BF5
:101530001B6B03F00103BB60BB6800237B602D4A7B
:101540002C4B1B6B43F0020313632A4B1B6B03F002
:1015500002037B607B684FF400537B61264BBB61C9
:101560000023FB6107F114031946244807F0E0FC4F
:10157000FF237B611123BB610023FB6102233B62DC
:1015800007F1140319461D4807F0D2FC0C237B61B8
:101590000223BB610023FB6100233B6207237B62C4
:1015A00007F114031946164807F0C2FC20237B619B
:1015B0000123BB610123FB6102233B6207F114039A
:1015C00019460F4807F0B4FC012220210C4807F00F
:1015D0002DFF642001F0B0FF00222021084807F011
:1015E00025FF0022FF21054807F020FF00BF283714
:1015F000BD4680BD003802400000121000080240C5
:101600000000024080B400AF054B064A1A60064B4A
:101610004FF4E0221A6000BFBD465DF8047B7047BE
:10162000402900200008024024ED00E080B584B08D
:1016300000AF78600B467B8002E0012001F07CFF68
:10164000424B1B78DBB2002BF7D0404B00221A70C4
:101650003F4B1B6801333E4A13607B68FB603D4B88
:101660001B68BB60BB68002B0FDDBB68082B0CDC64
:10167000374B1B68BA6893FBF2F2B96801FB02F2C0
:101680009B1A002B01D1344BFB60BB68002B10DA96
:10169000BB6813F1080F0CDB2D4B1B68BA6893FB7A
:1016A000F2F2B96801FB02F29B1A002B01D02A4B1F
:1016B000FB602A497B882A4A2A4808F041FB0346F6
:1016C000002B01D000F050FE7B88254AF96826489F
:1016D00008F036FB0346002B01D000F045FE1E4902
:1016E0007B881F4A214808F02BFB0346002B01D0C2
:1016F00000F03AFE1E4B1B681D4A1268D26842F485
:101700008072DA601A4B1B68194A1268D26842F478
:101710000072DA60164B1B68154A1268D26842F4F0
:101720008062DA60124B1B68124A1A61104B1B6808
:1017300051225A620E4B1B680D4A1268126842F021
:1017400001021A6000BF1037BD4680BD1807002097
:1017500060100020541000205010002014070020BA
:1017600014080240E4100020581200204411002008
:10177000A41100200000FFFF80B500AF0A4B1B68DA
:10178000002B02D0084B1B689847084B1B78DBB234
:10179000002B06D0064B1B684FF434611846FFF748
:1017A00045FF00BF80BD00BF581000201807002073
:1017B0000807002080B483B000AF7860074A7B68D8
:1017C0001360074B1B687A68DA62054A7B68D3604E
:1017D00000BF0C37BD465DF8047B7047240700202E
:1017E000E011002080B500AF034B1B68184601F0E4
:1017F000A3FE00BF80BD00BF2407002080B400AF5F
:101800000A4B1B68094A1268D26842F00102DA608A
:10181000064B1B68054A1268126842F001021A6002
:1018200000BFBD465DF8047B704700BFE01100209B
:1018300080B400AF124B1B681A6A41F211131340B7
:10184000002B0FD10E4B1B681A6A40F24443134021
:10185000002B07D10A4B1B68094A1268126822F054
:1018600001021A60064B1B68054A1268D26822F012
:101870000102DA6000BFBD465DF8047B704700BF1F
:10188000E0110020B0B586B000AFF86087ED020A25
:1018900079603A607B68354A83FB02121A44111260
:1018A000DA178A1A4FF4B47101FB02F29B1A7B61BA
:1018B000F8680DF0A7FB03460C461A4623464FF086
:1018C00000002B490DF02EFD03460C4625461C4614
:1018D00038680DF097FB02460B46204629460DF06E
:1018E000F7FB03460C4625461C4678690DF08AFB3B
:1018F00002460B46204629460DF036FA03460C46B2
:10190000184621460DF016FE03463B61D7ED047ADA
:101910009FED187AF4EEC77AF1EE10FA12DBD7EDEC
:10192000047A9FED147A37EEC77ADFED136AC7EEBB
:10193000267AB7EE007A37EEC77AD7ED027A67EEED
:10194000277A0DE097ED047ADFED0B6AC7EE267A71
:10195000B7EE007A37EE677AD7ED027A67EE277A2C
:10196000B0EE670A1837BD46B0BD00BFB7600BB612
:1019700000807640000034430000B44290B58FB040
:1019800000AF7860396000237B6302E13A687B6BCB
:1019900010335B0013445B8807EE903AF8EE677AE9
:1019A000C7ED0C7A3A687B6B5B0013445B88FB6283
:1019B0003A687B6B08335B0013445B88BB62FB6A4D
:1019C00007EE903AB8EEE77ADFED7F6AC6EE877AE7
:1019D000C7ED097A7D4B1A68BB6A134407EE903A4B
:1019E000B8EEE77AD7ED097A67EE277AB0EE670AA4
:1019F00016F01AFFB0EE407ADFED757A67EE277ABF
:101A00009FED747A77EE877AC7ED087A6F4B1A6884
:101A1000BB6A1A44FB6A5B006F4981FB0301DB1759
:101A2000CB1A134407EE903AB8EEE77AD7ED097A6D
:101A300067EE277AB0EE670A16F0F6FEB0EE407A4F
:101A4000DFED637A67EE277A9FED627A77EE877A29
:101A5000C7ED077A5D4B1A68BB6A1A44FB6A5B00E4
:101A60005D4981FB0301DB17CB1AD31A07EE903ACD
:101A7000B8EEE77AD7ED097A67EE277AB0EE670A13
:101A800016F0D2FEB0EE407ADFED517A67EE277A9B
:101A90009FED507A77EE877AC7ED067A97ED087A50
:101AA000D7ED077A37EE277AD7ED067A77EE277AE1
:101AB000C7ED057A97ED087AD7ED0C7A27EE277AED
:101AC000D7ED057AC7EE276A16EE900A0DF0ACFA4C
:101AD00003460C4644EC103B16F04EFE54EC103B13
:101AE000184621460DF006FD0346FB7497ED067A75
:101AF000D7ED0C7A27EE277AD7ED057AC7EE276A5D
:101B000016EE900A0DF090FA03460C4644EC103B9A
:101B100016F032FE54EC103B184621460DF0EAFC5C
:101B20000346BB7497ED077AD7ED0C7A27EE277A38
:101B3000D7ED057AC7EE276A16EE900A0DF074FA13
:101B400003460C4644EC103B16F016FE54EC103BDA
:101B5000184621460DF0CEFC03467B74FB7C3B739C
:101B6000BB7C7B737B7CBB731C497A6B13465B002D
:101B70001344CC18F868FEF791FD03461A4622700C
:101B8000C3F307226270C3F30743A3707B6B013377
:101B90007B637B6B022B7FF7F9AE114B1B68013B1C
:101BA0001A460E497868FEF7FBFF4FF0FF320B49EB
:101BB0007868FEF7F5FF054B1B680133034A136095
:101BC00000BF3C37BD4690BDDB0F4940641000208C
:101BD0000000F042000000435655555568100020A3
:101BE0002C07002080B582B000AF7860064B1A68E1
:101BF0007B681A44054B1B6819461046FFF7BEFE6A
:101C000000BF0837BD4680BD0C07002038290020E2
:101C100080B582B000AF00237B60184B184A1A6071
:101C2000174B1B881846FFF7C5FD164B1A6813465D
:101C30005B001344DB003B607B683A6893FBF2F285
:101C4000396801FB02F29B1A7B607B6818337B606A
:101C5000FFF7C8FD7868FFF7C5FF0B4B1A687B6874
:101C60001A44084B1B689BB2194649000B44DB0021
:101C70009BB219461046FFF7D9FCD6E73829002059
:101C8000340700202C0700200C07002080B586B008
:101C900000AF7860396007F108030A2219463868F6
:101CA0000EF050FBF860BB681B78002B08D0BB68B7
:101CB00007F108010A2218460EF044FB786102E0A1
:101CC0004FF0FF337B61FA68796915480EF06AF9C5
:101CD0007B69002B0CDB7B69072B09DCFB6899B265
:101CE0007A687B6910335B0013440A465A8011E01E
:101CF00000233B610BE0FB6899B27A683B691033C3
:101D00005B0013440A465A803B6901333B613B69DF
:101D1000072BF0DD002318461837BD4680BD00BFF5
:101D2000D894010880B586B000AF7860396007F1BB
:101D300008030A22194638680EF004FBF860BB68F5
:101D40001B78002B08D0BB6807F108010A2218464F
:101D50000EF0F8FA786102E04FF0FF337B61FA6829
:101D6000796914480EF01EF97B69002B0BDB7B6947
:101D7000072B08DCFB6899B27A687B695B00134427
:101D80000A465A8010E000233B610AE0FB6899B2E2
:101D90007A683B695B0013440A465A803B69013309
:101DA0003B613B69072BF1DD002318461837BD4620
:101DB00080BD00BFF894010880B586B000AF7860A0
:101DC000396007F108030A22194638680EF0BAFA9A
:101DD000F860BB681B78002B08D0BB6807F10801CE
:101DE0000A2218460EF0AEFA786102E04FF0FF3397
:101DF0007B61FA68796915480EF0D4F87B69002B8D
:101E00000CDB7B69072B09DCFB6899B27A687B697C
:101E100008335B0013440A465A8011E000233B61FB
:101E20000BE0FB6899B27A683B6908335B001344A6
:101E30000A465A803B6901333B613B69072BF0DD61
:101E4000002318461837BD4680BD00BF1495010811
:101E500080B584B000AF7860396010223968786846
:101E60000EF070FAF860FB68002B03DBFB68B3F53B
:101E7000803F07D3FB68194605480EF093F84FF0F2
:101E8000FF3300E0FB6818461037BD4680BD00BF39
:101E90003095010880B586B000AF78600021786881
:101EA000FFF7D6FF78617B69B3F1FF3F02D14FF0B6
:101EB000FF3315E007F10C031946786900F0B6FD11
:101EC0003B7C012B05D1796907480EF06BF80223A2
:101ED00006E0FB687A69194604480EF063F80023AF
:101EE00018461837BD4680BD5495010884950108F1
:101EF00080B586B000AF786007F1080319467868AE
:101F0000FFF7A6FF78617B69B3F1FF3F02D14FF085
:101F1000FF3326E0BB6807F10801102218460EF0D7
:101F200011FA38613B691946786900F0FFFD0346F4
:101F3000FB73FB7B012B07D0032B0BD179690B487B
:101F40000EF030F804230CE0796909480EF02AF805
:101F5000022306E03B697A69194606480EF022F82A
:101F6000002318461837BD4680BD00BF989501086C
:101F700054950108C895010880B58CB000AF07F1F1
:101F800010032022002118460DF0AEFF3B46002230
:101F90001A605A609A60DA6007F110032022134930
:101FA00018460EF007F93B461022114918460EF06C
:101FB00001F9104B1B68002B0ED00F4B1A683946E5
:101FC0003B4618460EF06CF83A4607F110031146EE
:101FD00018460DF0E7FF05E007F110030749184622
:101FE0000DF0E0FF00BF3037BD4680BDDC95010835
:101FF000E49501081C0700205C100020F095010802
:1020000080B596B000AF786000233B6520217868EA
:102010000EF06CF8F8640D2178680EF067F87865BA
:102020007B6D002B04D10A2178680EF05FF878658B
:10203000FB6C002B00F0BC807B6D002B00F0B880A7
:10204000FA6C7B68D31ABB64BA6C07F12C0379680D
:1020500018460EF0AFF8FB6C591C7A6DFB6CD31A66
:10206000013B1A4607F10C0318460EF0A3F897F847
:102070002C30623B112B00F2978001A252F823F022
:102080001B2100082F210008A9210008A921000810
:102090005F2100080D210008A9210008A9210008DE
:1020A000A9210008A9210008A9210008A9210008E8
:1020B000A9210008A92100087D210008A921000804
:1020C000A9210008C920000897F82D30752B14D1DC
:1020D00097F82E30622B10D107F10C0318460DF043
:1020E000A9FE78647B6C13F1080F0DDB7B6C082B69
:1020F0000ADC324A7B6C136006E007F10C031846D9
:10210000FFF7F6FE386556E000BF54E007F10C0318
:102110001846FFF7BFFE38654DE0294B1B6807F1F5
:102120000C0211461846FFF7B1FD386543E097F8F9
:102130002D30682B3ED197F82E30612B3AD107F124
:102140000C0318460DF076FE38643B6C002B31DB37
:102150003B6CF02B2EDC3B6C1A4A13602AE007F133
:102160000C0318460DF066FEF863F96B16480DF087
:1021700019FFFB6B1846FFF71DFB1CE097F82D308D
:10218000682B08D10E4B1B6807F10C02114618464C
:10219000FFF712FE0FE00A4B1B6807F10C02114615
:1021A0001846FFF7BFFD06E04FF0FF333B6502E046
:1021B00000BF00E000BF5837BD4680BD541000206E
:1021C000382900202C070020F495010890B583B031
:1021D00000AF01F01DF900F055F8FFF781F900F0AC
:1021E00023F9FEF7CBFDFEF753FE00F059FE204821
:1021F00000F02AFEFFF706FA0023FB8014E01D4BD7
:102200001868FC881C4B1A78597809020A439B7895
:102210001B041A43002362F3170322460021FEF732
:1022200093FAFB880133FB80FB88772BE7D94FF4C7
:102230003463BB8000BF0F4B1B68BA881146184639
:10224000FFF7F4F900F020F9FFF796FE07E02021F0
:102250000A4807F005F94FF4FA7001F06DF9084BE0
:102260001B78DBB2002BF2D000F08AF8EEE700BF5B
:10227000782C002008070020D494010800000240B8
:102280001807002080B594B000AF0023BB60334A2C
:10229000324B1B6C43F080531364304B1B6C03F0C8
:1022A0008053BB60BB6800237B602D4A2C4B1B68AE
:1022B00023F4404343F400431360294B1B6803F4A9
:1022C00040437B607B6802233B620123FB62102357
:1022D0003B630223BB630023FB6310233B644FF487
:1022E000A8737B640423BB640723FB6407F120030A
:1022F00018460AF0D3F80346002B01D000F034F85A
:102300000F23FB6002233B6100237B614FF480536A
:10231000BB610023FB6107F10C03022118460AF0A0
:10232000CFFA0346002B01D000F01EF80AF0D8FCCB
:1023300002460C4BA3FB02239B09184607F0FAFA4E
:10234000042007F0A1FB002200214FF0FF3007F02E
:10235000B3FA00BF5037BD4680BD00BF0038024011
:1023600000700040D34D621080B500AF20210348BB
:1023700007F076F8642001F0DFF8F7E7000002408C
:1023800080B500AFFFF744FCFEE700BF80B500AFAB
:1023900001F0B8F807F094FB00BF80BD80B500AF36
:1023A000024807F08FFE00BF80BD00BF581200201A
:1023B00080B500AF024807F085FE00BF80BD00BFBA
:1023C0004411002080B500AF024807F07BFE00BF3B
:1023D00080BD00BFE410002080B500AF024803F0CC
:1023E00011FB00BF80BD00BFA411002080B500AF6D
:1023F000024805F009FF00BF80BD00BF782C002017
:1024000080B500AF024803F0FDFA00BF80BD00BFF9
:10241000E011002080B500AF024803F0F3FA00BFDE
:1024200080BD00BF1C12002080B582B000AF002329
:102430007B60144A134B1B6B43F480031363114BF3
:102440001B6B03F480037B607B6801220121392030
:1024500007F032FA392007F04BFA0122012144201B
:1024600007F02AFA442007F043FA012201213A201A
:1024700007F022FA3A2007F03BFA00BF0837BD46C2
:1024800080BD00BF0038024080B582B000AF304B45
:102490007B607B6800221A807B6801225A807B68FF
:1024A00000225A607B6808334FF488720021184676
:1024B0000DF01AFD7B68274A03F58C7310681860CD
:1024C0007B683222A3F81C217A68B2F81E310A21F7
:1024D00061F30E03A2F81E317A6892F81F316FF390
:1024E000C71382F81F317B68022283F820217B68A2
:1024F000002283F821217B68174A03F59173128823
:102500001A807B68002283F824217B68002283F8EC
:1025100025217B68002283F826217A6892F82731EA
:1025200043F0010382F827317B680C4A03F594736A
:102530001188927819809A707B68002283F82B2189
:10254000074B1B68074A136000BF0837BD4680BDB4
:1025500048290020089601080C960108B894010843
:10256000080700203C29002080B487B000AFF86045
:10257000B9607A6000237B61BB6800229A70BB68F7
:1025800000225A707B68002B06D1BB6803221A70A8
:10259000FA68BB685A60C3E07B68042B07D1BB684C
:1025A00002221A70FB681A1DBB685A60B8E07B688B
:1025B000B3F5047F2BD27B68A3F580733B613B6945
:1025C000FF2B10D83B6903F00303002B0BD1BB6832
:1025D00002221A70FB6808331A463B6913441A46F4
:1025E000BB685A609CE03B69B3F5887F0CD2BB683E
:1025F00000221A703B69A3F5887303F58473FA68A7
:102600001A44BB685A608BE001237B6188E07B68D9
:1026100041F20C0293423CD87B68B3F5805F08D14D
:10262000BB6804221A70FB6803F58C72BB685A60A1
:1026300076E07B6841F20402934208D1BB68052230
:102640001A70FB6803F58E72BB685A6068E07B689D
:1026500041F20802934208D1BB6800221A70FB685D
:1026600003F59072BB685A605AE07B6841F20C0235
:1026700093420BD1BB6800221A70BB6801229A708A
:10268000FB6803F22112BB685A6049E001237B61B9
:1026900046E07B6842F20C0293423FD87B68B3F578
:1026A000005F08D1BB6806221A70FB6803F59172BF
:1026B000BB685A6034E07B6842F20402934208D15E
:1026C000BB6807221A70FB6803F59272BB685A60F8
:1026D00026E07B6842F2080293420BD1BB680822D5
:1026E0001A70BB6806229A70FB6803F59472BB6887
:1026F0005A6015E07B6842F20C0293420BD1BB6832
:1027000000221A70BB6801229A70FB6803F22B1238
:10271000BB685A6004E001237B6101E001237B6117
:102720007B69002B0CD0FB6893F82C3143F001033C
:10273000DAB2FB6883F82C21BB6809221A7009E021
:10274000FB6893F82C3163F07F03DAB2FB6883F8FF
:102750002C2100BF1C37BD465DF8047B704700BFCD
:1027600090B589B000AFF8603B1D83E806000123F7
:10277000FB61BB79012B04D13B79002B01D10223F2
:102780009AE0BB79062B40F09180FB6893F82631E4
:10279000FB76FB6893F82531BB76FB6893F8243110
:1027A0007B76FB6893F819313B76FB6893F81A3116
:1027B000FB75FB6893F82231BB75FB6893F82731F2
:1027C00003F00103DBB2002B2FD0FB7E0133FB763D
:1027D000FA7E3B7E9A4204D10023FB76BB7E013316
:1027E000BB76BA7EFB7D9A4204D10023BB767B7E0A
:1027F00001337B767A7EBB7D9A420AD1FB6893F8DF
:102800002B3163F07F03DAB2FB6883F82B210023BE
:102810007B76FB68FA7E83F82621FB68BA7E83F814
:102820002521FB687A7E83F82421FA7E3B7E9A423A
:102830000AD30023FB61FB6893F82B3143F00403B8
:10284000DAB2FB6883F82B21BA7EFB7D9A420AD369
:102850000023FB61FB6893F82B3143F00203DAB2EB
:10286000FB6883F82B217A7EBB7D9A420AD3002332
:10287000FB61FB6893F82B3143F00103DAB2FB688C
:1028800083F82B21FB69002B10D0BC680C4B1B6814
:10289000FA7EB97E1846FEF755F803461A462270AE
:1028A000C3F307226270C3F30743A370FB69002BD5
:1028B0000CBF01230023DBB218462437BD4690BD70
:1028C0003C290020B0B588B000AFF8603B1D83E81C
:1028D00006000123FB617B79012B01D103239FE0DB
:1028E000BB79062B40F09680FB6893F82631FB7687
:1028F000FB6893F82531BB76FB6893F824317B762F
:10290000FB6893F819313B76FB6893F81A31FB7535
:10291000FB6893F82231BB75FA7E3B7E9A420AD35C
:102920000023FB61FB6893F82B3143F00403DAB218
:10293000FB6883F82B21BA7EFB7D9A420AD30023E1
:10294000FB61FB6893F82B3143F00203DAB2FB68BA
:1029500083F82B217A7EBB7D9A420AD30023FB6148
:10296000FB6893F82B3143F00103DAB2FB6883F87C
:102970002B21FB69002B1BD02B4B1868FD7EBB68FD
:10298000BC7E1A78597809020A439B781B041A43C3
:10299000002362F317032A462146FDF7D5FEFB68A4
:1029A00093F8273103F00103DBB2002B32D001E0B2
:1029B000012335E0FB7E0133FB76FA7E3B7E9A42B3
:1029C00004D10023FB76BB7E0133BB76BA7EFB7D50
:1029D0009A4204D10023BB767B7E01337B767A7EDC
:1029E000BB7D9A420AD1FB6893F82B3163F07F03D9
:1029F000DAB2FB6883F82B2100237B76FB68FA7E32
:102A000083F82621FB68BA7E83F82521FB687A7E4D
:102A100083F82421FB69002B0CBF01230023DBB2C8
:102A200018462037BD46B0BD3C29002080B584B093
:102A300000AF7860396007F1080300221A605A601D
:102A400007F108037A6819463748FFF78DFD07F14B
:102A5000080393E806003448FFF782FE03461A464F
:102A60003B681A713B681B79012B03D13B6800223C
:102A70001A604DE03B7A082B46D801A252F823F0A9
:102A8000A52A0008B12A0008BD2A0008C72A0008A4
:102A9000D12A0008DB2A0008E52A0008F12A0008EC
:102AA000FB2A0008FB681B781A463B681A602FE077
:102AB000FB681B881A463B681A6029E0FB681A68A5
:102AC0003B681A6024E0FB681A683B681A601FE0E4
:102AD000FB681A683B681A601AE0FB681A683B6872
:102AE0001A6015E0FB681B689AB23B681A600FE039
:102AF000FB681A683B681A600AE0FB681B6823F0F1
:102B00007F423B681A6003E03B6800221A6000BF06
:102B10003B681B79022B03D1FB6800221A7000BFAF
:102B200000BF1037BD4680BD4829002080B584B065
:102B300000AF7860396007F1080300221A605A601C
:102B400007F108037A6819463048FFF70DFD7B7AD4
:102B5000012B4FD03B7A092B4AD801A252F823F01F
:102B6000892B0008932B00089D2B0008A52B00083B
:102B7000AD2B0008B52B0008BD2B0008C72B0008A3
:102B8000CF2B0008ED2B0008FB683A68D2B21A7010
:102B900030E0FB683A6892B21A802BE0FB683A6832
:102BA0001A6027E0FB683A681A6023E0FB683A681D
:102BB0001A601FE0FB683A681A601BE0FB683A681D
:102BC00092B21A8016E0FB683A681A6012E0FB685D
:102BD000FA68126802F07F421A60FB68FA681168AE
:102BE0003A6822F07F420A431A6003E0012309E0B9
:102BF000012307E007F1080393E806000348FFF705
:102C000061FE034618461037BD4680BD48290020A6
:102C100080B586B000AFF860B9607A60114B0122D0
:102C20001A6000237B610EE00F4B1B687A69B9685C
:102C30000A4412781A700C4B1B6801330A4A13605D
:102C40007B6901337B617A697B689A42ECDB054BD7
:102C500000221A60054800F00BF87B681846183708
:102C6000BD4680BD801000206C070020782C00201D
:102C700080B586B000AF7860174B1B681A46174BBB
:102C80001B68D31A7B617B69002B21D0144B1B6816
:102C9000002B1DD1134B3B61134BFB60104B0122EA
:102CA0001A607B691A46F96838690DF083FA0C4B93
:102CB00000221A607B699BB21A460A49786805F0BF
:102CC00015F80346002B03D1044B1B68024A13601E
:102CD00000BF1837BD4680BD6C0700206807002084
:102CE00080100020782B0020B82C002080B582B006
:102CF00000AF786028E07B681B780A2B02D00D2B90
:102D000004D007E014480DF04DF91AE013480DF017
:102D100049F916E0124B1A687B681B78013313449B
:102D20001B7803F02003002B06D07B681B78194624
:102D30000C480DF037F904E07B681B7818460DF05D
:102D400049F97B6801337B607B681B78002BD2D10B
:102D500000BF0837BD4680BD1096010814960108D3
:102D6000800700201896010880B582B000AF2E4B76
:102D70007B602E4B1B681A462D4B1B68D31A3B6099
:102D80003B68FE2B13DD2B4B002283F8FF20284BE2
:102D90001B68264A136028480DF004F92548FFF700
:102DA000A5FF26480DF052F9FFF7E6F837E03B683B
:102DB000002B34D01D4B1B6813F8012C204B1A70CC
:102DC0001F4B1B780D2B04D07F2B19D00A2B00D062
:102DD00025E0164B1B6800221A70154B1B68134A1E
:102DE000136018480DF0DEF81248FFF77FFF134814
:102DF0000DF02CF90F48FFF703F9FFF7BDF80EE0CF
:102E0000022279680020FFF703FF084B1B68023B92
:102E1000064A1360054B1B6800221A7000BF00BFF2
:102E20000837BD4680BD00BF20960108740700200A
:102E300070070020782A002024960108389601089F
:102E4000881000203C96010880B582B000AF786001
:102E5000104B1B68002B04D001220F490020FFF704
:102E6000D7FE0E4B1B680C4A12781A700B4B1B686E
:102E700001330A4A1360FFF777FF00BF01220649BA
:102E8000786804F079FF0346022BF7D000BF0837BB
:102E9000BD4680BD20070020891000207407002057
:102EA00080B500AF194B1A4A1A60184B4FF41652EE
:102EB0005A60164B00229A60144B0022DA60134BC2
:102EC00000221A61114B00229A61104B0C225A61A8
:102ED0000E4B0022DA610D4804F01CFC0346002B67
:102EE00001D0FFF741FA094B1B68084A1268D26803
:102EF00042F06002DA6000220221262006F0DCFCAB
:102F0000262006F0F5FC00BF80BD00BF782C002015
:102F10000044004080B588B000AF78607B681B68D3
:102F2000124A93421DD10023BB60114A104B1B6C07
:102F300043F4003313640E4B1B6C03F40033BB608B
:102F4000BB680C23FB6002233B6100237B610023F1
:102F5000BB610723FB6107F10C031946054805F027
:102F6000E7FF00BF2037BD4680BD00BF00440040E2
:102F7000003802400000024080B400AF164A164BF1
:102F8000D3F8883043F47003C2F88830134A134BE7
:102F90001B6843F001031360104B00229A600F4A34
:102FA0000E4B1B6823F0847323F4803313600B4BA8
:102FB0000B4A5A60094A094B1B6823F480231360AB
:102FC000064B0022DA60044B4FF000629A6000BFAB
:102FD000BD465DF8047B704700ED00E0003802401C
:102FE0001030002480B487B000AF00233B61002381
:102FF0007B610223FB600023BB6002237B60324BBA
:103000009B6803F00C033B613B69042B07D0082B42
:1030100009D0002B3FD12D4B2D4A1A603FE02B4B9E
:103020002C4A1A603BE0284B5B6803F480039B0D3D
:10303000BB60254B5B6803F03F037B60BB68002BE4
:103040000DD0244A7B68B2FBF3F21F4B596847F658
:10305000C0730B409B0903FB02F37B610CE01C4A2D
:103060007B68B2FBF3F2184B596847F6C0730B400C
:103070009B0903FB02F37B61134B5B6803F4403352
:103080001B0C01335B00FB607A69FB68B2FBF3F356
:103090000E4A136003E00D4B0D4A1A6000BF0A4B45
:1030A0009B6803F0F0031B090B4AD35C3B61074BA1
:1030B0001A683B6922FA03F3044A136000BF1C3705
:1030C000BD465DF8047B7047003802407807002059
:1030D0000024F40040787D0150960108749D010899
:1030E000000000204410002048100020E02D0020A7
:1030F00080B400AF1C4A1C4B1B6843F08103136073
:10310000194B00229A60184A174B1B6823F0A163E1
:1031100023F480331360144B00225A601249124B7F
:103120005A68124B13434B600F4B0022C3F88420A4
:103130000D4A0D4BD3F8843043F0005343F4405311
:10314000C2F88430084A084B1B6823F480231360BC
:10315000054B0022DA60064B064A1A6000BFBD46E6
:103160005DF8047B704700BF003802401030000457
:10317000780700200024F40080B58AB000AF7860A2
:1031800000237B6200233B627B681B6803F0010322
:10319000002B4AD0714B00221A6000F0C1F978620E
:1031A00008E000F0BDF902467B6AD31A022B01D970
:1031B0000323CFE06A4B1B6803F00063002BF0D1C0
:1031C00067487B685A6847F6C073FB61FB6993FAEE
:1031D000A3F33B613B69B3FA83F39A407B68996838
:1031E0004FF0E043BB61BB6993FAA3F37B617B695A
:1031F000B3FA83F301FA03F31343C0F88430574B57
:1032000001221A6000F08CF9786208E000F088F979
:1032100002467B6AD31A022B01D903239AE0504B52
:103220001B6803F00063002BF0D07B681B6803F081
:103230000203002B00F083800023FB60484A484BC8
:103240001B6C43F080531364454B1B6C03F080539D
:10325000FB60FB68434A434B1B6843F48073136075
:1032600000F05EF9786208E000F05AF902467B6AE5
:10327000D31A022B01D903236CE03A4B1B6803F4E9
:103280008073002BF0D0364B1B6F03F440733B620E
:103290003B6A002B2FD07B68DB6803F440723B6AEB
:1032A0009A4228D02E4B1B6F23F440733B622E4B67
:1032B00001221A602C4B00221A60294A3B6A1367CC
:1032C000274B1B6F03F00103002B14D000F028F9EB
:1032D00078620AE000F024F902467B6AD31A41F2D0
:1032E0008832934201D9032334E01D4B1B6F03F056
:1032F0000203002BEED07B68DB6803F44073B3F568
:10330000407F0DD11649164B9B6823F4F8127B6859
:10331000DB6823F0704323F4407313438B6005E0B4
:103320000F4A0F4B9B6823F4F81393600C490C4B26
:103330001A6F7B68DB68C3F30B0313430B677B686F
:103340001B6803F00803002B03D0084A7B681B7C32
:103350001360002318462837BD4680BD68004742E9
:103360000038024000700040400E4742E0114742E2
:1033700080B489B000AF78607B6803221A60234B69
:10338000D3F8842047F6C073134047F6C072FA6141
:10339000FA6992FAA2F2FA60FA68B2FA82F223FAB1
:1033A00002F27B685A60194BD3F8843003F0E04294
:1033B0004FF0E0437B617B6993FAA3F33B613B6988
:1033C000B3FA83F3DA407B689A60104B9B6803F48E
:1033D000F813BB610D4B1B6F03F44072BB691A43BA
:1033E0007B68DA60094BD3F88C3003F08073002BD4
:1033F00003D17B6800221A7402E07B6801221A74F0
:1034000000BF2437BD465DF8047B7047003802409A
:1034100080B500AF0E4A0E4B1B6843F40073136077
:103420000B4A0B4B1B6843F480631360084A084B3C
:103430001B6843F480731360032006F031FA002008
:1034400000F044F8FEF71AF80023184680BD00BFCC
:10345000003C024080B500AF134B4FF0FF321A62C0
:10346000114B00221A62104B4FF0FF325A620E4B82
:1034700000225A620C4B4FF0FF321A610A4B0022B5
:103480001A61094B4FF0FF325A61074B00225A6113
:10349000054B4FF0FF329A61034B00229A6100F016
:1034A0000DF80023184680BD0038024080B400AFFC
:1034B00000BFBD465DF8047B704700BF80B400AF1D
:1034C00000BFBD465DF8047B704700BF80B582B089
:1034D00000AF7860094B1B68094AA2FB03239B09D4
:1034E000184606F027FA002279684FF0FF3006F000
:1034F000E3F9002318460837BD4680BD7807002051
:10350000D34D621080B400AF044B1B680133034AF3
:10351000136000BFBD465DF8047B7047B82D0020E6
:1035200080B400AF034B1B681846BD465DF8047BB2
:10353000704700BFB82D002080B584B000AF786020
:103540000023FB60FFF7ECFFF86000BFFFF7E8FF28
:103550000246FB68D21A7B689A42F7D300BF103745
:10356000BD4680BD80B400AF054A054B1B6823F003
:103570000203136000BFBD465DF8047B704700BFC7
:1035800010E000E080B400AF054A054B1B6843F033
:103590000203136000BFBD465DF8047B704700BFA7
:1035A00010E000E080B400AF024B1846BD465DF865
:1035B000047B70470000050180B400AF034B1B681B
:1035C0001B0C1846BD465DF8047B7047002004E0E4
:1035D00080B400AF044B1B68C3F30B031846BD4611
:1035E0005DF8047B704700BF002004E080B400AFAA
:1035F000054A054B5B6843F00103536000BFBD46BD
:103600005DF8047B704700BF002004E080B400AF89
:10361000054A054B5B6823F00103536000BFBD46BC
:103620005DF8047B704700BF002004E080B400AF69
:10363000054A054B5B6843F00203536000BFBD467B
:103640005DF8047B704700BF002004E080B400AF49
:10365000054A054B5B6823F00203536000BFBD467B
:103660005DF8047B704700BF002004E080B400AF29
:10367000054A054B5B6843F00403536000BFBD4639
:103680005DF8047B704700BF002004E080B400AF09
:10369000054A054B5B6823F00403536000BFBD4639
:1036A0005DF8047B704700BF002004E080B483B065
:1036B00000AF01237B607B6893FAA3F33B603B6818
:1036C000B3FA83F31A46064B13449B001A460123B0
:1036D000136000BF0C37BD465DF8047B704700BF28
:1036E00000C1891080B483B000AF01237B607B6888
:1036F00093FAA3F33B603B68B3FA83F31A46064B95
:1037000013449B001A460023136000BF0C37BD46CC
:103710005DF8047B704700BF00C1891080B400AF22
:10372000084A084B1B6A43F080531362054A054B55
:103730001B6A23F08053136200BFBD465DF8047B13
:10374000704700BF0038024080B483B000AF4FF430
:1037500080737B607B6893FAA3F33B603B68B3FAAA
:1037600083F303F1845303F560339B001A4601236E
:10377000136000BF0C37BD465DF8047B704700BF87
:1037800080B483B000AF4FF480737B607B6893FAA2
:10379000A3F33B603B68B3FA83F303F1845303F56F
:1037A00060339B001A460023136000BF0C37BD46F0
:1037B0005DF8047B704700BF80B483B000AF7860D1
:1037C0002B492B4B1B6823F0E0027B681B681343DB
:1037D0000B60284A274B5B6823F480335360254AEB
:1037E000244B1B6823F480331360224A214B9B68CF
:1037F00023F4803393601F4A1E4BDB6823F480332D
:10380000D3607B685B6803F48033002B05D0194AD2
:10381000184B1B6843F4803313607B685B6803F4C8
:103820000033002B05D0134A124B5B6843F48033FE
:1038300053607B685B6803F00103002B05D00D4AE1
:103840000C4B9B6843F4803393607B685B6803F0A8
:103850000203002B05D0074A064BDB6843F4803394
:10386000D36000BF0C37BD465DF8047B704700BFD6
:1038700000700040003C014080B483B000AF1023D2
:103880007B607B6893FAA3F33B603B68B3FA83F3F6
:1038900003F1845303F560339B001A460123136040
:1038A00000BF0C37BD465DF8047B704780B483B021
:1038B00000AF10237B607B6893FAA3F33B603B6807
:1038C000B3FA83F303F1845303F560339B001A4684
:1038D0000023136000BF0C37BD465DF8047B7047C2
:1038E00080B483B000AF78600549054B5A687B68A7
:1038F00013434B6000BF0C37BD465DF8047B704737
:103900000070004080B483B000AF78600649064B79
:103910005A687B68DB4313404B6000BF0C37BD46E1
:103920005DF8047B704700BF0070004080B483B036
:1039300000AF78600B46FB70094A094B1B6923F006
:1039400004031361FB78012B01D130BF02E040BFBB
:1039500020BF20BF00BF0C37BD465DF8047B704719
:1039600000ED00E080B483B000AF78600B46FB70E0
:103970001049104B1B6823F003027B6813430B6054
:103980000D4A0D4B1B6943F004031361FB78012BB7
:1039900001D130BF02E040BF20BF20BF064A064B26
:1039A0001B6923F00403136100BF0C37BD465DF8AB
:1039B000047B70470070004000ED00E080B400AF71
:1039C000084A084B1B6843F002031360064A064B83
:1039D0001B6943F00403136130BF00BFBD465DF8AF
:1039E000047B70470070004000ED00E080B500AF40
:1039F000064B5B6903F48033002B05D000F008F818
:103A0000024B4FF480325A6100BF80BD003C014040
:103A100080B400AF00BFBD465DF8047B704700BFB7
:103A200080B400AF054A054B1B6943F002031361E4
:103A300000BFBD465DF8047B704700BF00ED00E0AD
:103A400080B400AF054A054B1B6923F002031361E4
:103A500000BFBD465DF8047B704700BF00ED00E08D
:103A600080B400AF054A054B1B6943F01003136196
:103A700000BFBD465DF8047B704700BF00ED00E06D
:103A800080B400AF054A054B1B6923F01003136196
:103A900000BFBD465DF8047B704700BF00ED00E04D
:103AA00080B582B000AF78607B68002B01D1012324
:103AB0001DE07B6893F83930DBB2002B06D17B68C0
:103AC000002283F838207868FDF7AEFA7B6802227E
:103AD00083F839207B681A687B68043319461046DE
:103AE00003F0C8F87B68012283F8392000231846C8
:103AF0000837BD4680BD00BF80B582B000AF78609A
:103B00007B68022283F839207B681B681A6A41F2BD
:103B100011131340002B0FD17B681B681A6A40F207
:103B200044431340002B07D17B681B687A681268F6
:103B3000126822F001021A607868FDF767FC7B6862
:103B4000002283F839207B68002283F83820002384
:103B500018460837BD4680BD80B483B000AF78609A
:103B600000BF0C37BD465DF8047B704780B483B05E
:103B700000AF786000BF0C37BD465DF8047B70472E
:103B800080B483B000AF78607B68022283F839206C
:103B90007B681B687A681268126842F001021A603A
:103BA0007B68012283F83920002318460C37BD4674
:103BB0005DF8047B704700BF80B483B000AF7860CD
:103BC0007B68022283F839207B681B681A6A41F2FD
:103BD00011131340002B0FD17B681B681A6A40F247
:103BE00044431340002B07D17B681B687A68126836
:103BF000126822F001021A607B68012283F83920E2
:103C0000002318460C37BD465DF8047B704700BFA3
:103C100080B483B000AF78607B681B687A681268F4
:103C2000D26842F00102DA607B681B687A68126829
:103C3000126842F001021A60002318460C37BD4694
:103C40005DF8047B704700BF80B483B000AF78603C
:103C50007B681B687A681268D26822F00102DA6019
:103C60007B681B681A6A41F211131340002B0FD1B5
:103C70007B681B681A6A40F244431340002B07D14B
:103C80007B681B687A681268126822F001021A6069
:103C9000002318460C37BD465DF8047B704700BF13
:103CA00080B584B000AFF860B9601346FB80FB6854
:103CB00093F83930DBB2022B01D1022334E0FB68E8
:103CC00093F83930DBB2012B0BD1BB68002B04D148
:103CD000FB88002B01D0012326E0FB68022283F839
:103CE0003920FB68DB69124ADA63FB68DB69114A39
:103CF000DA64FB68D869B968FB681B682C331A461C
:103D0000FB8806F01DF8FB681B68FA681268D26829
:103D100042F48072DA60FB681B68FA681268126805
:103D200042F001021A60002318461037BD4680BDDC
:103D300085700008A96F000880B483B000AF786078
:103D40007B681B687A681268D26822F48072DA6035
:103D50007B681B681A6A41F211131340002B0FD1C4
:103D60007B681B681A6A40F244431340002B07D15A
:103D70007B681B687A681268126822F001021A6078
:103D80007B68012283F83920002318460C37BD4692
:103D90005DF8047B704700BF80B582B000AF7860EB
:103DA0007B68002B01D101231DE07B6893F839303B
:103DB000DBB2002B06D17B68002283F838207868BC
:103DC00000F046F87B68022283F839207B681A6885
:103DD0007B6804331946104602F04CFF7B680122D1
:103DE00083F83920002318460837BD4680BD00BF40
:103DF00080B582B000AF78607B68022283F83920FA
:103E00007B681B681A6A41F211131340002B0FD113
:103E10007B681B681A6A40F244431340002B07D1A9
:103E20007B681B687A681268126822F001021A60C7
:103E3000786800F017F87B68002283F839207B68E7
:103E4000002283F83820002318460837BD4680BD7D
:103E500080B483B000AF786000BF0C37BD465DF81A
:103E6000047B704780B483B000AF786000BF0C372C
:103E7000BD465DF8047B704780B582B000AF7860C6
:103E800039607B681B6801223968184603F0D6F850
:103E90007B681B680B4A934207D17B681B687A6872
:103EA0001268526C42F400425A647B681B687A685C
:103EB0001268126842F001021A600023184608379F
:103EC000BD4680BD0000014080B582B000AF786083
:103ED00039607B681B6800223968184603F0AEF829
:103EE0007B681B681B4A934217D17B681B681A6A60
:103EF00041F211131340002B0FD17B681B681A6A23
:103F000040F244431340002B07D17B681B687A685A
:103F10001268526C22F400425A647B681B681A6A69
:103F200041F211131340002B0FD17B681B681A6AF2
:103F300040F244431340002B07D17B681B687A682A
:103F40001268126822F001021A600023184608372E
:103F5000BD4680BD0000014080B582B000AF7860F2
:103F600039603B680C2B41D801A252F823F000BF06
:103F7000A53F0008ED3F0008ED3F0008ED3F0008B9
:103F8000B73F0008ED3F0008ED3F0008ED3F000897
:103F9000C93F0008ED3F0008ED3F0008ED3F000875
:103FA000DB3F00087B681B687A681268D26842F0C1
:103FB0000202DA601BE07B681B687A681268D268CC
:103FC00042F00402DA6012E07B681B687A681268CB
:103FD000D26842F00802DA6009E07B681B687A6800
:103FE0001268D26842F01002DA6000E000BF7B681D
:103FF0001B6801223968184603F020F87B681B68AB
:104000000B4A934207D17B681B687A681268526C2E
:1040100042F400425A647B681B687A68126812682E
:1040200042F001021A60002318460837BD4680BDE1
:104030000000014080B582B000AF786039603B6815
:104040000C2B41D801A252F823F000BF8140000898
:10405000C9400008C9400008C94000089340000852
:10406000C9400008C9400008C9400008A540000830
:10407000C9400008C9400008C9400008B74000080E
:104080007B681B687A681268D26822F00202DA60E4
:104090001BE07B681B687A681268D26822F0040211
:1040A000DA6012E07B681B687A681268D26822F0D6
:1040B0000802DA6009E07B681B687A681268D268D7
:1040C00022F01002DA6000E000BF7B681B6800226B
:1040D0003968184602F0B2FF7B681B681B4A93429E
:1040E00017D17B681B681A6A41F211131340002B29
:1040F0000FD17B681B681A6A40F244431340002BBF
:1041000007D17B681B687A681268526C22F40042FF
:104110005A647B681B681A6A41F211131340002B22
:104120000FD17B681B681A6A40F244431340002B8E
:1041300007D17B681B687A681268126822F0010256
:104140001A60002318460837BD4680BD00000140B4
:1041500080B584B000AFF860B9607A607B80FB689E
:1041600093F83930DBB2022B01D10223BCE0FB68AB
:1041700093F83930DBB2012B0BD17B68002B04D1D3
:104180007B88002B01D00123AEE0FB68022283F87C
:104190003920BB680C2B00F2898001A252F823F071
:1041A000D5410008AD420008AD420008AD4200080C
:1041B0000B420008AD420008AD420008AD420008C5
:1041C00041420008AD420008AD420008AD4200087F
:1041D00077420008FB681B6A454ADA63FB681B6A82
:1041E000444ADA64FB68186A7968FB681B683433F0
:1041F0001A467B8805F0A4FDFB681B68FA68126804
:10420000D26842F40072DA6051E0FB685B6A384AB7
:10421000DA63FB685B6A374ADA64FB68586A796874
:10422000FB681B6838331A467B8805F089FDFB68FC
:104230001B68FA681268D26842F48062DA6036E07D
:10424000FB689B6A2A4ADA63FB689B6A294ADA643C
:10425000FB68986A7968FB681B683C331A467B8860
:1042600005F06EFDFB681B68FA681268D26842F4BC
:104270000062DA601BE0FB68DB6A1D4ADA63FB68F8
:10428000DB6A1C4ADA64FB68D86A7968FB681B68D9
:1042900040331A467B8805F053FDFB681B68FA68BB
:1042A0001268D26842F48052DA6000E000BFFB6816
:1042B0001B680122B968184602F0C0FEFB681B6843
:1042C0000D4A934207D1FB681B68FA681268526C6A
:1042D00042F400425A64FB681B68FA68126812686C
:1042E00042F001021A60002318461037BD4680BD17
:1042F000396F0008A96F00080000014080B582B046
:1043000000AF786039603B680C2B41D801A252F8AD
:1043100023F000BF4943000891430008914300087F
:10432000914300085B430008914300089143000853
:10433000914300086D430008914300089143000831
:10434000914300087F4300087B681B687A68126805
:10435000D26822F40072DA601BE07B681B687A681E
:104360001268D26822F48062DA6012E07B681B680F
:104370007A681268D26822F40062DA6009E07B6829
:104380001B687A681268D26822F48052DA6000E012
:1043900000BF7B681B6800223968184602F04EFE99
:1043A0007B681B681D4A934217D17B681B681A6A99
:1043B00041F211131340002B0FD17B681B681A6A5E
:1043C00040F244431340002B07D17B681B687A6896
:1043D0001268526C22F400425A647B681B681A6AA5
:1043E00041F211131340002B0FD17B681B681A6A2E
:1043F00040F244431340002B07D17B681B687A6866
:104400001268126822F001021A607B68012283F8A8
:104410003920002318460837BD4680BD0000014002
:1044200080B582B000AF78607B68002B01D101239A
:104430001DE07B6893F83930DBB2002B06D17B6836
:10444000002283F83820786800F046F87B68022262
:1044500083F839207B681A687B6804331946104654
:1044600002F008FC7B68012283F8392000231846FB
:104470000837BD4680BD00BF80B582B000AF786010
:104480007B68022283F839207B681B681A6A41F234
:1044900011131340002B0FD17B681B681A6A40F27E
:1044A00044431340002B07D17B681B687A6812686D
:1044B000126822F001021A60786800F017F87B6831
:1044C000002283F839207B68002283F838200023FB
:1044D00018460837BD4680BD80B483B000AF786011
:1044E00000BF0C37BD465DF8047B704780B483B0D5
:1044F00000AF786000BF0C37BD465DF8047B7047A5
:1045000080B582B000AF786039607B681B6801229B
:104510003968184602F092FD7B681B680B4A93428B
:1045200007D17B681B687A681268526C42F40042BB
:104530005A647B681B687A681268126842F001024C
:104540001A60002318460837BD4680BD00000140B0
:1045500080B582B000AF786039607B681B6800224C
:104560003968184602F06AFD7B681B681D4A934251
:1045700017D17B681B681A6A41F211131340002B94
:104580000FD17B681B681A6A40F244431340002B2A
:1045900007D17B681B687A681268526C22F400426B
:1045A0005A647B681B681A6A41F211131340002B8E
:1045B0000FD17B681B681A6A40F244431340002BFA
:1045C00007D17B681B687A681268126822F00102C2
:1045D0001A607B68012283F83920002318460837C7
:1045E000BD4680BD0000014080B582B000AF78605C
:1045F00039603B680C2B41D801A252F823F000BF70
:10460000354600087D4600087D4600087D460008C6
:10461000474600087D4600087D4600087D460008A4
:10462000594600087D4600087D4600087D46000882
:104630006B4600087B681B687A681268D26842F093
:104640000202DA601BE07B681B687A681268D26835
:1046500042F00402DA6012E07B681B687A68126834
:10466000D26842F00802DA6009E07B681B687A6869
:104670001268D26842F01002DA6000E000BF7B6886
:104680001B6801223968184602F0D8FC7B681B6859
:104690000B4A934207D17B681B687A681268526C98
:1046A00042F400425A647B681B687A681268126898
:1046B00042F001021A60002318460837BD4680BD4B
:1046C0000000014080B582B000AF786039603B687F
:1046D0000C2B41D801A252F823F000BF114700086B
:1046E0005947000859470008594700082347000860
:1046F000594700085947000859470008354700083E
:10470000594700085947000859470008474700081B
:104710007B681B687A681268D26822F00202DA604D
:104720001BE07B681B687A681268D26822F004027A
:10473000DA6012E07B681B687A681268D26822F03F
:104740000802DA6009E07B681B687A681268D26840
:1047500022F01002DA6000E000BF7B681B680022D4
:104760003968184602F06AFC7B681B681B4A934252
:1047700017D17B681B681A6A41F211131340002B92
:104780000FD17B681B681A6A40F244431340002B28
:1047900007D17B681B687A681268526C22F4004269
:1047A0005A647B681B681A6A41F211131340002B8C
:1047B0000FD17B681B681A6A40F244431340002BF8
:1047C00007D17B681B687A681268126822F00102C0
:1047D0001A60002318460837BD4680BD000001401E
:1047E00080B584B000AFF860B9607A607B80FB6808
:1047F00093F83930DBB2022B01D10223BCE0FB6815
:1048000093F83930DBB2012B0BD17B68002B04D13C
:104810007B88002B01D00123AEE0FB68022283F8E5
:104820003920BB680C2B00F2898001A252F823F0DA
:10483000654800083D4900083D4900083D49000819
:104840009B4800083D4900083D4900083D490008D3
:10485000D14800083D4900083D4900083D4900088D
:1048600007490008FB681B6A454ADA63FB681B6A54
:10487000444ADA64FB68186A7968FB681B68343359
:104880001A467B8805F05CFAFB681B68FA681268B8
:10489000D26842F40072DA6051E0FB685B6A384A21
:1048A000DA63FB685B6A374ADA64FB68586A7968DE
:1048B000FB681B6838331A467B8805F041FAFB68B1
:1048C0001B68FA681268D26842F48062DA6036E0E7
:1048D000FB689B6A2A4ADA63FB689B6A294ADA64A6
:1048E000FB68986A7968FB681B683C331A467B88CA
:1048F00005F026FAFB681B68FA681268D26842F471
:104900000062DA601BE0FB68DB6A1D4ADA63FB6861
:10491000DB6A1C4ADA64FB68D86A7968FB681B6842
:1049200040331A467B8805F00BFAFB681B68FA686F
:104930001268D26842F48052DA6000E000BFFB687F
:104940001B680122B968184602F078FBFB681B68F7
:104950000D4A934207D1FB681B68FA681268526CD3
:1049600042F400425A64FB681B68FA6812681268D5
:1049700042F001021A60002318461037BD4680BD80
:10498000396F0008A96F00080000014080B582B0AF
:1049900000AF786039603B680C2B41D801A252F817
:1049A00023F000BFD9490008214A0008214A000825
:1049B000214A0008EB490008214A0008214A000862
:1049C000214A0008FD490008214A0008214A000840
:1049D000214A00080F4A00087B681B687A68126841
:1049E000D26822F40072DA601BE07B681B687A6888
:1049F0001268D26822F48062DA6012E07B681B6879
:104A00007A681268D26822F40062DA6009E07B6892
:104A10001B687A681268D26822F48052DA6000E07B
:104A200000BF7B681B6800223968184602F006FB4D
:104A30007B681B681D4A934217D17B681B681A6A02
:104A400041F211131340002B0FD17B681B681A6AC7
:104A500040F244431340002B07D17B681B687A68FF
:104A60001268526C22F400425A647B681B681A6A0E
:104A700041F211131340002B0FD17B681B681A6A97
:104A800040F244431340002B07D17B681B687A68CF
:104A90001268126822F001021A607B68012283F812
:104AA0003920002318460837BD4680BD000001406C
:104AB00080B582B000AF78607B68002B01D1012304
:104AC0001DE07B6893F83930DBB2002B06D17B68A0
:104AD000002283F83820786800F046F87B680222CC
:104AE00083F839207B681A687B68043319461046BE
:104AF00002F0C0F87B68012283F8392000231846B1
:104B00000837BD4680BD00BF80B582B000AF786079
:104B10007B68022283F839207B681B681A6A41F29D
:104B200011131340002B0FD17B681B681A6A40F2E7
:104B300044431340002B07D17B681B687A681268D6
:104B4000126822F001021A60786800F017F87B689A
:104B5000002283F839207B68002283F83820002364
:104B600018460837BD4680BD80B483B000AF78607A
:104B700000BF0C37BD465DF8047B704780B483B03E
:104B800000AF786000BF0C37BD465DF8047B70470E
:104B900080B582B000AF786039607B681B68012205
:104BA0003968184602F04AFA7B681B687A6812680E
:104BB000126842F001021A60002318460837BD4609
:104BC00080BD00BF80B582B000AF786039607B687F
:104BD0001B6800223968184602F030FA7B681B68AF
:104BE0001A6A41F211131340002B0FD17B681B6826
:104BF0001A6A40F244431340002B07D17B681B68BC
:104C00007A681268126822F001021A6000231846BE
:104C10000837BD4680BD00BF80B582B000AF786068
:104C200039603B680C2B41D801A252F823F000BF39
:104C3000654C0008AD4C0008AD4C0008AD4C0008B8
:104C4000774C0008AD4C0008AD4C0008AD4C000896
:104C5000894C0008AD4C0008AD4C0008AD4C000874
:104C60009B4C00087B681B687A681268D26842F027
:104C70000202DA601BE07B681B687A681268D268FF
:104C800042F00402DA6012E07B681B687A681268FE
:104C9000D26842F00802DA6009E07B681B687A6833
:104CA0001268D26842F01002DA6000E000BF7B6850
:104CB0001B6801223968184602F0C0F97B681B683E
:104CC0007A681268126842F001021A6000231846DE
:104CD0000837BD4680BD00BF80B582B000AF7860A8
:104CE00039603B680C2B41D801A252F823F000BF79
:104CF000254D00086D4D00086D4D00086D4D0008F4
:104D0000374D00086D4D00086D4D00086D4D0008D1
:104D1000494D00086D4D00086D4D00086D4D0008AF
:104D20005B4D00087B681B687A681268D26822F0C5
:104D30000202DA601BE07B681B687A681268D2683E
:104D400022F00402DA6012E07B681B687A6812685D
:104D5000D26822F00802DA6009E07B681B687A6892
:104D60001268D26822F01002DA6000E000BF7B68AF
:104D70001B6800223968184602F060F97B681B68DE
:104D80001A6A41F211131340002B0FD17B681B6884
:104D90001A6A40F244431340002B07D17B681B681A
:104DA0007A681268126822F001021A60002318461D
:104DB0000837BD4680BD00BF80B584B000AFF86045
:104DC000B9607A607B80FB6893F83930DBB2022BE4
:104DD00001D10223AFE0FB6893F83930DBB2012B3D
:104DE0000BD17B68002B04D17B88002B01D00123E1
:104DF000A1E0FB68022283F83920BB680C2B00F28B
:104E0000898001A252F823F03D4E0008154F00089A
:104E1000154F0008154F0008734E0008154F000885
:104E2000154F0008154F0008A94E0008154F00083F
:104E3000154F0008154F0008DF4E0008FB681B6A7D
:104E40003F4ADA63FB681B6A3E4ADA64FB68186A09
:104E5000FB681B68343319467A687B8804F070FF5E
:104E6000FB681B68FA681268D26842F40072DA6064
:104E700051E0FB685B6A324ADA63FB685B6A314A7D
:104E8000DA64FB68586AFB681B68383319467A682D
:104E90007B8804F055FFFB681B68FA681268D268CB
:104EA00042F48062DA6036E0FB689B6A244ADA6387
:104EB000FB689B6A234ADA64FB68986AFB681B6894
:104EC0003C3319467A687B8804F03AFFFB681B681C
:104ED000FA681268D26842F40062DA601BE0FB688C
:104EE000DB6A174ADA63FB68DB6A164ADA64FB6836
:104EF000D86AFB681B68403319467A687B8804F0DF
:104F00001FFFFB681B68FA681268D26842F480527F
:104F1000DA6000E000BFFB681B680122B968184630
:104F200002F08CF8FB681B68FA681268126842F09D
:104F300001021A60002318461037BD4680BD00BF2D
:104F4000CD6F0008A96F000880B582B000AF78600F
:104F500039603B680C2B41D801A252F823F000BF06
:104F6000954F0008DD4F0008DD4F0008DD4F0008B9
:104F7000A74F0008DD4F0008DD4F0008DD4F000897
:104F8000B94F0008DD4F0008DD4F0008DD4F000875
:104F9000CB4F00087B681B687A681268D26822F4DD
:104FA0000072DA601BE07B681B687A681268D2685E
:104FB00022F48062DA6012E07B681B687A6812680B
:104FC000D26822F40062DA6009E07B681B687A68C4
:104FD0001268D26822F48052DA6000E000BF7B6879
:104FE0001B6800223968184602F028F87B681B68A5
:104FF0001A6A41F211131340002B0FD17B681B6812
:105000001A6A40F244431340002B07D17B681B68A7
:105010007A681268126822F001021A607B68012225
:1050200083F83920002318460837BD4680BD00BFED
:1050300080B582B000AF786039607B68002B01D109
:1050400001232DE07B6893F83930DBB2002B06D1C9
:105050007B68002283F83820786800F055F87B6878
:10506000022283F839207B681A687B68043319466A
:10507000104601F0FFFD7B681B687A6812681268B1
:1050800022F008021A607B681B687A68126811684F
:105090003A680A431A607B68012283F839200023AA
:1050A00018460837BD4680BD80B582B000AF786035
:1050B0007B68022283F839207B681B681A6A41F2F8
:1050C00011131340002B0FD17B681B681A6A40F242
:1050D00044431340002B07D17B681B687A68126831
:1050E000126822F001021A60786800F017F87B68F5
:1050F000002283F839207B68002283F838200023BF
:1051000018460837BD4680BD80B483B000AF7860D4
:1051100000BF0C37BD465DF8047B704780B483B098
:1051200000AF786000BF0C37BD465DF8047B704768
:1051300080B582B000AF786039607B681B6801225F
:105140000021184601F07AFF7B681B6801220421C8
:10515000184601F073FF7B681B68084A934207D129
:105160007B681B687A681268526C42F400425A6489
:10517000002318460837BD4680BD00BF000001402F
:1051800080B582B000AF786039607B681B68002210
:105190000021184601F052FF7B681B6800220421A1
:1051A000184601F04BFF7B681B681C4A934217D1DD
:1051B0007B681B681A6A41F211131340002B0FD150
:1051C0007B681B681A6A40F244431340002B07D1E6
:1051D0007B681B687A681268526C22F400425A6439
:1051E0007B681B681A6A41F211131340002B0FD120
:1051F0007B681B681A6A40F244431340002B07D1B6
:105200007B681B687A681268126822F001021A60D3
:10521000002318460837BD4680BD00BF000001408E
:1052200080B582B000AF786039607B681B687A68AF
:105230001268D26842F00202DA607B681B687A6802
:105240001268D26842F00402DA607B681B680122AF
:105250000021184601F0F2FE7B681B680122042140
:10526000184601F0EBFE7B681B68084A934207D1A1
:105270007B681B687A681268526C42F400425A6478
:10528000002318460837BD4680BD00BF000001401E
:1052900080B582B000AF786039607B681B687A683F
:1052A0001268D26822F00202DA607B681B687A68B2
:1052B0001268D26822F00402DA607B681B68002260
:1052C0000021184601F0BAFE7B681B680022042109
:1052D000184601F0B3FE7B681B681C4A934217D145
:1052E0007B681B681A6A41F211131340002B0FD11F
:1052F0007B681B681A6A40F244431340002B07D1B5
:105300007B681B687A681268526C22F400425A6407
:105310007B681B681A6A41F211131340002B0FD1EE
:105320007B681B681A6A40F244431340002B07D184
:105330007B681B687A681268126822F001021A60A2
:10534000002318460837BD4680BD00BF000001405D
:1053500080B586B000AF7860396000237B610023A0
:105360003B610023FB607B68002B01D1012381E0BE
:105370007B6893F83930DBB2002B06D17B680022C2
:1053800083F83820786800F0A9F87B68022283F857
:1053900039207B681B687A681268926822F00702DD
:1053A0009A607B681A687B6804331946104601F0DE
:1053B00061FC7B681B689B687B617B681B689B69E1
:1053C0003B617B681B681B6AFB603B681B687A69F2
:1053D00013437B613B6923F4407323F003033B6178
:1053E0003B689A683B689B691B0213433A69134305
:1053F0003B613B6923F4406323F00C033B613B6951
:1054000023F4704323F0F0033B613B68DA683B68A8
:10541000DB691B0213433A6913433B613B681B6919
:105420001A013B681B6A1B0313433A6913433B6130
:10543000FB6823F02203FB60FB6823F08803FB601A
:105440003B685A683B685B691B011343FA68134366
:10545000FB607B681B687A699A607B681B683A69A5
:105460009A617B681B68FA681A627B68012283F87C
:105470003920002318461837BD4680BD80B582B05C
:1054800000AF78607B68022283F839207B681B6854
:105490001A6A41F211131340002B0FD17B681B686D
:1054A0001A6A40F244431340002B07D17B681B6803
:1054B0007A681268126822F001021A60786800F0B7
:1054C00017F87B68002283F839207B68002283F874
:1054D0003820002318460837BD4680BD80B483B00D
:1054E00000AF786000BF0C37BD465DF8047B7047A5
:1054F00080B483B000AF786000BF0C37BD465DF864
:10550000047B704780B582B000AF786039603B683B
:10551000002B02D0042B08D00FE07B681B6801220F
:105520000021184601F08AFD16E07B681B68012205
:105530000421184601F082FD0EE07B681B68012201
:105540000021184601F07AFD7B681B6801220421C6
:10555000184601F073FD00BF7B681B687A6812680B
:10556000126842F001021A60002318460837BD464F
:1055700080BD00BF80B582B000AF786039603B6805
:10558000002B02D0042B08D00FE07B681B680022A0
:105590000021184601F052FD16E07B681B680022CE
:1055A0000421184601F04AFD0EE07B681B680022CA
:1055B0000021184601F042FD7B681B68002204218F
:1055C000184601F03BFD00BF7B681B681A6A41F278
:1055D00011131340002B0FD17B681B681A6A40F22D
:1055E00044431340002B07D17B681B687A6812681C
:1055F000126822F001021A60002318460837BD46DF
:1056000080BD00BF80B582B000AF786039603B6874
:10561000002B02D0042B10D01FE07B681B680122F6
:105620000021184601F00AFD7B681B687A68126841
:10563000D26842F00202DA602EE07B681B68012229
:105640000421184601F0FAFC7B681B687A6812682E
:10565000D26842F00402DA601EE07B681B68012217
:105660000021184601F0EAFC7B681B680122042136
:10567000184601F0E3FC7B681B687A681268D26800
:1056800042F00202DA607B681B687A681268D268AE
:1056900042F00402DA6000BF7B681B687A68126817
:1056A000126842F001021A60002318460837BD460E
:1056B00080BD00BF80B582B000AF786039603B68C4
:1056C000002B0FD17B681B6800220021184601F0D7
:1056D000B5FC7B681B687A681268D26822F0020207
:1056E000DA6030E03B68042B0FD17B681B68002236
:1056F0000421184601F0A2FC7B681B687A681268D6
:10570000D26822F00402DA601DE07B681B68002288
:105710000021184601F092FC7B681B6800220421DE
:10572000184601F08BFC7B681B687A681268D268A7
:1057300022F00202DA607B681B687A681268D2681D
:1057400022F00402DA607B681B681A6A41F21113C6
:105750001340002B0FD17B681B681A6A40F2444348
:105760001340002B07D17B681B687A6812681268A7
:1057700022F001021A607B68012283F8392000239D
:1057800018460837BD4680BD80B584B000AFF860CC
:10579000B9607A603B60FB6893F83930DBB2022B6A
:1057A00001D10223BCE0FB6893F83930DBB2012B56
:1057B0000ED17B68002B02D03B68002B04D13B8BC1
:1057C000002B01D00123ABE0FB68022283F83920D3
:1057D000BB68042B2ED0182B56D0002B00D09EE097
:1057E000FB681B6A504ADA63FB681B6A4F4ADA643B
:1057F000FB68186AFB681B68343319467A683B8B70
:1058000004F09EFAFB681B68FA681268D26842F4DA
:105810000072DA60FB681B68FA681268126842F06E
:1058200001021A60FB681B6801220021184601F082
:1058300005FC74E0FB685B6A3B4ADA63FB685B6A01
:105840003A4ADA64FB68586AFB681B6838331946C1
:105850003A683B8B04F074FAFB681B68FA681268BC
:10586000D26842F48062DA60FB681B68FA681268EA
:10587000126842F001021A60FB681B6801220421D1
:10588000184601F0DBFB4AE0FB681B6A264ADA6334
:10589000FB681B6A254ADA64FB68186AFB681B68A8
:1058A000343319467A683B8B04F04AFAFB685B6A2A
:1058B0001D4ADA63FB685B6A1C4ADA64FB68586A53
:1058C000FB681B68383319463A683B8B04F038FA9A
:1058D000FB681B68FA681268126842F001021A60DD
:1058E000FB681B6801220021184601F0A7FBFB683A
:1058F0001B6801220421184601F0A0FBFB681B680D
:10590000FA681268D26842F40072DA60FB681B68B9
:10591000FA681268D26842F48062DA6000BF00233D
:1059200018461037BD4680BDCD6F0008A96F00082E
:1059300080B582B000AF786039603B68002B0FD132
:105940007B681B6800220021184601F077FB7B680A
:105950001B687A681268D26822F40072DA6030E05C
:105960003B68042B0FD17B681B680022042118467A
:1059700001F064FB7B681B687A681268D26822F4C5
:105980008062DA601DE07B681B68002200211846F7
:1059900001F054FB7B681B6800220421184601F0CB
:1059A0004DFB7B681B687A681268D26822F400722B
:1059B000DA607B681B687A681268D26822F48062B9
:1059C000DA607B681B681A6A41F211131340002BDE
:1059D0000FD17B681B681A6A40F244431340002BC6
:1059E00007D17B681B687A681268126822F001028E
:1059F0001A607B68012283F8392000231846083793
:105A0000BD4680BD80B582B000AF78607B681B6802
:105A10001B6903F00203002B22D07B681B68DB6844
:105A200003F00203002B1BD07B681B686FF002029F
:105A30001A617B6801221A767B681B689B6903F0F8
:105A40000303002B03D0786801F098F805E078682C
:105A500001F08AF8786801F09BF87B6800221A76DA
:105A60007B681B681B6903F00403002B22D07B6852
:105A70001B68DB6803F00403002B1BD07B681B68EA
:105A80006FF004021A617B6802221A767B681B6839
:105A90009B6903F44073002B03D0786801F06EF823
:105AA00005E0786801F060F8786801F071F87B68CB
:105AB00000221A767B681B681B6903F00803002B21
:105AC00022D07B681B68DB6803F00803002B1BD027
:105AD0007B681B686FF008021A617B6804221A76E3
:105AE0007B681B68DB6903F00303002B03D0786835
:105AF00001F044F805E0786801F036F8786801F0C4
