:020000040800F2
:1000000000800120A9C90008F9C90008F9C9000841
:10001000F9C90008F9C90008F9C900080000000082
:10002000000000000000000000000000F9C9000806
:10003000F9C9000800000000F9C90008A929000852
:10004000F9C90008F9C90008F9C90008F9C9000888
:10005000F9C90008F9C90008F9C90008F9C9000878
:10006000F9C90008F9C90008F9C90008F9C9000868
:10007000F9C90008F9C900080D2A0008192A000862
:10008000F9C90008F9C900083D2A0008000000006D
:10009000000000000000000000000000F9C9000896
:1000A000F9C90008F9C90008F9C90008F9C9000828
:1000B000012A0008F9C90008F9C90008F9C90008AF
:1000C000F9C90008F9C90008F9C90008F9C9000808
:1000D000252A0008F9C90008E929000800000000E5
:1000E000F9C90008F9C90008F9C9000800000000B2
:1000F000000000000000000000000000F9C9000836
:1001000000000000F9C90008DD290008F9C900084D
:1001100000000000000000000000000000000000DF
:10012000312A0008B9290008C5290008F9C90008C2
:10013000F9C90008000000000000000000000000F5
:10014000000000000000000000000000F9C90008E5
:10015000D1290008F9C90008F9C90008F5290008E3
:10016000F9C90008F9C900080000000000000000FB
:10017000000000000000000000000000000000007F
:1001800000000000F9C900080000000000000000A5
:04019000F9C90008A1
:1001C000134B002B08BF114B9D46A3F5803A00212D
:1001D0008B460F461148124A121A0CF05DFA0D4B6D
:1001E000002B00D098470C4B002B00D098470020E4
:1001F000002104000D000B480CF0FCF90CF024FA6F
:10020000200029000CF05EFB0CF0FAF90000080059
:10021000000000000000000000000000E8090020CD
:10022000A04E002021C600080A4A08B5136873B121
:1002300018446946884202D81060184608BD0DF07F
:100240008DFD0C2303604FF0FF33184608BD024BB1
:100250001360EDE7E8090020A04E002011B1002353
:100260000B604B6000207047704700BF0120704753
:1002700008B50DF073FD162303604FF0FF3008BD85
:1002800008B50DF06BFD16230360FEE770B5161E72
:1002900007DD0C468D1914F8010BAFF30080A54261
:1002A000F9D1304670BD00BF4FF0FF30704700BF3E
:1002B0004FF400534B600020704700BF012070478F
:1002C0000020704770B5161E07DD0C468D19AFF380
:1002D000008004F8010BA542F9D1304670BD00BF83
:1002E0000EB44FF0FF3003B0704700BF08B50DF0FB
:1002F00035FD0A2303604FF0FF3008BD08B50DF04F
:100300002DFD022303604FF0FF3008BD4FF0FF309A
:10031000704700BF4FF400534B600020704700BF90
:1003200008B50DF01BFD1F2303604FF0FF3008BD23
:1003300008B50DF013FD0B2303604FF0FF3008BD2F
:1003400008B50DF00BFD0C2303604FF0FF3008BD26
:10035000C3B207EE103AB8EEC77ADFED306A27EE87
:10036000006AC0F30723B4EEE66AF1EE10FA84B037
:1003700007EE903AC0F307404ADC9FED296A60EE31
:10038000066A26EE877AC7EE066ABCEEE67A8DED3F
:10039000007A9DF800109FED217AF8EEE77A60EE82
:1003A000276AF4EEC76AF1EE10FA33DCDFED1C6A5F
:1003B00020EE267A67EE277A87EEA67AFCEEC77AD9
:1003C000CDED007A9DF800209FED147A07EE900A9B
:1003D000F8EEE77A60EE276AF4EEC76AF1EE10FAFB
:1003E0001ADC9FED0F7A20EE070A20EE270AC0EEF6
:1003F000077AFCEEE77ACDED007A9DF80030002018
:1004000061F3070062F30F2063F3174004B07047F5
:10041000FF21C0E7FF22D7E7FF23F0E700007F437B
:100420000000C842C2B2C0F3072302EB820202EB13
:10043000820203EB8303C0F3074030B59200124CF5
:1004400003EB830300EB800001FB02F200EB800072
:100450009B00A4FB025201FB03F38500C2F3473269
:10046000A4FB03E301FB05F1002062F30700C3F3E3
:100470004733A4FB012163F30F20C1F3473161F33C
:10048000174085B005B030BD5917B7D110B4C0F3CF
:10049000072251FA80F40A44FF2CC0F307431944A1
:1004A00028BFFF24FF2AE4B228BFFF220020FF2933
:1004B00064F30700D2B228BFFF2162F30F20C9B254
:1004C00061F3174085B005B05DF8044B704700BF7D
:1004D0002DE9F04101268E4082B002EB4202F64344
:1004E0000193C3F3072EDFB200EBC20076B2C1F175
:1004F0000701C3F3074300250EFA05F4027890F8CC
:10050000088090F810C004F080040C41324022436F
:1005100006EA080806EA0C0C80F8088080F810C08B
:1005200000F8012B07FA05F403FA05F290F80780AA
:1005300090F80FC004F0800402F080020C410A41E0
:10054000013544EA080442EA0C02082DC471C27362
:10055000D2D102B0BDE8F081F0B502EB4202002535
:1005600000EBC20083B02A462E462F4610F801EB5E
:10057000C479C37B4EFA01FE0C410B410EF0010E13
:1005800004F0010403F001030EFA05FEAC40AB4099
:1005900001354EEA06063C431343082DF6B2E7B296
:1005A000DAB2E3D1002067F3070066F30F2062F3AD
:1005B000174003B0F0BD00BFF0B502EB420287B0B8
:1005C00000EBC202013A0DF1FF330DF1170412F8EE
:1005D000010F03F8010F9C42F9D100250026B64611
:1005E00037460DF1FF34072014F801CF237C227A1F
:1005F0002B414CFA05FC2A4103F0010383400CF027
:10060000010C02F001020CFA00FC82403343013875
:100610004CEA070742EA0E02DEB2431CFFB25FFA61
:1006200082FEE1D10135082D4F7081F800E08E7017
:1006300001F10301D2D107B0F0BD00BF2DE9F047B1
:1006400086B000231F4600931E4601930293039336
:100650000493059391F8018091F800C091F802E0AD
:100660006C46072501E02778013D48FA05F303F0C1
:100670000103B3403B4304F8013B4CFA05FA4EFA40
:1006800005F394F80790E77B0AF0010A03F00103F1
:100690000AFA06FAB3404AEA09093B4384F807908C
:1006A000E373002DDFD10136082E01F1030102D0E2
:1006B0009DF80070CEE702EB420200EBC202013A65
:1006C0000DF1FF330DF1170013F8011F02F8011FA0
:1006D0009842F9D106B0BDE8F08700BF70B586B08A
:1006E0000C46054669461646FFF766FF3246214628
:1006F0002846FFF7A3FF00230DEB0302E118108843
:10070000E052033392788A70182BF5D106B070BD91
:1007100001F012BE70B5354C354B236092B000230A
:10072000C7222046E2606360A360236106F0D0FA2E
:1007300000284CD112A94FF4805341F8403D2B487A
:1007400006F010F800283FD1284806F0F9FA0028F2
:1007500037D1002306A925480693079306F0CAF867
:1007600060BB0023694621480093019309F054FFC0
:1007700008BB002360261E251A460BA91B480D93B3
:100780000F93109311930B960C9506F0AFFC78B96C
:10079000A0230BA9042215480C9306F0A7FC08B16E
:1007A00001F0CAFD124B2068984213D012B070BD00
:1007B00001F0C2FDECE701F0BFFDDAE701F0BCFD9E
:1007C000CFE701F0B9FDC4E701F0B6FDBCE701F0E9
:1007D000B3FDAFE70122002106F070FD2068012281
:1007E000042106F06BFD12B070BD00BFC00B0020ED
:1007F0000000014010B5174C002384B04FF0804139
:100800004FF4C87220462160E2606360A3602361F8
:1008100006F05EFA80B904A94FF4805341F8103D08
:100820000C4805F09FFF08B101F086FD0A4B2068D7
:10083000984204D004B010BD01F07EFDEBE7012228
:10084000002106F03BFD20680122042106F036FD60
:1008500004B010BD380C0020000001400368B3F163
:10086000804F00D070470A4B1B68196A41F2111281
:10087000114208D1196A40F24442114203D11A6868
:1008800022F001021A60034B01221A70704700BF68
:10089000380C0020E0000020F0B55C4A0368934269
:1008A00083B01AD0B3F1804F01D003B0F0BD03F58F
:1008B0000E33002201921A6C42F001021A641B6C82
:1008C00003F001030193022203211C20019B09F084
:1008D00021FF1C2009F054FFE7E7002302F59C32BA
:1008E0000093516C4A4DDFF840C1EB6041F00101CB
:1008F0005164526C2B6102F00102044600924020C8
:100900004FF0406E4FF480474FF44036009A6B61D1
:10091000EB612B63042103224FF40003A8602846F7
:10092000C5F800C0C5F804E0AF612E626962AA6232
:10093000EB6204F015FA002865D1364EE5614FF000
:10094000406140224FF480604FF48043DFF8DCE0E8
:10095000AC634FF4403704257160B26003214FF45B
:1009600000023061B36130460023C6F800E0376210
:100970007562B162F262F3607361F361336304F034
:10098000EFF900283CD1244D244A26624FF0406004
:100990004023B4634FF48037042603212A60686043
:1009A0004FF40002AB60284600232F626E62A962FA
:1009B000EA62EB602B616B61AB61EB612B6304F06E
:1009C000CFF9D0B92A68656213681248AC6343F066
:1009D000100313600021124A04F0D0FC50B9114AF0
:1009E0000C48042104F0CAFC00283FF45EAF01F07B
:1009F000A3FC5AE701F0A0FCF1E701F09DFCE1E760
:100A000001F09AFCBFE701F097FC96E70000014077
:100A1000000B0020740C0020600B0020406402409A
:100A20002528000811070008886402402864024055
:100A3000094A0368934200D0704710B5044601226A
:100A40001846002106F03AFC206801220421BDE886
:100A5000104006F033BC00BF00000140114A03689B
:100A600093420BD0B3F1804F00D070470E4A136C05
:100A700023F0010313641C2009F08EBE02F50B3233
:100A800010B5136C044623F00803006A136404F0E5
:100A9000FFF9E06904F0FCF9606ABDE8104004F079
:100AA000F7B900BF000C0040003802403D4B02681F
:100AB0009A4200D070472DE9F047054682B03A4887
:100AC0003A4EDFF80081DFF800A10DF05DF906F184
:100AD000080934464746617850460DF055F914F838
:100AE000013F07F8013FA145F5D131480DF0A0F9CC
:100AF00016F8013F7BB9A642FAD12E4A08F8013F09
:100B00004245FBD1284608232B4A2C4908F0DEFE3B
:100B100002B0BDE8F087284B1A78C2B99978D87826
:100B20005A7840EA0120B2B1012A10D15A791E79CF
:100B3000DC799979130443EA0663234343EA0121EC
:100B400002F028FA88B91D4B08225A70DAE71B4BCD
:100B500081225A70D6E7694602F0DEF99DF804302A
:100B60005BB1164B84225A70CCE7012815D00328BC
:100B70000FD1124B8C225A70C4E7009A0F4B160EFD
:100B80000424100C110A1E71DA715C70587199718D
:100B9000B8E70B480DF04CF9B4E7084B88225A70BF
:100BA000B0E700BF00380040D45B0108FB0D002017
:100BB000F85B01089B0D0020FC0D0020940D002027
:100BC000E85B0108930D0020E05B01080D4B0E4A25
:100BD00010B50A211A604FF40074002218469C6177
:100BE000D9625A609A60DA601A615A611A625A626E
:100BF0009A6208F01DFB00B910BDBDE8104001F07D
:100C00009BBB00BFD40C002000380040344B02686E
:100C10009A4200D07047F0B587B0002503F5003345
:100C200000951A6C2F4E42F480421A641B6C039597
:100C300003F480434FF444410093032205230191C0
:100C4000044602272848049201A90593DDF800E034
:100C5000029703F033FB254A75604FF480633046FA
:100C6000B560F5607561B561F561356275623260D8
:100C7000336104F075F800282BD132681C4D1368DD
:100C8000E66443F01003B46340211360194E2E60F4
:100C900000234FF480622846A9602A616B60EB60F4
:100CA0006B61AB61EB612B626B6204F059F898B930
:100CB0002A68A5641368AC6343F010031360052130
:100CC0000222242009F026FD242009F059FD07B056
:100CD000F0BD01F031FBD0E701F02EFBE8E700BFEB
:100CE000003800402C0D00200004024058600240F3
:100CF0009C0D0020706002400C4B02689A4200D0AC
:100D000070470B4A10B5136C044623F4804309481E
:100D100013644FF4444103F0BFFBE06C04F0B8F8F7
:100D2000A06CBDE8104004F0B3B800BF003800402C
:100D3000003802400004024008B5072009F0D8FC42
:100D4000002211466FF00B0009F0E4FC002211466E
:100D50006FF00A0009F0DEFC002211466FF0090076
:100D600009F0D8FC002211466FF0040009F0D2FC13
:100D7000002211466FF0030009F0CCFC002211465E
:100D80006FF0010009F0C6FC002211464FF0FF3061
:100D9000BDE8084009F0BEBC2DE9F0478AB0394BE8
:100DA000394F3A4D3A4E002401941A6B42F0040236
:100DB0001A631A6B02F004020192019A02941A6BF0
:100DC00042F080021A631A6B02F080020292029AC9
:100DD00003941A6B42F001021A631A6B02F00102CB
:100DE0000392039A04941A6B42F002021A631B6B7B
:100DF000069603F00203049338464FF4005305A906
:100E00000126049A05934FF002094FF0FF0A079458
:100E100003F054FA05A938460794CDF814A00696B5
:100E2000CDF8209003F04AFA07230C2205A92846A2
:100E3000099305924FF02008CDF818900794089474
:100E400003F03CFA05A92846CDF8209006960796AF
:100E5000CDF8148003F032FA32464146284603F0BA
:100E6000B1FB642002F0B6FC22464146284603F05E
:100E7000A9FB22465146384603F0A4FB0AB0BDE860
:100E8000F08700BF00380240000802400000024026
:100E900000001210000000002DE9F0410378A34A81
:100EA000613B88B0D2F830410D46132B00F2A5818A
:100EB000DFE813F03A006200A301A3018800C30039
:100EC000A301A301A301A301A301FF00A301A301A7
:100ED000A3011001A301A301500114004378692B61
:100EE00000F03482732B40F0888108460A2207A95B
:100EF0000EF07AF8054607980378002B40F003823D
:100F00002B464FF0FF328A498A480CF03DFFA8B2C9
:100F100020806080A080E08020816081A081E081CD
:100F2000002008B0BDE8F0814378652B00F02B82EB
:100F3000642B00F0C0816F2B00F06481284607A964
:100F40000A220EF051F805460798037804F12006AE
:100F5000002B40F0EB812B464FF0FF32764975486D
:100F60000CF012FFA8B220846084A084E084208565
:100F70006085A085E085D3E708460A2207A90EF020
:100F800033F805460798037804F14006002B40F03B
:100F90005E812B464FF0FF32684966480CF0F4FE44
:100FA000A8B2A4F84000A4F84200A4F84400A4F8B1
:100FB0004600A4F84800A4F84A00A4F84C00A4F89D
:100FC0004E00ADE74378712B40F017814B78202B12
:100FD00000F07E810021E81C0DF052FF2B786C2B75
:100FE00000F02E81682B40F008816B786D2B40F06B
:100FF00004810224524E534F06EB840383ED030A0F
:1010000010EE100A0AF03CFC02460B464E48214600
:101010000CF0BAFE06F11C0401252C36A04607EBA5
:10102000850054F8041BB7EE000A0BF0E7FCD8F873
:101030000030B4421D44F1D172E74378732B40F085
:10104000DC800B786C2B00F07F816D2B00F06C81C5
:10105000682B40F0D2800224394EA81C0A220021BD
:101060000DF0C2FF06EB8401CF69C861F369356AF0
:10107000726AC3F500735B1B9B1A002BC0F2BC8025
:101080000246214631482F4F0CF07EFE06F11C042B
:1010900001252C36A04607EB850054F8041BB7EE5B
:1010A000000A0BF0ABFCD8F80030A6421D44F1D189
:1010B00036E74378612B40F0A0808378652B40F0C1
:1010C0009C80084600210DF0DBFE1D4B002083EDC7
:1010D000020A26E74378732B08464FF00A0207A955
:1010E00000F0C6800DF080FF05460798037804F1F4
:1010F0005006002B40F0F9802B464FF0FF32144988
:101100000C480CF041FEA8B2A4F85000A4F852001C
:10111000A4F85400A4F85600A4F85800A4F85A0003
:10112000A4F85C00A4F85E00FAE600BF14490020B1
:10113000605C0108085C01082C5C0108FC5B01088C
:1011400000000020C42C00206C5C0108845C0108B5
:10115000445C0108B4F84010A748A84D0CF014FEF8
:10116000218CA7480CF010FEB4F86010A5480CF0D4
:101170000BFEB4F85010A4480CF006FE2188A348DA
:101180000CF002FE28680AF07BFB02460B46A048E2
:101190000CF0FAFDA8680AF073FB02460B469D4866
:1011A0000CF0F2FD68680AF06BFB02460B469A48A9
:1011B0000CF0EAFDE8680AF063FB0646A8690F46F2
:1011C0000AF05EFBCDE9040168690AF059FBCDE93C
:1011D000020128690AF054FB3246CDE900013B4682
:1011E0008E480CF0D1FDA86A05F11C010EC90090D3
:1011F0008B480CF0C9FD93E6CF614FF0FF3008B08B
:10120000BDE8F08108460A2207A90DF0EDFE05466B
:101210000798037804F13006002B40F0CC802B4671
:101220004FF0FF327F4980480CF0AEFDABB2238611
:101230006386A386E38623876387A387E3876FE6B6
:101240006B786D2B08BF01243FF4D4AED5E707A916
:101250000A220DF0C9FE2B46074602467349724822
:101260000CF092FD072F3FF69BAE26F8175057E67D
:101270000DF0BAFE05460798037804F16006002BCE
:1012800040F08A802B464FF0FF32694966480CF0E7
:101290007BFDABB2A4F86030A4F86230A4F86430EF
:1012A000A4F86630A4F86830A4F86A30A4F86C306A
:1012B000A4F86E3034E68378652B7FF43FAE0846A1
:1012C00000210DF0DDFD4D4B002083ED010A28E6E5
:1012D0000021A81C0DF0D4FD2B786C2B7AD0682B44
:1012E00008BF03243FF486AE87E707A90A220DF062
:1012F0007BFE2B46074602464E494B480CF044FD08
:10130000072FB2D9FFE607A90A220DF06DFE2B4682
:1013100006460246484944480CF036FD072E3FF683
:10132000F6AD24F81650FBE5012495E607A90A223C
:101330000DF05AFE2B460746024640493A480CF04B
:1013400023FD072F91D90DE6002485E608460A22E1
:1013500007A90DF049FE05460798037804F1100629
:10136000002B39D12B464FF0FF3235492E480CF077
:101370000BFDABB223826382A382E3822383638368
:10138000A383E383CCE5084600210DF079FD1B4BD8
:10139000002083ED000AC4E507A90A220DF024FE0F
:1013A0002B460746024622491F480CF0EDFC072F4A
:1013B0007FF65BAF6DE707A90A220DF015FE2B46FD
:1013C00007460246174918480CF0DEFC072F7FF647
:1013D0004CAF2BE700240DE607A90A220DF004FE0E
:1013E0002B460746024616490F480CF0CDFC072F46
:1013F0007FF63BAFBDE700BFA05C01080000002006
:10140000B45C0108C45C0108D85C0108EC5C01080C
:10141000FC5C0108085D0108145D0108205D0108FD
:10142000405D0108205C0108085C0108FC5B0108C4
:10143000385C0108445C0108605C01082C5C010810
:10144000505C0108024BDB6A80B21880704700BF15
:1014500000000020024BDB6A188880B202F0BAB9A3
:1014600000000020F8B52DED028BDFED438A70EE11
:10147000287AB0EE408A17EE900A0AF001FA3AA3F1
:10148000D3E900230AF09CF839A3D3E900230AF03A
:1014900075FB0AF07BFC07EE900A67EEE77A17EE21
:1014A000900A0AF0EDF941EC100B14F031F978EEE6
:1014B000687A55EC104B17EE900A0AF0E1F92AA36E
:1014C000D3E900230AF07CF829A3D3E900230AF02A
:1014D00055FB0AF05BFC07EE900A67EEE77A17EE21
:1014E000900A0AF0CDF941EC100B14F011F918EE46
:1014F000100A57EC106B0AF0C3F91BA3D3E90023C1
:101500000AF05EF81AA3D3E900230AF037FB0AF0C9
:101510003DFC07EE900A67EEE77A17EE900A0AF0B4
:10152000AFF941EC100B14F0F3F851EC100B0AF08A
:101530002DFC394608EE900A30460AF027FC294671
:1015400008EE100A20460AF021FC07EE100ADFED33
:101550000B7A38EE078A28EE278A88EE270A38EEBB
:10156000C00ABDEC028BF8BD0000000000F06F4027
:101570009A99999999995940000000444B07FD3A6E
:101580002DE9F0410A4CDFF82C8004F11007012509
:10159000264608EB850054F8041BB7EE000A0BF052
:1015A0002DFA3368BC421D44F2D1BDE8F08100BF82
:1015B0001C000020C42C00202DE9F84F0FF28019E8
:1015C000D9E9008960A7D7E900672DED0A8BDFF81C
:1015D00080B1DFF880A1544D9FED54AADFED549AFD
:1015E0009FED549A002407EE904AB8EEE78AABECE0
:1015F00001AA78EE297AAAEC01AA17EE900A0AF05D
:101600003FF942464B4609F0DBFF32463B460AF0C3
:10161000B5FA0AF0BBFB07EE900A67EEE77A0134F1
:1016200017EE900A0AF02CF941EC100B14F070F848
:1016300078EE697AB0EE40CAF0EE60CA17EE900A12
:101640000AF01EF942464B4609F0BAFF32463B46C5
:101650000AF094FA0AF09AFB07EE900A67EEE77A2E
:1016600017EE900A0AF00CF941EC100B14F050F848
:1016700018EE100AB0EE40BAF0EE60BA0AF000F9C7
:1016800042464B4609F09CFF32463B460AF076FA4A
:101690000AF07CFB07EE900A67EEE77A17EE900AF5
:1016A0000AF0EEF841EC100B14F032F851EC100B8C
:1016B0000AF06CFB08EE100A51EC1C0B0AF066FBFA
:1016C00008EE900A51EC1B0B0AF060FB07EE900A43
:1016D00078EEA78AB4F5007F68EE898AC8EE897A29
:1016E00038EE678AA5EC018A7FF47DAF2146124867
:1016F000124CDFF864800BF09FF904F1100701250C
:10170000264608EB850054F8041BB7EE000A0BF0E0
:1017100075F93368A7421D44F2D1BDEC0A8BBDE8D0
:10172000F88F00BFAFF30080440E002000000000DF
:10173000000000444B07FD3AC43400201C00002088
:101740000000000000F06F409A99999999995940CA
:10175000DC34002004410020C42C0020002A2DE9A4
:10176000F0470D4619DD002B3ED000EBC20490ED92
:10177000017AD1ED007A0646D6ED006A27EE877A27
:101780000830A6EE807AA04277EE677AB0EE470A7C
:10179000E3EC017AA1EC017AE9D1012A3ADD920069
:1017A000AB181DA7D7E90067043A53F804ACAC188E
:1017B00054F8040C0AF064F88046504689460AF052
:1017C0005FF832463B4609F0FBFE02460B464046B8
:1017D000494609F0F7FE0AF0D9FA44F8040DA5428B
:1017E0008246E5D1BDE8F0870B4601EB8201D0EDE2
:1017F000016AD3ED007A044694ED007A67EEA67A8A
:101800000830E0EE077AE3EC017A9942B0EE670A1D
:10181000EDD1C2E7BDE8F0872D431CEBE2361A3F5D
:101820002DE9F84FEC4CED4B226B2DED048B03F5BD
:101830000061023A32F8020F07EE900AF8EE677A7A
:10184000E3EC017A8B42F5D1E44AE549E54DE64FF8
:10185000DFF8A8B310464FF400730BF0D3FE00235B
:10186000E24ADE49E2480BF01BFAE0494FF400720D
:1018700008460BF053FF05F1100AB8460126DB4B72
:10188000B000A9460BEB000155F8042B1844434661
:101890000BF0FEFED9F80030554508F104081E444F
:1018A000EDD1D44D94ED0E8AD5ED009A94ED0D4A0C
:1018B000D7ED004AD4ED103AD5ED018AD4ED0F5A98
:1018C00094ED125A95ED029AD4ED116A94ED146AD2
:1018D000D5ED037A94ED137AC74E29EE888A68EE27
:1018E000A38AA4EE248A29EE059AE5EE888A67EE9B
:1018F000867AA6EEA89AE7EE097A17EE900AC5ED69
:10190000037A09F0BDFFB2A3D3E9002309F058FE22
:10191000804619EE100A894609F0B2FF02460B46CE
:101920004046494609F04EFE0AF030FAA86009F038
:10193000A7FFA7A3D3E9002309F042FE804618EED3
:10194000900A894609F09CFF02460B4640464946EC
:1019500009F038FE0AF01AFA686009F091FF9CA3BA
:10196000D3E9002309F02CFE804618EE100A8946C0
:1019700009F086FF02460B464046494609F022FE22
:101980000AF004FAD4ED2E6AD6ED007A94ED2D7AA1
:10199000286038EE698A67EEA67AE7EE087AC6ED27
:1019A000007AD5ED049A94ED168A94ED154AD7ED98
:1019B000014AD4ED183AD5ED058AD4ED175A94EDC5
:1019C0001A5A95ED069AD4ED196A94ED1C6AD5ED74
:1019D000077A94ED1B7A29EE888A68EEA38AA4EE32
:1019E000248A29EE059AE5EE888A67EE867AA6EEC5
:1019F000A89AE7EE097A17EE900AC5ED077A09F082
:101A00003FFF73A3D3E9002309F0DAFD804619EE06
:101A1000100A894609F034FF02460B464046494603
:101A200009F0D0FD0AF0B2F9A86109F029FF68A316
:101A3000D3E9002309F0C4FD804618EE900A8946D8
:101A400009F01EFF02460B464046494609F0BAFD22
:101A50000AF09CF9686109F013FF5DA3D3E9002344
:101A600009F0AEFD804618EE100A894609F008FF1D
:101A700002460B464046494609F0A4FD0AF086F9A5
:101A8000D4ED306AD6ED017A94ED2F7A286138EEE4
:101A9000698A67EEA67AE8EE077AC6ED017AD5ED97
:101AA000089A94ED1E8A97ED024AD4ED1D4AD5EDB1
:101AB000093AD4ED208AD4ED1F5A95ED0A5A94EDD7
:101AC000229AD4ED216A95ED0B6AD4ED247A94ED37
:101AD000237A29EE888A68EEA38AA4EE248A29EE66
:101AE000059AE8EE258A67EE867AA8EEA69AE9EED0
:101AF000077A17EE900AC5ED0B7A09F0C1FE34A300
:101B0000D3E9002309F05CFD804619EE100A8946EE
:101B100009F0B6FE02460B464046494609F052FD22
:101B20000AF034F9A86209F0ABFE29A3D3E9002337
:101B300009F046FD804618EE900A894609F0A0FE9D
:101B400002460B464046494609F03CFD0AF01EF9A4
:101B5000686209F095FE1EA3D3E9002309F030FD69
:101B6000804618EE100A894609F08AFE02460B46A6
:101B70004046494609F026FD0AF008F9D6ED026A0A
:101B8000D4ED327A94ED317A286238EE698A67EEC4
:101B9000A67AE8EE077AC6ED027AD5ED0C9A94EDB6
:101BA000268A97ED034AD4ED254AD5ED0D3AD4EDBA
:101BB000288AD4ED275A95ED0E5A94ED2A9AD4ED41
:101BC000296A95ED0F6AD4ED2C7A19E0AFF3008005
:101BD0002D431CEBE2361A3F00000020DC340020CD
:101BE000440E00201C000020F04000200441002092
:101BF000C4340020040E0020E0400020C42C00204B
:101C000094ED2B7A29EE888A68EEA38AA4EE248AC2
:101C100029EE059AE8EE258A67EE867AA8EEA69A5E
:101C2000E9EE077A17EE900AC5ED0F7A09F028FE63
:101C30002EA3D3E9002309F0C3FC804619EE100A55
:101C4000894609F01DFE02460B464046494609F00A
:101C5000B9FC0AF09BF8A86309F012FE23A3D3E9AC
:101C6000002309F0ADFC804618EE900A894609F081
:101C700007FE02460B464046494609F0A3FC0AF01F
:101C800085F8686309F0FCFD18A3D3E9002309F087
:101C900097FC804618EE100A894609F0F1FD0246CD
:101CA0000B464046494609F08DFC0AF06FF8D6ED28
:101CB000037AD4ED346A94ED337A0B4B286338EE13
:101CC000698A67EEA67AE7EE087AC6ED037ABDEC7C
:101CD000048B93E806000131013283E80600BDE879
:101CE000F88F00BFAFF30080F00900202D431CEBFC
:101CF000E2361A3F2DE9F0414378202B044631D0DB
:101D0000002103300DF0BCF823786C2B39D0682B00
:101D100033D163786D2B30D102241E4EDFF87C80E6
:101D200006EB840383ED030A10EE100A09F0A8FD08
:101D300002460B46184821460CF026F806F11C0412
:101D400001252C36274608EB850054F8041BB7EE16
:101D5000000A0AF053FE3B68B4421D44F2D1002051
:101D6000BDE8F081002102300DF08AF823786C2B59
:101D70000DD0682B08BF0324CFD04FF0FF30BDE853
:101D8000F08163786D2B08BF0124C6D0F5E70024ED
:101D9000C3E700BF000000206C5C0108C42C0020D9
:101DA0002DE9F04103786C2B34D06D2B30D0682BAB
:101DB00032D102241D4E0A22002102300DF014F906
:101DC00006EB8401CF69C861F369356A726AC3F5AD
:101DD00000735B1B9B1A002B22DB02462146144832
:101DE000DFF850800BF0D0FF06F11C0401252C36E3
:101DF000274608EB850054F8041BB7EE000A0AF0EA
:101E0000FDFD3B68B4421D44F2D10020BDE8F081E5
:101E10000124CFE70024CDE74FF0FF30BDE8F0818B
:101E2000CF614FF0FF30BDE8F08100BF000000201F
:101E3000845C0108C42C002008B500210DF020F8B6
:101E4000024B002083ED000A08BD00BF0000002007
:101E500008B500210DF014F8024B002083ED010AB3
:101E600008BD00BF0000002008B500210DF008F8F3
:101E7000024B002083ED020A08BD00BF00000020D5
:101E8000F8B52DED028B0E46B0EE408A174609F0EC
:101E9000E5FC02460B460020244909F06FFE04468B
:101EA00038460D4609F0DAFC02460B462046294624
:101EB00009F03AFD04461E4880FB06303044F31713
:101EC000C3EB20204FF4B47303FB10600D4609F000
:101ED000C5FC02460B462046294609F071FB09F075
:101EE00055FF9FED147A07EE900AF4EEC77AF1EEF3
:101EF00010FA0CDADFED106A87EEA67AB7EE000A68
:101F000030EE470A20EE080ABDEC028BF8BD77EEF2
:101F1000C77A9FED097A87EE870AF7EE007A30EEEE
:101F2000670A20EE080ABDEC028BF8BD00807640FF
:101F3000B7600BB6000034430000B442F0B583B084
:101F40000546164608460A2201A90DF04DF804463A
:101F50000198037893B9314623464FF0FF32104879
:101F60000BF012FFA0B228806880A880E88028814A
:101F70006881A881E881002003B0F0BD01A90A2290
:101F80000DF032F8234607460246314604480BF06E
:101F9000FBFE072FE6D8002025F8174003B0F0BD60
:101FA000085C0108F0B583B00546164608460A22CB
:101FB00001A90DF019F804460198037873B9314668
:101FC00023464FF0FF320E480BF0DEFEE1B228460A
:101FD00008220AF061FB002003B0F0BD01A90A222B
:101FE0000DF002F8234607460246314604480BF03E
:101FF000CBFE072FEAD80020EC5503B0F0BD00BFA0
:10200000085C010808B510220CF0EEFFB0F5803F27
:1020100005D3014602480BF0B7FE4FF0FF3008BD74
:102020005C5D010810B5102282B000210CF0DCFFCD
:10203000B0F5803F04460ED2694600F06DFF9DF872
:102040000430012B0FD0224600990A480BF09CFE69
:10205000002002B010BD014607480BF095FE4FF07E
:10206000FF3002B010BD214604480BF08DFE022067
:1020700002B010BDB05D01085C5D0108805D010823
:1020800030B583B001A910220CF0AEFFB0F5803F4F
:1020900004461CD201A9102201980CF0A5FF0146AC
:1020A0000546204600F076FF012818D0032807D007
:1020B000224629460D480BF067FE002003B030BDD4
:1020C00021460B480BF060FE042003B030BD0146F2
:1020D00008480BF059FE4FF0FF3003B030BD2146E9
:1020E00005480BF051FE022003B030BDF45D01083D
:1020F000C45D01085C5D0108805D010830B5164BC8
:10210000164A93E803008DB004AC84E80300002372
:10211000D2F8D42007930693089309930A930B935C
:102120001378012B0BD005226D4668460C490BF045
:10213000EBFE294620460BF027FE0DB030BD094BC3
:1021400093E803006D468DE80300294620460BF016
:102150001BFE0DB030BD00BF705B01080000002009
:10216000105E0108085E010870B500238EB00546B8
:102170001946202206A803930293049305930AF0BC
:102180008BFA202128460BF05BFE0D2106462846DF
:102190000BF056FE002800F08A800446002E00F066
:1021A0009780721B294602A80BF0AEFEA21B013AD3
:1021B000711C06A80BF0A8FE9DF80830633B142B99
:1021C0002BD8DFE803F0312A2A384A2A2A2A2A2A79
:1021D0002A2A2A2A2A5A2A2A2A2A0B009DF8093052
:1021E000722B1AD16946102206A80CF0FDFEB0F53C
:1021F000803F04467ED26946102200980CF0F4FE1F
:1022000001460546204600F0C5FE012877D0032888
:102210007AD121463F480BF0B7FD3F4B06A902A8F3
:102220001B6898470EB070BD9DF80930682B52D0DE
:1022300000200EB070BD9DF80940002CEDD106A81D
:102240000BF084FD0546014634480BF09DFD344BF0
:10225000DB6AADB220461D80E4E706A80BF076FDF0
:10226000014604462F480BF08FFD2D4BD3F8D83094
:10227000A4B200201C800EB070BD9DF80930642B04
:10228000CBD11022002106A80CF0AEFEB0F5803FA5
:1022900004462FD2694600F03FFE9DF80430012B22
:1022A0002DD02246009920480BF06EFDC0E70A2190
:1022B00028460BF0C5FD044600287FF46FAF0146A9
:1022C00028460BF0BDFD044616B100287FF469AF27
:1022D0004FF0FF30A6E79DF80A30612BA8D106A881
:1022E0000BF034FDF028A3D80D4BD3F8DC30C0B28E
:1022F00018709DE721460D480BF046FD8DE72146FD
:102300000B480BF041FD88E72246294609480BF0AF
:102310003BFD8DE7C45D010800410020145E01080B
:1023200000000020285E0108B05D01085C5D010826
:10233000805D0108F45D010808B5044C20462021A9
:1023400002F044F9642001F045FAF7E7000002408A
:1023500070B5214C94F8E03006460D4633B90120A3
:1023600001F038FA94F8E030002BF8D000231B4835
:1023700084F8E03001F0B4FD2B46194A19491A4897
:1023800002F0EEFD28BB31462B46154A174802F0F5
:10239000E7FDF0B92B46124A1549164802F0E0FD58
:1023A000B8B9154B1B68DA6842F48072DA60DA68F3
:1023B00042F40072DA60DA68A0F5803042F480629C
:1023C0005121DA60186159621A6842F001021A60FC
:1023D00070BDFFF7B1FF00BF00000020D04D00200E
:1023E00014080240E4000020000B0020740C0020C0
:1023F000F8090020600B0020C00B00202DE9F04FF1
:10240000234E2449244C254A254D264B26482DEDA4
:102410000C8BF16731460C31F46034617461B46146
:10242000224CC2F830114FF001124FF06411D4F871
:10243000DC40F261F2623262326372627263B262F3
:10244000B2631B4AF363F364336433657364736587
:10245000B364B365F06530667066B066F166316787
:102460007167B1672A6091B02378DFED12CA9FEDE2
:1024700012BADFED12AA0DF13C090C4BD3F8E8308B
:102480001B7803F0FF04DBB1C82001F0A3F9F4E7E7
:10249000F00900207DD5000870177017144900203E
:1024A00000410020200320032C012C01000000200B
:1024B000990E0008DB0FC940920A064000007F43D6
:1024C000D34BD44ADB6A1460188880B201F082F9D9
:1024D000D04BCF4A5B8CD2F8F000D2F8DC100078F9
:1024E000CB480978D0F8EC00009004EE903AC94B44
:1024F000C8489B8CC76FB0F84C00D2F8D82005EEC6
:10250000903AC44B1288DB8C06EE903AC14B1B8D7F
:1025100007EE903AC04B93ED004ABE4B5B8A00EE4B
:10252000103ABD4B93ED015ABA4B9B8A00EE903A9C
:10253000B94B93ED026AB74BDB8AF8EE644A01EEC1
:10254000103AF8EE655AF8EE666AB34B64EE844AC8
:1025500065EE855A66EE866AB8EE400AF8EE600AC5
:10256000B8EE411A93ED037AAA4B84EE804A1B8B96
:1025700001F0FF060196A74E92B285EEA05A86EEB4
:10258000816A01EE903AF8EE677AF8EE611A67EE2A
:10259000877AA04B87EEA17A93ED232AD3ED242AE4
:1025A00093ED253AD3ED263AD3F8A03072EE444AA3
:1025B00072EEC55A73EE466A09EE900A9548C6ED6A
:1025C000234A0133B0F85C50C6ED245AB0F86C00D1
:1025D000C6ED256AC6F8A030738E04EE103AB6F840
:1025E000423006EE103A8D4B73EEC77A93ED002A17
:1025F000D3ED042A93ED083AD3ED0C3AB38EC6ED31
:10260000267A04EE903AB6F8443006EE903AF38E0D
:1026100005EE103AB6F8463007EE103AB8EE455AD5
:10262000338FB8EE477A05EE903AA5EE037AB6F806
:102630004830F8EE644AF8EE666A07EE903AE4EE47
:10264000A26AB8EE444AB8EE466AF8EE655AF8EE69
:10265000677A8DED0D7A07EE105AA4EE026ACDED81
:102660000C6AE5EEA37AF8EE476A07EE100AB8EEB8
:10267000477A8DED0B6ACDED0E7A8CEEA6AA8CEE24
:1026800087CAF8EE699A002900F0A58007EE902A23
:10269000F8EE67BAA04607EE908AB8EEE79A604D6A
:1026A00029EE0C9A0BAE02ACD5ED007AB6EC01DA4D
:1026B000B0EE490AAAEE270AB847AA46F5EC017A15
:1026C000B0EE497AAAEE277AF0EE698AEDEE008A3A
:1026D00037EE0B0AB847DAED007AB0EE497AAAEE87
:1026E000277AB0EE698AADEE008A37EE4B0AB8471A
:1026F000B0EE697AADEE007A78EE886A76EE876A97
:10270000CBEEA67A68EEA76A68EE278AF4EEEA6A4C
:10271000F1EE10FA27EE278A6BDCF5EEC06AF1EED7
:1027200010FA6CD416EE900A09F0AAF841EC100BDE
:1027300012F094FF51EC100B09F008FB5FFA80FBDC
:10274000B4EEEA8AF1EE10FA50DCB5EEC08AF1EE92
:1027500010FA51D418EE100A09F092F841EC100B5F
:1027600012F07CFF51EC100B09F0F0FA5FFA80FADE
:10277000F4EEEA8AF1EE10FA36DCF5EEC08AF1EEFC
:1027800010FA3FD418EE900A09F07AF841EC100BD9
:1027900012F064FF51EC100B09F0D8FAC0B24E45AC
:1027A00084F809B0A07284F80BA004F103047FF44C
:1027B0007BAF424602A90098FDF740FF019B08F15C
:1027C000010898457FF467AF114BB8F1F00FD3F8CB
:1027D000EC30009318D8019B009803EB4301C9002B
:1027E00089B2FFF7B5FD48E6FF20D8E74FF0FF0AB2
:1027F000BEE74FF0FF0BA3E74FF0000AB8E74FF03A
:10280000000B9DE70020CAE74FF4B4511846E7E7F4
:1028100000000020F0090020E0400020040E00200D
:102820007C0A0020294B2A48196B70B54FF40072BE
:1028300001F0CAFA002846D1264B1A6800E00130A0
:10284000536A4F2BFBD91328F9DD136823F00103DA
:102850001360116A41F21113194208D1116A40F252
:102860004443194203D1136823F0010313601A4D46
:102870001A4C1B491B481C4B00681B6800266E61E4
:1028800025680C68296821F001012960216821F080
:1028900001012160016821F001010160D16821F48A
:1028A0008071D160D16821F40071D160D16821F4C8
:1028B0008061D160DA6842F00102DA601A6842F0A1
:1028C00001021A6070BDFFF737FD00BF0000002055
:1028D000D04D0020C00B002000080240600B0020FB
:1028E000000B0020740C0020380C0020F0B595B0CF
:1028F0000022284B0192186C274940F08050186440
:102900001B6C03F080530193019B02920B6823F42C
:10291000404343F400430B600B680F9203F44043C1
:1029200002930224102301264FF4A87104250722E4
:1029300008A8029F08940E940B960C931093119183
:102940001295139208F010F808BB034621464FF485
:1029500080520F2603A804940593079303960692CA
:1029600008F020FA044690B908F0D4FA0B4BA3FB08
:102970000030800907F030FF284607F0E1FF2246CB
:1029800021464FF0FF3007F0C5FE15B0F0BDFFF750
:10299000D3FC00BF0038024000700040D34D6210ED
:1029A00008B5FFF72BFD00BF08B500F005FFBDE837
:1029B000084007F0D3BF00BF014802F00BBC00BFC6
:1029C000740C0020014802F005BC00BF600B002021
:1029D000014802F0FFBB00BF000B0020014804F0DB
:1029E00053B800BFC00B0020014806F0B1B800BFCB
:1029F0008C4C0020014806F0ABB800BF4C4C0020C6
:102A0000014804F041B800BF380C0020014BD86CDD
:102A100002F0E0BBD40C0020014B986C02F0DABB52
:102A2000D40C0020014807F0C7B900BFD40C002027
:102A3000014802F0CFBB00BF184E0020014801F052
:102A4000C1BA00BFD04D002010B582B0234B002486
:102A500000941A6B42F400121A631A6B02F400120B
:102A60000092009A01941A6B42F480021A631B6B65
:102A700003F480030193012202210F20019B07F040
:102A800049FE0F2007F07CFE224602210E2007F0AF
:102A900041FE0E2007F074FE01221146392007F096
:102AA00039FE392007F06CFE01221146442007F060
:102AB00031FE442007F064FE012211463A2007F05F
:102AC00029FE3A2007F05CFE22460321382007F059
:102AD00021FE382007F054FE02B010BD003802403D
:102AE000F8B51E4C1E4E0025042329464FF488726B
:102AF00004F1080063802580656009F0CDFD194B65
:102B000084F82551186893F804E01F8A84F8285146
:102B100084F8295184F82A5184F82C5184F82D51D5
:102B200084F82E5184F82F5153F8085F94F82B2124
:102B30000D49C4F818019888366884F81CE101230F
:102B400042F0010284F82431A4F82671C4F81E5121
:102B5000A4F8220184F82B210E60F8BD144900204E
:102B6000F4000020905B01088C0D0020002310B4BD
:102B70008B704B706AB901234A604B7090F8343106
:102B80005DF8044B092243F0010380F834310A70E8
:102B90007047042A0DD10322012348600A704B704C
:102BA00090F834315DF8044B63F07F0380F83431E2
:102BB0007047082A34D0B2F5047FC0F09D80A2F59A
:102BC0008054B4F5805F30D2B2F5805F4ED041F2D0
:102BD0000104A2424FD041F20204A24250D041F27D
:102BE0000304A24256D041F204039A425ED041F25D
:102BF00006039A4266D041F208039A4270D041F22D
:102C000010039A4272D041F214039A42B6D10123C2
:102C1000002400F225120C708B704B704A60BFE7E5
:102C20000222031D0A704B60BAE7A2F50054B4F506
:102C3000805FA3D2B2F5005F27D042F20204A24225
:102C40002FD042F204039A4236D042F208039A424D
:102C50003ED042F20C039A4290D10123002400F2AC
:102C60002F120C708B704B704A6099E700F58C72D4
:102C70000B704A6094E700F219120B704A608FE7FC
:102C800000F21B120B704A608AE700F593720B701A
:102C90004A6085E700F58E7401220B704C604A7023
:102CA0007EE700F227120B704A6079E7012200F5F7
:102CB0008F730A704B6073E7072200F594730A70F4
:102CC0004B606DE7012200F590730A704B6067E777
:102CD0000824062200F596730C708A704B605FE73B
:102CE000002200F591730A704B6059E7002200F54D
:102CF00092730A704B6053E7A2F580740123FF2C96
:102D00004B7008D8A3070AD100F10803234402221C
:102D10004B600A7044E7B4F5887FBFF42FAFA2F58B
:102D20008472024400234A600B7039E7F0B583B027
:102D300002AB03E906009DF80230012B37D0062BC9
:102D400002D0002003B0F0BD90F82B5190F82A215A
:102D500090F8291190F8284190F8193190F81B61EA
:102D600090F82671ED070DD50132D2B2934245D0CD
:102D7000B1424FD0BC4245D080F82A2180F82911B9
:102D800080F828419A421AD2B1424FF0010320D371
:102D900090F82F31BC4243F0020380F82F3103D367
:102DA00043F0010380F82F31012003B0F0BD9DF8FE
:102DB0000030002B0CBF0220002003B0F0BD90F8C3
:102DC0002F31B14243F0040380F82F314FF000035C
:102DD000DED2BC4202D390F82F31E1E7002BE3D0E2
:102DE0000E4B1868FDF7B8FB019BC0F30721C0F339
:102DF0000742187059709A700020A3E70131C9B2D8
:102E00000022B5E790F82F4164F07F0480F82F414D
:102E10000024B1E70134E4B20021ABE78C0D0020BF
:102E20002DE9F04782B002AB03E906009DF80130BE
:102E3000012B07D09DF80230062B07D0002002B0EE
:102E4000BDE8F087032002B0BDE8F08790F82A5172
:102E500090F8198190F8296190F8287190F81BA1D9
:102E600090F82691454538D390F82F3143F004036C
:102E700080F82F31002356450DD390F82F314F4560
:102E800043F0020380F82F3103D343F0010380F8AD
:102E90002F310120D3E74F4521D2002BF9D0019AE1
:102EA00051781378927804461A4843EA012343EA9A
:102EB000024300682A463146FDF70AFB94F82B319D
:102EC000DB07BBD50135EDB2A8450BD084F82A51FC
:102ED00084F8296184F82871B0E70123CBE790F8E2
:102EE0002F31D2E70136F6B2B2450DD10137FFB22C
:102EF000B9450BD194F82F31002663F07F0384F895
:102F00002F3135463746E1E70025DFE70026354615
:102F1000DCE700BF8C0D002070B582B002460E4683
:102F2000002569461A4801950095FFF71FFE9DE8A8
:102F300006001748FFF7FAFE0128307114D09DF8FB
:102F40000030082B21D8DFE803F01612050505052F
:102F500012051A00019B1B683360022802D1019BF5
:102F600000221A7002B070BD356002B070BD019BC6
:102F70001B883360F1E7019B1B783360EDE7019B11
:102F80001B6823F07F433360E7E700233360E4E707
:102F90001449002030B583B0002302460D4618487E
:102FA000019369460093FFF7E1FD9DF80130012B85
:102FB0006C4612D09DF80030082B1ED8DFE803F0D5
:102FC0001A171414141417140500019A136825F025
:102FD0007F4503F07F431D43156094E806000848D1
:102FE000FFF71EFF03B030BD019B1D60F5E7019B9D
:102FF0001D80F2E7019B1D70EFE70120F2E700BFA3
:10300000144900202DE9F843184D002A2C6809DDE9
:103010000A4411F8013B23702C688A4204F1010430
:103020002C60F6D16E68A71B06D0114BD3F8008038
:10303000B8F1000F03D000273846BDE8F8830D4AE9
:103040000D49D2F800900D4801221A603A460AF064
:103050005BFF4846BAB209492E6005F051FB0028D3
:10306000EAD047462C603846BDE8F88304010020CA
:10307000980A0020CC4D0020CC4C00204C4B002066
:103080002DE9F843134B1D68854203D000242046E8
:10309000BDE8F883104ED6F800807768B8EB0704D7
:1030A000F5D00E4BD3F80090B9F1000FEED101200E
:1030B00022460B4918600B480AF026FF2846A2B2A8
:1030C0000849376005F01CFB0028E0D0C6F80080F6
:1030D0004C46DCE7CC4D002004010020980A00207B
:1030E000CC4C00204C4B0020134A144B126800219A
:1030F0009042196000D070472DE9F041104D2F68C3
:103100006E68B7EB060801D01A680AB1BDE8F08115
:103110000446012042460B4918600B480AF0F4FEB1
:103120001FFA88F2204608492E6005F0E9FA0028C7
:10313000ECD02F60EAE700BFCC4D0020980A0020B9
:1031400004010020CC4C00204C4B0020F8B5037843
:10315000E3B10446124F134E134D04E00AF014FE7F
:1031600014F8013F93B10A2B11D00D2B0F48F5D065
:1031700032681A441946527812F0200F28460AD0B5
:103180000AF002FE14F8013F002BECD1F8BD3846DE
:103190000AF0FAFDE4E718460AF00EFEE0E700BF89
:1031A0003C5E01084C050020445E0108405E0108B9
:1031B0002DE9F041634DAA68E968531AFE2B0ADC39
:1031C0003BB112F8013C0D2B32D07F2B75D00A2B6E
:1031D0002FD0BDE8F0815C4C5C48A960002384F8E6
:1031E000FF300AF0D1FD2378DBB1594F594E5A4DCB
:1031F00004E00AF0C9FD14F8013F93B10A2B45D051
:103200000D2B5648F5D032681A441946527812F000
:10321000200F284649D00AF0B7FD14F8013F002BD3
:10322000ECD14F480AF004FEBDE8F041FEF766BF5E
:10323000013A00231370444CEB684A48AB600AF033
:10324000A3FD2378A3B1424F424E434D07E00D2B1F
:1032500042481FD10AF098FD14F8013F43B10A2BF0
:10326000F5D138460AF090FD14F8013F002BF6D155
:103270003B480AF0DDFD3448FEF776FF10B13A48CE
:103280000AF0D6FDBDE8F041FEF738BF38460AF037
:103290007BFDB0E732681A441946527812F0200FCD
:1032A000284606D00AF070FDD6E718460AF084FDDD
:1032B000A1E718460AF080FDCEE72B681B211970A4
:1032C0002B685B22581C28605A702B6844205C1CB9
:1032D0002C6058702B68581C286059702B68591C3A
:1032E00029605A702B683322591C29605A702B6848
:1032F0007E22591C29605A7095E850000134A71BA2
:103300002C6002D0194B1A683AB1AB680022991EA2
:10331000A96003F8022CBDE8F081154A1549D2F8DE
:103320000080154801221A603A460AF0EDFD404639
:10333000BAB211492E6005F0E3F90028E5D02C60FF
:10334000E3E700BF040100204C4A00204C5E010866
:103350003C5E01084C050020445E0108405E010807
:10336000605E0108645E0108785E0108980A00202A
:10337000CC4D0020CC4C00204C4B002038B50F4BDE
:103380000F499A680C7914700E4C9A6825680132BE
:103390009A60044665B90C4B0C4D1C60FFF708FFA2
:1033A00001222946204605F0CDF90228F8D038BD83
:1033B0000431012205F0A4F9EDE700BF040100206B
:1033C000980A0020F8000020CC4D00209C0A002024
:1033D00010B5164C164B23604FF4165100230C22E7
:1033E000204661606261A360E3602361A361E361E1
:1033F00004F0D6FF08B1FEF79FFF2268D36843F0C0
:103400006003D36002210022262007F083F92620E2
:1034100007F0B6F9074B08481C60082200210AF0A3
:10342000B3FCBDE81040FEF769BE00BF8C4C002025
:1034300000440040CC4D0020945E0108F0B5214AC4
:103440000368934289B020D01F4A934201D009B04B
:10345000F0BD00211D4B02915A6C1D4842F0200224
:103460005A645B6C059103F0200302930122082348
:103470004FF4C055022403A9029E039504940692BA
:10348000079300F01BFF09B0F0BD002302F5FA32EC
:103490000193116C41F400311164126C05930446E0
:1034A00002F400320C2601920948069307220225F5
:1034B0000DEB0601019F03960495079200F0FEFEB6
:1034C0002368C1E700440040001401400038024076
:1034D0000000024010B5164C164B23604FF4E1314A
:1034E00000230C22204661606261A360E3602361D7
:1034F000A361E36104F054FF08B1FEF71DFF2268E9
:10350000D36843F06003D36002210422472007F010
:1035100001F9472007F034F9074B08481C600822DE
:1035200000210AF031FCBDE81040FEF7E7BD00BF06
:103530004C4C002000140140CC4D0020945E01084A
:1035400010B5144B144A1A600121002284B04FF4C4
:10355000803418465C609A601A611A62DA62DA6036
:103560009961D9611963596100F0B0F970B9042407
:10357000012207236946074800940192029300F054
:10358000C3FD08B1FEF7D8FE04B010BDFEF7D4FEAF
:10359000EDE700BFD04D0020002001401F4B026826
:1035A0009A4200D07047F0B587B0002603F58C33FF
:1035B00000965A6C1A4D42F480725A645B6C039602
:1035C00003F4807300931022032301A904461548D5
:1035D000009F019202934FF4806700F06FFEDFF8C6
:1035E00048E06E604FF400614FF400524FF4807376
:1035F0002846AE60EE602E626E62C5F800E02F6174
:103600006961AA61EB6101F0ABFB18B9A563AC631A
:1036100007B0F0BDFEF790FEF8E700BF00200140C4
:10362000184E002000000240106402400A4B02685D
:103630009A4200D07047094A10B5536C044623F4EF
:10364000807307485364102100F026FFA06BBDE88B
:10365000104001F01DBC00BF0020014000380240B6
:10366000000002401049114BD1F8882042F470024A
:1036700010B4C1F888201A680D4C002042F00102F5
:103680001A6098601A6822F0847222F480321A60FC
:103690005C601A684FF0006422F480221A60D860DF
:1036A0008C605DF8044B704700ED00E0003802408C
:1036B00010300024164A936803F00C03042B24D026
:1036C000082B0AD0134B124A134892681349C2F3CD
:1036D0000312825CD3400B60704750685168526897
:1036E0004302C2F3881201F03F014CBF0C4B094B5F
:1036F000B3FBF1F303FB02F3054A5268C2F3014244
:1037000001325200B3FBF2F3DDE7054BDBE700BF0C
:10371000003802400024F400A45B010814010020DA
:1037200040787D01704700BF704700BF10B5094B5E
:103730004FF0FF3200241A621C625A625C621A6106
:103740001C615A615C619A619C61FFF7EDFF204644
:1037500010BD00BF00380240084B094A1B6810B575
:10376000A2FB03230446980907F036F821460022FD
:103770004FF0FF3006F0CEFF002010BD14010020F6
:10378000D34D621008B50B4B1A6842F400721A60F0
:103790001A6842F480621A601A6842F480721A60F1
:1037A000032006F0A5FF0020FFF7D6FFFDF7C4FABF
:1037B000002008BD003C0240024A13680133136038
:1037C000704700BF784E0020014B1868704700BF5B
:1037D000784E002010B582B00190FFF7F5FF044647
:1037E000FFF7F2FF019B001B9842F9D302B010BD16
:1037F000024A136823F002031360704710E000E0F0
:10380000024A136843F002031360704710E000E0BF
:103810000048704700000501014B1868000C704714
:10382000002004E0024B1868C0F30B00704700BF93
:10383000002004E0024A536843F0010353607047DC
:10384000002004E0024A536823F0010353607047EC
:10385000002004E0024A536843F0020353607047BB
:10386000002004E0024A536823F0020353607047CB
:10387000002004E0024A536843F004035360704799
:10388000002004E0024A536823F0040353607047A9
:10389000002004E0012191FAA1F2034BB2FA82F276
:1038A00013449B001960704700C18910012292FAED
:1038B000A2F2044BB2FA82F213449B0000221A6077
:1038C000704700BF00C18910704700BF002800F09A
:1038D000AA80F8B5036C04463BB1236CDB060CD51B
:1038E0000023012084F83C30F8BD436480F83C306C
:1038F000FFF754FE236CDB06F2D4226C4B4923689D
:103900004B4D22F4885222F0020242F0020222645D
:103910004A6822F440324A604A68606802434A605A
:1039200059682069D4F808E0E768A26A21F4807138
:1039300059605E6846EA00265E605E6826F0407662
:103940005E60586840EA0E005860986820F4006095
:1039500098609968AA4241EA0701996046D099683F
:10396000E06A21F07061996099680A439A609968E9
:1039700021F0405199609A6802439A609968A5695C
:10398000206A21F0020199609A6842EA45029A6031
:103990005A68002833D122F400625A60DA6AE56975
:1039A000276B666922F47002DA62D86A013D40EA48
:1039B0000550D862986820F400709860996841EAD0
:1039C00047219960996821F4806199609A68002084
:1039D00042EA86229A606064236C23F0030343F07A
:1039E00001032364002384F83C30F8BD9A6822F078
:1039F00070629A609A6822F040529A60BEE742F480
:103A000000625A605A6822F460425A604FF4604182
:103A100091FAA1F1626A5868B1FA81F1013A8A40DB
:103A200002435A60BAE70120704700BF00230140FB
:103A30000100000F704700BFD0B1026C38B542F0F2
:103A40000202036802649A6822F001029A609D688B
:103A500015F00105044603D0002084F83C0038BD71
:103A6000FFF7E4FD0020656484F83C00256438BD60
:103A70000120704710B490F83C3083B00022012B35
:103A8000019255D0026893680121DB0780F83C1051
:103A900014D42A4B2A4C1B689168A4FB03439B0C4B
:103AA00003EB430341F0010191600193019B2BB1B2
:103AB000019B013B0193019B002BF9D19368DC072B
:103AC00031D5036C23F4E06323F0010343F48073E6
:103AD00003645368590505D5036C23F4405343F43C
:103AE00080530364036C13F480531CBF436C23F0B6
:103AF0000603436400246FF02201124B80F83C401F
:103B000011605B68DB060BD1906810F040500AD161
:103B1000936843F08043936003B05DF8044B7047B3
:103B2000094B9A42F0D0002003B05DF8044B704777
:103B3000022003B05DF8044B704700BF1401002061
:103B400083DE1B43002301400020014090F83C30FD
:103B5000012B16D003689A68012122F0010280F837
:103B60003C109A609B68DB0706D4036C23F48853EF
:103B700023F001030B430364002380F83C30184614
:103B800070470220704700BF03689A68520502D54B
:103B90009B68DB053ED470B50C460546FFF714FE66
:103BA00006462A6801E0601C25D113689907FAD5FA
:103BB0006FF0120313602B6C43F400732B64936853
:103BC00013F0405F15D1AB699BB9D36A13F4700F42
:103BD0000CD12B6C23F480732B64286C10F4805070
:103BE00007D12B6C43F001032B6470BD93685B0518
:103BF000EFD5002070BD24B1FFF7E6FD801B8442A5
:103C0000CFD22B6C002243F004032B6485F83C20B8
:103C1000032070BD036C002243F02003036480F88E
:103C20003C200120704700BF2DE9F04107460D46BA
:103C30001646FFF7C9FD80463C6801E0731C13D1AE
:103C4000236835EA0303F9D1012D3B6C1DD043F401
:103C500080633B647B6C6FF0200243F002037B6463
:103C600000202260BDE8F0812EB1FFF7ADFDA0EB92
:103C700008008642E0D23B6C002243F004033B6420
:103C800087F83C200320BDE8F0816FF0010243F487
:103C900080333B6400202260BDE8F08110B490F8CE
:103CA0003C3083B00022012B01925BD00268936804
:103CB0000121DB0780F83C1014D42D4B2D4C1B68E0
:103CC0009168A4FB03439B0C03EB430341F0010108
:103CD00091600193019B2BB1019B013B0193019BDF
:103CE000002BF9D19368DC0737D5036C23F4E0632C
:103CF00023F0010343F4807303645368590505D529
:103D0000036C23F4405343F480530364036C13F4B3
:103D100080531CBF436C23F00603436400216FF003
:103D2000220380F83C1013605368134943F080630A
:103D300043F0200353604B68DB060BD1906810F012
:103D400040500AD1936843F08043936003B05DF81C
:103D5000044B7047094B9A42F0D0002003B05DF845
:103D6000044B7047022003B05DF8044B704700BF5E
:103D70001401002083DE1B4300230140002001408A
:103D800090F83C30012B1CD003689A68012122F086
:103D9000010280F83C109A609A68D2070CD45A68E5
:103DA00022F0806222F020025A60036C23F48853D0
:103DB00023F001030B430364002380F83C301846D2
:103DC00070470220704700BFF0B590F83C3083B0D8
:103DD0000024012B019469D00568AB680124DF073A
:103DE00080F83C4014D4374B374E1C68AB68A6FBB8
:103DF0000464A40C43F0010304EB4404AB6001949D
:103E0000019B2BB1019C013C0194019C002CF9D138
:103E1000AB68DE0747D5046C24F4E06424F00104A9
:103E200044F4807404646B685C0505D5036C23F46A
:103E3000405343F480530364036C244C244F13F425
:103E400080531CBF436C23F0060343640646806B1B
:103E500013464FF0000E1F4A86F83CE0C2636FF035
:103E60002202C46407642A606C6844F080646C6059
:103E7000AC6844F480740A46AC6005F14C0101F072
:103E80006FF8154B5B68DB0609D13368986810F052
:103E9000405008D19A6842F080429A6004E032684B
:103EA0000E4B9A4205D0002003B0F0BD022003B0B3
:103EB000F0BD906810F04050F5D1936843F0804316
:103EC0009360F1E71401002083DE1B43F1400008FA
:103ED000B13F00084D3F0008002301400020014091
:103EE00090F83C30012B11D003689A68012122F030
:103EF000010210B580F83C109A609A68D207044617
:103F000006D50023002084F83C3010BD0220704705
:103F10009A68806B22F480729A6001F063F82268DC
:103F2000536823F080635360236C23F4885323F099
:103F3000010343F001032364002384F83C3010BDE7
:103F40000368D86C704700BF704700BF836B1A6C62
:103F500012F0500F22D11A6C196842F4007210B599
:103F60001A648A6812F0405F14D19A6992B9CA6AD9
:103F700012F4700F15D14A6822F020024A601A6CC0
:103F800022F480721A641A6CD20403D41A6C42F0C0
:103F900001021A641846FDF743FC10BD9B6BDB6CF5
:103FA00018478A685005F5D4E5E700BF704700BFA1
:103FB00008B5806BFFF7FAFF08BD00BF704700BF70
:103FC000704700BF38B503681A68596804469007FF
:103FD00001D58A0653D41A685968520701D50D06CF
:103FE0001BD41A685968D00701D54A0606D41A6846
:103FF0005968900601D54A0169D438BD1A68D507B9
:10400000F5D5236C43F4803323642046FFF7D6FFB5
:1040100023686FF001021A60E9E7226CD00603D42E
:10402000226C42F4005222649A6812F4401F1ED19E
:104030009A6B12F4401F02D09A68510517D45A683F
:10404000520514D49A6812F0405F10D1A26972B977
:104050005A6822F080025A60236C23F48053236450
:10406000236CDD0503D4236C43F001032364204655
:1040700000F06EFD23686FF00C021A60B1E7226C4D
:10408000D50603D4226C42F4007222649A6812F0BE
:10409000405F14D1A26992B9DA6A12F4700F23D189
:1040A0005A6822F020025A60236C23F48073236440
:1040B000236CD90403D4236C43F00103236420460A
:1040C000FDF7AEFB23686FF012021A6083E7626CA3
:1040D0006FF0200542F00202626420461D60FFF787
:1040E0006FFF23681D6038BD9A685005E7D4D7E795
:1040F000806B08B540230364436C43F004034364BE
:10410000FFF75EFF08BD00BFF0B590F83C3083B00C
:104110000022012B019257D00D680123092D2E4654
:1041200080F83C3029D804688B68226905EB450E7D
:10413000072707FA0EF722EA07022261226903FA2B
:104140000EF3134323614B68062B2BD803EB830339
:10415000626B053B1F21994022EA01026263626B98
:1041600006FA03F313436363364B9C423ED00023AD
:1041700080F83C30184603B0F0BD04688B68E768EF
:10418000AEB206EB46021E3A4FF0070E0EFA02FEE2
:1041900027EA0E07E760E76893403B43E3604B681C
:1041A000062BD3D90C2B12D803EB8303A3F12301E5
:1041B0001F22236B8A4023EA02032363236B06FA40
:1041C00001F119432163CFE7022003B0F0BD03EBF7
:1041D0008302413AE36A1F21914023EA0103E3622B
:1041E000E36A06FA02F11943E162BDE7122D23D01A
:1041F000A5F11003012BBAD8134A5368102D43F4CC
:1042000000035360B3D1114B02F1467202F52E3216
:104210001B6802F28332A2FB03239B0C03EB830394
:104220005B000193019B002BA1D0019B013B0193FB
:10423000019B002BF9D19AE7034A536843F48003AA
:10424000536094E700200140002301401401002046
:1042500090F83C30012B2AD00B69024601208342A2
:104260001368F0B482F83C0058680CBF40F040007E
:1042700020F04000586058680F688C894E688D683F
:1042800020F4400020F400705860596839435960A8
:104290005E629D62596821F01F01596059680025CE
:1042A00021432846596082F83C50F0BC70470220F8
:1042B000704700BF006C7047406C70472DE9F04FAD
:1042C000D1F800C0DFF8CCE183B000254FF0010841
:1042D00003E00135102D00F0878008FA05F303EAAA
:1042E0000C029342F5D14E6826F0100ABAF1020F83
:1042F0007DD04FEA45090324D0F800B004FA09F450
:10430000E44306F003070BEA040B07FA09F70AF186
:10431000FF3A47EA0B07BAF1010F076040F28E80BF
:10432000C7688B683C4003FA09F32343C360F3007A
:10433000CFD500230193524B514C5B6C43F4804327
:104340006364636C25F0030707F1804703F480433F
:1043500007F59C37019305F00303019CD7F80890FB
:104360009B000F249C4029EA040A464CA04278D0C6
:1043700004F58064A04276D0434CA04276D0434CF2
:10438000A04278D0424CA0420CBF4FF004094FF03D
:10439000050909FA03F343EA0A03BB60DEF80030BB
:1043A000D443F70354BF23401343CEF80030DEF864
:1043B0000430B70354BF23401343CEF80430DEF873
:1043C0000830F70254BF23401343CEF80830DEF81C
:1043D0000C30B60205F1010554BF23401343102DE4
:1043E000CEF80C307FF479AF03B0BDE8F08F4FEA20
:1043F000D50900EB890905F00704D9F82070A4005D
:104400004FF00F0B0BFA04FB27EA0B0A0F6907FAB0
:1044100004F444EA0A04C9F820404FEA4509032499
:10442000D0F800A004FA09F4E44306F003070AEA0E
:10443000040A07FA09F747EA0A070760876807EAE4
:10444000040ACF6807FA09F747EA0A078760D0F835
:1044500004A0C6F300172AEA0303AF401F434760D6
:104460005EE7002397E708FA03F394E74FF00209A9
:1044700009FA03F38FE74FF0030909FA03F38AE718
:10448000003802400000024000080240000C0240D8
:1044900000100240003C01402DE9F04F002383B0A2
:1044A000DFF80C91DFF80C814FF0010E4FF0030B99
:1044B0004FF00F0A02E00133102B61D00EFA03F225
:1044C00032EA0104F7D15C0005680BFA04F4E44316
:1044D000DE08254000EB8606056003F00705376A15
:1044E000AD000AFA05F527EA05053562856825401D
:1044F00085604568D24315404560C66823F00305D2
:1045000005F18045344005F59C35C46003F0030493
:10451000AE68A4000AFA04F73E404845019632D03E
:104520001F4EB04231D01F4EB04231D01E4EB0426D
:1045300033D01E4EB0420CBF4FF0040C4FF0050CB0
:104540000CFA04F4019EA642B5D1AC6824EA070730
:10455000AF60D8F800401440C8F80040D8F80440D4
:104560001440C8F80440D8F808401440C8F808407F
:10457000D8F80C4001332240102BC8F80C209DD1F4
:1045800003B0BDE8F08F0024DCE70EFA04F4D9E7AD
:104590004FF0020C0CFA04F4D4E70BFA04F4D1E760
:1045A0000004024000080240000C024000100240DB
:1045B00000000240003C01400369194214BF012081
:1045C0000020704702B9090481617047436959406E
:1045D0004161704782B04FF480330193019B0B43DC
:1045E0000193019BC361C161019BC361C3690193D5
:1045F000C06980F48030C0F3004002B0704700BF53
:10460000704700BF044A5169014200D1704708B5A4
:104610005061FFF7F5FF08BD003C0140806B40236F
:104620000364436C43F004034364FFF7C9BC00BF59
:10463000806BFFF7BBBC00BF836B1A6C12F0500F8E
:1046400020D11A6C196842F400721A648A6812F058
:10465000405F14D19A6992B9CA6A12F4700F14D1EA
:104660004A6822F020024A601A6C22F480721A64AE
:104670001A6CD20403D41A6C42F001021A64184670
:10468000FDF7CEB89B6BDB6C18478A685005F6D4F3
:10469000E6E700BF10B490F83C3083B00022012B55
:1046A00001924CD0026893680121DC0780F83C102D
:1046B00014D4294B294C1B689168A4FB03439B0C21
:1046C00003EB430341F0010191600193019B2BB186
:1046D000019B013B0193019B002BF9D19368D90702
:1046E00028D5036C23F4405323F0010343F4805393
:1046F0000364036C13F4807308BF436400246FF0F9
:104700000401174B80F83C4011605B68DB060CD15C
:104710009368506813F4401F0CD110F4806009D1E5
:10472000936843F48003936005E00E4990685368F2
:104730008A4209D0002003B05DF8044B7047022084
:1047400003B05DF8044B704710F4401FF2D113F42E
:104750008060E5D0EEE700BF1401002083DE1B433C
:10476000002301400020014010B490F83C3083B099
:104770000022012B019250D0026893680121DC07CE
:1047800080F83C1014D42B4B2B4C1B689168A4FB75
:1047900003439B0C03EB430341F001019160019340
:1047A000019B2BB1019B013B0193019B002BF9D194
:1047B0009368D9072CD5036C23F4405323F00103ED
:1047C00043F480530364036C13F4807308BF4364A1
:1047D00000216FF0040380F83C1013605368174900
:1047E00043F0800353604B68DB060CD1936850683C
:1047F00013F4401F0CD110F4806009D1936843F486
:104800008003936005E00E49906853688A4209D09E
:10481000002003B05DF8044B7047022003B05DF840
:10482000044B704710F4401FF2D113F48060E5D0C0
:10483000EEE700BF1401002083DE1B43002301408C
:104840000020014090F83C20012A034625D0026C4C
:104850000121D20580F83C1008D51A6C42F02002E4
:104860001A640120002283F83C20704702685068D7
:1048700010F48060F1D1916821F00101916092689B
:1048800012F00102EED1196C21F4885121F00101DE
:1048900041F0010110461964E4E70220704700BFAF
:1048A00070B505460C46FEF78FFF06462A6801E004
:1048B000631C27D113685807FAD56FF00C031360F7
:1048C0002B6C43F400532B64936813F4401F29D1DD
:1048D000936B13F4401F22D153685B0522D4936875
:1048E00013F0405F1ED1AB69E3B92B6C23F4805306
:1048F0002B64286C10F4807014D12B6C43F00103EE
:104900002B6470BD24B1FEF75FFF801B8442CDD2C3
:10491000042200232A6485F83C30032070BD93688C
:104920005905D9D5002070BD90F83C20012A0346D6
:1049300029D0026C0121D20580F83C1008D51A6CF0
:1049400042F020021A640120002283F83C207047C4
:104950000268506810F48060F1D1916821F0010183
:104960009160916811F00101EED1506820F0800053
:1049700050601A6C22F4885222F0010242F00102C7
:1049800008461A64E0E70220704700BF036882B05F
:1049900000206FF00402013901901A60032905D844
:1049A000DFE801F0110C02075B6C0193019802B083
:1049B00070479B6C0193019802B070471B6C019388
:1049C000019802B07047DB6B0193019802B0704709
:1049D000F0B590F83C3083B00024012B019465D0F1
:1049E0000568AB680124DE0780F83C4014D4344BE2
:1049F000344E1C68AB68A6FB0464A40C43F00103AE
:104A000004EB4404AB600194019B2BB1019C013C7D
:104A10000194019C002CF9D1AB68DC0743D5046CF0
:104A200024F4E06424F0010444F4807404646B68AA
:104A30005B0505D5036C23F4405343F480530364B2
:104A4000036C866B204C214F13F480531CBF436CC6
:104A500023F0060343644FF0000E1D4B80F83CE04A
:104A6000F3636FF00203F46437642B606B68046BCC
:104A700043F080636B60E4B9164C636823F4005321
:104A800063600446134630460A46134900F068FA4C
:104A90002368986810F0405005D19A6842F080422F
:104AA0009A6003B0F0BD002003B0F0BD022003B057
:104AB000F0BD084C636843F400536360E1E700BF56
:104AC0001401002083DE1B431D4600083146000808
:104AD00039460008002301400823014090F83C308B
:104AE000012B11D003689A68012122F0010210B550
:104AF00080F83C109A609B68DB07044606D50023CB
:104B0000002084F83C3010BD022070470C4A806BB6
:104B1000536823F40053536000F064FA226853682A
:104B200023F080635360236C23F4885323F0010344
:104B300043F001032364002384F83C3010BD00BF20
:104B400000230140014B9868704700BF00230140DB
:104B5000704700BF90F83C30012B00F08880F0B522
:104B60000D680123092D2C4680F83C306CD8036871
:104B70008A681E6905EB450E072707FA0EF726EA35
:104B800007061E611E6902FA0EF232431A619F6B1C
:104B9000D1F810E04E6827F440179F639F6B0EF129
:104BA000FF3247EA0257F21CA2EB0E029F63D2B219
:104BB0009F6B02EB82024FF01F0E0EFA02FE27EAF5
:104BC0000E079F63D3F838E0CF6904FA02F24C4C29
:104BD00042EA0E02A7429A636CD09C68D1F820E0AA
:104BE00024F470249C609A6817439F609C6824F4A6
:104BF00040149C609A6842EA0E029A608A69002A10
:104C000048D05A6842F480625A604A69002A30D01B
:104C10005A68022E42F480525A6030D0032E52D08D
:104C2000012E3CD01A6AC96822F47F6222F00F027A
:104C30001A621A6A0A431A62324A93424ED0002319
:104C400080F83C301846F0BD03688A68DF68ACB273
:104C500004EB44061E3E4FF0070E0EFA06FE27EA4E
:104C60000E07DF60DF68B2403A43DA608FE7022068
:104C700070475A68022E22F480525A60CED19A6947
:104C8000C96822F47F6222F00F029A619A690A438E
:104C90009A61D1E75A6822F480625A60B5E75A698E
:104CA000C96822F47F6222F00F025A615A690A43EE
:104CB0005A61C1E79A6822F470229A609A6822F4D5
:104CC00040129A609AE7DA69C96822F47F6222F09A
:104CD0000F02DA61DA690A43DA61ADE7122D08D012
:104CE000103D012DABD8084A536843F400035360CC
:104CF000A5E7D2F8043343F48003C2F804339EE7F7
:104D000001000F00002001400023014090F83C30DA
:104D1000012B21D0114B0246586820F01F0010B41F
:104D2000586058680C6820435860586820F4404028
:104D3000586058684C6820435860586820F4706088
:104D4000586088685968002401435960204682F8F9
:104D50003C405DF8044B704702207047002301403F
:104D6000F8B50446FEF730FD002C6FD00222236810
:104D700084F835201A68002122F0010284F83410EA
:104D800005461A6005E0FEF71FFD401B05283BD8CD
:104D900023681A68D107F6D4A7686268E6682569AF
:104DA0006169A0693A4332432A430A43E169256AAB
:104DB0001F68344E02430A43616A2A433E40042975
:104DC00042EA060227D01A605A6922F0070211430C
:104DD000DAB22D4D5961103AA5FB021212092B4887
:104DE00023F47F73815CE16523F00303032A88BF0A
:104DF00004333F228A4001250021A36508469A60BA
:104E0000616584F83550F8BD032320226265184699
:104E100084F83530F8BDE66A216BA56A31430A4350
:104E20001A605A6945F0040122F00702114378B96B
:104E3000012D23D001D3022DCAD1F201C8D50123FF
:104E400040226265184684F83530F8BD0120F8BD6F
:104E5000B0F5005F04D0022DF1D9032DB8D1ECE7F5
:104E6000032DB5D801A252F825F000BF3F4E00082F
:104E70003B4E00083F4E00087D4E0008B6F1C07F53
:104E8000A6D1DCE73F8010F0ABAAAAAAB45B010868
:104E900000282FD090F83530DBB2022B2BD00368DE
:104EA0001649DAB270B4103A1C68154DA1FB021213
:104EB0001209002124F0010421261C6019605960A8
:104EC0009960D96019615E6123F47F73AD5CC5653B
:104ED00023F00303032A88BF04333F210022A940A3
:104EE000836570BC9960426580F8342080F8352075
:104EF0001046704701231846704700BFABAAAAAA04
:104F0000B45B010870B490F83440012C0CD090F8D8
:104F100035400125AC4280F8345008D0002380F899
:104F20003430022070BC7047022070BC70470468A7
:104F30000226002580F8356045652568866825F4D9
:104F40008025402E256063600BBFA260A160E160F8
:104F5000E260236843F0010323600020E2E700BF22
:104F6000F0B490F83440012C0DD090F83540866DA7
:104F70000125AC4280F8345008D0002380F834304A
:104F80000220F0BC70470220F0BC70470468022782
:104F9000002580F8357045652568876825F48025EB
:104FA000402F256063600ABFA260A160E160C16D0F
:104FB00018BFE2603F238B40026CB360236843F06C
:104FC00016032360636943F0800363611AB12368A9
:104FD00043F008032360236843F0010323600020AB
:104FE000CFE700BF70B50446866DFEF7EDFB94F881
:104FF0003530022B06D080220023626584F83430DD
:10500000012070BD2368216C1A6822F016021A6014
:105010005A6922F0800205465A6131B31A6822F0BB
:1050200008021A601A6822F001021A6005E0FEF711
:10503000CBFB401B05280FD823681B6813F0010326
:10504000F5D1E16D3F228A400121B260184684F813
:10505000343084F8351070BD2022002303206265AF
:1050600084F8343084F8350070BDA26C002AD5D1A4
:10507000D8E700BF90F83530022B03D0802343657A
:10508000012070470268052380F83530136823F04B
:1050900001031360002070472DE9F04F044683B0F0
:1050A00092460091FEF790FB23681B68DD054AD409
:1050B000009B8146002B42D0E36D10219940A56DE5
:1050C000DFF80C81D5F800B0404F01EA0B020192E5
:1050D0005246A2461446019A0826002A47D1611C6E
:1050E00008D0BCB3FEF770FBA0EB0900844231D3BB
:1050F000DAF85C3006FA03F01BEA000F08FA03F155
:1051000007FA03F206D0DAF854E04EF0010ECAF8BE
:1051100054E0A8601BEA010F06D0DAF8540040F012
:105120000200CAF85400A9601BEA020FD7D0DAF8CF
:10513000541041F00401CAF85410AA60CBE7E36DA3
:1051400020219940BBE74FF480736365012003B0D1
:10515000BDE8F08F2021002201230320CAF854105B
:105160008AF834208AF8353003B0BDE8F08FDAF8D9
:105170005400544620B1DAF85420D20715D4012047
:10518000009A32B1102202FA03F3AB6003B0BDE81B
:10519000F08F302202FA03F3AB6001229DF8003059
:1051A00084F8343084F83520D1E75046FFF71AFFF1
:1051B000DAF85C203023934000210122AB601046D6
:1051C0008AF834108AF83520C1E700BF0400800057
:1051D00001008000F0B583B00023876D0193C36D9B
:1051E0003D68624908229A40154204460E6803D081
:1051F00001680868400776D45D4A9A40154203D09A
:1052000021684969080668D45A4A9A40154203D071
:105210002168096889075AD410229A40154203D0A0
:105220002168086800073FD420229A40154203D025
:1052300021680868C00625D4636D0BB3636DDA0777
:105240001AD50523216884F835300B684A4A23F0C3
:105250000103A2FB06020B60920A02E00B68DB0767
:1052600004D5019B01339A420193F7D20022012316
:1052700084F8342084F83530E36C0BB1204698472D
:1052800003B0F0BDBA6094F83520052A3BD00B6816
:1052900013F4802F0B6854D019035FD5E36B002BF8
:1052A000CAD020469847C7E7BA600A6812F4802F30
:1052B0000A6822D1D20503D40A6822F008020A60E3
:1052C000226C002AB0D020469047E36DACE7BA606C
:1052D000626D42F0040262659EE7BA60626D42F060
:1052E0000202626590E7086820F004000860BA6076
:1052F000626D42F0010262657EE71103E0D5A26CA7
:10530000002AE0D190E70A68206C22F016020A60B9
:105310004A6922F080024A6120B30A6822F008023A
:105320000A603F22216D02FA03F300200122BB60D4
:1053300084F8340084F835200029A1D0204688471D
:105340009EE713F48073A9D10A68012022F01002AD
:105350000A6084F8343084F835009FE7636C002BD2
:105360009FD169E7A26C002AD7D1DAE714010020A7
:105370000100800004008000B5814E1B034690F8B8
:10538000340001280DD010B493F835400120844238
:1053900083F8340007D0002283F834205DF8044BF2
:1053A000704702207047052916D8DFE801F0120F78
:1053B0000C0906031A650020EDE7DA640020EAE72D
:1053C0009A640020E7E75A640020E4E71A640020AA
:1053D000E1E7DA630020DEE70020DCE790F8343014
:1053E000012B02460BD090F835000123984282F839
:1053F000343006D00120002382F834307047022078
:1054000070470629F6D8DFE801F01B1815120F0CBB
:1054100004000020D063106450649064D064106570
:10542000E9E700201065E6E70020D064E3E700200C
:105430009064E0E700205064DDE700201064DAE7C4
:105440000020D063D7E700BF90F83500704700BF59
:10545000406D7047F0B5046AD1F808E00E68124D4F
:1054600024F001040462036A4768826923F002039E
:1054700022F07302A84243EA0E0342EA060205D074
:1054800049684760826141630362F0BDCE684C6940
:105490008D6923F0080327F4407733432C4323F02E
:1054A00004032743ECE700BF00000140F0B5046AA5
:1054B000D1F808E00E68134D24F480740462036A86
:1054C0004768C26923F4007322F07302A84243EADA
:1054D0000E2342EA060205D049684760C261C163F3
:1054E0000362F0BDCE684C698D6923F4006327F434
:1054F000405743EA06232C4323F4806347EA04170A
:10550000EAE700BF00000140F0B4046A8F680E684B
:105510000E4D24F480540462036A4468C26923F483
:10552000005322F4E642A84243EA073342EA062245
:1055300006D049684460C261F0BC016403627047F0
:105540004D6924F4804444EA8514F2E700000140E8
:1055500002684868936823F0700370B403430C68D2
:1055600023F0070323435028936036D024D96028C2
:105570000ED070280AD1CB688C68086991682343E3
:1055800043EA002321F47F410B43936070BC7047D2
:10559000106A8C680D6920F0100010629169136A1E
:1055A00021F4704123F0A00341EA053143EA0413DA
:1055B000916170BC136270474028E7D1146A106A89
:1055C0000D6920F001001062936923F0F00343EAB3
:1055D00005139361146270BC7047146A156A0E69F2
:1055E000886825F001051562936924F00A0123F00B
:1055F000F00343EA06130143936170BC11627047E4
:10560000704700BF704700BF0222036810B580F8E2
:105610003920196A41F211121142044608D1196A5F
:1056200040F24442114203D11A6822F001021A608A
:105630002046FBF713FA002084F8390084F838007C
:1056400010BD00BF0168022210B480F839200A683A
:105650000124034622430A60002083F839405DF8A4
:10566000044B70470222036880F83920196A41F21E
:105670001112114208D1196A40F24442114203D179
:105680001A6822F001021A60012380F839300020E4
:10569000704700BF0368DA6842F00102DA601A68F6
:1056A00042F001021A600020704700BF0368DA6808
:1056B00022F00102DA60196A41F21112114208D196
:1056C000196A40F24442114203D11A6822F00102E1
:1056D0001A600020704700BF70B590F83940E4B2FE
:1056E000022C21D090F83940E4B2012C15D00446A8
:1056F0001346C06922680D4E0D4DC663C5642C3239
:10570000FFF72EFC2368DA6842F48072DA601A68C8
:1057100042F001021A60002070BD19B1022380F826
:105720003930E4E7002AF9D0204670BDD16900087D
:10573000F16B00080368DA6822F48072DA601A6A92
:1057400041F211110A4208D1196A40F24442114251
:1057500003D11A6822F001021A60012380F839305F
:1057600000207047704700BF704700BF02220368E7
:1057700010B580F83920196A41F21112114204461D
:1057800008D1196A40F24442114203D11A6822F04A
:1057900001021A602046FFF7E7FF002084F8390075
:1057A00084F8380010BD00BF036801201A6A00FAAF
:1057B00001F110B422EA0102134C1A621A6A1A6249
:1057C000A34211D0196A41F21112114208D1196A8B
:1057D00040F24442114203D11A6822F001021A60D9
:1057E00000205DF8044B7047196A41F21112114212
:1057F000E8D1196A40F244421142E3D15A6C22F4D2
:1058000000425A64DEE700BF00000140704700BF5D
:10581000704700BF0222036810B580F83920196A6A
:1058200041F211121142044608D1196A40F2444271
:10583000114203D11A6822F001021A602046FFF7D4
:10584000E7FF002084F8390084F8380010BD00BF5D
:1058500003680122186A02FA01F120EA010010B47B
:1058600018621A6A084C1143A342196207D01A68D9
:105870005DF8044B42F0010200201A6070475A6C38
:1058800042F400425A64F2E700000140FFF7E0BF33
:10589000036830B41A6A174D012404FA01F122EAB0
:1058A00001021A621A6A1A62AB4213D0196A41F2F3
:1058B0001112114208D1196A40F24442114203D137
:1058C0001A6822F001021A60012380F8393030BCD6
:1058D00000207047196A41F211121142E6D1196A8B
:1058E00040F244421142E1D15A6C22F400425A641F
:1058F000DCE700BF0000014010B40C2935D8DFE818
:1059000001F0283434342E34343422343434070053
:105910000368DA6842F01002DA60186A164C012255
:1059200002FA01F120EA010018621A6AA34241EA70
:10593000020119621BD01A685DF8044B42F00102A3
:1059400000201A6070470368DA6842F00802DA60E3
:10595000E3E70368DA6842F00202DA60DDE7036831
:10596000DA6842F00402DA60D7E70368D5E75A6CD8
:1059700042F400425A64DEE700000140FFF7BCBF7A
:1059800010B40C293DD8DFE801F0363C3C3C303CFB
:105990003C3C2A3C3C3C07000368DA6822F01002D9
:1059A000DA601A6A1F4C012000FA01F122EA0101B3
:1059B00019621A6A1A62A34225D0196A41F21112B9
:1059C000114208D1196A40F24442114203D11A68C7
:1059D00022F001021A6000205DF8044B7047036852
:1059E000DA6822F00802DA60DBE70368DA6822F09E
:1059F0000402DA60D5E70368DA6822F00202DA60AE
:105A0000CFE70368CDE7196A41F211121142D4D1F0
:105A1000196A40F244421142CFD15A6C22F400423A
:105A20005A64CAE700000140FFF7AABFF8B590F832
:105A30003940E4B2022C15D090F83940E4B2012C80
:105A40000CD00D4604460C2D65D8DFE805F00D643A
:105A5000646442646464316464645300002A5CD109
:105A6000002B5AD02046F8BD2668006A2F49304FD7
:105A7000C163C764114606F13402FFF771FA236867
:105A8000DA6842F40072DA60186A2A4C012202FADB
:105A900005F120EA010018621A6AA34241EA0201F4
:105AA00019623ED01A6842F001021A600020F8BD67
:105AB0002668806A1D491E4FC163C764114606F1FE
:105AC0003C02FFF74DFA2368DA6842F40062DA60BC
:105AD000DAE72668406A1549154FC163C764114665
:105AE00006F13802FFF73CFA2368DA6842F4806274
:105AF000DA60C9E72668C06A0C490D4FC163C76404
