:020000040800F2
:100000000080012025C6000875C6000875C60008D6
:1000100075C6000875C6000875C600080000000017
:1000200000000000000000000000000075C600088D
:1000300075C600080000000075C6000811260008FB
:1000400075C6000875C6000875C6000875C60008A4
:1000500075C6000875C6000875C6000875C6000894
:1000600075C6000875C6000875C6000875C6000884
:1000700075C6000875C600087526000881260008A8
:1000800075C6000875C60008A52600080000000017
:1000900000000000000000000000000075C600081D
:1000A00075C6000875C6000875C6000875C6000844
:1000B0006926000875C6000875C6000875C60008E0
:1000C00075C6000875C6000875C6000875C6000824
:1000D0008D26000875C600085126000800000000A3
:1000E00075C6000875C6000875C600080000000047
:1000F00000000000000000000000000075C60008BD
:100100000000000075C600084526000875C60008F6
:1001100000000000000000000000000000000000DF
:1001200099260008212600082D26000875C600081B
:1001300075C600080000000000000000000000007C
:1001400000000000000000000000000075C600086C
:100150003926000875C6000875C600085D26000827
:1001600075C6000875C60008000000000000000009
:10017000000000000000000000000000000000007F
:100180000000000075C6000800000000000000002C
:0401900075C6000828
:1001C000134B002B08BF114B9D46A3F5803A00212D
:1001D0008B460F461148124A121A0CF09DF80D4B2F
:1001E000002B00D098470C4B002B00D098470020E4
:1001F000002104000D000B480CF03CF80CF064F8F2
:10020000200029000CF09EF90CF03AF800000800DC
:10021000000000000000000000000000480900206D
:10022000D04D0020A1C200080A4A08B5136873B176
:1002300018446946884202D81060184608BD0DF07F
:10024000CBFB0C2303604FF0FF33184608BD024B75
:100250001360EDE748090020D04D002011B10023C4
:100260000B604B6000207047704700BF0120704753
:1002700008B50DF0B1FB162303604FF0FF3008BD49
:1002800008B50DF0A9FB16230360FEE770B5161E36
:1002900007DD0C468D1914F8010BAFF30080A54261
:1002A000F9D1304670BD00BF4FF0FF30704700BF3E
:1002B0004FF400534B600020704700BF012070478F
:1002C0000020704770B5161E07DD0C468D19AFF380
:1002D000008004F8010BA542F9D1304670BD00BF83
:1002E0000EB44FF0FF3003B0704700BF08B50DF0FB
:1002F00073FB0A2303604FF0FF3008BD08B50DF013
:100300006BFB022303604FF0FF3008BD4FF0FF305E
:10031000704700BF4FF400534B600020704700BF90
:1003200008B50DF059FB1F2303604FF0FF3008BDE7
:1003300008B50DF051FB0B2303604FF0FF3008BDF3
:1003400008B50DF049FB0C2303604FF0FF3008BDEA
:10035000C3B207EE103AB8EEC77ADFED306A27EE87
:10036000006AC0F30723B4EEE66AF1EE10FA84B037
:1003700007EE903AC0F307404ADC9FED296A60EE31
:10038000066A26EE877AC7EE066ABCEEE67A8DED3F
:10039000007A9DF800109FED217AF8EEE77A60EE82
:1003A000276AF4EEC76AF1EE10FA33DCDFED1C6A5F
:1003B00020EE267A67EE277A87EEA67AFCEEC77AD9
:1003C000CDED007A9DF800209FED147A07EE900A9B
:1003D000F8EEE77A60EE276AF4EEC76AF1EE10FAFB
:1003E0001ADC9FED0F7A20EE070A20EE270AC0EEF6
:1003F000077AFCEEE77ACDED007A9DF80030002018
:1004000061F3070062F30F2063F3174004B07047F5
:10041000FF21C0E7FF22D7E7FF23F0E700007F437B
:100420000000C842C2B2C0F3072302EB820202EB13
:10043000820203EB8303C0F3074030B59200124CF5
:1004400003EB830300EB800001FB02F200EB800072
:100450009B00A4FB025201FB03F38500C2F3473269
:10046000A4FB03E301FB05F1002062F30700C3F3E3
:100470004733A4FB012163F30F20C1F3473161F33C
:10048000174085B005B030BD5917B7D110B4C0F3CF
:10049000072251FA80F40A44FF2CC0F307431944A1
:1004A00028BFFF24FF2AE4B228BFFF220020FF2933
:1004B00064F30700D2B228BFFF2162F30F20C9B254
:1004C00061F3174085B005B05DF8044B704700BF7D
:1004D0002DE9F04101268E4082B002EB4202F64344
:1004E0000193C3F3072EDFB200EBC20076B2C1F175
:1004F0000701C3F3074300250EFA05F4027890F8CC
:10050000088090F810C004F080040C41324022436F
:1005100006EA080806EA0C0C80F8088080F810C08B
:1005200000F8012B07FA05F403FA05F290F80780AA
:1005300090F80FC004F0800402F080020C410A41E0
:10054000013544EA080442EA0C02082DC471C27362
:10055000D2D102B0BDE8F081F0B502EB4202002535
:1005600000EBC20083B02A462E462F4610F801EB5E
:10057000C479C37B4EFA01FE0C410B410EF0010E13
:1005800004F0010403F001030EFA05FEAC40AB4099
:1005900001354EEA06063C431343082DF6B2E7B296
:1005A000DAB2E3D1002067F3070066F30F2062F3AD
:1005B000174003B0F0BD00BFF0B502EB420287B0B8
:1005C00000EBC202013A0DF1FF330DF1170412F8EE
:1005D000010F03F8010F9C42F9D100250026B64611
:1005E00037460DF1FF34072014F801CF237C227A1F
:1005F0002B414CFA05FC2A4103F0010383400CF027
:10060000010C02F001020CFA00FC82403343013875
:100610004CEA070742EA0E02DEB2431CFFB25FFA61
:1006200082FEE1D10135082D4F7081F800E08E7017
:1006300001F10301D2D107B0F0BD00BF2DE9F047B1
:1006400086B000231F4600931E4601930293039336
:100650000493059391F8018091F800C091F802E0AD
:100660006C46072501E02778013D48FA05F303F0C1
:100670000103B3403B4304F8013B4CFA05FA4EFA40
:1006800005F394F80790E77B0AF0010A03F00103F1
:100690000AFA06FAB3404AEA09093B4384F807908C
:1006A000E373002DDFD10136082E01F1030102D0E2
:1006B0009DF80070CEE702EB420200EBC202013A65
:1006C0000DF1FF330DF1170013F8011F02F8011FA0
:1006D0009842F9D106B0BDE8F08700BF70B586B08A
:1006E0000C46054669461646FFF766FF3246214628
:1006F0002846FFF7A3FF00230DEB0302E118108843
:10070000E052033392788A70182BF5D106B070BD91
:1007100001F04CBC70B5354C354B236092B00023D2
:10072000C7222046E2606360A360236106F004F9FB
:1007300000284CD112A94FF4805341F8403D2B487A
:1007400005F044FE00283FD1284806F02DF9002886
:1007500037D1002306A925480693079305F0FEFE2E
:1007600060BB0023694621480093019309F088FD8E
:1007700008BB002360261E251A460BA91B480D93B3
:100780000F93109311930B960C9506F0E3FA78B93A
:10079000A0230BA9042215480C9306F0DBFA08B13C
:1007A00001F004FC124B2068984213D012B070BDC7
:1007B00001F0FCFBECE701F0F9FBDAE701F0F6FBF6
:1007C000CFE701F0F3FBC4E701F0F0FBBCE701F079
:1007D000EDFBAFE70122002106F0A4FB2068012217
:1007E000042106F09FFB12B070BD00BF200B00205B
:1007F0000000014010B5174C002384B04FF0804139
:100800004FF4C87220462160E2606360A3602361F8
:1008100006F092F880B904A94FF4805341F8103DD6
:100820000C4805F0D3FD08B101F0C0FB0A4B20686D
:10083000984204D004B010BD01F0B8FBEBE70122F0
:10084000002106F06FFB20680122042106F06AFBFC
:1008500004B010BD980B0020000001400368B3F104
:10086000804F00D070470A4B1B68196A41F2111281
:10087000114208D1196A40F24442114203D11A6868
:1008800022F001021A60034B01221A70704700BF68
:10089000980B002040000020F0B55C4A03689342AA
:1008A00083B01AD0B3F1804F01D003B0F0BD03F58F
:1008B0000E33002201921A6C42F001021A641B6C82
:1008C00003F001030193022203211C20019B09F084
:1008D00055FD1C2009F088FDE7E7002302F59C3256
:1008E0000093516C4A4DDFF840C1EB6041F00101CB
:1008F0005164526C2B6102F00102044600924020C8
:100900004FF0406E4FF480474FF44036009A6B61D1
:10091000EB612B63042103224FF40003A8602846F7
:10092000C5F800C0C5F804E0AF612E626962AA6232
:10093000EB6204F049F8002865D1364EE5614FF0CE
:10094000406140224FF480604FF48043DFF8DCE0E8
:10095000AC634FF4403704257160B26003214FF45B
:1009600000023061B36130460023C6F800E0376210
:100970007562B162F262F3607361F361336304F034
:1009800023F800283CD1244D244A26624FF04060D1
:100990004023B4634FF48037042603212A60686043
:1009A0004FF40002AB60284600232F626E62A962FA
:1009B000EA62EB602B616B61AB61EB612B6304F06E
:1009C00003F8D0B92A68656213681248AC6343F033
:1009D000100313600021124A04F004FB50B9114ABD
:1009E0000C48042104F0FEFA00283FF45EAF01F049
:1009F000DDFA5AE701F0DAFAF1E701F0D7FAE1E7B8
:100A000001F0D4FABFE701F0D1FA96E70000014007
:100A1000600A0020D40B0020C00A0020406402407D
:100A20008D240008110700088864024028640240F1
:100A3000094A0368934200D0704710B5044601226A
:100A40001846002106F06EFA206801220421BDE854
:100A5000104006F067BA00BF00000140114A036869
:100A600093420BD0B3F1804F00D070470E4A136C05
:100A700023F0010313641C2009F0C2BC02F50B3201
:100A800010B5136C044623F00803006A136404F0E5
:100A900033F8E06904F030F8606ABDE8104004F013
:100AA0002BB800BF000C0040003802403D4B0268EC
:100AB0009A4200D070472DE9F047054682B03A4887
:100AC0003A4EDFF80081DFF800A10CF09BFF06F141
:100AD000080934464746617850460CF093FF14F8F5
:100AE000013F07F8013FA145F5D131480CF0DEFF89
:100AF00016F8013F7BB9A642FAD12E4A08F8013F09
:100B00004245FBD1284608232B4A2C4908F012FD08
:100B100002B0BDE8F087284B1A78C2B99978D87826
:100B20005A7840EA0120B2B1012A10D15A791E79CF
:100B3000DC799979130443EA0663234343EA0121EC
:100B400002F05CF888B91D4B08225A70DAE71B4B9B
:100B500081225A70D6E7694602F012F89DF80430F7
:100B60005BB1164B84225A70CCE7012815D00328BC
:100B70000FD1124B8C225A70C4E7009A0F4B160EFD
:100B80000424100C110A1E71DA715C70587199718D
:100B9000B8E70B480CF08AFFB4E7084B88225A707C
:100BA000B0E700BF00380040545801085B0D00203A
:100BB00078580108FB0C00205C0D0020F40C00208C
:100BC00068580108F30C0020605801080D4B0E4ACC
:100BD00010B50A211A604FF40074002218469C6177
:100BE000D9625A609A60DA601A615A611A625A626E
:100BF0009A6208F051F900B910BDBDE8104001F04B
:100C0000D5B900BF340C002000380040344B0268D6
:100C10009A4200D07047F0B587B0002503F5003345
:100C200000951A6C2F4E42F480421A641B6C039597
:100C300003F480434FF444410093032205230191C0
:100C4000044602272848049201A90593DDF800E034
:100C5000029703F067F9254A75604FF480633046C8
:100C6000B560F5607561B561F561356275623260D8
:100C7000336103F0A9FE00282BD132681C4D1368A4
:100C8000E66443F01003B46340211360194E2E60F4
:100C900000234FF480622846A9602A616B60EB60F4
:100CA0006B61AB61EB612B626B6203F08DFE98B9F7
:100CB0002A68A5641368AC6343F010031360052130
:100CC0000222242009F05AFB242009F08DFB07B0F2
:100CD000F0BD01F06BF9D0E701F068F9E8E700BF7B
:100CE000003800408C0C0020000402405860024094
:100CF000FC0C0020706002400C4B02689A4200D04D
:100D000070470B4A10B5136C044623F4804309481E
:100D100013644FF4444103F0F3F9E06C03F0ECFE8C
:100D2000A06CBDE8104003F0E7BE00BF00380040F3
:100D3000003802400004024008B5072009F00CFB0F
:100D4000002211466FF00B0009F018FB002211463B
:100D50006FF00A0009F012FB002211466FF0090043
:100D600009F00CFB002211466FF0040009F006FBAD
:100D7000002211466FF0030009F000FB002211462B
:100D80006FF0010009F0FAFA002211464FF0FF302F
:100D9000BDE8084009F0F2BA2DE9F0478AB0394BB6
:100DA000394F3A4D3A4E002401941A6B42F0040236
:100DB0001A631A6B02F004020192019A02941A6BF0
:100DC00042F080021A631A6B02F080020292029AC9
:100DD00003941A6B42F001021A631A6B02F00102CB
:100DE0000392039A04941A6B42F002021A631B6B7B
:100DF000069603F00203049338464FF4005305A906
:100E00000126049A05934FF002094FF0FF0A079458
:100E100003F088F805A938460794CDF814A0069683
:100E2000CDF8209003F07EF807230C2205A9284670
:100E3000099305924FF02008CDF818900794089474
:100E400003F070F805A92846CDF82090069607967D
:100E5000CDF8148003F066F832464146284603F088
:100E6000E5F9642002F0EAFA22464146284603F0FA
:100E7000DDF922465146384603F0D8F90AB0BDE8FC
:100E8000F08700BF00380240000802400000024026
:100E90000000121000000000024B1B6880B2188096
:100EA000704700BF00000020024B1B68188880B20A
:100EB00002F0C4BA00000020F8B52DED028BDFED82
:100EC000448A70EE287AB0EE408A17EE900A0AF053
:100ED0000BFB3BA3D3E900230AF0A6F93AA3D3E91D
:100EE00000230AF07FFC0AF085FD07EE900A67EE0A
:100EF000E77A17EE900A0AF0F7FA41EC100B14F0BB
:100F000047FA78EE687A55EC104B17EE900A0AF023
:100F1000EBFA2BA3D3E900230AF086F92AA3D3E93D
:100F200000230AF05FFC0AF065FD07EE900A67EE09
:100F3000E77A17EE900A0AF0D7FA41EC100B14F09A
:100F400027FA18EE100A57EC106B0AF0CDFA1CA322
:100F5000D3E900230AF068F91BA3D3E900230AF0C0
:100F600041FC0AF047FD07EE900A67EEE77A17EEBC
:100F7000900A0AF0B9FA41EC100B14F009FA51EC9E
:100F8000100B0AF037FD394608EE900A30460AF099
:100F900031FD294608EE100A20460AF02BFD07EE27
:100FA000100ADFED0C7A38EE078A28EE278A88EEE1
:100FB000270A38EEC00ABDEC028BF8BDAFF3008003
:100FC0000000000000F06F409A9999999999594052
:100FD000000000444B07FD3A2DE9F8430D4DDFF8C2
:100FE000389005F11004A0460126274654F8041B4A
:100FF000B5EC010A07EE901AF8EEE77A09EB8600E5
:1010000080EE270A0BF038FB3B6845451E44ECD1C7
:10101000BDE8F88304000020F42B00202DE9F84FF0
:101020000FF28C19D9E9008963A7D7E900672DED84
:101030000A8BDFF88CB1DFF88CA1574D9FED57AAD2
:10104000DFED579A9FED579A002407EE904AB8EECD
:10105000E78AABEC01AA78EE297AAAEC01AA17EE8E
:10106000900A0AF041FA42464B460AF0DDF8324651
:101070003B460AF0B7FB0AF0BDFC07EE900A67EEAC
:10108000E77A013417EE900A0AF02EFA41EC100BC1
:1010900014F07EF978EE697AB0EE40CAF0EE60CADC
:1010A00017EE900A0AF020FA42464B460AF0BCF8C6
:1010B00032463B460AF096FB0AF09CFC07EE900A8B
:1010C00067EEE77A17EE900A0AF00EFA41EC100B81
:1010D00014F05EF918EE100AB0EE40BAF0EE60BA05
:1010E0000AF002FA42464B460AF09EF832463B4668
:1010F0000AF078FB0AF07EFC07EE900A67EEE77ACA
:1011000017EE900A0AF0F0F941EC100B14F040F9D8
:1011100051EC100B0AF06EFC08EE100A51EC1C0B9F
:101120000AF068FC08EE900A51EC1B0B0AF062FC16
:1011300007EE900A78EEA78AB4F5007F68EE898AF8
:10114000C8EE897A38EE678AA5EC018A7FF47DAF14
:1011500021461548154DDFF870900BF0ABFA05F1FC
:101160001004A0460126274654F8041BB5EC010ADA
:1011700007EE901AF8EEE77A09EB860080EE270A70
:101180000BF07AFA3B68A8451E44ECD1BDEC0A8B03
:10119000BDE8F88FAFF30080740D00200000000060
:1011A000000000444B07FD3AF43300200400002007
:1011B0000000000000F06F409A9999999999594060
:1011C0000C34002034400020F42B00202DE9F84F8F
:1011D0008549DFF838920C684868D9F82420834B99
:1011E000013401302DED0A8B023A0C60486003F5A2
:1011F000006132F8020F07EE900AF8EE677AE3EC2E
:10120000017A8B42F5D1794A79497A4CDFF800822C
:10121000DFF800B210464FF400730CF031F80023F1
:10122000754A724975480BF079FB73494FF40072A7
:1012300008460CF0B1F804F1100A464601256E4B41
:10124000A80027460BEB000154F8042B1844334642
:101250000CF05CF83B68544506F104061D44EED1E1
:10126000674C99ED0A8AD4ED00AA664E98ED007A93
:1012700099ED0BAAD6ED007A634DD9ED0C8AB7EE45
:10128000009A79EE48BA6AEE889A39EE4ABAE7EEE1
:101290002B9A6AEE277A39EE689AE9EE8B7A17EE86
:1012A000900A0AF021F94EA3D3E9002309F0BEFF0A
:1012B0000AF0A0FBD4ED01CAD8ED015AD5ED007AB1
:1012C000D6ED016A306039EEEA7A6CEE88AA68EEF3
:1012D000A77AE5EEABAAE7EE097A2AEE267A06EEC1
:1012E000100AAAEE8B7A79EEC69AC5ED007A17EE4F
:1012F000100AC4ED009A0AF0F7F839A3D3E90023E5
:1013000009F094FF0AF076FB94ED02CA98ED026AA8
:10131000D5ED017A96ED027A706068EE0C9A7AEE5D
:10132000ECCAE6EE2B9A68EEA77A2AEE077A06EE6A
:10133000900AABEE297AECEE897A7AEEE6AA17EEFD
:10134000100AC5ED017AC4ED01AA0AF0CDF824A374
:10135000D3E9002309F06AFF0AF04CFBD4ED03AA9D
:1013600098ED036AD6ED036AD5ED027AB0602AEEF5
:10137000888A2AEE26AAA6EE2B8A39EECCCA68EE17
:10138000A77A07EE100AE9EE0C7AA8EE0BAA79EE1E
:10139000C79AC5ED027A1AEE100AC4ED029A0AF055
:1013A000A3F80FA3D3E9002309F040FF0AF022FBC2
:1013B00095ED037AF06078EE6AAA68EE878A07EE08
:1013C000900AEAEE898A38EE678AC5ED038A84EDD1
:1013D000038ABDEC0A8BBDE8F88F00BFAFF3008035
:1013E0007B14AE47E17A843F500900200C34002082
:1013F000740D00201400002034400020F43300203D
:10140000640D00203448002010400020000000201F
:1014100020400020F42B00202DE9F8434378202BB6
:10142000044638D0002103300DF06AFB23786C2B82
:1014300040D0682B3AD163786D2B37D10225214CEF
:10144000DFF8888004EB850383ED010A10EE100AB3
:101450000AF04AF802460B461B4829460CF0D2FA1D
:1014600004F11405A946043401262F4655F8041B3F
:10147000B4EC010A07EE901AF8EEE77A08EB860062
:1014800080EE270A0BF0F8F83B684C451E44ECD17F
:101490000020BDE8F883002102300DF031FB2378F5
:1014A0006C2B0DD0682B08BF0325C8D04FF0FF3040
:1014B000BDE8F88363786D2B08BF0125BFD0F5E741
:1014C0000025BCE7000000207C580108F42B002018
:1014D0002DE9F84303786C2B3BD06D2B37D0682B6C
:1014E00039D10225204C0A22002102300DF0BCFB2C
:1014F00004EB85014F6948616369A669E269C3F538
:1015000000739B1B9B1A002B29DB024629461748B8
:10151000DFF85C800CF076FA04F11405A946043477
:1015200001262F4655F8041BB4EC010A07EE901A69
:10153000F8EEE77A08EB860080EE270A0BF09CF8BD
:101540003B684C451E44ECD10020BDE8F8830125E2
:10155000C8E70025C6E74FF0FF30BDE8F8834F61CC
:101560004FF0FF30BDE8F8830000002094580108D8
:10157000F42B00202DE9F0430378BB4A613B89B08E
:10158000D2F830410D46132B00F26881DFE813F0EA
:101590003A006200660166018800CA0066016601C1
:1015A000660166016601D200660166016601E3001C
:1015B000660166010E0114004378692B00F0138266
:1015C000732B40F04B8108460A2207A90DF04CFB13
:1015D000054607980378002B40F0E6812B464FF034
:1015E000FF32A249A2480CF00DFAA8B22080608018
:1015F000A080E08020816081A081E081002009B08E
:10160000BDE8F0834378652B00F00A82642B00F07C
:10161000A3816F2B00F04E81284607A90A220DF006
:1016200023FB05460798037804F12006002B40F0C1
:10163000CC812B464FF0FF328E498D480CF0E2F9F9
:10164000A8B220846084A084E08420856085A08581
:10165000E085D3E708460A2207A90DF005FB0546F9
:101660000798037804F14006002B40F041812B4697
:101670004FF0FF3280497E480CF0C4F9A8B2A4F8BC
:101680004000A4F84200A4F84400A4F84600A4F8DE
:101690004800A4F84A00A4F84C00A4F84E00ADE7B6
:1016A0004378712B40F0DA804B78202B00F0618179
:1016B0000021E81C0DF024FA2B786C2B00F0C88078
:1016C000682B40F0CB806B786D2B40F0C7800225F3
:1016D0006A4CDFF8DC8104EB850383ED010A10EE30
:1016E000100A09F001FF02460B46654829460CF036
:1016F00089F904F11405A946043401262F4655F84A
:10170000041BB4EC010A07EE901AF8EEE77A08EB36
:10171000860080EE270A0AF0AFFF3B684C451E4466
:10172000ECD16BE74378732B40F098800846FFF7C5
:10173000CFFE64E74378612B40F090808378652B7F
:1017400040F08C80084600210DF0DAF94B4B002068
:1017500083ED0B0A53E74378732B08464FF00A02D8
:1017600007A900F0D6800DF07FFA054607980378A8
:1017700004F15006002B40F009812B464FF0FF3258
:1017800040493B480CF03EF9A8B2A4F85000A4F838
:101790005200A4F85400A4F85600A4F85800A4F885
:1017A0005A00A4F85C00A4F85E0027E7B4F84010E3
:1017B0003548324D0CF026F9218C34480CF022F9D2
:1017C000B4F8601032480CF01DF9B4F850103148EC
:1017D0000CF018F9218830480CF014F9A86A09F0C7
:1017E00083FE02460B462D480CF00CF9E86A09F01E
:1017F0007BFE02460B462A480CF004F9286B09F0E0
:1018000073FE02460B4627480CF0FCF8686809F0A6
:101810006BFE064628690F4609F066FECDE9040115
:10182000E86809F061FECDE90201A86809F05CFEF4
:101830003246CDE900013B461B480CF0E3F8286A2C
:1018400005F114010EC9009018480CF0DBF8D5E63C
:101850006B786D2B08BF01253FF43AAF4FF0FF3096
:1018600009B0BDE8F08300BF4448002014590108C6
:10187000BC580108E0580108B058010800000020D9
:101880007C580108F858010820590108345901080A
:1018900044590108585901086C5901087C5901083C
:1018A0008859010894590108A0590108C059010834
:1018B000F42B002008460A2207A90DF0D5F90546A9
:1018C0000798037804F13006002B40F0C1802B46C6
:1018D0004FF0FF326E496F480CF094F8ABB223869C
:1018E0006386A386E38623876387A387E38785E6EA
:1018F00007A90A220DF0B8F92B46074602466649A9
:1019000064480CF07FF8072F3FF6B8AE26F8175062
:1019100074E60DF0A9F905460798037804F160060E
:10192000002B40F086802B464FF0FF325B49594830
:101930000CF068F8ABB2A4F86030A4F86230A4F8F8
:101940006430A4F86630A4F86830A4F86A30A4F8CB
:101950006C30A4F86E3051E68378652B7FF45CAE72
:10196000084600210DF0CCF84D4B002083ED0C0A09
:1019700045E60021A81C0DF0C3F82B786C2B76D01F
:10198000682B08BF03253FF4A3AE67E707A90A2227
:101990000DF06AF92B460746024642493D480CF0D5
:1019A00031F8072FB2D9EFE607A90A220DF05CF94A
:1019B0002B46064602463C4936480CF023F8072ED3
:1019C0003FF613AE24F8165018E607A90A220DF0C8
:1019D0004BF92B460746024634492E480CF012F8C4
:1019E000072F93D92CE608460A2207A90DF03CF9E7
:1019F00005460798037804F11006002B39D12B46D1
:101A00004FF0FF322A4923480BF0FCFFABB2238290
:101A10006382A382E38223836383A383E383EDE56D
:101A2000084600210DF06CF81D4B002083ED0A0ADA
:101A3000E5E507A90A220DF017F92B4607460246ED
:101A4000164914480BF0DEFF072F7FF65FAF71E7F2
:101A500007A90A220DF008F92B46074602460C4951
:101A60000C480BF0CFFF072F7FF650AF36E700256D
:101A70002EE607A90A220DF0F7F82B460746024684
:101A80000B4904480BF0BEFF072F7FF63FAFBDE7C1
:101A9000D4580108BC580108B0580108EC58010896
:101AA00000000020F858010814590108E058010806
:101AB0000459010808B500210DF022F8024B00205E
:101AC00083ED0A0A08BD00BF0000002008B5002110
:101AD0000DF016F8024B002083ED0C0A08BD00BF84
:101AE0000000002008B500210DF00AF8024B00208C
:101AF00083ED0B0A08BD00BF00000020F8B52DEDF6
:101B0000028B0E46B0EE408A174609F0DBFC024617
:101B10000B460020244909F065FE044638460D4670
:101B200009F0D0FC02460B462046294609F030FD5C
:101B300004461E4880FB06303044F317C3EB2020D8
:101B40004FF4B47303FB10600D4609F0BBFC024672
:101B50000B462046294609F067FB09F04BFF9FED35
:101B6000147A07EE900AF4EEC77AF1EE10FA0CDA66
:101B7000DFED106A87EEA67AB7EE000A30EE470A6C
:101B800020EE080ABDEC028BF8BD77EEC77A9FED18
:101B9000097A87EE870AF7EE007A30EE670A20EEC0
:101BA000080ABDEC028BF8BD00807640B7600BB62A
:101BB000000034430000B442F0B583B00546164639
:101BC00008460A2201A90DF04FF80446019803784F
:101BD00093B9314623464FF0FF3210480BF012FF05
:101BE000A0B228806880A880E88028816881A881C8
:101BF000E881002003B0F0BD01A90A220DF034F8FD
:101C0000234607460246314604480BF0FBFE072FE9
:101C1000E6D8002025F8174003B0F0BDBC580108F5
:101C2000F0B583B00546164608460A2201A90DF014
:101C30001BF804460198037873B9314623464FF0E8
:101C4000FF320E480BF0DEFEE1B2284608220AF011
:101C500063FB002003B0F0BD01A90A220DF004F8D7
:101C6000234607460246314604480BF0CBFE072FB9
:101C7000EAD80020EC5503B0F0BD00BFBC58010805
:101C800008B510220CF0F0FFB0F5803F05D30146F7
:101C900002480BF0B7FE4FF0FF3008BDDC590108D9
:101CA00010B5102282B000210CF0DEFFB0F5803FAD
:101CB00004460ED2694600F063FF9DF80430012B04
:101CC0000FD0224600990A480BF09CFE002002B07B
:101CD00010BD014607480BF095FE4FF0FF3002B0F3
:101CE00010BD214604480BF08DFE022002B010BD4D
:101CF000305A0108DC590108005A010830B583B098
:101D000001A910220CF0B0FFB0F5803F04461CD2B0
:101D100001A9102201980CF0A7FF014605462046B4
:101D200000F06CFF012818D0032807D0224629466E
:101D30000D480BF067FE002003B030BD21460B4874
:101D40000BF060FE042003B030BD014608480BF0E4
:101D500059FE4FF0FF3003B030BD214605480BF06F
:101D600051FE022003B030BD745A0108445A0108E4
:101D7000DC590108005A010830B5154B154A93E8A3
:101D800003008DB004AC84E803000023526B07937A
:101D90000693089309930A930B931378012B0BD0A6
:101DA00005226D4668460C490BF0ECFE294620469C
:101DB0000BF028FE0DB030BD084B93E803006D46D4
:101DC0008DE80300294620460BF01CFE0DB030BD07
:101DD000F057010800000020905A0108885A0108B5
:101DE00070B500238EB005461946202206A803933D
:101DF0000293049305930AF08FFA202128460BF0F2
:101E00005DFE0D21064628460BF058FE002800F026
:101E100089800446002E00F09680721B294602A895
:101E20000BF0B0FEA21B013A711C06A80BF0AAFE33
:101E30009DF80830633B142B2BD8DFE803F0312AE0
:101E40002A384A2A2A2A2A2A2A2A2A2A2A592A2A95
:101E50002A2A0B009DF80930722B1AD169461022EC
:101E600006A80CF001FFB0F5803F04467CD269461D
:101E7000102200980CF0F8FE01460546204600F0BE
:101E8000BDFE012875D0032878D121463E480BF0CD
:101E9000B9FD3E4B06A902A81B6898470EB070BD5D
:101EA0009DF80930682B51D000200EB070BD9DF810
:101EB0000940002CEDD106A80BF086FD0546014631
:101EC00033480BF09FFD334B1B68ADB220461D809D
:101ED000E4E706A80BF078FD014604462E480BF017
:101EE00091FD2C4B9B6BA4B200201C800EB070BDEA
:101EF0009DF80930642BCCD11022002106A80CF0EB
:101F0000B3FEB0F5803F04462ED2694600F038FE9D
:101F10009DF80430012B2CD0224600991F480BF06D
:101F200071FDC1E70A2128460BF0C8FD04460028D0
:101F30007FF470AF014628460BF0C0FD044616B191
:101F400000287FF46AAF4FF0FF30A7E79DF80A3012
:101F5000612BA9D106A80BF037FDF028A4D80D4BB2
:101F6000DB6BC0B218709FE721460D480BF04AFDAD
:101F70008FE721460B480BF045FD8AE722462946AC
:101F800009480BF03FFD8FE7445A0108304000201C
:101F9000945A010800000020A85A0108305A01088C
:101FA000DC590108005A0108745A010808B5044CAC
:101FB0002046202102F03EF9642001F03FFAF7E7C5
:101FC0000000024070B5214C94F8403006460D46A2
:101FD00033B9012001F032FA94F84030002BF8D0E8
:101FE00000231B4884F8403001F0AEFD2B46194A0F
:101FF00019491A4802F0E8FD28BB31462B46154A1C
:10200000174802F0E1FDF0B92B46124A154916486F
:1020100002F0DAFDB8B9154B1B68DA6842F4807239
:10202000DA60DA6842F40072DA60DA68A0F58030CB
:1020300042F480625121DA60186159621A6842F0F4
:1020400001021A6070BDFFF7B1FF00BF0000002061
:10205000004D00201408024044000020600A0020C7
:10206000D40B002058090020C00A0020200B0020BB
:102070002DE9F04F224E2349234C244A244D254B71
:1020800025482DED0C8BF16731460C31F46034613D
:102090007461B461214CC2F830114FF001124FF05D
:1020A0006411E46BF261F2623262326372627263F3
:1020B000B262B2631A4AF363F364336433657364E0
:1020C0007365B364B365F06530667066B066F166DB
:1020D00031677167B1672A6091B02378DFED11CA6B
:1020E0009FED11BADFED11AA0DF13C090B4B9B6C72
:1020F0001B7803F0FF04DBB1C82001F09FF9F5E77E
:1021000050090020F9D100087017701744480020CA
:1021100030400020200320032C012C01000000206F
:1021200075150008DB0FC940920A064000007F4386
:10213000D14BD24A1B681460188880B201F07EF936
:10214000CE4BCD4A5B8C106DD16B0078CA480978B4
:10215000C06C009004EE903AC84BC8489B8CC76F87
:10216000B0F84C00926B05EE903AC44B1288DB8CB1
:1021700006EE903AC14B1B8D07EE903AC04B93EDA3
:10218000004ABE4B5B8A00EE103ABD4B93ED015AFC
:10219000BA4B9B8A00EE903AB94B93ED026AB74B6B
:1021A000DB8AF8EE644A01EE103AF8EE655AF8EE72
:1021B000666AB34B64EE844A65EE855A66EE866ABB
:1021C000B8EE400AF8EE600AB8EE411A93ED037AD1
:1021D000AA4B84EE804A1B8B01F0FF060196A74EA6
:1021E00092B285EEA05A86EE816A01EE903AF8EE40
:1021F000677AF8EE611A67EE877AA04B87EEA17ACC
:1022000093ED232AD3ED242A93ED253AD3ED263AF4
:10221000D3F8A03072EE444A72EEC55A73EE466AA5
:1022200009EE900A9548C6ED234A0133B0F85C5098
:10223000C6ED245AB0F86C00C6ED256AC6F8A03089
:10224000738E04EE103AB6F8423006EE103A8D4B1B
:1022500073EEC77A93ED002AD3ED012A93ED023A8B
:10226000D3ED033AB38EC6ED267A04EE903AB6F873
:10227000443006EE903AF38E05EE103AB6F846304A
:1022800007EE103AB8EE455A338FB8EE477A05EEAE
:10229000903AA5EE037AB6F84830F8EE644AF8EEC4
:1022A000666A07EE903AE4EEA26AB8EE444AB8EEE7
:1022B000466AF8EE655AF8EE677A8DED0D7A07EE0C
:1022C000105AA4EE026ACDED0C6AE5EEA37AF8EEA0
:1022D000476A07EE100AB8EE477A8DED0B6ACDED2E
:1022E0000E7A8CEEA6AA8CEE87CAF8EE699A0029BF
:1022F00000F0A48007EE902AF8EE67BAA04607EE39
:10230000908AB8EEE79A604D29EE0C9A0BAE02ACBB
:10231000D5ED007AB6EC01DAB0EE490AAAEE270A4A
:10232000B847AA46F5EC017AB0EE497AAAEE277AC8
:10233000F0EE698AEDEE008A37EE0B0AB847DAED67
:10234000007AB0EE497AAAEE277AB0EE698AADEE4D
:10235000008A37EE4B0AB847B0EE697AADEE007AE4
:1023600078EE886A76EE876ACBEEA67A68EEA76A80
:1023700068EE278AF4EEEA6AF1EE10FA27EE278A71
:102380006ADCF5EEC06AF1EE10FA6BD416EE900A34
:1023900009F0AAF841EC100B12F0A0FF51EC100B61
:1023A00009F008FB5FFA80FBB4EEEA8AF1EE10FA5E
:1023B0004FDCB5EEC08AF1EE10FA50D418EE100AD8
:1023C00009F092F841EC100B12F088FF51EC100B61
:1023D00009F0F0FA5FFA80FAF4EEEA8AF1EE10FA08
:1023E00035DCF5EEC08AF1EE10FA3ED418EE900A14
:1023F00009F07AF841EC100B12F070FF51EC100B61
:1024000009F0D8FAC0B24E4584F809B0A07284F839
:102410000BA004F103047FF47BAF424602A90098AD
:10242000FEF70CF9019B08F1010898457FF467AFAE
:10243000114BB8F1F00FDB6C009318D8019B00989A
:1024400003EB4301C90089B2FFF7BCFD4EE6FF2054
:10245000D9E74FF0FF0ABFE74FF0FF0BA4E74FF0BB
:10246000000AB9E74FF0000B9EE70020CBE74FF4DE
:10247000B4511846E7E700BF0000002050090020D3
:1024800010400020640D0020DC090020294B2A4860
:10249000596A70B54FF4007201F0CAFA002846D1AB
:1024A000264B1A6800E00130536A4F2BFBD91328E2
:1024B000F9DD136823F001031360116A41F211136F
:1024C000194208D1116A40F24443194203D11368FA
:1024D00023F0010313601A4D1A4C1B491B481C4B77
:1024E00000681B6800266E6125680C68296821F069
:1024F00001012960216821F001012160016821F0BA
:1025000001010160D16821F48071D160D16821F4AA
:102510000071D160D16821F48061D160DA6842F045
:102520000102DA601A6842F001021A6070BDFFF71A
:102530003DFD00BF00000020004D0020200B0020CA
:1025400000080240C00A0020600A0020D40B0020CE
:10255000980B0020F0B595B00022284B0192186C22
:10256000274940F0805018641B6C03F0805301939E
:10257000019B02920B6823F4404343F400430B6039
:102580000B680F9203F440430293022410230126A8
:102590004FF4A8710425072208A8029F08940E94FE
:1025A0000B960C93109311911295139208F010F85A
:1025B00008BB034621464FF480520F2603A804941B
:1025C000059307930396069208F020FA044690B903
:1025D00008F0D4FA0B4BA3FB0030800907F030FF62
:1025E000284607F0E1FF224621464FF0FF3007F072
:1025F000C5FE15B0F0BDFFF7D9FC00BF00380240A2
:1026000000700040D34D621008B5FFF731FD00BFE8
:1026100008B500F005FFBDE8084007F0D3BF00BFD4
:10262000014802F00BBC00BFD40B0020014802F0AF
:1026300005BC00BFC00A0020014802F0FFBB00BF7C
:10264000600A0020014804F053B800BF200B0020AE
:10265000014806F0B1B800BFBC4B0020014806F0AD
:10266000ABB800BF7C4B0020014804F041B800BF6C
:10267000980B0020014BD86C02F0E0BB340C00201A
:10268000014B986C02F0DABB340C0020014807F0D3
:10269000C7B900BF340C0020014802F0CFBB00BF17
:1026A000484D0020014801F0C1BA00BF004D002094
:1026B00010B582B0234B002400941A6B42F4001230
:1026C0001A631A6B02F400120092009A01941A6BBA
:1026D00042F480021A631B6B03F48003019301220E
:1026E00002210F20019B07F049FE0F2007F07CFE1E
:1026F000224602210E2007F041FE0E2007F074FE54
:1027000001221146392007F039FE392007F06CFE0E
:1027100001221146442007F031FE442007F064FEF8
:10272000012211463A2007F029FE3A2007F05CFE0C
:1027300022460321382007F021FE382007F054FEFE
:1027400002B010BD00380240F8B51E4C1E4E0025E8
:10275000042329464FF4887204F108006380258021
:10276000656009F0D9FD194B84F82551186893F874
:1027700004E01F8A84F8285184F8295184F82A51EA
:1027800084F82C5184F82D5184F82E5184F82F515F
:1027900053F8085F94F82B210D49C4F81801988864
:1027A000366884F81CE1012342F0010284F82431E8
:1027B000A4F82671C4F81E51A4F8220184F82B2134
:1027C0000E60F8BD44480020540000201058010855
:1027D000EC0C0020002310B48B704B706AB90123FD
:1027E0004A604B7090F834315DF8044B092243F095
:1027F000010380F834310A707047042A0DD1032296
:10280000012348600A704B7090F834315DF8044B36
:1028100063F07F0380F834317047082A34D0B2F572
:10282000047FC0F09D80A2F58054B4F5805F30D263
:10283000B2F5805F4ED041F20104A2424FD041F286
:102840000204A24250D041F20304A24256D041F207
:1028500004039A425ED041F206039A4266D041F2E6
:1028600008039A4270D041F210039A4272D041F2AA
:1028700014039A42B6D10123002400F225120C70F1
:102880008B704B704A60BFE70222031D0A704B60D9
:10289000BAE7A2F50054B4F5805FA3D2B2F5005FA9
:1028A00027D042F20204A2422FD042F204039A42FD
:1028B00036D042F208039A423ED042F20C039A42CA
:1028C00090D10123002400F22F120C708B704B70FA
:1028D0004A6099E700F58C720B704A6094E700F249
:1028E00019120B704A608FE700F21B120B704A60DE
:1028F0008AE700F593720B704A6085E700F58E74E5
:1029000001220B704C604A707EE700F227120B70B8
:102910004A6079E7012200F58F730A704B6073E714
:10292000072200F594730A704B606DE7012200F5F1
:1029300090730A704B6067E70824062200F59673CF
:102940000C708A704B605FE7002200F591730A708B
:102950004B6059E7002200F592730A704B6053E711
:10296000A2F580740123FF2C4B7008D8A3070AD16D
:1029700000F10803234402224B600A7044E7B4F5D7
:10298000887FBFF42FAFA2F58472024400234A600F
:102990000B7039E7F0B583B002AB03E906009DF890
:1029A0000230012B37D0062B02D0002003B0F0BD3F
:1029B00090F82B5190F82A2190F8291190F828418D
:1029C00090F8193190F81B6190F82671ED070DD53C
:1029D0000132D2B2934245D0B1424FD0BC4245D031
:1029E00080F82A2180F8291180F828419A421AD2C9
:1029F000B1424FF0010320D390F82F31BC4243F095
:102A0000020380F82F3103D343F0010380F82F3104
:102A1000012003B0F0BD9DF80030002B0CBF022058
:102A2000002003B0F0BD90F82F31B14243F0040311
:102A300080F82F314FF00003DED2BC4202D390F871
:102A40002F31E1E7002BE3D00E4B1868FDF784FD32
:102A5000019BC0F30721C0F30742187059709A70A8
:102A60000020A3E70131C9B20022B5E790F82F4159
:102A700064F07F0480F82F410024B1E70134E4B210
:102A80000021ABE7EC0C00202DE9F04782B002AB4F
:102A900003E906009DF80130012B07D09DF80230B4
:102AA000062B07D0002002B0BDE8F087032002B05B
:102AB000BDE8F08790F82A5190F8198190F82961C3
:102AC00090F8287190F81BA190F82691454538D3CD
:102AD00090F82F3143F0040380F82F31002356453E
:102AE0000DD390F82F314F4543F0020380F82F317A
:102AF00003D343F0010380F82F310120D3E74F4582
:102B000021D2002BF9D0019A51781378927804469B
:102B10001A4843EA012343EA024300682A46314641
:102B2000FDF7D6FC94F82B31DB07BBD50135EDB2B0
:102B3000A8450BD084F82A5184F8296184F82871BB
:102B4000B0E70123CBE790F82F31D2E70136F6B298
:102B5000B2450DD10137FFB2B9450BD194F82F31F1
:102B6000002663F07F0384F82F3135463746E1E7CE
:102B70000025DFE700263546DCE700BFEC0C00202F
:102B800070B582B002460E46002569461A48019586
:102B90000095FFF71FFE9DE806001748FFF7FAFEB5
:102BA0000128307114D09DF80030082B21D8DFE8BF
:102BB00003F016120505050512051A00019B1B6896
:102BC0003360022802D1019B00221A7002B070BD4E
:102BD000356002B070BD019B1B883360F1E7019B3B
:102BE0001B783360EDE7019B1B6823F07F43336064
:102BF000E7E700233360E4E74448002030B583B0C2
:102C0000002302460D461848019369460093FFF7DA
:102C1000E1FD9DF80130012B6C4612D09DF800308B
:102C2000082B1ED8DFE803F01A1714141414171415
:102C30000500019A136825F07F4503F07F431D438B
:102C4000156094E806000848FFF71EFF03B030BD8A
:102C5000019B1D60F5E7019B1D80F2E7019B1D7044
:102C6000EFE70120F2E700BF444800202DE9F843D8
:102C7000184D002A2C6809DD0A4411F8013B237025
:102C80002C688A4204F101042C60F6D16E68A71BFF
:102C900006D0114BD3F80080B8F1000F03D0002705
:102CA0003846BDE8F8830D4A0D49D2F800900D482A
:102CB00001221A603A460AF065FF4846BAB209494D
:102CC0002E6005F051FB0028EAD047462C603846BC
:102CD000BDE8F88364000020F8090020FC4C0020C7
:102CE000FC4B00207C4A00202DE9F843134B1D6863
:102CF000854203D000242046BDE8F883104ED6F864
:102D000000807768B8EB0704F5D00E4BD3F800903D
:102D1000B9F1000FEED1012022460B4918600B4893
:102D20000AF030FF2846A2B20849376005F01CFBC4
:102D30000028E0D0C6F800804C46DCE7FC4C0020C0
:102D400064000020F8090020FC4B00207C4A002091
:102D5000134A144B126800219042196000D070474A
:102D60002DE9F041104D2F686E68B7EB060801D0D1
:102D70001A680AB1BDE8F0810446012042460B49B9
:102D800018600B480AF0FEFE1FFA88F22046084938
:102D90002E6005F0E9FA0028ECD02F60EAE700BFCA
:102DA000FC4C0020F809002064000020FC4B0020AF
:102DB0007C4A0020F8B50378E3B10446124F134E65
:102DC000134D04E00AF01EFE14F8013F93B10A2BE4
:102DD00011D00D2B0F48F5D032681A44194652789D
:102DE00012F0200F28460AD00AF00CFE14F8013F1A
:102DF000002BECD1F8BD38460AF004FEE4E7184693
:102E00000AF018FEE0E700BFBC5A0108AC0400203D
:102E1000C45A0108C05A01082DE9F041634DAA685F
:102E2000E968531AFE2B0ADC3BB112F8013C0D2B6A
:102E300032D07F2B75D00A2B2FD0BDE8F0815C4CAF
:102E40005C48A960002384F8FF300AF0DBFD23789A
:102E5000DBB1594F594E5A4D04E00AF0D3FD14F836
:102E6000013F93B10A2B45D00D2B5648F5D032685F
:102E70001A441946527812F0200F284649D00AF019
:102E8000C1FD14F8013F002BECD14F480AF00EFEB3
:102E9000BDE8F041FEF770BF013A00231370444CC7
:102EA000EB684A48AB600AF0ADFD2378A3B1424F0E
:102EB000424E434D07E00D2B42481FD10AF0A2FDC0
:102EC00014F8013F43B10A2BF5D138460AF09AFDB8
:102ED00014F8013F002BF6D13B480AF0E7FD3448D7
:102EE000FEF77EFF10B13A480AF0E0FDBDE8F04180
:102EF000FEF742BF38460AF085FDB0E732681A4453
:102F00001946527812F0200F284606D00AF07AFDB2
:102F1000D6E718460AF08EFDA1E718460AF08AFDAA
:102F2000CEE72B681B2119702B685B22581C286088
:102F30005A702B6844205C1C2C6058702B68581CFD
:102F4000286059702B68591C29605A702B683322ED
:102F5000591C29605A702B687E22591C29605A70AE
:102F600095E850000134A71B2C6002D0194B1A6859
:102F70003AB1AB680022991EA96003F8022CBDE8A3
:102F8000F081154A1549D2F80080154801221A60CF
:102F90003A460AF0F7FD4046BAB211492E6005F0F4
:102FA000E3F90028E5D02C60E3E700BF64000020CF
:102FB0007C490020CC5A0108BC5A0108AC0400200E
:102FC000C45A0108C05A0108E05A0108E45A01082D
:102FD000F85A0108F8090020FC4C0020FC4B0020A6
:102FE0007C4A002038B50F4B0F499A680C79147051
:102FF0000E4C9A68256801329A60044665B90C4BFC
:103000000C4D1C60FFF708FF01222946204605F001
:10301000CDF90228F8D038BD0431012205F0A4F919
:10302000EDE700BF64000020F809002058000020F0
:10303000FC4C0020FC09002010B5164C164B2360F8
:103040004FF4165100230C22204661606261A36098
:10305000E3602361A361E36104F0D6FF08B1FEF7EA
:10306000A5FF2268D36843F06003D36002210022E9
:10307000262007F083F9262007F0B6F9074B084809
:103080001C60082200210AF0BDFCBDE81040FEF7DC
:1030900073BE00BFBC4B002000440040FC4C00202D
:1030A000145B0108F0B5214A0368934289B020D02F
:1030B0001F4A934201D009B0F0BD00211D4B02917F
:1030C0005A6C1D4842F020025A645B6C059103F073
:1030D00020030293012208234FF4C055022403A9C0
:1030E000029E039504940692079300F01BFF09B01B
:1030F000F0BD002302F5FA320193116C41F4003166
:103100001164126C0593044602F400320C260192FD
:1031100009480693072202250DEB0601019F03963D
:103120000495079200F0FEFE2368C1E700440040CA
:1031300000140140003802400000024010B5164C57
:10314000164B23604FF4E13100230C2220466160CE
:103150006261A360E3602361A361E36104F054FF53
:1031600008B1FEF723FF2268D36843F06003D36001
:1031700002210422472007F001F9472007F034F923
:10318000074B08481C60082200210AF03BFCBDE800
:103190001040FEF7F1BD00BF7C4B00200014014041
:1031A000FC4C0020145B010810B5144B144A1A6043
:1031B0000121002284B04FF4803418465C609A608C
:1031C0001A611A62DA62DA609961D9611963596128
:1031D00000F0B0F970B904240122072369460748BA
:1031E00000940192029300F0C3FD08B1FEF7DEFEE9
:1031F00004B010BDFEF7DAFEEDE700BF004D002081
:10320000002001401F4B02689A4200D07047F0B581
:1032100087B0002603F58C3300965A6C1A4D42F4A1
:1032200080725A645B6C039603F4807300931022DF
:10323000032301A904461548009F019202934FF40D
:10324000806700F06FFEDFF848E06E604FF40061C9
:103250004FF400524FF480732846AE60EE602E6249
:103260006E62C5F800E02F616961AA61EB6101F04F
:10327000ABFB18B9A563AC6307B0F0BDFEF796FED3
:10328000F8E700BF00200140484D00200000024048
:10329000106402400A4B02689A4200D07047094A03
:1032A00010B5536C044623F480730748536410210F
:1032B00000F026FFA06BBDE8104001F01DBC00BF70
:1032C0000020014000380240000002401049114B2C
:1032D000D1F8882042F4700210B4C1F888201A682E
:1032E0000D4C002042F001021A6098601A6822F02A
:1032F000847222F480321A605C601A684FF00064B5
:1033000022F480221A60D8608C605DF8044B70470C
:1033100000ED00E00038024010300024164A9368A7
:1033200003F00C03042B24D0082B0AD0134B124AB1
:10333000134892681349C2F30312825CD3400B60B6
:1033400070475068516852684302C2F3881201F016
:103350003F014CBF0C4B094BB3FBF1F303FB02F3F2
:10336000054A5268C2F3014201325200B3FBF2F344
:10337000DDE7054BDBE700BF003802400024F40026
:10338000245801087400002040787D01704700BF78
:10339000704700BF10B5094B4FF0FF3200241A628E
:1033A0001C625A625C621A611C615A615C619A61BA
:1033B0009C61FFF7EDFF204610BD00BF00380240C2
:1033C000084B094A1B6810B5A2FB03230446980961
:1033D00007F036F8214600224FF0FF3006F0CEFF0E
:1033E000002010BD74000020D34D621008B50B4BB7
:1033F0001A6842F400721A601A6842F480621A6015
:103400001A6842F480721A60032006F0A5FF0020BB
:10341000FFF7D6FFFDF790FC002008BD003C0240FE
:10342000024A136801331360704700BFA84D0020A3
:10343000014B1868704700BFA84D002010B582B03E
:103440000190FFF7F5FF0446FFF7F2FF019B001B19
:103450009842F9D302B010BD024A136823F0020368
:103460001360704710E000E0024A136843F0020363
:103470001360704710E000E000487047000005014D
:10348000014B1868000C7047002004E0024B1868DC
:10349000C0F30B00704700BF002004E0024A5368ED
:1034A00043F0010353607047002004E0024A536870
:1034B00023F0010353607047002004E0024A536880
:1034C00043F0020353607047002004E0024A53684F
:1034D00023F0020353607047002004E0024A53685F
:1034E00043F0040353607047002004E0024A53682D
:1034F00023F0040353607047002004E0012191FA97
:10350000A1F2034BB2FA82F213449B001960704798
:1035100000C18910012292FAA2F2044BB2FA82F29F
:1035200013449B0000221A60704700BF00C189103D
:10353000704700BF002800F0AA80F8B5036C04466D
:103540003BB1236CDB060CD50023012084F83C3012
:10355000F8BD436480F83C30FFF754FE236CDB0673
:10356000F2D4226C4B4923684B4D22F4885222F04E
:10357000020242F0020222644A6822F440324A60A7
:103580004A68606802434A6059682069D4F808E0D4
:10359000E768A26A21F4807159605E6846EA0026F5
:1035A0005E605E6826F040765E60586840EA0E0015
:1035B0005860986820F4006098609968AA4241EACF
:1035C0000701996046D09968E06A21F070619960BE
:1035D00099680A439A60996821F0405199609A6805
:1035E00002439A609968A569206A21F002019960F6
:1035F0009A6842EA45029A605A68002833D122F458
:1036000000625A60DA6AE569276B666922F4700223
:10361000DA62D86A013D40EA0550D862986820F421
:1036200000709860996841EA47219960996821F48F
:10363000806199609A68002042EA86229A606064FC
:10364000236C23F0030343F001032364002384F875
:103650003C30F8BD9A6822F070629A609A6822F055
:1036600040529A60BEE742F400625A605A6822F4FF
:1036700060425A604FF4604191FAA1F1626A586861
:10368000B1FA81F1013A8A4002435A60BAE7012057
:10369000704700BF002301400100000F704700BFCA
:1036A000D0B1026C38B542F00202036802649A6835
:1036B00022F001029A609D6815F00105044603D0CE
:1036C000002084F83C0038BDFFF7E4FD002065646D
:1036D00084F83C00256438BD0120704710B490F890
:1036E0003C3083B00022012B019255D002689368D0
:1036F0000121DB0780F83C1014D42A4B2A4C1B68AC
:103700009168A4FB03439B0C03EB430341F00101CD
:1037100091600193019B2BB1019B013B0193019BA4
:10372000002BF9D19368DC0731D5036C23F4E063F7
:1037300023F0010343F4807303645368590505D5EE
:10374000036C23F4405343F480530364036C13F479
:1037500080531CBF436C23F00603436400246FF0C6
:103760002201124B80F83C4011605B68DB060BD1F4
:10377000906810F040500AD1936843F08043936002
:1037800003B05DF8044B7047094B9A42F0D000201B
:1037900003B05DF8044B7047022003B05DF8044BA2
:1037A000704700BF7400002083DE1B4300230140EC
:1037B0000020014090F83C30012B16D003689A6835
:1037C000012122F0010280F83C109A609B68DB071F
:1037D00006D4036C23F4885323F001030B430364E2
:1037E000002380F83C30184670470220704700BF25
:1037F00003689A68520502D59B68DB053ED470B514
:103800000C460546FFF714FE06462A6801E0601CD8
:1038100025D113689907FAD56FF0120313602B6C4A
:1038200043F400732B64936813F0405F15D1AB69C8
:103830009BB9D36A13F4700F0CD12B6C23F48073F3
:103840002B64286C10F4805007D12B6C43F00103DB
:103850002B6470BD93685B05EFD5002070BD24B16B
:10386000FFF7E6FD801B8442CFD22B6C002243F091
:1038700004032B6485F83C20032070BD036C0022F8
:1038800043F02003036480F83C200120704700BF10
:103890002DE9F04107460D461646FFF7C9FD804663
:1038A0003C6801E0731C13D1236835EA0303F9D1A6
:1038B000012D3B6C1DD043F480633B647B6C6FF047
:1038C000200243F002037B6400202260BDE8F08107
:1038D0002EB1FFF7ADFDA0EB08008642E0D23B6CB5
:1038E000002243F004033B6487F83C200320BDE83A
:1038F000F0816FF0010243F480333B6400202260CA
:10390000BDE8F08110B490F83C3083B00022012B68
:1039100001925BD0026893680121DB0780F83C10BC
:1039200014D42D4B2D4C1B689168A4FB03439B0CB6
:1039300003EB430341F0010191600193019B2BB123
:10394000019B013B0193019B002BF9D19368DC079C
:1039500037D5036C23F4E06323F0010343F4807351
:1039600003645368590505D5036C23F4405343F4AD
:1039700080530364036C13F480531CBF436C23F027
:103980000603436400216FF0220380F83C101360AB
:103990005368134943F0806343F0200353604B683E
:1039A000DB060BD1906810F040500AD1936843F0C9
:1039B0008043936003B05DF8044B7047094B9A4213
:1039C000F0D0002003B05DF8044B7047022003B034
:1039D0005DF8044B704700BF7400002083DE1B437A
:1039E000002301400020014090F83C30012B1CD006
:1039F00003689A68012122F0010280F83C109A6065
:103A00009A68D2070CD45A6822F0806222F0200211
:103A10005A60036C23F4885323F001030B430364BF
:103A2000002380F83C30184670470220704700BFE2
:103A3000F0B590F83C3083B00024012B019469D09C
:103A40000568AB680124DF0780F83C4014D4374B8D
:103A5000374E1C68AB68A6FB0464A40C43F001035A
:103A600004EB4404AB600194019B2BB1019C013C2D
:103A70000194019C002CF9D1AB68DE0747D5046C9A
:103A800024F4E06424F0010444F4807404646B685A
:103A90005C0505D5036C23F4405343F48053036461
:103AA000036C244C244F13F480531CBF436C23F04D
:103AB000060343640646806B13464FF0000E1F4A10
:103AC00086F83CE0C2636FF02202C46407642A6097
:103AD0006C6844F080646C60AC6844F480740A469E
:103AE000AC6005F14C0101F06FF8154B5B68DB062B
:103AF00009D13368986810F0405008D19A6842F0B4
:103B000080429A6004E032680E4B9A4205D0002051
:103B100003B0F0BD022003B0F0BD906810F040503B
:103B2000F5D1936843F080439360F1E7740000207F
:103B300083DE1B43593D0008193C0008B53B0008D3
:103B4000002301400020014090F83C30012B11D0AF
:103B500003689A68012122F0010210B580F83C1038
:103B60009A609A68D207044606D50023002084F89C
:103B70003C3010BD022070479A68806B22F480723E
:103B80009A6001F063F82268536823F08063536001
:103B9000236C23F4885323F0010343F001032364CF
:103BA000002384F83C3010BD0368D86C704700BF18
:103BB000704700BF836B1A6C12F0500F22D11A6C41
:103BC000196842F4007210B51A648A6812F0405FF6
:103BD00014D19A6992B9CA6A12F4700F15D14A6861
:103BE00022F020024A601A6C22F480721A641A6C65
:103BF000D20403D41A6C42F001021A641846FDF78D
:103C0000E5FA10BD9B6BDB6C18478A685005F5D44C
:103C1000E5E700BF704700BF08B5806BFFF7FAFF0C
:103C200008BD00BF704700BF704700BF38B50368CC
:103C30001A6859680446900701D58A0653D41A6851
:103C40005968520701D50D061BD41A685968D00768
:103C500001D54A0606D41A685968900601D54A016A
:103C600069D438BD1A68D507F5D5236C43F4803381
:103C700023642046FFF7D6FF23686FF001021A6025
:103C8000E9E7226CD00603D4226C42F4005222648D
:103C90009A6812F4401F1ED19A6B12F4401F02D092
:103CA0009A68510517D45A68520514D49A6812F0CC
:103CB000405F10D1A26972B95A6822F080025A603E
:103CC000236C23F480532364236CDD0503D4236C1D
:103CD00043F001032364204600F06EFD23686FF07B
:103CE0000C021A60B1E7226CD50603D4226C42F4B0
:103CF000007222649A6812F0405F14D1A26992B9EE
:103D0000DA6A12F4700F23D15A6822F020025A6046
:103D1000236C23F480732364236CD90403D4236CB1
:103D200043F0010323642046FDF750FA23686FF047
:103D300012021A6083E7626C6FF0200542F0020203
:103D4000626420461D60FFF76FFF23681D6038BD69
:103D50009A685005E7D4D7E7806B08B54023036421
:103D6000436C43F004034364FFF75EFF08BD00BFEC
:103D7000F0B590F83C3083B00022012B019257D06F
:103D80000D680123092D2E4680F83C3029D804689F
:103D90008B68226905EB450E072707FA0EF722EA22
:103DA00007022261226903FA0EF3134323614B6871
:103DB000062B2BD803EB8303626B053B1F21994035
:103DC00022EA01026263626B06FA03F31343636340
:103DD000364B9C423ED0002380F83C30184603B05E
:103DE000F0BD04688B68E768AEB206EB46021E3A87
:103DF0004FF0070E0EFA02FE27EA0E07E760E768AB
:103E000093403B43E3604B68062BD3D90C2B12D86D
:103E100003EB8303A3F123011F22236B8A4023EAD0
:103E200002032363236B06FA01F119432163CFE7F1
:103E3000022003B0F0BD03EB8302413AE36A1F2185
:103E4000914023EA0103E362E36A06FA02F11943AF
:103E5000E162BDE7122D23D0A5F11003012BBAD8E2
:103E6000134A5368102D43F400035360B3D1114B30
:103E700002F1467202F52E321B6802F28332A2FB77
:103E800003239B0C03EB83035B000193019B002B3B
:103E9000A1D0019B013B0193019B002BF9D19AE733
:103EA000034A536843F48003536094E700200140C1
:103EB000002301407400002090F83C30012B2AD0F0
:103EC0000B690246012083421368F0B482F83C007B
:103ED00058680CBF40F0400020F04000586058681F
:103EE0000F688C894E688D6820F4400020F40070C3
:103EF00058605968394359605E629D62596821F083
:103F00001F0159605968002521432846596082F8ED
:103F10003C50F0BC70470220704700BF006C7047F7
:103F2000406C70472DE9F04FD1F800C0DFF8CCE1CC
:103F300083B000254FF0010803E00135102D00F09B
:103F4000878008FA05F303EA0C029342F5D14E6824
:103F500026F0100ABAF1020F7DD04FEA450903247A
:103F6000D0F800B004FA09F4E44306F003070BEAC2
:103F7000040B07FA09F70AF1FF3A47EA0B07BAF10F
:103F8000010F076040F28E80C7688B683C4003FADF
:103F900009F32343C360F300CFD500230193524BB1
:103FA000514C5B6C43F480436364636C25F00307FE
:103FB00007F1804703F4804307F59C37019305F030
:103FC0000303019CD7F808909B000F249C4029EA2A
:103FD000040A464CA04278D004F58064A04276D012
:103FE000434CA04276D0434CA04278D0424CA042F1
:103FF0000CBF4FF004094FF0050909FA03F343EA37
:104000000A03BB60DEF80030D443F70354BF2340FB
:104010001343CEF80030DEF80430B70354BF23401A
:104020001343CEF80430DEF80830F70254BF2340C3
:104030001343CEF80830DEF80C30B60205F1010566
:1040400054BF23401343102DCEF80C307FF479AFCA
:1040500003B0BDE8F08F4FEAD50900EB890905F000
:104060000704D9F82070A4004FF00F0B0BFA04FBE3
:1040700027EA0B0A0F6907FA04F444EA0A04C9F8AC
:1040800020404FEA45090324D0F800A004FA09F4BF
:10409000E44306F003070AEA040A07FA09F747EAC5
:1040A0000A070760876807EA040ACF6807FA09F772
:1040B00047EA0A078760D0F804A0C6F300172AEA87
:1040C0000303AF401F4347605EE7002397E708FA0A
:1040D00003F394E74FF0020909FA03F38FE74FF077
:1040E000030909FA03F38AE700380240000002409E
:1040F00000080240000C024000100240003C014059
:104100002DE9F04F002383B0DFF80C91DFF80C812C
:104110004FF0010E4FF0030B4FF00F0A02E0013396
:10412000102B61D00EFA03F232EA0104F7D15C00E1
:1041300005680BFA04F4E443DE08254000EB86062C
:10414000056003F00705376AAD000AFA05F527EAAE
:10415000050535628568254085604568D243154070
:104160004560C66823F0030505F18045344005F538
:104170009C35C46003F00304AE68A4000AFA04F797
:104180003E404845019632D01F4EB04231D01F4EBE
:10419000B04231D01E4EB04233D01E4EB0420CBFA2
:1041A0004FF0040C4FF0050C0CFA04F4019EA642EB
:1041B000B5D1AC6824EA0707AF60D8F800401440D6
:1041C000C8F80040D8F804401440C8F80440D8F8B3
:1041D00008401440C8F80840D8F80C400133224089
:1041E000102BC8F80C209DD103B0BDE8F08F00243F
:1041F000DCE70EFA04F4D9E74FF0020C0CFA04F4F1
:10420000D4E70BFA04F4D1E70004024000080240AE
:10421000000C02400010024000000240003C01403F
:104220000369194214BF01200020704702B9090434
:1042300081617047436959404161704782B04FF4D2
:1042400080330193019B0B430193019BC361C161C7
:10425000019BC361C3690193C06980F48030C0F3DE
:10426000004002B0704700BF704700BF044A516968
:10427000014200D1704708B55061FFF7F5FF08BD56
:10428000003C0140806B40230364436C43F0040313
:104290004364FFF7C9BC00BF806BFFF7BBBC00BF26
:1042A000836B1A6C12F0500F20D11A6C196842F40B
:1042B00000721A648A6812F0405F14D19A6992B948
:1042C000CA6A12F4700F14D14A6822F020024A60C0
:1042D0001A6C22F480721A641A6CD20403D41A6C19
:1042E00042F001021A641846FCF770BF9B6BDB6C4E
:1042F00018478A685005F6D4E6E700BF10B490F876
:104300003C3083B00022012B01924CD002689368AC
:104310000121DC0780F83C1014D4294B294C1B6880
:104320009168A4FB03439B0C03EB430341F00101A1
:1043300091600193019B2BB1019B013B0193019B78
:10434000002BF9D19368D90728D5036C23F4405387
:1043500023F0010343F480530364036C13F480736C
:1043600008BF436400246FF00401174B80F83C4001
:1043700011605B68DB060CD19368506813F4401F32
:104380000CD110F4806009D1936843F480039360EA
:1043900005E00E49906853688A4209D0002003B0B6
:1043A0005DF8044B7047022003B05DF8044B704782
:1043B00010F4401FF2D113F48060E5D0EEE700BFA7
:1043C0007400002083DE1B430023014000200140D5
:1043D00010B490F83C3083B00022012B019250D0F1
:1043E000026893680121DC0780F83C1014D42B4B41
:1043F0002B4C1B689168A4FB03439B0C03EB43030A
:1044000041F0010191600193019B2BB1019B013BA4
:104410000193019B002BF9D19368D9072CD5036C2C
:1044200023F4405323F0010343F480530364036CEB
:1044300013F4807308BF436400216FF0040380F815
:104440003C1013605368174943F0800353604B6876
:10445000DB060CD19368506813F4401F0CD110F4A4
:10446000806009D1936843F48003936005E00E49AE
:10447000906853688A4209D0002003B05DF8044B6D
:104480007047022003B05DF8044B704710F4401FE2
:10449000F2D113F48060E5D0EEE700BF7400002095
:1044A00083DE1B43002301400020014090F83C20A4
:1044B000012A034625D0026C0121D20580F83C1068
:1044C00008D51A6C42F020021A640120002283F8F9
:1044D0003C2070470268506810F48060F1D1916808
:1044E00021F001019160926812F00102EED1196C85
:1044F00021F4885121F0010141F0010110461964B5
:10450000E4E70220704700BF70B505460C46FEF791
:104510008FFF06462A6801E0631C27D113685807FD
:10452000FAD56FF00C0313602B6C43F400532B642B
:10453000936813F4401F29D1936B13F4401F22D1C9
:1045400053685B0522D4936813F0405F1ED1AB69BA
:10455000E3B92B6C23F480532B64286C10F4807027
:1045600014D12B6C43F001032B6470BD24B1FEF712
:104570005FFF801B8442CDD2042200232A6485F889
:104580003C30032070BD93685905D9D5002070BD1B
:1045900090F83C20012A034629D0026C0121D20563
:1045A00080F83C1008D51A6C42F020021A640120F1
:1045B000002283F83C2070470268506810F4806045
:1045C000F1D1916821F001019160916811F0010130
:1045D000EED1506820F0800050601A6C22F48852AE
:1045E00022F0010242F0010208461A64E0E70220CC
:1045F000704700BF036882B000206FF004020139E9
:1046000001901A60032905D8DFE801F0110C0207B8
:104610005B6C0193019802B070479B6C0193019809
:1046200002B070471B6C0193019802B07047DB6BBE
:104630000193019802B07047F0B590F83C3083B018
:104640000024012B019465D00568AB680124DE07C6
:1046500080F83C4014D4344B344E1C68AB68A6FB45
:104660000464A40C43F0010304EB4404AB60019424
:10467000019B2BB1019C013C0194019C002CF9D1C0
:10468000AB68DC0743D5046C24F4E06424F0010437
:1046900044F4807404646B685B0505D5036C23F4F3
:1046A000405343F480530364036C866B204C214FCA
:1046B00013F480531CBF436C23F0060343644FF094
:1046C000000E1D4B80F83CE0F3636FF00203F464CE
:1046D00037642B606B68046B43F080636B60E4B9F4
:1046E000164C636823F40053636004461346304657
:1046F0000A46134900F068FA2368986810F04050A1
:1047000005D19A6842F080429A6003B0F0BD002063
:1047100003B0F0BD022003B0F0BD084C636843F461
:1047200000536360E1E700BF7400002083DE1B4399
:104730008542000899420008A14200080023014078
:104740000823014090F83C30012B11D003689A688F
:10475000012122F0010210B580F83C109A609B689C
:10476000DB07044606D50023002084F83C3010BD4A
:10477000022070470C4A806B536823F40053536047
:1047800000F064FA2268536823F080635360236C5E
:1047900023F4885323F0010343F00103236400232F
:1047A00084F83C3010BD00BF00230140014B9868E5
:1047B000704700BF00230140704700BF90F83C30B5
:1047C000012B00F08880F0B50D680123092D2C46DF
:1047D00080F83C306CD803688A681E6905EB450E8A
:1047E000072707FA0EF726EA07061E611E6902FA76
:1047F0000EF232431A619F6BD1F810E04E6827F435
:1048000040179F639F6B0EF1FF3247EA0257F21C7D
:10481000A2EB0E029F63D2B29F6B02EB82024FF0BB
:104820001F0E0EFA02FE27EA0E079F63D3F838E048
:10483000CF6904FA02F24C4C42EA0E02A7429A6394
:104840006CD09C68D1F820E024F470249C609A68B5
:1048500017439F609C6824F440149C609A6842EA65
:104860000E029A608A69002A48D05A6842F480622F
:104870005A604A69002A30D05A68022E42F48052A7
:104880005A6030D0032E52D0012E3CD01A6AC9682B
:1048900022F47F6222F00F021A621A6A0A431A6235
:1048A000324A93424ED0002380F83C301846F0BD87
:1048B00003688A68DF68ACB204EB44061E3E4FF022
:1048C000070E0EFA06FE27EA0E07DF60DF68B24029
:1048D0003A43DA608FE7022070475A68022E22F4CA
:1048E00080525A60CED19A69C96822F47F6222F060
:1048F0000F029A619A690A439A61D1E75A6822F4D1
:1049000080625A60B5E75A69C96822F47F6222F072
:104910000F025A615A690A435A61C1E79A6822F440
:1049200070229A609A6822F440129A609AE7DA69D3
:10493000C96822F47F6222F00F02DA61DA690A4361
:10494000DA61ADE7122D08D0103D012DABD8084A31
:10495000536843F400035360A5E7D2F8043343F4EB
:104960008003C2F804339EE701000F0000200140DD
:104970000023014090F83C30012B21D0114B02461E
:10498000586820F01F0010B4586058680C68204325
:104990005860586820F44040586058684C6820437C
:1049A0005860586820F4706058608868596800241E
:1049B00001435960204682F83C405DF8044B704743
:1049C0000220704700230140F8B50446FEF730FD91
:1049D000002C6FD00222236884F835201A68002149
:1049E00022F0010284F8341005461A6005E0FEF753
:1049F0001FFD401B05283BD823681A68D107F6D451
:104A0000A7686268E66825696169A0693A4332432C
:104A10002A430A43E169256A1F68344E02430A4368
:104A2000616A2A433E40042942EA060227D01A60FE
:104A30005A6922F007021143DAB22D4D5961103A3A
:104A4000A5FB021212092B4823F47F73815CE165F8
:104A500023F00303032A88BF04333F228A40012541
:104A60000021A36508469A60616584F83550F8BD59
:104A7000032320226265184684F83530F8BDE66AC3
:104A8000216BA56A31430A431A605A6945F0040153
:104A900022F00702114378B9012D23D001D3022D52
:104AA000CAD1F201C8D5012340226265184684F8B4
:104AB0003530F8BD0120F8BDB0F5005F04D0022DFF
:104AC000F1D9032DB8D1ECE7032DB5D801A252F8E6
:104AD00025F000BFA74A0008A34A0008A74A00081B
:104AE000E54A0008B6F1C07FA6D1DCE73F8010F0B0
:104AF000ABAAAAAA3458010800282FD090F8353064
:104B0000DBB2022B2BD003681649DAB270B4103A2C
:104B10001C68154DA1FB02121209002124F00104AA
:104B200021261C60196059609960D96019615E6125
:104B300023F47F73AD5CC56523F00303032A88BFAC
:104B400004333F210022A940836570BC996042650F
:104B500080F8342080F8352010467047012318462D
:104B6000704700BFABAAAAAA3458010870B490F8E5
:104B70003440012C0CD090F835400125AC4280F82F
:104B8000345008D0002380F83430022070BC7047C5
:104B9000022070BC704704680226002580F835604A
:104BA00045652568866825F48025402E256063606C
:104BB0000BBFA260A160E160E260236843F00103E3
:104BC00023600020E2E700BFF0B490F83440012CED
:104BD0000DD090F83540866D0125AC4280F83450F8
:104BE00008D0002380F834300220F0BC7047022047
:104BF000F0BC704704680227002580F835704565D1
:104C00002568876825F48025402F256063600ABFEA
:104C1000A260A160E160C16D18BFE2603F238B40DC
:104C2000026CB360236843F016032360636943F0AA
:104C3000800363611AB1236843F00803236023688B
:104C400043F0010323600020CFE700BF70B50446A6
:104C5000866DFEF7EDFB94F83530022B06D08022EE
:104C60000023626584F83430012070BD2368216C14
:104C70001A6822F016021A605A6922F0800205466C
:104C80005A6131B31A6822F008021A601A6822F0D9
:104C900001021A6005E0FEF7CBFB401B05280FD888
:104CA00023681B6813F00103F5D1E16D3F228A40B0
:104CB0000121B260184684F8343084F8351070BD94
:104CC000202200230320626584F8343084F8350004
:104CD00070BDA26C002AD5D1D8E700BF90F835305E
:104CE000022B03D08023436501207047026805230F
:104CF00080F83530136823F00103136000207047FB
:104D00002DE9F04F044683B092460091FEF790FBE8
:104D100023681B68DD054AD4009B8146002B42D0E6
:104D2000E36D10219940A56DDFF80C81D5F800B036
:104D3000404F01EA0B0201925246A2461446019AE4
:104D40000826002A47D1611C08D0BCB3FEF770FBCF
:104D5000A0EB0900844231D3DAF85C3006FA03F0A4
:104D60001BEA000F08FA03F107FA03F206D0DAF89B
:104D700054E04EF0010ECAF854E0A8601BEA010F9F
:104D800006D0DAF8540040F00200CAF85400A960D6
:104D90001BEA020FD7D0DAF8541041F00401CAF828
:104DA0005410AA60CBE7E36D20219940BBE74FF494
:104DB00080736365012003B0BDE8F08F20210022DD
:104DC00001230320CAF854108AF834208AF83530B9
:104DD00003B0BDE8F08FDAF85400544620B1DAF899
:104DE0005420D20715D40120009A32B1102202FAC1
:104DF00003F3AB6003B0BDE8F08F302202FA03F397
:104E0000AB6001229DF8003084F8343084F83520FE
:104E1000D1E75046FFF71AFFDAF85C2030239340C1
:104E200000210122AB6010468AF834108AF8352040
:104E3000C1E700BF0400800001008000F0B583B02E
:104E40000023876D0193C36D3D68624908229A4033
:104E5000154204460E6803D001680868400776D4FE
:104E60005D4A9A40154203D021684969080668D412
:104E70005A4A9A40154203D02168096889075AD4D2
:104E800010229A40154203D02168086800073FD4D9
:104E900020229A40154203D021680868C00625D414
:104EA000636D0BB3636DDA071AD50523216884F8A7
:104EB00035300B684A4A23F00103A2FB06020B605F
:104EC000920A02E00B68DB0704D5019B01339A428A
:104ED0000193F7D20022012384F8342084F835307E
:104EE000E36C0BB12046984703B0F0BDBA6094F86C
:104EF0003520052A3BD00B6813F4802F0B6854D063
:104F000019035FD5E36B002BCAD020469847C7E74B
:104F1000BA600A6812F4802F0A6822D1D20503D43D
:104F20000A6822F008020A60226C002AB0D02046EB
:104F30009047E36DACE7BA60626D42F004026265CF
:104F40009EE7BA60626D42F00202626590E708680F
:104F500020F004000860BA60626D42F001026265F0
:104F60007EE71103E0D5A26C002AE0D190E70A6841
:104F7000206C22F016020A604A6922F080024A611F
:104F800020B30A6822F008020A603F22216D02FA6B
:104F900003F300200122BB6084F8340084F835203C
:104FA0000029A1D0204688479EE713F48073A9D139
:104FB0000A68012022F010020A6084F8343084F874
:104FC00035009FE7636C002B9FD169E7A26C002A34
:104FD000D7D1DAE7740000200100800004008000CF
:104FE000B5814E1B034690F8340001280DD010B453
:104FF00093F835400120844283F8340007D0002222
:1050000083F834205DF8044B70470220704705296F
:1050100016D8DFE801F0120F0C0906031A6500200C
:10502000EDE7DA640020EAE79A640020E7E75A64D3
:105030000020E4E71A640020E1E7DA630020DEE7FD
:105040000020DCE790F83430012B02460BD090F8BA
:1050500035000123984282F8343006D00120002325
:1050600082F834307047022070470629F6D8DFE80E
:1050700001F01B1815120F0C04000020D0631064FF
:1050800050649064D0641065E9E700201065E6E79D
:105090000020D064E3E700209064E0E70020506443
:1050A000DDE700201064DAE70020D063D7E700BF17
:1050B00090F83500704700BF406D7047F0B5046A46
:1050C000D1F808E00E68124D24F001040462036A6E
:1050D0004768826923F0020322F07302A84243EA80
:1050E0000E0342EA060205D04968476082614163C7
:1050F0000362F0BDCE684C698D6923F0080327F484
:10510000407733432C4323F004032743ECE700BFED
:1051100000000140F0B5046AD1F808E00E68134DB4
:1051200024F480740462036A4768C26923F400733C
:1051300022F07302A84243EA0E2342EA060205D097
:1051400049684760C261C1630362F0BDCE684C69C3
:105150008D6923F4006327F4405743EA06232C4368
:1051600023F4806347EA0417EAE700BF0000014028
:10517000F0B4046A8F680E680E4D24F48054046203
:10518000036A4468C26923F4005322F4E642A84249
:1051900043EA073342EA062206D049684460C26106
:1051A000F0BC0164036270474D6924F4804444EA12
:1051B0008514F2E70000014002684868936823F014
:1051C000700370B403430C6823F007032343502893
:1051D000936036D024D960280ED070280AD1CB68CD
:1051E0008C6808699168234343EA002321F47F41D6
:1051F0000B43936070BC7047106A8C680D6920F097
:10520000100010629169136A21F4704123F0A00329
:1052100041EA053143EA0413916170BC136270479F
:105220004028E7D1146A106A0D6920F0010010626D
:10523000936923F0F00343EA05139361146270BC91
:105240007047146A156A0E69886825F001051562B1
:10525000936924F00A0123F0F00343EA06130143A3
:10526000936170BC11627047704700BF704700BF08
:105270000222036810B580F83920196A41F2111230
:105280001142044608D1196A40F24442114203D146
:105290001A6822F001021A602046FBF7DFFB0020AB
:1052A00084F8390084F8380010BD00BF016802227C
:1052B00010B480F839200A680124034622430A60AA
:1052C000002083F839405DF8044B704702220368E0
:1052D00080F83920196A41F21112114208D1196A75
:1052E00040F24442114203D11A6822F001021A60CE
:1052F000012380F839300020704700BF0368DA6866
:1053000042F00102DA601A6842F001021A600020DD
:10531000704700BF0368DA6822F00102DA60196A98
:1053200041F21112114208D1196A40F2444211426D
:1053300003D11A6822F001021A600020704700BFF2
:1053400070B590F83940E4B2022C21D090F8394081
:10535000E4B2012C15D004461346C06922680D4EF4
:105360000D4DC663C5642C32FFF72EFC2368DA6846
:1053700042F48072DA601A6842F001021A6000207A
:1053800070BD19B1022380F83930E4E7002AF9D062
:10539000204670BD39660008596800080368DA685D
:1053A00022F48072DA601A6A41F211110A4208D1BD
:1053B000196A40F24442114203D11A6822F00102F4
:1053C0001A60012380F8393000207047704700BF11
:1053D000704700BF0222036810B580F83920196AAF
:1053E00041F211121142044608D1196A40F24442B6
:1053F000114203D11A6822F001021A602046FFF719
:10540000E7FF002084F8390084F8380010BD00BFA1
:10541000036801201A6A00FA01F110B422EA0102BD
:10542000134C1A621A6A1A62A34211D0196A41F225
:105430001112114208D1196A40F24442114203D1BB
:105440001A6822F001021A6000205DF8044B7047D0
:10545000196A41F211121142E8D1196A40F244422C
:105460001142E3D15A6C22F400425A64DEE700BFD5
:1054700000000140704700BF704700BF0222036870
:1054800010B580F83920196A41F211121142044610
:1054900008D1196A40F24442114203D11A6822F03D
:1054A00001021A602046FFF7E7FF002084F8390068
:1054B00084F8380010BD00BF03680122186A02FAA0
:1054C00001F120EA010010B418621A6A084C114375
:1054D000A342196207D01A685DF8044B42F001023A
:1054E00000201A6070475A6C42F400425A64F2E796
:1054F00000000140FFF7E0BF036830B41A6A174D9F
:10550000012404FA01F122EA01021A621A6A1A62FB
:10551000AB4213D0196A41F21112114208D1196A33
:1055200040F24442114203D11A6822F001021A608B
:10553000012380F8393030BC00207047196A41F2ED
:1055400011121142E6D1196A40F244421142E1D1EE
:105550005A6C22F400425A64DCE700BF00000140AC
:1055600010B40C2935D8DFE801F0283434342E3457
:1055700034342234343407000368DA6842F010020D
:10558000DA60186A164C012202FA01F120EA0100E1
:1055900018621A6AA34241EA020119621BD01A6812
:1055A0005DF8044B42F0010200201A607047036866
:1055B000DA6842F00802DA60E3E70368DA6842F08A
:1055C0000202DA60DDE70368DA6842F00402DA60BA
:1055D000D7E70368D5E75A6C42F400425A64DEE725
:1055E00000000140FFF7BCBF10B40C293DD8DFE834
:1055F00001F0363C3C3C303C3C3C2A3C3C3C070007
:105600000368DA6822F01002DA601A6A1F4C01207F
:1056100000FA01F122EA010119621A6A1A62A34230
:1056200025D0196A41F21112114208D1196A40F2CB
:105630004442114203D11A6822F001021A6000208C
:105640005DF8044B70470368DA6822F00802DA60FC
:10565000DBE70368DA6822F00402DA60D5E7036862
:10566000DA6822F00202DA60CFE70368CDE7196A50
:1056700041F211121142D4D1196A40F2444211424E
:10568000CFD15A6C22F400425A64CAE700000140AC
:10569000FFF7AABFF8B590F83940E4B2022C15D054
:1056A00090F83940E4B2012C0CD00D4604460C2D84
:1056B00065D8DFE805F00D646464426464643164B5
:1056C00064645300002A5CD1002B5AD02046F8BDF8
:1056D0002668006A2F49304FC163C764114606F13E
:1056E0003402FFF771FA2368DA6842F40072DA6074
:1056F000186A2A4C012202FA05F120EA0100186218
:105700001A6AA34241EA020119623ED01A6842F0C5
:1057100001021A600020F8BD2668806A1D491E4FEC
:10572000C163C764114606F13C02FFF74DFA2368D6
:10573000DA6842F40062DA60DAE72668406A1549FE
:10574000154FC163C764114606F13802FFF73CFAF2
:105750002368DA6842F48062DA60C9E72668C06AC2
:105760000C490D4FC163C764114606F14002FFF7B3
:105770002BFA2368DA6842F48052DA60B8E70368EB
:10578000B6E7022480F839408FE75A6C42F40042B1
:105790005A64BBE7A1660008596800080000014090
:1057A000FFF778BF30B40C293FD8DFE801F0383E6E
:1057B0003E3E323E3E3E2C3E3E3E07000368DA68E7
:1057C00022F48052DA601A6A204D012404FA01F1B1
:1057D00022EA010119621A6A1A62AB4227D0196AD9
:1057E00041F21112114208D1196A40F244421142A9
:1057F00003D11A6822F001021A60012380F83930BF
:1058000030BC002070470368DA6822F40062DA6076
:10581000D9E70368DA6822F48062DA60D3E70368C4
:10582000DA6822F40072DA60CDE70368CBE7196A20
:1058300041F211121142D2D1196A40F2444211428E
:10584000CDD15A6C22F400425A64C8E700000140EE
:10585000FFF7A8BF704700BF704700BF0222036870
:1058600010B580F83920196A41F21112114204462C
:1058700008D1196A40F24442114203D11A6822F059
:1058800001021A602046FFF7E7FF002084F8390084
:1058900084F8380010BD00BF03680122186A02FABC
:1058A00001F120EA010018621A6A114319621A68AC
:1058B00042F001021A600020704700BF0368012017
:1058C0001A6A00FA01F122EA01021A621A6A1A62DD
:1058D000196A41F21112114208D1196A40F2444288
:1058E000114203D11A6822F001021A6000207047A9
:1058F0000C292FD8DFE801F0282E2E2E222E2E2E56
:105900001C2E2E2E07000368DA6842F01002DA60BF
:10591000186A012202FA01F120EA010018621A6AEB
:10592000114319621A6842F001021A6000207047A0
:105930000368DA6842F00802DA60E9E70368DA68C7
:1059400042F00402DA60E3E70368DA6842F0020238
:10595000DA60DDE70368DBE70C2938D8DFE801F01F
:10596000313737372B373737253737370700036855
:10597000DA6822F01002DA601A6A012000FA01F1F6
:1059800022EA010119621A6A1A62196A41F21112B5
:10599000114208D1196A40F24442114203D11A68F7
:1059A00022F001021A60002070470368DA6822F0D2
:1059B0000802DA60E0E70368DA6822F00402DA60DD
:1059C000DAE70368DA6822F00202DA60D4E70368F3
:1059D000D2E700BFF8B590F83940E4B2022C12D0FB
:1059E00090F83940E4B2012C0FD00D4604460C2D3E
:1059F0005CD8DFE805F0105B5B5B2E5B5B5B3D5BBF
:105A00005B5B4C001BB12046F8BD002AFAD0022493
:105A100080F83940E9E72168006A254F254EC763C1
:105A2000C6643431FFF7D0F82068C36843F40073CC
:105A3000C360026A012303FA05F122EA010202624D
:105A4000036A19430162036843F001030360002005
:105A5000F8BD2168406A164F164EC763C6643831D8
:105A6000FFF7B2F82068C36843F48063C360E0E7DF
:105A70002168806A0E4F0F4EC763C6643C31FFF742
:105A8000A3F82068C36843F40063C360D1E72168CA
:105A9000C06A074F074EC763C6644031FFF794F8EA
:105AA0002068C36843F48053C360C2E70068C0E75E
:105AB000516600085968000810B40C293DD8DFE889
:105AC00001F0363C3C3C303C3C3C2A3C3C3C070032
:105AD0000368DA6822F48052DA601A6A012404FA50
:105AE00001F122EA010119621A6A1A62196A41F285
:105AF0001112114208D1196A40F24442114203D1F5
