:020000040800F2
:10000000008001209D840008F1840008F18400082C
:10001000F1840008F1840008F18400080000000069
:10002000000000000000000000000000F184000853
:10003000F184000800000000F1840008111000089D
:10004000F1840008F1840008F1840008F1840008BC
:10005000F1840008F1840008F1840008F1840008AC
:10006000F1840008F1840008F1840008F18400089C
:10007000F1840008F1840008F1840008F18400088C
:10008000F1840008F1840008F184000800000000F9
:10009000000000000000000000000000F1840008E3
:1000A000F184000845100008F1840008F18400087C
:1000B000F1840008F1840008F1840008F18400084C
:1000C000F1840008F1840008F1840008F18400083C
:1000D000F1840008F18400085110000800000000BD
:1000E000F1840008F1840008F18400080000000099
:1000F000000000000000000000000000F184000883
:1001000000000000F1840008F1840008F184000878
:1001100000000000000000000000000000000000DF
:10012000F1840008211000082D100008F184000857
:10013000F184000800000000000000000000000042
:10014000000000000000000000000000F184000832
:1001500039100008F1840008F1840008F1840008D7
:10016000F1840008F1840008000000000000000095
:10017000000000000000000000000000000000007F
:1001800000000000F18400080000000000000000F2
:04019000F1840008EE
:1001C000134B002B08BF114B9D46A3F5803A00212D
:1001D0008B460F461148124A121A08F0F5F90D4BDA
:1001E000002B00D098470C4B002B00D098470020E4
:1001F000002104000D000B4808F086F908F0BCF956
:100200002000290008F0F8F808F092F90000080032
:1002100000000000000000000000000000100020AE
:10022000281C0020518500080A4A08B5136873B1DC
:1002300018446946884202D81060184608BD08F084
:1002400071F90C2303604FF0FF33184608BD024BD1
:100250001360EDE700100020281C002011B10023DE
:100260000B604B6000207047704700BF0120704753
:1002700008B508F057F9162303604FF0FF3008BDAA
:1002800008B508F04FF916230360FEE770B5161E97
:1002900007DD0C468D1914F8010BAFF30080A54261
:1002A000F9D1304670BD00BF4FF0FF30704700BF3E
:1002B0004FF400534B600020704700BF012070478F
:1002C0000020704770B5161E07DD0C468D19AFF380
:1002D000008004F8010BA542F9D1304670BD00BF83
:1002E0000EB44FF0FF3003B0704700BF08B508F000
:1002F00019F90A2303604FF0FF3008BD08B508F074
:1003000011F9022303604FF0FF3008BD4FF0FF30BA
:10031000704700BF4FF400534B600020704700BF90
:1003200008B508F0FFF81F2303604FF0FF3008BD49
:1003300008B508F0F7F80B2303604FF0FF3008BD55
:1003400008B508F0EFF80C2303604FF0FF3008BD4C
:10035000C3B207EE103AB8EEC77ADFED306A27EE87
:10036000006AC0F30723B4EEE66AF1EE10FA84B037
:1003700007EE903AC0F307404ADC9FED296A60EE31
:10038000066A26EE877AC7EE066ABCEEE67A8DED3F
:10039000007A9DF800109FED217AF8EEE77A60EE82
:1003A000276AF4EEC76AF1EE10FA33DCDFED1C6A5F
:1003B00020EE267A67EE277A87EEA67AFCEEC77AD9
:1003C000CDED007A9DF800209FED147A07EE900A9B
:1003D000F8EEE77A60EE276AF4EEC76AF1EE10FAFB
:1003E0001ADC9FED0F7A20EE070A20EE270AC0EEF6
:1003F000077AFCEEE77ACDED007A9DF80030002018
:1004000061F3070062F30F2063F3174004B07047F5
:10041000FF21C0E7FF22D7E7FF23F0E700007F437B
:100420000000C84230B4C2B201FB02F2B2F5C84FBC
:10043000C0F3072384B0C0F3074028DA1C4DD4175B
:1004400001FB03F385FB0252C4EB6212B3F5C84F04
:10045000D2B223DA164DDC1701FB00F185FB035302
:10046000C4EB6313B1F5C84FDBB21EDA1048CC17EA
:1004700080FB0101C4EB6111C9B2002062F30700E7
:1004800063F30F2061F3174004B030BC704701FBE9
:1004900003F3B3F5C84F4FF0FF02DBDB01FB00F1C4
:1004A000B1F5C84F4FF0FF03E0DBFF21E5E700BFE8
:1004B0001F85EB512DE9F04102EB42020124D200ED
:1004C0008C4002F1080702F11006E4430744064499
:1004D000C3F3072C10445FFA83FEE2B282B0C1F18D
:1004E0000701C3F3074300240578154005703D78E4
:1004F00015403D703578154035700CFA04F590F8CC
:10050000008005F080050D4145EA080500F8015B13
:100510000EFA04F597F8008005F080050D4145EAD4
:10052000080507F8015B03FA04F596F8008005F06A
:1005300080050D41013445EA0805082C06F8015BE9
:10054000D2D102B0BDE8F081F0B502EB4202002743
:1005500000EBC20083B03D463A463B4610F801EB43
:10056000C679C47B4EFA01FE0E410C410EF0010E1D
:1005700006F0010604F001040EFA07FEBE40BC407E
:1005800001374EEA020235432343082FD2B2EDB2BF
:10059000DBB2E3D1002065F3070062F30F2063F3C1
:1005A000174003B0F0BD00BFF0B502EB420287B0C8
:1005B00000EBC200421E0DF1FF330DF1170412F8DB
:1005C000010F03F8010F9C42F9D101F1010E002641
:1005D000002319461F460DF10705072415F807CC1F
:1005E00015F8010F2A7A4CFA06FC304132410CF022
:1005F000010C00F0010002F00102A2400CFA04FC20
:10060000A040013C13434CEA07070143621CFFB2C0
:10061000C9B2DBB2E2D10136082E8EF800700EF8B6
:10062000011C8EF801300EF1030ED1D107B0F0BDE0
:100630002DE9F04F87B000231F46013100939E46FD
:100640000193029303930493059391F8009011F89A
:10065000018C91F801C06B46072400E01F7893F8E5
:1006600008A049FA04FB0BF0010B4CFA04F50BFA55
:100670000EFB48FA04F64BEA070B05F001051F7C58
:1006800083F800B006F0010605FA0EF53D4306FAC0
:100690000EF6013C1D7446EA0A06651C1E7203F143
:1006A0000103DBD10EF1010EBEF1080F01F10301D0
:1006B00002D09DF80070C8E702EB420200EBC202D4
:1006C000013A0DF1FF330DF1170013F8011F02F885
:1006D000011F9842F9D107B0BDE8F08F70B586B020
:1006E0000C46054669461646FFF75EFF3246214630
:1006F0002846FFF79DFF00230DEB0302E118108849
:10070000E052033392788A70182BF5D106B070BD91
:10071000174B184A1B68184818490068096810B434
:1007200014681A6822F001021A60226822F001029D
:10073000226002685DF8044B22F0010202600A6840
:1007400022F001020A60DA6822F48072DA60DA6864
:1007500022F40072DA60DA6822F48062DA60DA6821
:1007600042F00102DA601A6842F001021A60704732
:1007700048110020E810002088100020841100207B
:1007800000F056BB70B5064686B002230025012452
:100790004FF4407201A90A4802930192039504950F
:1007A000059404F039F922462946306803F054FADA
:1007B00022463068042103F04FFA06B070BD00BF36
:1007C0000000024070B5374C374B236092B00023D5
:1007D0007C222046E2606360A360236102F03CFF5C
:1007E000002844D112A94FF4805341F8403D2D48D0
:1007F00002F078FC00284CD12A4802F065FF00285E
:1008000044D1002306A927480693079302F032FD3E
:10081000002838D10023694622480093019306F04E
:1008200085FD68BB0023602628251A460BA91D48B4
:100830000D930F93109311930B960C9503F024F9DD
:10084000D8B950230BA9042216480C9303F01CF9C5
:1008500080B902220021192004F098FA192004F02E
:10086000CDFA2268104B9A4216D012B070BD00F03B
:10087000DFFAB7E700F0DCFAEBE700F0D9FAE0E7DF
:1008800000F0D6FACEE700F0D3FAC3E700F0D0FAD2
:10089000B7E700F0CDFAAFE70248FFF773FF12B0F9
:1008A00070BD00BF48110020000001400368134ADA
:1008B000934200D07047124A1178262907D813783E
:1008C0000133DBB213700F4B01221A707047002105
:1008D0001170196A41F211120A4042B9196A40F2C4
:1008E00044420A401AB91A6822F001021A60034A07
:1008F000D36823F00103D360E5E700BF00000140A7
:1009000004100020140700204F4B02689A4200D0C8
:100910007047F0B583B000234C4A0193516C4C4DA5
:10092000DFF844C1EB6041F001015164526C2B616E
:1009300002F001020446019240204FF0406E4FF455
:1009400080474FF40036019A6B61EB612B63042101
:1009500003224FF40003A8602846C5F800C0C5F87C
:1009600004E0AF612E626962AA62EB6204F038FBB8
:10097000002865D1374EE5614FF0406140224FF4C9
:1009800080604FF48043DFF8E4E0AC634FF400375D
:1009900004257160B26003214FF400023061B3613D
:1009A00030460023C6F800E037627562B162F26239
:1009B000F3607361F361336304F012FB00283CD1F0
:1009C000254D264A26624FF040604023B4634FF421
:1009D00080474FF4003603212A6068604FF400021C
:1009E000AB6028460023AF612E62A962EA62EB6029
:1009F0002B616B61EB616B622B6304F0F1FAC8B998
:100A00002A68656213681448AC6343F010031360EE
:100A10000021134A04F0DAFD48B9124A0E480421B5
:100A200004F0D4FD08B100F003FA03B0F0BD00F00B
:100A3000FFF9F2E700F0FCF9E2E700F0F9F9BFE7AF
:100A400000F0F6F996E700BF0000014000380240D0
:100A50008810002084110020E8100020406402402B
:100A600011070008810700088864024028640240DA
:100A7000024B02689A4200D0704783E600000140B2
:100A80000B4B02689A4200D070470A4A10B5136CAB
:100A9000044623F00103006A136404F037FBE069A5
:100AA00004F034FB606ABDE8104004F02FBB00BFC7
:100AB000000001400038024008B5072004F054F956
:100AC000002211466FF00B0004F060F9002211467D
:100AD0006FF00A0004F05AF9002211466FF0090085
:100AE00004F054F9002211466FF0040004F04EF9AE
:100AF000002211466FF0030004F048F9002211466D
:100B00006FF0010004F042F9002211464FF0FF306F
:100B1000BDE8084004F03AB92DE9F0478AB03A4BF5
:100B20003A4E3B4D3B4F002401941A6B42F00402B5
:100B30001A631A6B02F004020192019A02941A6B72
:100B400042F080021A631A6B02F080020292029A4B
:100B500003941A6B42F001021A631A6B02F001024D
:100B60000392039A04941A6B42F002021A631B6BFD
:100B7000069703F002030493304605A94FF400538F
:100B8000049A05934FF002094FF0FF0A079403F00F
:100B900043FF05A93046112306930794CDF814A00E
:100BA000CDF8209003F038FF07230C2205A9284632
:100BB0000993059220274FF00108CDF8189007946B
:100BC000089403F029FF05A92846CDF82090059741
:100BD000CDF81880CDF81C8003F01EFF4246394640
:100BE000284604F095F8642000F06EFF224639464E
:100BF000284604F08DF822465146304604F088F825
:100C00000AB0BDE8F08700BF00380240000802408B
:100C10000000024000001210034A044B0449116016
:100C20004FF4E0221A6070478817002024ED00E09E
:100C300000080240F8B52DED028B0C46B0EE408A5C
:100C4000154606F031FD02460B460020244906F009
:100C5000BBFE064628460F4606F026FD02460B461A
:100C60003046394606F086FD1E4A84FB02230646BE
:100C7000E018E317C3EB20234FF4B47000FB1340DC
:100C80000F4606F011FD02460B463046394606F087
:100C9000BDFB06F081FF9FED147A07EE900AF4EE9B
:100CA000C77AF1EE10FA0CDA9FED107A87EE870A18
:100CB000F7EE007A37EEC00A20EE080ABDEC028B90
:100CC000F8BD77EEC77ADFED096A87EEA67AB7EE50
:100CD000000A37EE400A20EE080ABDEC028BF8BD90
:100CE00000807640B7600BB6000034430000B44289
:100CF0001D4A1E4B2DE9F0418C0082FB0421E217B6
:100D0000C2EBA1124FF4167101FB124101EB41013C
:100D10000B4482B01A88164F9B78DFF85880ADF8E4
:100D2000042005468DF806300024D8F800100198FC
:100D3000FFF778FB04EB4406BB190134C0F307212D
:100D4000C0F30742082CB85559709A70EDD10024B1
:100D50002246074901342846FFF7C0FC3C2CF7D156
:100D600002B0BDE8F08100BFB5814E1B000000203D
:100D7000081000200807002008B50A4B5B682BB953
:100D800009490A48BDE8084007F07CBC084B0949FE
:100D90009A69084607F0F4FC06490448BDE8084093
:100DA00007F070BC080700205C100108D40E010891
:100DB00008100020C80E010870B5202186B0064634
:100DC00007F004FD0D210546304607F0FFFCD8B1C1
:100DD000044685B1AA1B314602A807F05BFD621BE1
:100DE000013A691C684607F055FD9DF80830622BF2
:100DF00015D0722B01D006B070BD684607F08AFB93
:100E00000A4B986006B070BD0A21304607F0DEFC40
:100E10000446002DEFD00028DCD106B070BD684636
:100E200007F078FB014B1860E5E700BF08070020DA
:100E300008B52021034803F06FFF642000F044FE52
:100E4000F7E700BF00000240F8B51E4C237B0646C2
:100E50000D462BB9012000F037FE237B002BF9D083
:100E600000272B46184A19491948277304F0B6F988
:100E700028BB31462B46144A164804F0AFF9F0B9A6
:100E80002B46114A1449154804F0A8F9B8B9144B77
:100E90001B68DA6842F48072DA60DA6842F4007241
:100EA000DA60DA68A0F5803042F480627C21DA6092
:100EB000186159621A6842F001021A60F8BDFFF722
:100EC000B7FF00BF080700201408024018070020E1
:100ED000881000208411002024100020E810002039
:100EE000481100202DE9F041174D184FAB697E697C
:100EF0005C1CAC612BB3DFF85C8011E0062B1DD0CD
:100F000021463046FFF7F4FE4FF4B4613046FFF758
:100F10009BFFB86800F0D8FDAB695C1CAC6183B185
:100F200084FB0823E218E317C3EB2213C3EB03137C
:100F3000B4EB43034FF020010548DFD103F0ECFE92
:100F4000DEE7BDE8F08100BF0810002008070020A0
:100F50000000024089888888F0B595B00022284BAF
:100F60000192186C274940F0805018641B6C03F004
:100F700080530193019B02920B6823F4404343F496
:100F800000430B600B680F9203F44043029302246A
:100F9000102301264FF4A8710425072208A8029FF8
:100FA00008940E940B960C93109311911295139232
:100FB00004F086FF08BB034621464FF480520F26FB
:100FC00003A80494059307930396069205F0A0F9ED
:100FD000044690B905F052FA0B4BA3FB0030800990
:100FE00003F038FF284603F0E9FF224621464FF080
:100FF000FF3003F0CBFE15B0F0BDFFF719FF00BFC7
:101000000038024000700040D34D6210FFF76ABF05
:1010100008B500F04BFDBDE8084003F0DDBF00BFA0
:10102000014804F0FFB900BF84110020014804F01A
:10103000F9B900BFE8100020014804F0F3B900BF7F
:1010400088100020014802F0E3B900BF48110020D9
:10105000014803F08BBB00BFC01A002000B583B06D
:10106000134B002201921A6B42F480021A631B6B2D
:10107000012203F48003114601933920019B03F000
:1010800085FE392003F0BAFE01221146442003F008
:101090007DFE442003F0B2FE012211463A2003F007
:1010A00075FE3A2003F0AAFE03B05DF804FB00BF12
:1010B00000380240F8B5224C224E234F0025012370
:1010C00029464FF4887204F108006380258065602A
:1010D00007F07AFA1D49B4F81E2151F8040B94F870
:1010E0002731B1F800E03F6884F821510A2161F30B
:1010F0000E02110A65F3C711A4F81E2143F0010383
:1011000084F81F1184F8245184F8255184F826515D
:1011100084F82B51C4F8180102250D483188B278A3
:10112000A4F822E184F820514FF0320E84F82731E0
:10113000A4F8281184F82A21A4F81CE10760F8BD5E
:1011400090170020940E01081C070020980E01083B
:101150008417002030B462B90A46032491F82C3178
:10116000047063F07F038570426081F82C3130BCDD
:101170007047042A23D0B2F5047F15D341F20C0343
:101180009A4227D8B2F5805F4BD041F20404A242C4
:1011900043D041F20804A24247D09A4230D1002500
:1011A0002C4601F22112D9E7A2F58074FF2C09D850
:1011B000A3070AD101F108031A190224CEE70A1D78
:1011C0000224CBE7B4F5887F1AD2A2F584720A44D0
:1011D0000024C3E742F20C039A4211D8B2F5005F33
:1011E00027D042F20404A24227D042F20804A242CD
:1011F00027D09A4204D100252C4601F22B12ADE7EC
:1012000091F82C310025092443F001030470857006
:10121000456081F82C3130BC704701F58E72052491
:101220009CE701F58C72042498E701F59072002484
:1012300094E701F59172062490E701F59272072474
:101240008CE701F594720225082487E7F0B583B096
:1012500002AB03E906009DF802303BB99DF800306F
:10126000002B0CBF0220002003B0F0BD022B02D0E7
:10127000002003B0F0BD90F8275190F8262190F897
:10128000251190F8244190F8193190F81A7190F8CE
:101290002261ED070DD50132D2B293423AD0B94264
:1012A00044D0B4423AD080F8262180F8251180F845
:1012B00024419A4229D390F82B3143F0040380F85B
:1012C0002B310023B9420ED390F82B31B44243F0B6
:1012D000020380F82B3103D343F0010380F82B3154
:1012E000012003B0F0BDB44211D2002BF8D0114B55
:1012F0001868FFF729F9019BC0F30721C0F30742E3
:10130000187059709A700020AEE70123DAE790F860
:101310002B31E1E70131C9B20022C0E790F82B413F
:1013200064F07F0480F82B410024BCE70134E4B270
:101330000021B6E7841700202DE9F04782B002AB08
:1013400003E906009DF801301BB9032002B0BDE897
:10135000F0879DF80230022B03D0002002B0BDE8D8
:10136000F08790F8265190F819A190F8256190F82F
:10137000247190F81A9190F82281554510D20123DA
:101380004E4515D390F82B31474543F0020380F8C2
:101390002B3103D343F0010380F82B310120D5E733
:1013A00090F82B3143F0040380F82B310023E7E75A
:1013B000474523D2002BF1D001990A784B788978E0
:1013C0000446184842EA032343EA014300682A46D8
:1013D0003146FFF76FF894F82731DB07BDD50135AB
:1013E000EDB2AA4519D04E4513D0474509D084F82F
:1013F000265184F8256184F82471AEE790F82B31EA
:10140000C8E794F82B3163F07F0384F82B31002771
:10141000EDE70137FFB20026E7E70136F6B2002517
:10142000E1E700BF8417002030B583B004460A46C8
:1014300068460949FFF78EFE9DE806000648019DB3
:10144000FFF704FF022804BF00232B702071002344
:101450002046236003B030BD9017002030B583B024
:1014600002460D4668461349FFF774FE9DF80130A9
:101470006C4693B19DF80030019A082B18D8DFE82C
:1014800003F015130B0B0B0B130B0500136825F062
:101490007F4503F07F431D43156094E8060005482F
:1014A000FFF74AFF03B030BD1580F6E71570F4E78B
:1014B0000120F7E79017002070B50E4E3368726870
:1014C0009A1A14D00C4B1B688BB9002A08DD0B4B01
:1014D0000B49D51813F8014B01F8014B9D42F9D186
:1014E00092B2074902F01AFF10B97368336070BDF9
:1014F00070BD00BF2407002028100020001B002022
:10150000C0190020F8B50D4D17462B680B48002B6D
:10151000FBD10123002F036009DD0948CE190368C0
:101520005C1C046011F8014B1C70B142F7D1002320
:1015300004482B60FFF7C0FF3846F8BD2810002094
:1015400024070020C01A002038B5124D044614F8B4
:10155000013B5BB123780A2B13D00D2B0E4806D12B
:1015600007F090F814F8013B002BF3D138BD2A683E
:101570000A481A4419465278920606D507F082F8AE
:10158000E5E7074807F07EF8E1E7184607F092F82C
:10159000DDE700BF3C070020E00E0108E40E010873
:1015A000DC0E010838B51B4B9A68DC6812F8011C88
:1015B0000A29A2EB040016D00D2914D0FF2800DC64
:1015C00038BD154D9C601548002385F8FF3007F0A5
:1015D00059F82846FFF7B8FF114807F0A7F8BDE80B
:1015E0003840FFF7C9BB00211170DA689A60012802
:1015F000F5DD0C4807F046F80748FFF7A5FF084857
:1016000007F094F80448FFF7D7FBBDE83840FFF730
:10161000B3BB00BF24070020C0180020080F01083A
:10162000040F0108EC0E01080D4B1B6810B50446B1
:1016300083B90C4A0C4993680979581C9060197059
:10164000FFF7B0FF01220949204602F089FE022877
:10165000F8D010BD012205490020FFF753FFE8E74D
:101660002007002024070020281000202C10002034
:1016700010B5114C114B23604FF4165100230C226E
:10168000204661606261A360E3602361A361E3615E
:1016900002F08EFC08B1FFF7CBFB2268D36843F061
:1016A0006003D36026200022022103F06FFB262076
:1016B000BDE8104003F0A2BBC01A00200044004067
:1016C0000268104B9A4200D0704770B586B0002374
:1016D0000D4A0093116C0D4841F400311164126CF5
:1016E000039302F4003200920C250722022401A980
:1016F000009E049301950294059203F08DF906B0C3
:1017000070BD00BF004400400038024000000240AD
:101710001049114BD1F8882042F4700210B4C1F87E
:1017200088201A680D4C002042F001021A6098606F
:101730001A6822F0847222F480321A605C601A689F
:101740004FF0006422F480221A60D8608C605DF84B
:10175000044B704700ED00E00038024010300024D8
:101760001848836803F00C03042B29D0082B0AD0F7
:10177000154B144A154892681549C2F30312825C4E
:10178000D3400B6070474368416813F4800F43688F
:1017900018BF104801F03F020CBF0B49B0FBF2F13B
:1017A000C3F3881308BFB1FBF2F101FB03F2054B51
:1017B0005B68C3F3014301335B00B2FBF3F3D8E78B
:1017C000044BD6E7003802400024F400A00E0108C4
:1017D0003407002040787D014C12010800000020F1
:1017E000FC0F002000100020281C0020134B144880
:1017F0001A68002142F0810230B41A6099601A68B8
:10180000104C114D22F0A16222F480321A6059600E
:101810005A6810435860C3F88410D3F8842042F00B
:10182000005242F44052C3F884201A6822F4802205
:101830001A60D960256030BC704700BF0038024094
:1018400010300004340700200024F400F0B50546F1
:101850000068C20783B00AD4840750D410F008008F
:1018600003D04F4B2A7C1A60002003B0F0BD4D4BD3
:101870004D4C00221A6000F021F9064604E000F009
:101880001DF9801B022837D82368474A1B01F6D46C
:1018900047F6C07191FAA1F14FF0E040B1FA81F141
:1018A00090FAA0F06C68AB683E4EB0FA80F004FA93
:1018B00001F183400B430121C2F8843031601446AA
:1018C00000F0FCF8064604E000F0F8F8801B02285F
:1018D00012D823681F01F7D52868BDE70C4600F031
:1018E000EDF841F288360746236F9B073AD400F0A3
:1018F000E5F8C01BB042F7D9032003B0F0BD2A4B76
:101900002A4C002201921A6C42F080521A641B6C1D
:1019100003F080530193019B236843F48073236099
:1019200000F0CCF8064604E000F0C8F8801B02285E
:10193000E2D82368D905F7D51B490B6F13F4407221
:10194000EB6803F4407010D082420ED00B6F184A3F
:1019500023F4407301240020146010600B670B6FA8
:10196000DA07BBD4EB6803F44070B0F5407F0CD0CD
:101970000D498A6822F4F8128A600B490A6FC3F392
:101980000B0313430B67286868E70748816823F057
:10199000704221F4F81122F440720A438260ECE7AD
:1019A000E0114742680047420038024000700040A2
:1019B000400E47420322174B026010B447F6C07135
:1019C000D3F8844091FAA1F147F6C072B1FA81F1DF
:1019D0002240CA404260D3F884204FF0E04191FA9F
:1019E000A1F1B1FA81F102F0E042CA408260996847
:1019F0001A6F5DF8044B01F4F81102F440720A43C7
:101A0000C260D3F88C3013F0807318BF01230374C5
:101A1000704700BF00380240704700BF704700BFEA
:101A200010B5094B4FF0FF3200241A621C625A6253
:101A30005C621A611C615A615C619A619C61FFF78A
:101A4000EDFF204610BD00BF00380240084B094A98
:101A50001B6810B5A2FB03230446980903F0FAF9AA
:101A6000214600224FF0FF3003F090F9002010BD16
:101A700034070020D34D621008B50B4B1A6842F4AE
:101A800000721A601A6842F480621A601A6842F49E
:101A900080721A60032003F067F90020FFF7D6FF79
:101AA000FFF70AF8002008BD003C0240024A136814
:101AB00001331360704700BF001C0020014B186801
:101AC000704700BF001C002010B582B00190FFF7E6
:101AD000F5FF0446FFF7F2FF019B001B9842F9D384
:101AE00002B010BD024A136823F00203136070476E
:101AF00010E000E0024A136843F0020313607047ED
:101B000010E000E00048704700000501014B186834
:101B1000000C7047002004E0024B1868C0F30B0073
:101B2000704700BF002004E0024A536843F00103FD
:101B300053607047002004E0024A536823F0010319
:101B400053607047002004E0024A536843F00203E8
:101B500053607047002004E0024A536823F00203F8
:101B600053607047002004E0024A536843F00403C6
:101B700053607047002004E0024A536823F00403D6
:101B800053607047002004E0012191FAA1F2034B59
:101B9000B2FA82F213449B001960704700C18910A9
:101BA000012292FAA2F2044BB2FA82F213449B0091
:101BB00000221A60704700BF00C18910044B1A6AE6
:101BC00042F080521A621A6A22F080521A627047FA
:101BD000003802404FF4807393FAA3F3B3FA83F30F
:101BE00003F1845303F560339B0001221A607047B0
:101BF0004FF4807393FAA3F3B3FA83F303F184539E
:101C000003F560339B0000221A60704710B41B4C30
:101C10001B4B226822F0E00102680A4322605A68E6
:101C200022F480325A601A6822F480321A609A686C
:101C300022F480329A60DA6822F48032DA604268F4
:101C4000D40303D5196841F480311960900304D599
:101C50000B494B6843F480334B60D10704D50849E6
:101C60008B6843F480338B60930704D5044AD368B0
:101C700043F48033D3605DF8044B7047007000403C
:101C8000003C0140102393FAA3F3B3FA83F303F16A
:101C9000845303F560339B0001221A60704700BF34
:101CA000102393FAA3F3B3FA83F303F1845303F5F8
:101CB00060339B0000221A60704700BF024A5368DD
:101CC00018435060704700BF00700040024A5368DC
:101CD00023EA00005060704700700040064A136914
:101CE000012923F00403136103D040BF20BF20BFAC
:101CF000704730BF704700BF00ED00E010B40D4CDE
:101D00000D4A236823F00303184320601369012957
:101D100043F0040313610AD040BF20BF20BF064A2E
:101D20005DF8044B136923F004031361704730BF5F
:101D3000F5E700BF0070004000ED00E00549064AED
:101D40000B6843F002030B60136943F00403136153
:101D500030BF70470070004000ED00E0704700BFEA
:101D600010B5054C6369DB0304D5FFF7F7FF4FF4AB
:101D70008033636110BD00BF003C0140024A13691B
:101D800043F002031361704700ED00E0024A13695B
:101D900023F002031361704700ED00E0024A13696B
:101DA00043F010031361704700ED00E0024A13692D
:101DB00023F010031361704700ED00E0036A8A68A6
:101DC00023F00103F0B40C680362036A104E476805
:101DD000856923F0020325F07305B04243EA02034C
:101DE00045EA040206D0496847608261F0BC41635D
:101DF00003627047CD684E698C6923F0080327F4AD
:101E000040772B43344323F004032743EBE700BF21
:101E100000000140026A22F48072F0B48E680C68FF
:101E20000262036A114D4768C26923F4007322F00D
:101E30007302A84243EA062342EA040206D0496834
:101E40004760C261F0BCC16303627047CE684D69F0
:101E50008C6927F4405723F4006343EA062347EADA
:101E6000051523F4806345EA0417E8E70000014004
:101E7000F0B4046A8F680E680E4D24F48054046236
:101E8000036A4468C26923F4005322F4E642A8427C
:101E900043EA073342EA062206D049684460C26139
:101EA000F0BC0164036270474D6924F4804444EA45
:101EB0008514F2E70000014002684868936823F047
:101EC000700330B403430C6823F007032343502806
:101ED000936036D024D960280ED070280AD1CB6800
:101EE0008C6890680D69234320F47F410B4343EADB
:101EF0000523936030BC7047106A8C680D6920F030
:101F0000100010629169136A21F4704123F0A0035C
:101F100041EA053143EA0413916130BC1362704712
:101F20004028E7D1146A106A0D6920F0010111629E
:101F3000936923F0F00343EA05139361146230BC04
:101F40007047136A106A8D680C6920F001001062F6
:101F5000916923F00A0321F0F0012B4341EA0411B7
:101F6000916130BC13627047704700BF704700BF7B
:101F70000223026810B580F83930116A41F211135A
:101F80000B40044643B9116A40F244430B401BB96D
:101F9000136823F0010313602046FEF771FD002053
:101FA00084F8390084F8380010BD00BF01680222AF
:101FB00010B480F839200A680124034622430A60DD
:101FC000002083F839405DF8044B70470223026813
:101FD00080F83930116A41F211130B4043B9116A8C
:101FE00040F244430B401BB9136823F00103136014
:101FF000012380F839300020704700BF0368DA6899
:1020000042F00102DA601A6842F001021A60002010
:10201000704700BF0368DA6822F00102DA60196ACB
:1020200041F211120A4042B9196A40F244420A4090
:102030001AB91A6822F001021A600020704700BF26
:1020400070B590F83940E4B2022C21D090F83940B4
:10205000E4B2012C15D004461346C06922680D4E27
:102060000D4DC663C5642C3203F0B8F82368DA68F6
:1020700042F48072DA601A6842F001021A600020AD
:1020800070BD19B1022380F83930E4E7002AF9D095
:10209000204670BD59330008793500080368D968B7
:1020A00021F48071D960196A41F211120A4042B9D3
:1020B000196A40F244420A401AB91A6822F0010231
:1020C0001A60012380F8393000207047704700BF44
:1020D000704700BF0223026810B580F83930116ADA
:1020E00041F211130B40044643B9116A40F24443D4
:1020F0000B401BB9136823F0010313602046FFF760
:10210000E7FF002084F8390084F8380010BD00BFD4
:10211000036801201A6A00FA01F110B422EA0102F0
:10212000144C1A621A6A1A62A34211D0196A41F257
:1021300011120A4042B9196A40F244420A401AB9DF
:102140001A6822F001021A6000205DF8044B704703
:10215000196A41F211120A40002AE7D1196A40F2C5
:1021600044420A40002AE1D15A6C22F400425A64E7
:10217000DCE700BF00000140704700BF704700BFB0
:102180000223026810B580F83930116A41F2111348
:102190000B40044643B9116A40F244430B401BB95B
:1021A000136823F0010313602046FFF7E7FF0020C8
:1021B00084F8390084F8380010BD00BF036801229C
:1021C000186A02FA01F120EA010010B418621A6AD2
:1021D000084C1143A342196207D01A685DF8044BFA
:1021E00042F0010200201A6070475A6C42F400422B
:1021F0005A64F2E700000140FFF7E0BF036830B423
:102200001A6A184D012404FA01F122EA01021A6245
:102210001A6A1A62AB4213D0196A41F211120A40CB
:1022200042B9196A40F244420A401AB91A6822F0C7
:1022300001021A60012380F8393030BC0020704759
:10224000196A41F211120A40002AE5D1196A40F2D6
:1022500044420A40002ADFD15A6C22F400425A64F8
:10226000DAE700BF0000014010B40C2935D8DFE8E0
:1022700001F0283434342E3434342234343407001A
:102280000368DA6842F01002DA60186A164C01221C
:1022900002FA01F120EA01021A621A6AA34241EA33
:1022A000020119621BD01A685DF8044B42F001026A
:1022B00000201A6070470368DA6842F00802DA60AA
:1022C000E3E70368DA6842F00202DA60DDE70368F8
:1022D000DA6842F00402DA60D7E70368D5E75A6C9F
:1022E00042F400425A64DEE700000140FFF7BCBF41
:1022F00010B40C293DD8DFE801F0363C3C3C303CC2
:102300003C3C2A3C3C3C07000368DA6822F010029F
:10231000DA601A6A204C012000FA01F122EA010178
:1023200019621A6A1A62A34225D0196A41F211127F
:102330000A4042B9196A40F244420A401AB91A687E
:1023400022F001021A6000205DF8044B7047036818
:10235000DA6822F00802DA60DBE70368DA6822F064
:102360000402DA60D5E70368DA6822F00202DA6074
:10237000CFE70368CDE7196A41F211120A40002A3B
:10238000D3D1196A40F244420A40002ACDD15A6C96
:1023900022F400425A64C8E700000140FFF7A8BFDA
:1023A000F8B590F83940E4B2022C15D090F83940D5
:1023B000E4B2012C0CD00D4604460C2D65D8DFE8A4
:1023C00005F00D64646442646464316464645300C1
:1023D000002A5CD1002B5AD02046F8BD2668006A3E
:1023E0002F49304FC163C764114606F1340202F031
:1023F000F5FE2368DA6842F40072DA60186A2A4C43
:10240000012202FA05F120EA01021A621A6AA342C5
:1024100041EA020119623ED01A6842F001021A60D4
:102420000020F8BD2668806A1D491E4FC163C7643D
:10243000114606F13C0202F0D1FE2368DA6842F44C
:102440000062DA60DAE72668406A1549154FC16311
:10245000C764114606F1380202F0C0FE2368DA684C
:1024600042F48062DA60C9E72668C06A0C490D4F01
:10247000C163C764114606F1400202F0AFFE236853
:10248000DA6842F48052DA60B8E70368B6E70224FB
:1024900080F839408FE75A6C42F400425A64BBE737
:1024A000C13300087935000800000140FFF778BF0C
:1024B00030B40C293FD8DFE801F0383E3E3E323ED2
:1024C0003E3E2C3E3E3E07000368DA6822F480520E
:1024D000DA601A6A214D012404FA01F122EA0101AD
:1024E00019621A6A1A62AB4227D0196A41F21112B4
:1024F0000A4042B9196A40F244420A401AB91A68BD
:1025000022F001021A60012380F8393030BC00202B
:1025100070470368DA6822F40062DA60D9E703687A
:10252000DA6822F48062DA60D3E70368DA6822F4BA
:102530000072DA60CDE70368CBE7196A41F2111245
:102540000A40002AD1D1196A40F244420A40002AC6
:10255000CBD15A6C22F400425A64C6E70000014015
:10256000FFF7A6BF704700BF704700BF0223026895
:1025700010B580F83930116A41F211130B4004464E
:1025800043B9116A40F244430B401BB9136823F06E
:10259000010313602046FFF7E7FF002084F83900AD
:1025A00084F8380010BD00BF03680122186A02FADF
:1025B00001F120EA010018621A6A114319621A68CF
:1025C00042F001021A600020704700BF036801203A
:1025D0001A6A00FA01F122EA01021A621A6A1A6200
:1025E000196A41F211120A4042B9196A40F2444292
:1025F0000A401AB91A6822F001021A6000207047D6
:102600000C292FD8DFE801F0282E2E2E222E2E2E78
:102610001C2E2E2E07000368DA6842F01002DA60E2
:10262000186A012202FA01F120EA01021A621A6A0A
:10263000114319621A6842F001021A6000207047C3
:102640000368DA6842F00802DA60E9E70368DA68EA
:1026500042F00402DA60E3E70368DA6842F002025B
:10266000DA60DDE70368DBE70C2938D8DFE801F042
:10267000313737372B373737253737370700036878
:10268000DA6822F01002DA601A6A012000FA01F119
:1026900022EA010119621A6A1A62196A41F21112D8
:1026A0000A4042B9196A40F244420A401AB91A680B
:1026B00022F001021A60002070470368DA6822F0F5
:1026C0000802DA60E0E70368DA6822F00402DA6000
:1026D000DAE70368DA6822F00202DA60D4E7036816
:1026E000D2E700BFF8B590F83940E4B2022C12D01E
:1026F00090F83940E4B2012C0FD00D4604460C2D61
:102700005CD8DFE805F0105B5B5B2E5B5B5B3D5BE1
:102710005B5B4C001BB12046F8BD002AFAD00224B6
:1027200080F83940E9E72168006A254F254EC763E4
:10273000C664343102F052FD2068C36843F400736C
:10274000C360026A012303FA05F122EA010303626E
:10275000036A19430162036843F001030360002028
:10276000F8BD2168406A164F164EC763C6643831FB
:1027700002F034FD2068C36843F48063C360E0E77F
:102780002168806A0E4F0F4EC763C6643C3102F069
:1027900025FD2068C36843F40063C360D1E7216866
:1027A000C06A074F074EC763C664403102F016FD8A
:1027B0002068C36843F48053C360C2E70068C0E781
:1027C000713300087935000810B40C293DD8DFE8D2
:1027D00001F0363C3C3C303C3C3C2A3C3C3C070055
:1027E0000368DA6822F48052DA601A6A012404FA73
:1027F00001F122EA010119621A6A1A62196A41F2A8
:1028000011120A4042B9196A40F244420A401AB908
:102810001A6822F001021A60012380F839305DF84D
:10282000044B002070470368DA6822F40062DA6023
:10283000DBE70368DA6822F48062DA60D5E70368D0
:10284000DA6822F40072DA60CFE70368CDE700BFF0
:10285000704700BF704700BF0223026810B580F8C0
:102860003930116A41F211130B40044643B9116A21
:1028700040F244430B401BB9136823F0010313607B
:102880002046FFF7E7FF002084F8390084F838007D
:1028900010BD00BF03680D491A6A22F001021A62D6
:1028A0001A6A42F001021A621A6A22F010021A62CF
:1028B0001A6A8B4242F010021A6201D0002070475F
:1028C0005A6C42F400425A640020704700000140F4
:1028D000036818491A6A22F001021A621A6A1A6217
:1028E0001A6A22F010021A621A6A1A628B420FD018
:1028F000196A41F211120A4042B9196A40F244427F
:102900000A401AB91A6822F001021A6000207047C2
:10291000196A41F211120A40002AE9D1196A40F2FB
:1029200044420A40002AE3D15A6C22F400425A641D
:10293000DEE700BF0000014003681149DA6842F099
:102940000202DA60DA6842F00402DA601A6A22F0FF
:1029500001021A621A6A42F001021A621A6A22F02D
:1029600010021A621A6A8B4242F010021A6201D0F7
:10297000002070475A6C42F400425A6400207047AD
:102980000000014003681C49DA6822F00202DA60A4
:10299000DA6822F00402DA601A6A22F001021A628E
:1029A0001A6A1A621A6A22F010021A621A6A1A6203
:1029B0008B420FD0196A41F211120A4042B9196ACA
:1029C00040F244420A401AB91A6822F001021A6021
:1029D00000207047196A41F211120A40002AE9D119
:1029E000196A40F244420A40002AE3D15A6C22F4A8
:1029F00000425A64DEE700BF00000140704700BF9C
:102A0000704700BF0223026810B580F83930116AA0
:102A100041F211130B40044643B9116A40F244439A
:102A20000B401BB9136823F0010313602046FFF726
:102A3000E7FF002084F8390084F8380010BD00BF9B
:102A4000D1B1042916D003681A6A22F001021A6271
:102A50001A6A42F001021A621A6A22F010021A621D
:102A60001A6A42F010021A621A6842F001021A60F1
:102A7000002070470368EFE703681A6A22F001023A
:102A80001A621A6A42F001021A62EDE701B30429E0
:102A90001CD003681A6A22F001021A621A6A1A62CA
:102AA0001A6A22F010021A621A6A1A62196A41F24C
:102AB00011120A4042B9196A40F244420A401AB956
:102AC0001A6822F001021A60002070470368E7E7E5
:102AD00003681A6A22F001021A621A6A1A62E5E7AA
:102AE00000292ED004291ED003681A6A22F00102A0
:102AF0001A621A6A42F001021A621A6A22F010027D
:102B00001A621A6A42F010021A62DA6842F002028D
:102B1000DA60DA6842F00402DA601A6842F0010210
:102B20001A600020704703681A6A22F010021A62C5
:102B30001A6A42F010021A62DA6842F00402DA609D
:102B4000EBE703681A6A22F001021A621A6A42F07D
:102B500001021A62DA6842F00202DA60DDE700BFC1
:102B600003681A6AD9B922F001021A621A6A1A6253
:102B7000DA6822F00202DA60196A41F211120A40A0
:102B800042B9196A40F244420A401AB91A6822F05E
:102B900001021A60012380F83930002070470429AF
:102BA00013D022F001021A621A6A1A621A6A22F01B
:102BB00010021A621A6A1A62DA6822F00202DA60F5
:102BC000DA6822F00402DA60D6E722F010021A6214
:102BD0001A6A1A62DA6822F00402DA60CCE700BFEF
:102BE0002DE9F04190F83940BDF81860E4B2022CAC
:102BF0000FD090F83940012C0ED004291F460C4606
:102C0000054615D0182950D0002930D00020BDE845
:102C1000F0812046BDE8F081002A7CD0002B7AD0DC
:102C20000224042980F839401F460C460546E9D1A4
:102C30002968406A3A4B3B4CC3633A463346C46406
:102C4000383102F0CBFA2B68DA6842F48062DA603D
:102C50001A6842F001021A601A6A22F010021A621F
:102C60001A6A42F010021A620020BDE8F081296859
:102C7000006A2B4B2B4FC363C7643346343102F0D9
:102C8000ADFA2B68DA6842F40072DA601A6842F032
:102C900001021A601A6A22F001021A621A6A42F0EC
:102CA000010220461A62BDE8F0812968006ADFF857
:102CB00070801C4CC0F83C803346C464343102F050
:102CC0008DFA2968686A33463A46C0F83C80C46485
:102CD000383102F083FA2B681A6842F001021A6058
:102CE0001A6A22F001021A621A6A42F001021A629A
:102CF0001A6A22F010021A621A6A42F010021A626C
:102D0000DA6842F40072DA60DA6842F48062DA600B
:102D10000020BDE8F081002E82D00120BDE8F081C6
:102D2000713300087935000803681A6AD9B922F0AE
:102D300001021A621A6A1A62DA6822F40072DA6010
:102D4000196A41F211120A4042B9196A40F244422A
:102D50000A401AB91A6822F001021A60012380F8A9
:102D6000393000207047042913D022F001021A6282
:102D70001A6A1A621A6A22F010021A621A6A1A622F
:102D8000DA6822F40072DA60DA6822F48062DA60CB
:102D9000D6E722F010021A621A6A1A62DA6822F47E
:102DA0008062DA60CCE700BFF8B590F83940069D44
:102DB000E4B2022C19D090F83940E4B2012C2AD0A8
:102DC000B2F5006F16460F4604462FD00FD8B2F565
:102DD000007F40D0B2F5806F41D0B2F5807F0FD137
:102DE000C0692268244924E0BDB12046F8BDB2F58F
:102DF000005F2CD0B2F5804F39D0B2F5805F32D071
:102E000023683D439D64DA6801211643DE6000209B
:102E100084F83910F8BD002BE6D00224B2F5006F1B
:102E200080F8394016460F460446CFD1806A2268A2
:102E30001249DFF854C0C1634FEA152E1946C0F895
:102E40004CC04C320EF1010302F0C8F9D8E7006B18
:102E500022680B49EDE7006A22680849E9E7406A01
:102E600022680649E5E7C06A22680449E1E7406B49
:102E700022680449DDE700BF59330008C133000868
:102E8000E97300086535000879350008F8B590F851
:102E90003940069DE4B2022C19D090F83940E4B2D2
:102EA000012C2AD0B2F5006F16460F4604462FD0EB
:102EB0000FD8B2F5007F40D0B2F5806F41D0B2F5A7
:102EC000807F0FD1C0692168244A24E0BDB120462B
:102ED000F8BDB2F5005F2CD0B2F5804F39D0B2F515
:102EE000805F32D023683D439D64DA680121164338
:102EF000DE60002084F83910F8BD002BE6D00224F3
:102F0000B2F5006F80F8394016460F460446CFD11F
:102F1000806A2168124ADFF854C0C2634FEA152E56
:102F20001A46C0F84CC04C310EF1010302F056F9BC
:102F3000D8E7006B21680B4AEDE7006A2168084A70
:102F4000E9E7406A2168064AE5E7C06A2168044A61
:102F5000E1E7406B2168044ADDE700BF5933000810
:102F600071330008E97300086535000879350008F9
:102F7000B1F5006F38B50C46054630D012D9B1F521
:102F8000005F24D0B1F5804F1DD0B1F5805F02D134
:102F9000C06A02F065F92B68D96821EA0404DC6094
:102FA000002038BDB1F5007F15D0B1F5806F06D097
:102FB000B1F5807FEFD1C06902F052F9EBE7406ACA
:102FC00002F04EF9E7E7406B02F04AF9E3E7006BE5
:102FD00002F046F9DFE7006A02F042F9DBE7806AB7
:102FE00002F03EF9D7E700BFFFF7C2BF90F83820E4
:102FF000012A0FD030B403460568012402200022C4
:1030000083F839006961104683F8394083F8382025
:1030100030BC70470220704790F83830012B25D023
:103020004B68F0B401250224AB4280F8385080F898
:1030300039401DD00C2A10D8DFE802F0270F0F0FFF
:103040002F0F0F0F070F0F0F37000B680268002BB1
:1030500042D0D36943F08003D3610023012280F87A
:10306000392080F83830F0BC18467047022070478D
:103070000768CB68BC688D680E6924F47F442B43D5
:10308000234343EA0623BB60D4E70B680268A3B17D
:10309000936943F080039361DFE70B680268B3B183
:1030A000936943F400439361D7E70B6802684BB11F
:1030B000D36943F40043D361CFE7936923F08003DE
:1030C0009361CAE7D36923F40043D361C5E79369E9
:1030D00023F400439361C0E7D36923F08003D361F5
:1030E000BBE700BF90F83830012B40D002220368C4
:1030F00070B480F839209A680C6822F47F4222F07C
:1031000077020125402C80F838509A6073D018D986
:10311000702C60D02DD9B4F5805F57D0B4F5005F26
:103120001CD19C688A684D68CE682A4324F47F418C
:103130000A4342EA06229A609A6842F480429A6000
:103140000CE0102C32D038D9202C6CD0302C05D18A
:103150009A6822F0700242F037029A60002301223E
:1031600080F8392080F8383070BC1846704702204B
:103170007047502C5ED0602CF0D11C6A4D68CE6830
:1031800024F010041C6299691A6A21F4704122F03B
:10319000A00242EA051241EA063199611A629A6870
:1031A00022F0700242F067029A60D7E79A6822F034
:1031B000700242F017029A60D0E7002CCED19A68D4
:1031C00022F0700242F007029A60C7E79A6822F084
:1031D00007029A60C2E79C688A684D68CE682A43F5
:1031E00024F47F410A4342EA06229A609A6842F038
:1031F00077029A60B2E71A6A1C6A4E68CD6824F0BA
:1032000001041C62996922F00A0221F0F0013243A4
:1032100041EA051199611A629A6822F0700242F03F
:1032200047029A609AE79A6822F0700242F02702F9
:103230009A6093E71A6A1C6A4E68CD6824F001040C
:103240001C62996922F00A0221F0F001324341EA3E
:10325000051199611A629A6822F0700242F05702D1
:103260009A607BE70268536823F08003194351603A
:103270000020704790F83820012A01D102207047C1
:1032800038B504460125022380F8385080F83930DB
:10329000FEF712FE2368DA6822F04002DA60DA688C
:1032A000002122F48042DA60084684F8395084F81C
:1032B000381038BD90F83820012A01D1022070471B
:1032C00038B504460125022380F8385080F839309B
:1032D000FEF7F2FD2368DA6842F04002DA60DA684D
:1032E000002122F48042DA60084684F8395084F8DC
:1032F000381038BD90F83830012B02460AD00C291E
:1033000026D8DFE801F010252525172525251E25BF
:10331000252509000220704703681B6C0021184610
:1033200082F83810704703685B6B0021184682F8FA
:103330003810704703689B6B0021184682F83810DC
:1033400070470368DB6B0021184682F8381070471D
:103350000023E3E7704700BF08B5806B012380F8C6
:103360003930FDF7A3FA08BD704700BF704700BFB2
:1033700010B5846B226A0123904284F839300FD053
:10338000636A984213D0A36A984213D0E36A9842C2
:1033900005D02046FFF7EAFF0023237610BD08235F
:1033A00023762046FFF7E2FF0023237610BD022399
:1033B0002376EEE704232376EBE700BF704700BFD8
:1033C00010B5846B226A0123904284F839300FD003
:1033D000636A984213D0A36A984213D0E36A984272
:1033E00005D02046FFF7EAFF0023237610BD08230F
:1033F00023762046FFF7E2FF0023237610BD022349
:103400002376EEE704232376EBE700BF704700BF87
:1034100003681A69910710B5044602D5DA68920765
:1034200062D41A69500702D5DA68510749D41A697B
:10343000120702D5DA68100731D41A69D20602D50C
:10344000DA68D00618D41A69D10702D5DA68D2072B
:103450006BD41A69100602D5DA6811066DD41A69A0
:10346000520602D5DA68500657D41A69910602D579
:10347000DA68920649D410BD6FF010021A61DB6958
:10348000082213F4407F2276204661D1FFF76CFFBB
:103490002046FFF793FF002223682276D3E76FF0E0
:1034A00008021A61DB69042299072276204655D169
:1034B000FFF75AFF2046FFF781FF0022236822769C
:1034C000BBE76FF004021A619B69022213F4407F8C
:1034D000227620463FD1FFF747FF2046FFF76EFFD9
:1034E000002223682276A2E76FF002021A619B692C
:1034F00001229B07027628D1FFF736FF2046FFF70F
:103500005DFF0022236822768BE76FF020022046C1
:103510001A61BDE8104003F065BF6FF040021A6108
:103520002046FFF773FF23689FE76FF001021A61DF
:103530002046FDF7BBF923688BE76FF080021A6124
:10354000204603F059FF236889E7FFF70FFFD8E70C
:10355000FFF70CFF9FE7FFF709FFC1E7FFF706FF43
:10356000ABE700BF08B5806B012380F83930FFF767
:103570004DFF08BD704700BF08B5806B012380F880
:103580003930FFF7F7FF08BD90F83900704700BFEA
:1035900090F83900704700BF90F83900704700BFBD
:1035A00090F83900704700BF90F83900704700BFAD
:1035B00090F83900704700BF264A0368904270B403
:1035C00034D0B0F1804F20D0A2F57C4290421CD084
:1035D00002F58062904218D002F58062904214D0C9
:1035E00002F59A32904214D002F58062904210D0D7
:1035F00002F5806290420CD08C680A680360012357
:10360000C462826270BC436170474A6823F07003F1
:103610001343CA688C68096823F44073134303603A
:103620000123C462816270BC436170474A68CC6800
:103630008E680D68096923F07003134323F4407307
:10364000234303600123C6628562016370BC43614A
:10365000704700BF00000140B8B190F8393010B594
:1036600003F0FF0204465BB1022384F8393020687E
:10367000211DFFF7A1FF012384F83930002010BD80
:1036800080F83820FDF740F9EEE70120704700BFD1
:10369000B8B190F8393010B503F0FF0204465BB1C1
:1036A000022384F839302068211DFFF785FF0123AC
:1036B00084F83930002010BD80F83820FEF706FD70
:1036C000EEE70120704700BFB8B190F8393010B56F
:1036D00003F0FF0204465BB1022384F8393020680E
:1036E000211DFFF769FF012384F83930002010BD48
:1036F00080F83820FEF740FDEEE70120704700BF5C
:10370000B8B190F8393010B503F0FF0204465BB150
:10371000022384F839302068211DFFF74DFF012373
:1037200084F83930002010BD80F83820FEF71AFFE9
:10373000EEE70120704700BF00B338B590F839308C
:1037400004460D4603F0FF029BB1022384F8393092
:10375000211D2068FFF730FF23681A6822F0080255
:103760001A601968012229431960002084F8392061
:1037700038BD80F83820FFF76BF8E6E70120704786
:1037800000284ED02DE9F04190F8393082B005463E
:103790000C4603F0FF02002B3ED02946022351F8CD
:1037A000040B85F83930836823F007038360FFF743
:1037B00003FF2E68A769D6F808C0B169326A20688D
:1037C00021F44073E169019123F00303A16843EA06
:1037D000072327690B4301993F0147EA0121E76865
:1037E00022F0AA08226A0F4347EA02376269616839
:1037F00023F47C434CEA000048EA021223F0FC0365
:10380000B0600A433B4301210020B361326285F876
:10381000391002B0BDE8F08180F83820FFF7EEF8EB
:10382000BBE70120704700BF70B4046A184E24F053
:1038300001040462B0428569046A17D0B0F1804F78
:1038400014D0A6F57C46B04210D006F58066B04292
:103850000CD006F58066B04208D006F59A36B04224
:1038600004D025F0030242F0010202E025F0030536
:103870002A431B01DBB222F0F00224F00A0401F01B
:103880000A010C431A438261046270BC704700BF96
:1038900000000140F8B590F83830012B39D00D46C2
:1038A00002230121044680F8381080F83930002ABC
:1038B00031D0042A3FD0082A63D00168EB680A6A35
:1038C0002E68D5F804E0AF6822F480520A62CA6913
:1038D000086A22F4407235031E0342EA0E2305F4FF
:1038E0002045B6B223F4704320F4204233432A43E8
:1038F000CB610A62CB6923F44063CB61CB6943EAB5
:103900000727CF610123002084F8393084F838007C
:10391000F8BD0220F8BD95E80600EB680068FFF7E7
:1039200083FF2368AA68996921F00C01996199695C
:103930000A439A61E6E70368EA68196A2E68D5F8CF
:1039400004E0AF6821F0100119629969186A21F446
:1039500040713501160341EA0E2205F0A005B6B20A
:1039600022F4704220F0A001324329439A61196287
:103970009A6922F440629A619A6942EA07279F6134
:10398000C0E70368EA68196A2E68D5F804E0AF68F2
:1039900021F480711962D969186A21F00301350296
:1039A00016014EEA010205F42065F6B222F0F0029B
:1039B00020F4206132432943DA611962DA6922F086
:1039C0000C02DA61DA691743DF619BE7F0B5046A3C
:1039D000D1F808E00E68134D24F010040462036A65
:1039E0004768826923F0200322F4E642A84243EAB2
:1039F0000E1342EA062205D049684760826181635E
:103A00000362F0BDCE684D698C6927F4406723F0EE
:103A1000800343EA061347EA850523F0400345EA9D
:103A20008407E9E70000014090F83830012B1CD0F2
:103A300010B504460223012084F8380084F8393098
:103A40000C2A0BD8DFE802F0170A0A0A070A0A0A4A
:103A50001B0A0A0A13002068FFF7B8FF01230020A1
:103A600084F8393084F8380010BD0220704720688F
:103A7000FEF7FEF9F2E72068FEF7A0F9EEE720680E
:103A8000FEF7C8F9EAE700BF38B590F83830012BE7
:103A90002BD00D4602230121044680F8381080F80F
:103AA00039300C2A1AD8DFE802F03519191907192C
:103AB000191947191919220029460068FFF786FFCE
:103AC00023682869996941F400619961996921F431
:103AD000806199619A6942EA00229A61012300207B
:103AE00084F8393084F8380038BD022038BD2946C2
:103AF0000068FEF7BDF923682869D96941F40061BF
:103B0000D961D96921F48061D961DA6942EA002278
:103B1000DA61E3E729460068FEF750F923682A696D
:103B2000996941F008019961996921F0040199614D
:103B300099690A439A61D1E729460068FEF76AF954
:103B400023682A69D96941F00801D961D96921F04E
:103B50000401D961D9690A43DA61BFE79A4274D096
:103B6000F0B590F83850012D89B052D00C461E4661
:103B70000AC905460127022085F838700191A76817
:103B8000216985F839000293E0686369039704901E
:103B900006910793002A5AD0042A3DD0002E41D026
:103BA000042E2ED12B68A669196AE269276A21F0D2
:103BB000100119629969186A21F44071340141EACF
:103BC00002223E0304F0A004B6B222F4704220F0B8
:103BD000A001324321439A6119629A6922F440623A
:103BE0009A619A6822F070029A609A6842F06002C4
:103BF0009A609A6822F007029A609A6842F0060278
:103C00009A600020012385F8393085F8380009B022
:103C1000F0BD022009B0F0BD01A92868FFF7D6FE6B
:103C2000002EBDD104F118010EC92868FFF7FCFD74
:103C30002B689A6922F00C029A619A6822F070024D
:103C40009A609A6842F05002D2E70120704701A9B9
:103C50002868FEF7B3F8A1E710B40123046A8B408B
:103C600024EA03030362036A5DF8044B8A4042EAD4
:103C700003010162704700BF2DE9F047066837690C
:103C80000546C068EC69D5F808E02A69696927F437
:103C9000405738433061F368A8694EEA020223F4C2
:103CA00016430A4323F00C0322431343F360736962
:103CB00023F440730343B4F5004F7361A34B5DD00D
:103CC0009E4200F0F68003F580639E4200F0F18092
:103CD00002F0DAFB6F68DFF8788200EB800000EB1F
:103CE0008000BF00B0FBF7F702F0CEFB6C6800EB82
:103CF000800000EB8000A400B0FBF4F402F0C4FBF1
:103D0000A8FB07376B6800EB80009B0000EB80008E
:103D1000B0FBF3F0A8FB003040094FF0640A0AFB47
:103D2000104402F0B1FB696800EB80008A0000EBF0
:103D30008000B0FBF2F902F0A7FB24016A6832347C
:103D400000EB80009200A8FB043400EB8000B0FB85
:103D5000F2F0A8FB00307F09640940093F0104F03C
:103D6000F0040AFB109212013232A8FB0223C3F3C3
:103D700043131C442744B760BDE8F0879E4259D0E6
:103D800003F580639E4255D002F07EFB6F68DFF83A
:103D9000C08100EB800000EB80007F00B0FBF7F7F4
:103DA00002F072FB6C6800EB800000EB80006400A6
:103DB000B0FBF4F402F068FB6A6800EB8000A8FB3B
:103DC000073700EB80005300B0FBF3F3A8FB03239D
:103DD0005B094FF0640A0AFB1344E40002F054FB51
:103DE0003234A8FB04346B687F09240900EB80009F
:103DF00000EB80005A003F0104F4F874B0FBF2F9C4
:103E000002F042FB696800EB800000EB8000490093
:103E1000B0FBF1F1A8FB013149090AFB1192D20074
:103E20003232A8FB0223C3F342133B441C44B46068
:103E3000BDE8F08702F040FB6F68DFF8148100EB0B
:103E4000800000EB80007F00B0FBF7F702F034FB4E
:103E50006C6800EB800000EB80006400B0FBF4F4C1
:103E600002F02AFB6A6800EB8000A8FB073700EB32
:103E700080005300B0FBF3F3A8FB03235B094FF072
:103E8000640A0AFB1344E40002F016FB3234A8FB78
:103E900004346B687F09240900EB80005A003F015D
:103EA00004F4F87400EB8000B0FBF2F902F004FBBC
:103EB000A8E702F001FB6F68DFF8948000EB800058
:103EC00000EB8000BF00B0FBF7F702F0F5FA6C687A
:103ED00000EB800000EB8000A400B0FBF4F402F0E3
:103EE000EBFA6A6800EB8000A8FB073700EB800064
:103EF0009300B0FBF3F3A8FB03235B094FF0640AC4
:103F00000AFB1344240102F0D7FA3234A8FB04342C
:103F10006B6800EB80009A0000EB8000B0FBF2F9C8
:103F200002F0CAFA696800EB800000EB80008900AB
:103F3000B0FBF1F1A8FB01317F09640949093F0198
:103F400004F0F0040AFB11920DE700BF00100140DD
:103F50001F85EB512DE9F04107460E4690461D4660
:103F60003C6801E06B1C06D1206836EA0003F9D1F9
:103F70000020BDE8F08135B1FDF7A0FDC8EB0000E1
:103F80008542EDD23C68E36823F4D073E360636953
:103F9000202223F0010300216361032087F83920E8
:103FA00087F8381087F83A20BDE8F081704700BFE5
:103FB00060B338B590F83930044603F0FF0203B31C
:103FC0002268242384F83930D36823F40053D36063
:103FD0002046FFF751FE23681A6922F490421A61C5
:103FE0005A6922F02A025A61DA680025202142F437
:103FF0000052DA602846E56384F8391084F83A10F4
:1040000038BD80F83820FDF75BFBD9E70120704709
:1040100080B338B590F83930044603F0FF0223B37B
:104020002268242384F83930D36823F40053D36002
:104030002046FFF721FE23681A6922F490421A6194
:104040005A6922F022025A615A6942F008025A6102
:10405000DA680025202142F40052DA602846E56340
:1040600084F8391084F83A1038BD80F83820FDF70C
:1040700027FBD5E701207047002838D038B590F8E5
:10408000393004460D4603F0FF025BB32268242357
:1040900084F83930D36823F40053D3602046FFF707
:1040A000EBFD23681A6922F400621A615A6922F052
:1040B0002A025A611A6942F480421A611A6922F08E
:1040C00020021A6119690D431D61DA68002520215B
:1040D00042F40052DA602846E56384F8391084F827
:1040E0003A1038BD80F83820FDF7EAFACEE7012013
:1040F000704700BF00283DD090F8393070B51546A4
:1041000004460E4603F0FF02002B2ED02268242323
:1041100084F83930D36823F40053D3602046FFF786
:10412000ABFD23681A6922F490421A615A6922F0A1
:104130002A025A611A6922F00F021A6119690E43A4
:104140001E61DA6822F40062DA60DA681543DD6025
:10415000DA680025202142F40052DA602846E5633F
:1041600084F8391084F83A1070BD80F83820FDF7D3
:10417000A7FACBE701207047704700BF80B110B5A8
:104180002423044680F83930FFF7F6FF0023E36369
:1041900084F8383084F83930184684F83A3010BD45
:1041A000012070472DE9F0410E4690F83910202982
:1041B00082B003D0022002B0BDE8F081002E38D0DA
:1041C000002A36D01F4690F83830012B0446F1D033
:1041D000002001212123E06384F8381084F839306D
:1041E0000192FDF76BFC019AA2848046154608E017
:1041F000FFF7B0FEF8B9236832785A600136E58CD3
:10420000DDB1013DE584A568B5F5805F3B464246DA
:104210004FF080012046EBD1FFF79CFE58B9338860
:1042200021682269C3F308034B60002AE6D10236F5
:10423000E5E70120BFE70320BDE73B4642464021BA
:104240002046FFF787FE0028F5D1202384F83800A8
:1042500084F83930AFE700BF2DE9F0410E4690F801
:104260003A10202982B003D0022002B0BDE8F081CC
:10427000002E35D0002A33D01F4690F83830012B5D
:104280000546F1D0002001212223E86385F838108B
:1042900085F83A300192FDF711FC019AAA85804613
:1042A000144605E02B685B6833700136EC8D5CB317
:1042B000013CEC85AC68B4F5805F3B4642464FF06C
:1042C000200128460ED0FFF745FE20BB2B69002BAE
:1042D000E8D02B685B6803F07F0333700136E5E7B5
:1042E0000120C2E7FFF736FEA8B92B6933B92B6866
:1042F0005B68C3F3080326F8023BD7E72B685B68CB
:10430000DBB226F8013BD1E7202385F83840204670
:1043100085F83A30A9E70320A7E700BF90F83930C5
:10432000202B01D002207047B9B1B2B190F83830DB
:10433000012BF7D030B400230568C363212480F833
:104340003940EC68016244F080018284C28480F8C4
:1043500038301846E96030BC70470120704700BF14
:1043600090F83A30202B01D002207047F9B1F2B119
:1043700090F83830012BF7D030B400230468C363C1
:10438000222580F83A50E568816245F48071828583
:10439000C28580F83830E160626942F001026261F2
:1043A000E26842F020021846E26030BC704701200B
:1043B000704700BFF8B590F83940202C01D002209A
:1043C000F8BD49B342B390F83840012CF7D0054608
:1043D0000127006B114E85F83870134600242A68B7
:1043E000AB842127EB84EC63296285F839700C4F8C
:1043F000C6630C4E04650764C664043200F0EEFE2A
:104400002B686FF040021A605A6985F8384042F014
:10441000800220465A61F8BD0120F8BD014600081F
:10442000314600080D470008F8B590F83A40202CB6
:1044300001D00220F8BD00292FD0002A2DD090F8FD
:104440003830012BF5D004460127406B144E84F818
:1044500038700025134622270A462168A262A385E8
:10446000E56384F83A700F4FC6630F4E0565076425
:10447000C664043100F0B2FE2368DA6842F4807248
:10448000DA605A6942F001025A615A6942F0400208
:104490005A61284684F83850F8BD0120F8BD00BFA5
:1044A00041460008FD4600080D47000890F83830E6
:1044B000012B15D0036810B45C6990F839200121F4
:1044C000212A80F838101CD0596990F83A20222A05
:1044D00008D0002380F838305DF8044B1846704748
:1044E000022070474A06F4D5DA6822F48072DA6056
:1044F0005A6922F001025A615A6922F040025A6157
:10450000E7E72106E0D55A6922F080025A61DBE72D
:1045100090F83830012B0FD090F839300122212B40
:1045200080F8382025D090F83A30222B06D000238E
:1045300080F83830184670470220704782B0036810
:10454000002201921A6801925A680192019ADA686F
:1045500042F48072DA605A6942F001025A615A6983
:1045600042F040025A61002380F83830184602B009
:1045700070470268536943F08003536190F83A3002
:10458000222BD4D1DAE700BF0368596990F83920AB
:10459000212A10B504461ED0596994F83A20222ADF
:1045A00001D0002010BD4A06FBD55A69606B22F08D
:1045B00040025A6110B100F053FE2368DA6822F419
:1045C0009072DA605A69202122F001025A610020BB
:1045D00084F83A1010BD0906DED55A69006B22F046
:1045E00080025A6110B100F03BFE2368DA68202196
:1045F00022F0C002DA6084F83910CDE7704700BFBE
:1046000008B50368806B1B6813F480730AD10268D5
:10461000C384536923F080035361D36843F040039C
:10462000D36008BDFCF748FF08BD00BF704700BF5E
:1046300008B5806BFFF7FAFF08BD00BF704700BFE9
:1046400008B50368806B1B6813F4807310D102688F
:10465000C385D36823F48073D360536923F00103C7
:1046600053615369202123F04003536180F83A10CD
:10467000FCF7DAFF08BD00BF8368B3F5805F28D080
:10468000036973B10368826A5B68511C03F07F039E
:1046900081621370C38D013B9BB2C38543B100207F
:1046A0007047836A0268591C526881621A70F1E788
:1046B0000268D16821F4907110B5D160516920244D
:1046C00021F00101516180F83A40FCF7ADFF002074
:1046D00010BD0269836A3AB902685268C2F30802DF
:1046E00023F8022B8362D5E702685268D2B223F81E
:1046F000012B8362CEE700BF704700BF08B5806B17
:10470000FFF7FAFF08BD00BF704700BF806B03686A
:10471000596990F83920212A10B51BD0596990F8B1
:104720003A20222A06D0C36B43F01003C363FFF77D
:10473000EBFF10BD4A06F6D5DA68002122F490722C
:10474000C185DA605A69202122F001025A6180F89D
:104750003A10E8E70906E1D5DA68002422F0C00241
:104760002021C484DA6080F83910D7E703681A681A
:10477000D96870B5160704465D6945D040F201104E
:104780002840002844D0D00705D5CE0503D5E06BDE
:1047900040F00100E063500754D5EE077AD5E06B96
:1047A000950740F00200E0636DD5E06B40F0040037
:1047B000E063100769D4E06B28B3950601D588063D
:1047C0006FD45A69E16B090702D412F040057AD020
:1047D000DA6822F49072DA605A69202122F001022C
:1047E0005A6184F83A105A69520668D55A69606B62
:1047F00022F040025A61002861D03B4B036500F073
:1048000077FD002856D170BD960601D58D0612D4CD
:10481000160601D50D061AD45006F4D54A06F2D56F
:10482000DA68202122F04002DA60204684F839104C
:10483000FCF742FE70BD90F83A30222BE3D1BDE880
:10484000704019E7960727D5ED07AED4B3E794F883
:104850003920212AD7D1A268B2F5805F226A37D0E9
:10486000511C216212785A60E28C013A92B2E284C1
:10487000002AC8D1DA6822F08002DA60DA6842F0F1
:104880004002DA6070BD100795D5E06B40F008007B
:10489000E06390E796078ED410078CD5EE07F4D42A
:1048A00089E794F83A20222A8BD12046FFF7E4FECC
:1048B000236886E7606BBDE87040036D18472046AB
:1048C000FFF722FF70BD2046FFF71EFFE56370BDB6
:1048D00011882069C1F30801596010B902322262BF
:1048E000C2E701322262BFE7ED48000808B5806BDD
:1048F0000023C385C384FFF707FF08BD90F8382065
:10490000012A13D003462422006810B483F839200A
:10491000C2682024002142F00102C260084683F8E8
:10492000394083F838105DF8044B70470220704717
:1049300090F83820012A13D003462422006810B4CE
:1049400083F83920C2682024002142F00202C260AC
:10495000084683F8394083F838105DF8044B7047F7
:104960000220704790F83820012A13D003462422F1
:10497000006810B483F83920C2682024002122F096
:104980000202C260084683F8394083F838105DF8A7
:10499000044B70470220704790F83820012A15D048
:1049A00003462422006810B483F83920C26822F03C
:1049B0000C022024002142F00802C260084683F85D
:1049C000394083F838105DF8044B70470220704777
:1049D00090F83820012A15D003462422006810B42C
:1049E00083F83920C26822F00C022024002142F012
:1049F0000402C260084683F8394083F838105DF835
:104A0000044B70470220704790F8392090F83A0024
:104A100010437047C06B70472DE9F04FD1F800C0CC
:104A2000DFF8B881DFF8B8E183B000254FF0010965
:104A300003E00135102D00F0838009FA05F232EA17
:104A40000C03F6D14C6824F01006022E7BD04FEAFE
:104A5000450A0323076803FA0AF3DB4304F0030B58
:104A60001F400BFA0AFB013E4BEA0707012E0760C5
:104A700040F28C80C7688E683B4006FA0AF63343E2
:104A8000C360E300D5D500230193D8F8443043F444
:104A90008043C8F84430D8F8443025F0030606F1C6
:104AA000804603F4804306F59C36019305F003032A
:104AB000019FD6F808A09B000F279F402AEA070B0A
:104AC000424FB84272D007F58067B84270D0404F6D
:104AD000B84270D03F4FB84272D03F4FB8420CBF7F
:104AE0004FF0040A4FF0050A0AFA03F343EA0B03F6
:104AF000B360DEF80030D643E7034CBF13433340C6
:104B0000CEF80030DEF80430A7034CBF1343334027
:104B1000CEF80430DEF80830E7024CBF13433340D0
:104B2000CEF80830DEF80C30A40205F1010554BFC0
:104B300006EA03021A43102DCEF80C207FF47DAF55
:104B400003B0BDE8F08F4FEAD50A00EB8A0A05F002
:104B50000703DAF820700E699B004FF00F0B0BFA79
:104B600003FB27EA0B0706FA03F33B43CAF820309E
:104B70004FEA450A0323066803FA0AF3DB4304F00D
:104B800003071E4007FA0AF73E4306608668CF68AF
:104B90001E4007FA0AF7374387604668C4F30017D8
:104BA00026EA0206AF403E43466063E700239DE7E6
:104BB00009FA03F39AE74FF0020A0AFA03F395E7BA
:104BC0004FF0030A0AFA03F390E700BF0000024027
:104BD00000080240000C0240001002400038024071
:104BE000003C01402DE9F04F002383B0DFF80C9129
:104BF000DFF80C814FF0010E4FF0030B4FF00F0A5E
:104C000002E00133102B61D00EFA03F232EA010404
:104C1000F7D15C0005680BFA04F4E443DE08254094
:104C200000EB8606056003F00705376AAD000AFA57
:104C300005F527EA050535628568254085604568E4
:104C4000D24315404560C66823F0030505F1804551
:104C5000344005F59C35C46003F00304AE68A4003D
:104C60000AFA04F73E404845019632D01F4EB04242
:104C700031D01F4EB04231D01E4EB04233D01E4E06
:104C8000B0420CBF4FF0040C4FF0050C0CFA04F4CA
:104C9000019EA642B5D1AC6824EA0707AF60D8F8F8
:104CA00000401440C8F80040D8F804401440C8F848
:104CB0000440D8F808401440C8F80840D8F80C4020
:104CC00001332240102BC8F80C209DD103B0BDE861
:104CD000F08F0024DCE70EFA04F4D9E74FF0020C61
:104CE0000CFA04F4D4E70BFA04F4D1E70004024010
:104CF00000080240000C0240001002400000024088
:104D0000003C01400369194214BF01200020704794
:104D100002B9090481617047436959404161704794
:104D200082B04FF480330193019B0B430193019BAD
:104D3000C361C161019BC361C3690193C06980F410
:104D40008030C0F3004002B0704700BF704700BF22
:104D5000044A5169014200D1704708B55061FFF71C
:104D6000F5FF08BD003C0140074AD1684FF6FF033C
:104D70000B4043F0BF6300F0070043F4003343EA05
:104D80000023D360704700BF00ED00E0194BDB68E3
:104D9000C3F3022330B4C3F10705042D03F1040467
:104DA00028BF0425062C18D9033B01249C40013C54
:104DB00022400124AC40013C214001FA03F30028C9
:104DC00042EA03020CDB00F1604000F56140120191
:104DD000D2B280F8002330BC704700221346E8E7C7
:104DE000054B00F00F0012010344D2B21A7630BC1A
:104DF000704700BF00ED00E0FCEC00E000F01F0198
:104E000001234009024A8B4042F82030704700BF1E
:104E100000E100E04309203300F01F0001220349B4
:104E200002FA00F041F82300704700BF00E100E003
:104E3000BFF34F8F0549064BCA6802F4E062134383
:104E4000CB60BFF34F8F00BFFDE700BF00ED00E078
:104E50000400FA050138B0F1807F0ED2084B10B47F
:104E6000084C5860F02084F82300002207211046E7
:104E70009A6019605DF8044B70470120704700BFCD
:104E800010E000E000ED00E0F0B4134E4378B360B2
:104E900003781BB9F3603361F0BC70474368F3607B
:104EA000C47A037B0578817A427B877B240644EAB7
:104EB00003742C4344EAC141C37B447A007A41EA3B
:104EC000824141EA474242EA034242EA042343EA7A
:104ED00040033361F0BC704790ED00E0024BD868AE
:104EE000C0F30220704700BF00ED00E0002870B45E
:104EF00022DB00F1604000F5614090F800030009FA
:104F000001F00701C1F10706042E01F1040428BFD6
:104F10000426062C0DD9033901248C40013C0440A1
:104F20000125B540C840691E084010601C6070BC77
:104F3000704700242146F3E7034C00F00F000444BF
:104F4000207E0009DCE700BFFCEC00E043094033B1
:104F500000F01F000122034902FA00F041F823008B
:104F6000704700BF00E100E04309054A403300F00C
:104F70001F0052F8233023FA00F000F001007047C0
:104F800000E100E04309603300F01F000122034903
:104F900002FA00F041F82300704700BF00E100E092
:104FA0004309054A803300F01F0052F8233023FAEA
:104FB00000F000F00100704700E100E0044A1368CF
:104FC00004280CBF43F0040323F00403136070476C
:104FD00010E000E0704700BF08B5FFF7FBFF08BD19
:104FE000F8B50446FCF76AFD002C6ED00222236857
:104FF00084F835201A68002122F0010284F8341068
:1050000005461A6005E0FCF759FD401B05283AD813
:1050100023681A68D107F6D404F10C0027C8676822
:10502000A6683E43304301431143E669206A1F6886
:10503000334A29430E43616A30433A40042942EA25
:10504000000227D01A605A6922F007021143DAB22F
:105050002C4D5961103AA5FB021212092A4823F47B
:105060007F73815CE16523F00303032A88BF043367
:105070003F228A4001250021A36508469A606165A8
:1050800084F83550F8BD032320226265184684F861
:105090003530F8BDE66A216BA06A31430A431A60D5
:1050A0005A6940F0040122F0070211437DB901283A
:1050B00022D001D30228CAD1F201C8D5012340224F
:1050C0006265184684F83530F8BD0120F8BDB5F5A5
:1050D000005F04D00228F1D90328B8D1ECE70328F7
:1050E000B5D801A252F820F0BD500008B950000810
:1050F000BD500008F9500008B6F1C07FA7D1DDE728
:105100003F8010F0ABAAAAAAB00E0108002830D048
:1051100090F83530DBB2022B2CD003681649DAB296
:1051200070B4103A1C68154DA1FB0212120900213F
:1051300024F0010421261C60196059609960D9602F
:1051400019615E6123F47F73AD5CC56523F00303D1
:10515000032A88BF04333F2202FA05F10022836547
:1051600070BC9960426580F8342080F83520104684
:105170007047012318467047ABAAAAAAB00E0108CF
:1051800070B490F83440012C0CD090F835400125D3
:10519000AC4280F8345008D0002380F8343002202C
:1051A00070BC7047022070BC70470468022600255E
:1051B00080F8356045652568866825F48020402E96
:1051C000206063600BBFA260A160E160E2602368C1
:1051D00043F0010323600020E2E700BFF0B490F841
:1051E0003440012C0DD090F83540866D0125AC423D
:1051F00080F8345008D0002380F834300220F0BC0E
:1052000070470220F0BC704704680227002580F830
:10521000357045652568876825F48025402F256011
:1052200063600ABFA260A160E160C16D18BFE26067
:105230003F238B40026CB360236843F01603236066
:10524000636943F0800363611AB1236843F0080384
:105250002360236843F0010323600020CFE700BFF1
:1052600070B50446866DFCF729FC94F83530022BA6
:1052700006D080220023626584F83430012070BD9E
:105280002368216C1A6822F016021A605A6922F00B
:10529000800205465A6131B31A6822F008021A608A
:1052A0001A6822F001021A6005E0FCF707FC401BB7
:1052B00005280FD823681B6813F00103F5D1E16DB1
:1052C0003F228A400121B260184684F8343084F8C5
:1052D000351070BD202200230320626584F834302D
:1052E00084F8350070BDA26C002AD5D1D8E700BF84
:1052F00090F83530022B03D080234365012070479E
:105300000268052380F83530136823F00103136029
:10531000002070472DE9F84F044689469346FCF774
:10532000CDFB23681B68D9053DD48246E36DB9F1F6
:10533000000F35D010229A40A66DDFF8E480356862
:10534000364F2A4240D14FF00809BBF1FF3F09D048
:10535000BBF1000F2DD0FCF7B1FBCAEB0000834579
:1053600027D3E36D09FA03F10D4208FA03F207FAB5
:1053700003F006D0D4F854E04EF0010EC4F854E027
:10538000B160154204D0616D41F002016165B26007
:105390000542DAD0626D42F004026265B060D2E785
:1053A00020229A40C8E74FF4807363650120BDE86E
:1053B000F88F202100220123616584F8342084F8CD
:1053C00035300320BDE8F88F606D18B1626DD207EB
:1053D00014D40120B9F1000F05D0102202FA03F312
:1053E000B360BDE8F88F302202FA03F30122B36004
:1053F00084F8349084F83520BDE8F88F2046FFF714
:105400002FFFE26D3023934000210122B36010464C
:1054100084F8341084F83520BDE8F88F040080004B
:1054200001008000F0B583B00023876D0193C36D48
:105430003D68624908229A40154204460E6803D02E
:1054400001680868400776D45D4A9A40154203D047
:1054500021684969080668D45A4A9A40154203D01F
:105460002168096889075AD410229A40154203D04E
:105470002168086800073FD420229A40154203D0D3
:1054800021680868C00625D4636D0BB3636DDA0725
:105490001AD50523216884F835300B684A4A23F071
:1054A0000103A2FB06020B60920A02E00B68DB0715
:1054B00004D5019B01339A420193F7D200220123C4
:1054C00084F8342084F83530E36C0BB120469847DB
:1054D00003B0F0BDBA6094F83520052A3BD00B68C4
:1054E00013F4802F0B6854D019035FD5E36B002BA6
:1054F000CAD020469847C7E7BA600A6812F4802FDE
:105500000A6822D1D20503D40A6822F008020A6090
:10551000226C002AB0D020469047E36DACE7BA6019
:10552000626D42F0040262659EE7BA60626D42F00D
:105530000202626590E7086820F004000860BA6023
:10554000626D42F0010262657EE71103E0D5A26C54
:10555000002AE0D190E70A68206C22F016020A6067
:105560004A6922F080024A6120B30A6822F00802E8
:105570000A603F22216D02FA03F300200122BB6082
:1055800084F8340084F835200029A1D020468847CB
:105590009EE713F48073A9D10A68012022F010025B
:1055A0000A6084F8343084F835009FE7636C002B80
:1055B0009FD169E7A26C002AD7D1DAE7340700202F
:1055C0000100800004008000B5814E1B90F834304B
:1055D000012B0FD010B4044690F8350001239842F7
:1055E00084F8343008D00022184684F834205DF85E
:1055F000044B704702207047052916D8DFE801F0F8
:10560000120F0C09060322650023ECE7E264002375
:10561000E9E7A2640023E6E762640023E3E722648B
:105620000023E0E7E2630023DDE70023DBE700BFC0
:1056300090F83430012B02460BD090F8350001234E
:10564000984282F8343006D00021184682F834108F
:1056500070470220704706291FD8DFE801F01B18A9
:1056600015120F0C04000023D36313645364936476
:10567000D3641365E8E700231365E5E70023D364EB
:10568000E2E700239364DFE700235364DCE70023B1
:105690001364D9E70023D363D6E70123D4E700BF1F
:1056A00090F83500704700BF406D704770B52F4DC2
:1056B0002B7E012B29D003680446DE074FF0010042
:1056C00028760FD56368A66883424CF250303DD0EF
:1056D00001F0ECF900283CD1254923680A883243BF
:1056E00092B20A80990724D45A0710D41B0709D50F
:1056F000204B207D197801F0F30119701A780243CC
:105700001A70002000232B7670BD022070BD4CF271
:105710005030267E01F0CAF938B9164A137806F0DF
:10572000E00603F01F033343137023681B07E9D51A
:10573000DEE74CF25030266901F0B8F910B90E4B93
:10574000F6B21E7023685A07D0D5E0E701F0AEF933
:1057500018B123689907C7D5EBE7054923680A887C
:1057600092B222EA06020A80BCE700BF041C0020B5
:10577000163C0240143C0240153C02400D4B0E4AC0
:105780001B880F219BB2016083601378DBB2CC2BA6
:1057900004D01378552B14BFAA235523074A03615D
:1057A000536923F01F030376137D03F00C03436159
:1057B000704700BF163C0240153C0240003C0240CE
:1057C0000368DB0712D542680346012A10B54CF284
:1057D00050301C890CD001F069F930B9094A13889E
:1057E0009BB223EA0403138010BD10BD0120704753
:1057F00001F05CF90028F8D1024A13889BB21C43DF
:10580000148010BD163C0240014B1B880381704779
:10581000163C0240034A137843F0800313700020C3
:10582000704700BF173C0240034A137803F07F0320
:1058300013700020704700BF173C024039B10129A6
:1058400021D002290CBF4FF400714FF440710F4B6F
:105850001A6922F440721A611A69114319611A69AE
:1058600022F0F8021A61F82191FAA1F11A69B1FA4D
:1058700081F142F002028840104318611A6942F433
:1058800080321A6170474FF48071E0E7003C0240BB
:105890001C4A38B5137E012B31D01B4B196941F0DE
:1058A000807119611969F32441F000711961DC609C
:1058B00001680124A14214760BD0C5688368017C7D
:1058C00014705560D36011728068FFF7B7FF002035
:1058D00038BD41680224147011611A69016922F40B
:1058E00040721A611A6942F004021A611A69C9B257
:1058F00042F4803242EA01221A61002038BD0220BF
:1059000038BD00BF041C0020003C0240144B1A6844
:1059100091050FD51A6822F400721A601A6842F4D1
:1059200000621A601A6822F400621A601A6842F46F
:1059300000721A600A4B1A6852050FD51A6822F4D1
:1059400080621A601A6842F480521A601A6822F45F
:1059500080521A601A6842F480621A60704700BF71
:10596000003C02402DE9F8432D4F3B7E012B02D134
:105970000220BDE8F883012304464CF250308846EB
:105980003B7601F093F8064648BB4FF0FF33C8F86A
:1059900000302368012B27D0A568E3682B449D4283
:1059A0001BD2DFF8809005E0E268A368013513445C
:1059B000AB4212D9217C2846FFF740FF4CF2503011
:1059C00001F074F8D9F8103023F0FA03C9F8103058
:1059D0000028E9D0C8F800500646FFF797FF0023DB
:1059E00030463B76BDE8F8830E4D22692B6923F4DF
:1059F00040732B612B6943F004032B612B69D2B2F6
:105A000043F4803343EA02232B614CF2503001F01F
:105A10004DF82B6923F0040306462B61DDE700BF38
:105A2000041C0020003C024070B48468802C24D008
:105A300090F83450012D06D090F835500126B5422B
:105A400080F8346002D0022070BC704705680226DE
:105A500080F83560286840F480202860402C2B6155
:105A6000039B6B600BBFAA60A960E960EA602B68CA
:105A700043F001032B600020E6E74FF48073436599
:105A800070BC0120704700BFF0B48468802C1ED029
:105A9000C56BBDB1456CADB1C56C9DB190F83450CE
:105AA000012D0CD090F835500126B54280F83460B5
:105AB00013D0002380F834300220F0BC704702205D
:105AC000F0BC704740234365F0BC012070474FF4A1
:105AD00080734365F0BC01207047056800260227EB
:105AE00080F8357046652E6846F480262E602B615E
:105AF000049B6B60B34B402C0BBFAA60A960E960AC
