:020000040800F2
:100000000080012065C00008B5C00008B5C0000828
:10001000B5C00008B5C00008B5C000080000000069
:10002000000000000000000000000000B5C0000853
:10003000B5C0000800000000B5C00008412000085D
:10004000B5C00008B5C00008B5C00008B5C00008BC
:10005000B5C00008B5C00008B5C00008B5C00008AC
:10006000B5C00008B5C00008B5C00008B5C000089C
:10007000B5C00008B5C00008A5200008B1200008E0
:10008000B5C00008B5C00008D52000080000000079
:10009000000000000000000000000000B5C00008E3
:1000A000B5C00008B5C00008B5C00008B5C000085C
:1000B00099200008B5C00008B5C00008B5C0000808
:1000C000B5C00008B5C00008B5C00008B5C000083C
:1000D000BD200008B5C00008812000080000000015
:1000E000B5C00008B5C00008B5C000080000000099
:1000F000000000000000000000000000B5C0000883
:1001000000000000B5C0000875200008B5C0000858
:1001100000000000000000000000000000000000DF
:10012000C9200008512000085D200008B5C0000863
:10013000B5C0000800000000000000000000000042
:10014000000000000000000000000000B5C0000832
:1001500069200008B5C00008B5C000088D2000085F
:10016000B5C00008B5C00008000000000000000095
:10017000000000000000000000000000000000007F
:1001800000000000B5C000080000000000000000F2
:04019000B5C00008EE
:1001C000134B002B08BF114B9D46A3F5803A00212D
:1001D0008B460F461148124A121A0BF0BDFD0D4B0B
:1001E000002B00D098470C4B002B00D098470020E4
:1001F000002104000D000B480BF05CFD0BF084FDAA
:10020000200029000BF0BEFE0BF05AFD0000080094
:100210000000000000000000000000003C09002079
:1002200084390020E1BC00080A4A08B5136873B19C
:1002300018446946884202D81060184608BD0DF07F
:10024000A5F80C2303604FF0FF33184608BD024B9E
:100250001360EDE73C0900208839002011B100232C
:100260000B604B6000207047704700BF0120704753
:1002700008B50DF08BF8162303604FF0FF3008BD72
:1002800008B50DF083F816230360FEE770B5161E5F
:1002900007DD0C468D1914F8010BAFF30080A54261
:1002A000F9D1304670BD00BF4FF0FF30704700BF3E
:1002B0004FF400534B600020704700BF012070478F
:1002C0000020704770B5161E07DD0C468D19AFF380
:1002D000008004F8010BA542F9D1304670BD00BF83
:1002E0000EB44FF0FF3003B0704700BF08B50DF0FB
:1002F0004DF80A2303604FF0FF3008BD08B50DF03C
:1003000045F8022303604FF0FF3008BD4FF0FF3087
:10031000704700BF4FF400534B600020704700BF90
:1003200008B50DF033F81F2303604FF0FF3008BD10
:1003300008B50DF02BF80B2303604FF0FF3008BD1C
:1003400008B50DF023F80C2303604FF0FF3008BD13
:10035000C3B207EE103AB8EEC77ADFED306A27EE87
:10036000006AC0F30723B4EEE66AF1EE10FA84B037
:1003700007EE903AC0F307404ADC9FED296A60EE31
:10038000066A26EE877AC7EE066ABCEEE67A8DED3F
:10039000007A9DF800109FED217AF8EEE77A60EE82
:1003A000276AF4EEC76AF1EE10FA33DCDFED1C6A5F
:1003B00020EE267A67EE277A87EEA67AFCEEC77AD9
:1003C000CDED007A9DF800209FED147A07EE900A9B
:1003D000F8EEE77A60EE276AF4EEC76AF1EE10FAFB
:1003E0001ADC9FED0F7A20EE070A20EE270AC0EEF6
:1003F000077AFCEEE77ACDED007A9DF80030002018
:1004000061F3070062F30F2063F3174004B07047F5
:10041000FF21C0E7FF22D7E7FF23F0E700007F437B
:100420000000C842C2B2C0F3072302EB820202EB13
:10043000820203EB8303C0F3074030B59200124CF5
:1004400003EB830300EB800001FB02F200EB800072
:100450009B00A4FB025201FB03F38500C2F3473269
:10046000A4FB03E301FB05F1002062F30700C3F3E3
:100470004733A4FB012163F30F20C1F3473161F33C
:10048000174085B005B030BD5917B7D110B4C0F3CF
:10049000072251FA80F40A44FF2CC0F307431944A1
:1004A00028BFFF24FF2AE4B228BFFF220020FF2933
:1004B00064F30700D2B228BFFF2162F30F20C9B254
:1004C00061F3174085B005B05DF8044B704700BF7D
:1004D0002DE9F04101268E4082B002EB4202F64344
:1004E0000193C3F3072EDFB200EBC20076B2C1F175
:1004F0000701C3F3074300250EFA05F4027890F8CC
:10050000088090F810C004F080040C41324022436F
:1005100006EA080806EA0C0C80F8088080F810C08B
:1005200000F8012B07FA05F403FA05F290F80780AA
:1005300090F80FC004F0800402F080020C410A41E0
:10054000013544EA080442EA0C02082DC471C27362
:10055000D2D102B0BDE8F081F0B502EB4202002535
:1005600000EBC20083B02A462E462F4610F801EB5E
:10057000C479C37B4EFA01FE0C410B410EF0010E13
:1005800004F0010403F001030EFA05FEAC40AB4099
:1005900001354EEA06063C431343082DF6B2E7B296
:1005A000DAB2E3D1002067F3070066F30F2062F3AD
:1005B000174003B0F0BD00BFF0B502EB420287B0B8
:1005C00000EBC202013A0DF1FF330DF1170412F8EE
:1005D000010F03F8010F9C42F9D100250026B64611
:1005E00037460DF1FF34072014F801CF237C227A1F
:1005F0002B414CFA05FC2A4103F0010383400CF027
:10060000010C02F001020CFA00FC82403343013875
:100610004CEA070742EA0E02DEB2431CFFB25FFA61
:1006200082FEE1D10135082D4F7081F800E08E7017
:1006300001F10301D2D107B0F0BD00BF2DE9F047B1
:1006400086B000231F4600931E4601930293039336
:100650000493059391F8018091F800C091F802E0AD
:100660006C46072501E02778013D48FA05F303F0C1
:100670000103B3403B4304F8013B4CFA05FA4EFA40
:1006800005F394F80790E77B0AF0010A03F00103F1
:100690000AFA06FAB3404AEA09093B4384F807908C
:1006A000E373002DDFD10136082E01F1030102D0E2
:1006B0009DF80070CEE702EB420200EBC202013A65
:1006C0000DF1FF330DF1170013F8011F02F8011FA0
:1006D0009842F9D106B0BDE8F08700BF70B586B08A
:1006E0000C46054669461646FFF766FF3246214628
:1006F0002846FFF7A3FF00230DEB0302E118108843
:10070000E052033392788A70182BF5D106B070BD91
:1007100001F09EB970B5354C354B236092B0002383
:1007200063222046E2606360A360236105F01CFE43
:1007300000284CD112A94FF4805341F8403D2B487A
:1007400005F05CFB00283FD1284805F045FE002855
:1007500037D1002306A925480693079305F016FC18
:1007600060BB0023694621480093019309F0A0FA79
:1007700008BB002360261E251A460BA91B480D93B3
:100780000F93109311930B960C9505F0FBFF78B91E
:1007900050230BA9042215480C9305F0F3FF08B170
:1007A00001F056F9124B2068984213D012B070BD78
:1007B00001F04EF9ECE701F04BF9DAE701F048F906
:1007C000CFE701F045F9C4E701F042F9BCE701F0D9
:1007D0003FF9AFE70122002106F0BCF820680122B2
:1007E000042106F0B7F812B070BD00BFFC0A00206B
:1007F0000000014010B5174C002384B04FF0804139
:100800004FF4C87220462160E2606360A3602361F8
:1008100005F0AAFD80B904A94FF4805341F8103DBA
:100820000C4805F0EBFA08B101F012F90A4B206808
:10083000984204D004B010BD01F00AF9EBE70122A0
:10084000002106F087F820680122042106F082F8D2
:1008500004B010BD740B0020000001400368B3F128
:10086000804F00D070470A4B1B68196A41F2111281
:10087000114208D1196A40F24442114203D11A6868
:1008800022F001021A60034B01221A70704700BF68
:10089000740B00203C000020F0B55C4A03689342D2
:1008A00083B01AD0B3F1804F01D003B0F0BD03F58F
:1008B0000E33002201921A6C42F001021A641B6C82
:1008C00003F001030193022203211C20019B09F084
:1008D0006DFA1C2009F0A0FAE7E7002302F59C322C
:1008E0000093516C4A4DDFF840C1EB6041F00101CB
:1008F0005164526C2B6102F00102044600924020C8
:100900004FF0406E4FF480474FF44036009A6B61D1
:10091000EB612B63042103224FF40003A8602846F7
:10092000C5F800C0C5F804E0AF612E626962AA6232
:10093000EB6203F061FD002865D1364EE5614FF0B2
:10094000406140224FF480604FF48043DFF8DCE0E8
:10095000AC634FF4403704257160B26003214FF45B
:1009600000023061B36130460023C6F800E0376210
:100970007562B162F262F3607361F361336303F035
:100980003BFD00283CD1244D244A26624FF04060B4
:100990004023B4634FF48037042603212A60686043
:1009A0004FF40002AB60284600232F626E62A962FA
:1009B000EA62EB602B616B61AB61EB612B6303F06F
:1009C0001BFDD0B92A68656213681248AC6343F016
:1009D000100313600021124A04F01CF850B9114AA8
:1009E0000C48042104F016F800283FF45EAF01F033
:1009F0002FF85AE701F02CF8F1E701F029F8E1E7C8
:100A000001F026F8BFE701F023F896E70000014067
:100A10003C0A0020B00B00209C0A002040640240E9
:100A2000BD1E0008110700088864024028640240C7
:100A3000094A0368934200D0704710B5044601226A
:100A40001846002105F086FF206801220421BDE838
:100A5000104005F07FBF00BF00000140114A03684D
:100A600093420BD0B3F1804F00D070470E4A136C05
:100A700023F0010313641C2009F0DAB902F50B32EC
:100A800010B5136C044623F00803006A136403F0E6
:100A90004BFDE06903F048FD606ABDE8104003F0DB
:100AA00043BD00BF000C0040003802403D4B0268CF
:100AB0009A4200D070472DE9F047054682B03A4887
:100AC0003A4EDFF80081DFF800A10CF075FC06F16A
:100AD000080934464746617850460CF06DFC14F81E
:100AE000013F07F8013FA145F5D131480CF0B8FCB2
:100AF00016F8013F7BB9A642FAD12E4A08F8013F09
:100B00004245FBD1284608232B4A2C4908F02AFAF3
:100B100002B0BDE8F087284B1A78C2B99978D87826
:100B20005A7840EA0120B2B1012A10D15A791E79CF
:100B3000DC799979130443EA0663234343EA0121EC
:100B400001F074FD88B91D4B08225A70DAE71B4B7F
:100B500081225A70D6E7694601F02AFD9DF80430DB
:100B60005BB1164B84225A70CCE7012815D00328BC
:100B70000FD1124B8C225A70C4E7009A0F4B160EFD
:100B80000424100C110A1E71DA715C70587199718D
:100B9000B8E70B480CF064FCB4E7084B88225A70A5
:100BA000B0E700BF00380040BC4D0108370D002001
:100BB000E04D0108D70C0020380D0020D00C00209B
:100BC000D04D0108CF0C0020C84D01080D4B0E4A36
:100BD00010B50A211A604FF40074002218469C6177
:100BE000D9625A609A60DA601A615A611A625A626E
:100BF0009A6207F069FE00B910BDBDE8104000F030
:100C000027BF00BF100C002000380040344B0268A2
:100C10009A4200D07047F0B587B0002503F5003345
:100C200000951A6C2F4E42F480421A641B6C039597
:100C300003F480434FF444410093032205230191C0
:100C4000044602272848049201A90593DDF800E034
:100C5000029702F07FFE254A75604FF480633046AC
:100C6000B560F5607561B561F561356275623260D8
:100C7000336103F0C1FB00282BD132681C4D13688F
:100C8000E66443F01003B46340211360194E2E60F4
:100C900000234FF480622846A9602A616B60EB60F4
:100CA0006B61AB61EB612B626B6203F0A5FB98B9E2
:100CB0002A68A5641368AC6343F010031360052130
:100CC0000222242009F072F8242009F0A5F807B0C8
:100CD000F0BD00F0BDFED0E700F0BAFEE8E700BFCF
:100CE00000380040680C00200004024058600240B8
:100CF000D80C0020706002400C4B02689A4200D071
:100D000070470B4A10B5136C044623F4804309481E
:100D100013644FF4444102F00BFFE06C03F004FC59
:100D2000A06CBDE8104003F0FFBB00BF00380040DE
:100D3000003802400004024008B5072009F024F8FA
:100D4000002211466FF00B0009F030F80022114626
:100D50006FF00A0009F02AF8002211466FF009002E
:100D600009F024F8002211466FF0040009F01EF883
:100D7000002211466FF0030009F018F80022114616
:100D80006FF0010009F012F8002211464FF0FF3019
:100D9000BDE8084009F00AB82DE9F0478AB0394BA0
:100DA000394F3A4D3A4E002401941A6B42F0040236
:100DB0001A631A6B02F004020192019A02941A6BF0
:100DC00042F080021A631A6B02F080020292029AC9
:100DD00003941A6B42F001021A631A6B02F00102CB
:100DE0000392039A04941A6B42F002021A631B6B7B
:100DF000069603F00203049338464FF4005305A906
:100E00000126049A05934FF002094FF0FF0A079458
:100E100002F0A0FD05A938460794CDF814A0069667
:100E2000CDF8209002F096FD07230C2205A9284654
:100E3000099305924FF02008CDF818900794089474
:100E400002F088FD05A92846CDF820900696079661
:100E5000CDF8148002F07EFD32464146284602F06D
:100E6000FDFE642002F002F822464146284602F0C8
:100E7000F5FE22465146384602F0F0FE0AB0BDE8C3
:100E8000F08700BF00380240000802400000024026
:100E900000001210024B1B6880B21880704700BF20
:100EA00000000020024B1B68188880B201F0DEBFF2
:100EB000000000202DE9F8430D4DDFF8389005F1D2
:100EC0001004A0460126274654F8041BB5EC010A7D
:100ED00007EE901AF8EEE77A09EB860080EE270A13
:100EE0000BF0EAF83B6845451E44ECD1BDE8F883B9
:100EF00004000020D02300202DE9F04F87B0684681
:100F00004FF480710BF0F6F8464B474C586A04F5E5
:100F10008065018830F8023C428803EB41031344AA
:100F200007EE903AF8EEE77A0430E4EC017AA54255
:100F3000EFD13E4A3C493E4CDFF80081DFF800B17A
:100F40009246684600230BF009FA51464FF480722E
:100F500050460BF0FBFE04F1100946460125A8009F
:100F6000274633460BEB000154F8042B50440BF09A
:100F7000A7FE3B684C4506F104061D44EFD12D4AFF
:100F80002D4B92ED004AD2ED014A92ED025AD2ED7C
:100F9000035A244998ED006AD8ED016A98ED027A67
:100FA000D8ED037A91ED0A3A93ED001AD3ED011AC8
:100FB00093ED022AD3ED032AD1ED0B3A36EE446AC3
:100FC00076EEE46A37EE457A77EEE57AA6EE034AE6
:100FD000E6EE834AA7EE035AE7EE835A36EE416AFD
:100FE00076EEE16A37EE427A77EEE27A26EE236A0F
:100FF00066EEA36A27EE237A67EEA37A82ED004AB3
:1010000083ED006AC2ED014AC3ED016A82ED025A26
:1010100083ED027AC2ED035AC3ED037A07B0BDE84F
:10102000F08F00BF00000020D0270020F82F002004
:1010300014000020400D0020D42F0020E42F0020B9
:10104000D02300202DE9F8434378202B044638D0E4
:10105000002103300DF02CFA23786C2B40D0682B44
:101060003AD163786D2B37D10225214CDFF8888087
:1010700004EB850383ED010A10EE100A09F04CFF22
:1010800002460B461B4829460CF096F904F114055C
:10109000A946043401262F4655F8041BB4EC010A76
:1010A00007EE901AF8EEE77A08EB860080EE270A42
:1010B0000BF002F83B684C451E44ECD10020BDE823
:1010C000F883002102300DF0F3F923786C2B0DD05A
:1010D000682B08BF0325C8D04FF0FF30BDE8F88368
:1010E00063786D2B08BF0125BFD0F5E70025BCE76D
:1010F00000000020E44D0108D02300202DE9F84332
:1011000003786C2B3BD06D2B37D0682B39D102255F
:10111000204C0A22002102300DF07EFA04EB8501FA
:101120004F6948616369A669E269C3F580739B1BD7
:101130009B1A002B29DB024629461748DFF85C8002
:101140000CF03AF904F11405A946043401262F469F
:1011500055F8041BB4EC010A07EE901AF8EEE77A92
:1011600008EB860080EE270A0AF0A6FF3B684C4594
:101170001E44ECD10020BDE8F8830125C8E7002516
:10118000C6E74FF0FF30BDE8F8834F614FF0FF3006
:10119000BDE8F88300000020FC4D0108D0230020AA
:1011A0002DE9F0430378613B83B00C46132B00F22A
:1011B0000681DFE813F039006400040104018500B2
:1011C000C300040104010401040104010401040139
:1011D00004010401CC00040104010401140043785B
:1011E000692B00F06181732B40F0E980BC4B08460D
:1011F0000A2201A9D3F830510DF00EFA04460198E5
:101200000378002B40F0228123464FF0FF32B5498E
:10121000B5480CF0D1F8E1B2284608220AF09CFD4E
:10122000002003B0BDE8F0834378652B00F03381E4
:10123000642B03D18378652B00F07781A84B20467F
:1012400001A90A22D3F830510DF0E6F904460198BD
:10125000037805F12006002B40F0EA8023464FF08A
:10126000FF32A249A0480CF0A7F8A0B228846884F5
:10127000A884E88428856885A885E885D0E7984B08
:1012800008460A2201A9D3F830510DF0C5F90446E9
:101290000198037805F13006002B40F09580234635
:1012A0004FF0FF32924990480CF086F8A0B22886A1
:1012B0006886A886E88628876887A887E887AFE7D2
:1012C0004378712B7BD14B78202B6CD00021E01C14
:1012D0000DF0EEF823786C2B00F0D680682B6ED1E1
:1012E00063786D2B6BD10225824CDFF81C8204EBF6
:1012F000850383ED010A10EE100A09F00DFE024687
:101300000B467D4829460CF057F804F11405A94610
:10131000043401262F4655F8041BB4EC010A07EEED
:10132000901AF8EEE77A08EB860080EE270A0AF0BA
:10133000C3FE3B684C451E44ECD171E74378732BE8
:101340003DD10846FFF7DAFE03B0BDE8F0834378ED
:10135000732B634B08464FF00A0201A9D3F83051B2
:1013600043D00DF059F904460198037805F1400681
:10137000002B7BD123464FF0FF3260495A480CF0D6
:101380001BF8A0B2A5F84000A5F84200A5F844005B
:10139000A5F84600A5F84800A5F84A00A5F84C00B5
:1013A000A5F84E003CE70021A01C0DF081F8237841
:1013B0006C2B00F0C380682B08BF032594D04FF03E
:1013C000FF3003B0BDE8F08301A90A220DF024F933
:1013D000234607460246464943480BF0EDFF072FD8
:1013E0003FF664AF26F817401AE70DF015F90446EA
:1013F0000198037805F15006002B40F087802346C2
:101400004FF0FF323E4938480BF0D6FFA3B2A5F8A3
:101410005030A5F85230A5F85430A5F85630A5F84C
:101420005830A5F85A30A5F85C30A5F85E30F7E6DC
:1014300001A90A220DF0F0F82346074602462B497F
:1014400029480BF0B9FF072FCCD90EE701A90A22D2
:101450000DF0E2F8234606460246224922480BF0E8
:10146000ABFF072E3FF6D7AEAC55D9E601A90A224D
:101470000DF0D2F823460746024620491A480BF0E1
:101480009BFF072FAED97CE763786D2B08BF012542
:101490003FF42AAF93E7084600210DF009F8154BF9
:1014A000002083ED0A0ABCE60D4BD3F83031084624
:1014B0000A2201A903F110040DF0AEF805460198C7
:1014C0000378002B3CD12B464FF0FF320D490648E4
:1014D0000BF072FFE9B2204608220AF03DFC9FE6BD
:1014E000F8330020704E0108244E01083C4E0108DC
:1014F000184E010800000020E44D0108544E010878
:10150000484E0108604E0108D023002001A90A229C
:101510000DF082F8234607460246114911480BF0A8
:101520004BFF072F7FF65EAF70E7084600210CF0F7
:10153000BFFF0D4B002083ED0B0A72E60025D3E6BA
:1015400001A90A220DF068F82B4606460246074913
:1015500004480BF031FF072EBCD8A55560E600BF4C
:10156000484E0108244E010800000020604E01088A
:1015700008B500210CF09CFF024B002083ED0A0A05
:1015800008BD00BF0000002008B500210CF090FF4E
:10159000024B002083ED0B0A08BD00BF00000020B5
:1015A000F8B52DED028B0E46B0EE408A174609F0D5
:1015B000A1FC02460B460020244909F02BFE0446FC
:1015C00038460D4609F096FC02460B462046294651
:1015D00009F0F6FC04461E4880FB06303044F31741
:1015E000C3EB20204FF4B47303FB10600D4609F0E9
:1015F00081FC02460B462046294609F02DFB09F0E6
:1016000011FF9FED147A07EE900AF4EEC77AF1EE1F
:1016100010FA0CDADFED106A87EEA67AB7EE000A50
:1016200030EE470A20EE080ABDEC028BF8BD77EEDB
:10163000C77A9FED097A87EE870AF7EE007A30EED7
:10164000670A20EE080ABDEC028BF8BD00807640E8
:10165000B7600BB6000034430000B442F0B583B06D
:101660000546164608460A2201A90CF0D5FF044695
:101670000198037893B9314623464FF0FF32104862
:101680000BF09AFEA0B228806880A880E8802881AC
:101690006881A881E881002003B0F0BD01A90A2279
:1016A0000CF0BAFF234607460246314604480BF0C9
:1016B00083FE072FE6D8002025F8174003B0F0BDC1
:1016C000244E0108F0B583B00546164608460A22A6
:1016D00001A90CF0A1FF04460198037873B93146C3
:1016E00023464FF0FF320E480BF066FEE1B228466B
:1016F00008220AF031FB002003B0F0BD01A90A2244
:101700000CF08AFF234607460246314604480BF098
:1017100053FE072FEAD80020EC5503B0F0BD00BF00
:10172000244E010808B510220CF076FFB0F5803F7A
:1017300005D3014602480BF03FFE4FF0FF3008BDD5
:101740007C4E010810B5102282B000210CF064FF1D
:10175000B0F5803F04460ED2694600F029FF9DF89F
:101760000430012B0FD0224600990A480BF024FECA
:10177000002002B010BD014607480BF01DFE4FF0DF
:10178000FF3002B010BD214604480BF015FE0220C8
:1017900002B010BDD04E01087C4E0108A04E0108D9
:1017A00030B583B001A910220CF036FFB0F5803FB0
:1017B00004461CD201A9102201980CF02DFF01460D
:1017C0000546204600F032FF012818D0032807D034
:1017D000224629460D480BF0EFFD002003B030BD36
:1017E00021460B480BF0E8FD042003B030BD014654
:1017F00008480BF0E1FD4FF0FF3003B030BD21464B
:1018000005480BF0D9FD022003B030BD144F01088C
:10181000E44E01087C4E0108A04E010830B5154B7E
:10182000154A93E803008DB004AC84E8030000235C
:10183000126B07930693089309930A930B931378FB
:10184000012B0BD005226D4668460C490BF074FE47
:10185000294620460BF0B0FD0DB030BD084B93E893
:1018600003006D468DE80300294620460BF0A4FDD9
:101870000DB030BD584D010800000020304F010868
:10188000284F010870B500238EB005461946202266
:1018900006A803930293049305930AF05DFA2021AE
:1018A00028460BF0E5FD0D21064628460BF0E0FD2D
:1018B000002800F089800446002E00F09680721BFC
:1018C000294602A80BF038FEA21B013A711C06A89B
:1018D0000BF032FE9DF80830633B142B2BD8DFE869
:1018E00003F0312A2A384A2A2A2A2A2A2A2A2A2A84
:1018F0002A592A2A2A2A0B009DF80930722B1AD15C
:101900006946102206A80CF087FEB0F5803F044619
:101910007CD26946102200980CF07EFE01460546F6
:10192000204600F083FE012875D0032878D1214697
:101930003E480BF041FD3E4B06A902A81B689847A4
:101940000EB070BD9DF80930682B51D000200EB04C
:1019500070BD9DF80940002CEDD106A80BF00EFDDE
:101960000546014633480BF027FD334B1B68ADB2EB
:1019700020461D80E4E706A80BF000FD0146044662
:101980002E480BF019FD2C4B5B6BA4B200201C8081
:101990000EB070BD9DF80930642BCCD1102200210F
:1019A00006A80CF039FEB0F5803F04462ED26946F9
:1019B00000F0FEFD9DF80430012B2CD0224600994A
:1019C0001F480BF0F9FCC1E70A2128460BF050FD37
:1019D000044600287FF470AF014628460BF048FD0E
:1019E000044616B100287FF46AAF4FF0FF30A7E736
:1019F0009DF80A30612BA9D106A80BF0BFFCF02896
:101A0000A4D80D4B9B6BC0B218709FE721460D48C0
:101A10000BF0D2FC8FE721460B480BF0CDFC8AE798
:101A20002246294609480BF0C7FC8FE7E44E01081F
:101A3000F42F0020344F010800000020484F010817
:101A4000D04E01087C4E0108A04E0108144F010839
:101A500008B5044C2046202102F004F9642001F06E
:101A600005FAF7E70000024070B5214C94F83C30CD
:101A700006460D4633B9012001F0F8F994F83C30E0
:101A8000002BF8D000231B4884F83C3001F074FD93
:101A90002B46194A19491A4802F0AEFD28BB3146B7
:101AA0002B46154A174802F0A7FDF0B92B46124AFB
:101AB0001549164802F0A0FDB8B9154B1B68DA6845
:101AC00042F48072DA60DA6842F40072DA60DA684E
:101AD000A0F5803042F480625121DA6018615962C9
:101AE0001A6842F001021A6070BDFFF7B1FF00BF33
:101AF00000000020B43800201408024040000020FC
:101B00003C0A0020B00B0020440900209C0A002061
:101B1000FC0A00202DE9F04FDFF89C83DA4BDB4A0A
:101B2000C8F86420DA4CDB4DDB48DC49A46BC8F80C
:101B3000340008F104022DED0E8BC3F830214FF074
:101B400001134FF07812C8F80420C8F80820C8F82C
:101B50000C20C8F81020C8F814304FF06412C8F8F0
:101B60002430C8F81830C8F82830C8F81C30C8F835
:101B70002C30C8F82030C8F83030C94BC8F83800CD
:101B8000C8F83C00C8F84000C8F84410C8F848102D
:101B9000C8F84C10C8F85010C8F85420C8F858209D
:101BA000C8F85C20C8F860202B6093B02378DFED84
:101BB000BDDA9FEDBDAA11AFB54B5B6C1B7803F08E
:101BC000FF091BB1C82001F051F9F5E7B04B1B68C4
:101BD000188880B201F04AF9B8F81A30AC4A98ED8A
:101BE0001D2AD06C916B0078A948D8ED1E2A98ED7B
:101BF0001F3A0978806C526B029004EE903AB8F864
:101C00001C30B8F834001288D8ED203AB8F84440B7
:101C1000D8F8646005EE903AB8F81E3006EE903AB7
:101C2000B8F8203007EE903AA04B93ED004AB8F890
:101C30000A3000EE103A9D4B93ED015AB8F80C3083
:101C400000EE903A994B93ED026AB8F80E30F8EE38
:101C5000644A01EE103AF8EE655AF8EE666A64EEF0
:101C6000844A65EE855A66EE866AB8EE400AF8EE5A
:101C7000600AB8EE411A8D4B84EE804A01F0FF05F0
:101C8000039592B285EEA05A86EE816A93ED037AAF
:101C9000B8F81030F8EE677A01EE903A67EE877A7E
:101CA000F8EE611AD8F8883087EEA17A013372EE27
:101CB000444A72EEC55A73EE466A09EE100AC8ED40
:101CC0001D4AB8F85400C8ED1E5AC8ED1F6AC8F87E
:101CD0008830B8F82A3004EE903AB8F82C3005EE87
:101CE000903A734B73EEC77A93ED026A93ED037AE1
:101CF00093ED004A93ED015AB8F82E30C8ED207AE2
:101D000006EE903AB8F8303007EE903AF8EE677A7F
:101D1000F8EE666A67EE877A07EE104A66EE866A24
:101D2000F8EE644AB8EE476AF8EE655A07EE100A14
:101D300064EE844A65EE855AB8EE477ACDED0D4AD9
:101D4000CDED0E5ACDED0F6ACDED107ACDEE869A1F
:101D50008DEE87DAB8EE499A002900F0888007EE08
:101D6000902AF8EE67AA07EE909AB8EEE78A514DEE
:101D700028EE0D8A0DF1340A04ACD5ED007AFAECA8
:101D8000018AB0EE480AA9EEA70AB047AB46F5ECC7
:101D9000017AB0EE487AA9EEA77A0334F0EE49BA98
:101DA000E8EE80BA37EE0A0AB047DBED007AB0EE13
:101DB000487AA9EEA77AB0EE49EAA8EE80EA37EEB3
:101DC0004A0AB047B0EE49BAA8EE80BA7BEE8E7AE6
:101DD00077EE8B7ACAEEA78A6BEEA87A17EE900A96
:101DE00009F09AF841EC100B12F050FF6BEE287AD4
:101DF000B0EE40CAF0EE60CA17EE900A09F08CF817
:101E000041EC100B12F042FF6EEE287AB0EE40BAB1
:101E1000F0EE60BA17EE900A09F07EF841EC100B74
:101E200012F034FF51EC1C0B8DED000B09F0DAFAC7
:101E3000A07151EC1B0B09F0D5FA9DED000BE07180
:101E400051EC100B09F0CEFABA45207295D14A46F2
:101E500004A90298FEF7F2FB039B09F101099945D9
:101E600081D10B4BB9F1F00F9B6C029308D8039B07
:101E7000029803EB4301C90089B2FFF7F5FD9BE629
:101E80004FF4B4511846F7E7F833002039CC000876
:101E900000000020F42F0020401F401F2C012C01C7
:101EA000A1110008DB0FC940920A0640D42F002080
:101EB000400D0020B809002044090020294B2A4881
:101EC000596A70B54FF4007201F0CAFA002846D181
:101ED000264B1A6800E00130536A4F2BFBD91328B8
:101EE000F9DD136823F001031360116A41F2111345
:101EF000194208D1116A40F24443194203D11368D0
:101F000023F0010313601A4D1A4C1B491B481C4B4C
:101F100000681B6800266E6125680C68296821F03E
:101F200001012960216821F001012160016821F08F
:101F300001010160D16821F48071D160D16821F480
:101F40000071D160D16821F48061D160DA6842F01B
:101F50000102DA601A6842F001021A6070BDFFF7F0
:101F600077FD00BF00000020B4380020FC0A0020EC
:101F7000000802409C0A00203C0A0020B00B002010
:101F8000740B0020F0B595B00022284B0192186C1C
:101F9000274940F0805018641B6C03F08053019374
:101FA000019B02920B6823F4404343F400430B600F
:101FB0000B680F9203F4404302930224102301267E
:101FC0004FF4A8710425072208A8029F08940E94D4
:101FD0000B960C93109311911295139208F010F830
:101FE00008BB034621464FF480520F2603A80494F1
:101FF000059307930396069208F020FA044690B9D9
:1020000008F0D4FA0B4BA3FB0030800907F030FF37
:10201000284607F0E1FF224621464FF0FF3007F047
:10202000C5FE15B0F0BDFFF713FD00BF003802403C
:1020300000700040D34D621008B5FFF76BFD00BF84
:1020400008B500F005FFBDE8084007F0D3BF00BFAA
:10205000014802F00BBC00BFB00B0020014802F0A9
:1020600005BC00BF9C0A0020014802F0FFBB00BF76
:102070003C0A0020014804F053B800BFFC0A0020CD
:10208000014806F0B1B800BF70370020014806F0E3
:10209000ABB800BF30370020014804F041B800BFA2
:1020A000740B0020014BD86C02F0E0BB100C002038
:1020B000014B986C02F0DABB100C0020014807F0CD
:1020C000C7B900BF100C0020014802F0CFBB00BF11
:1020D000FC380020014801F0C1BA00BFB43800202C
:1020E00010B582B0234B002400941A6B42F4001206
:1020F0001A631A6B02F400120092009A01941A6B90
:1021000042F480021A631B6B03F4800301930122E3
:1021100002210F20019B07F049FE0F2007F07CFEF3
:10212000224602210E2007F041FE0E2007F074FE29
:1021300001221146392007F039FE392007F06CFEE4
:1021400001221146442007F031FE442007F064FECE
:10215000012211463A2007F029FE3A2007F05CFEE2
:1021600022460321382007F021FE382007F054FED4
:1021700002B010BD00380240F8B51E4C1E4E0025BE
:10218000042329464FF4887204F1080063802580F7
:10219000656009F0E1FD194B84F82551186893F842
:1021A00004E01F8A84F8285184F8295184F82A51C0
:1021B00084F82C5184F82D5184F82E5184F82F5135
:1021C00053F8085F94F82B210D49C4F8180198883A
:1021D000366884F81CE1012342F0010284F82431BE
:1021E000A4F82671C4F81E51A4F8220184F82B210A
:1021F0000E60F8BDF833002050000020784D010833
:10220000C80C0020002310B48B704B706AB90123F6
:102210004A604B7090F834315DF8044B092243F06A
:10222000010380F834310A707047042A0DD103226B
:10223000012348600A704B7090F834315DF8044B0C
:1022400063F07F0380F834317047082A34D0B2F548
:10225000047FC0F09D80A2F58054B4F5805F30D239
:10226000B2F5805F4ED041F20104A2424FD041F25C
:102270000204A24250D041F20304A24256D041F2DD
:1022800004039A425ED041F206039A4266D041F2BC
:1022900008039A4270D041F210039A4272D041F280
:1022A00014039A42B6D10123002400F225120C70C7
:1022B0008B704B704A60BFE70222031D0A704B60AF
:1022C000BAE7A2F50054B4F5805FA3D2B2F5005F7F
:1022D00027D042F20204A2422FD042F204039A42D3
:1022E00036D042F208039A423ED042F20C039A42A0
:1022F00090D10123002400F22F120C708B704B70D0
:102300004A6099E700F58C720B704A6094E700F21E
:1023100019120B704A608FE700F21B120B704A60B3
:102320008AE700F593720B704A6085E700F58E74BA
:1023300001220B704C604A707EE700F227120B708E
:102340004A6079E7012200F58F730A704B6073E7EA
:10235000072200F594730A704B606DE7012200F5C7
:1023600090730A704B6067E70824062200F59673A5
:102370000C708A704B605FE7002200F591730A7061
:102380004B6059E7002200F592730A704B6053E7E7
:10239000A2F580740123FF2C4B7008D8A3070AD143
:1023A00000F10803234402224B600A7044E7B4F5AD
:1023B000887FBFF42FAFA2F58472024400234A60E5
:1023C0000B7039E7F0B583B002AB03E906009DF866
:1023D0000230012B37D0062B02D0002003B0F0BD15
:1023E00090F82B5190F82A2190F8291190F8284163
:1023F00090F8193190F81B6190F82671ED070DD512
:102400000132D2B2934245D0B1424FD0BC4245D006
:1024100080F82A2180F8291180F828419A421AD29E
:10242000B1424FF0010320D390F82F31BC4243F06A
:10243000020380F82F3103D343F0010380F82F31DA
:10244000012003B0F0BD9DF80030002B0CBF02202E
:10245000002003B0F0BD90F82F31B14243F00403E7
:1024600080F82F314FF00003DED2BC4202D390F847
:102470002F31E1E7002BE3D00E4B1868FEF76CF824
:10248000019BC0F30721C0F30742187059709A707E
:102490000020A3E70131C9B20022B5E790F82F412F
:1024A00064F07F0480F82F410024B1E70134E4B2E6
:1024B0000021ABE7C80C00202DE9F04782B002AB49
:1024C00003E906009DF80130012B07D09DF802308A
:1024D000062B07D0002002B0BDE8F087032002B031
:1024E000BDE8F08790F82A5190F8198190F8296199
:1024F00090F8287190F81BA190F82691454538D3A3
:1025000090F82F3143F0040380F82F310023564513
:102510000DD390F82F314F4543F0020380F82F314F
:1025200003D343F0010380F82F310120D3E74F4557
:1025300021D2002BF9D0019A517813789278044671
:102540001A4843EA012343EA024300682A46314617
:10255000FDF7BEFF94F82B31DB07BBD50135EDB29B
:10256000A8450BD084F82A5184F8296184F8287191
:10257000B0E70123CBE790F82F31D2E70136F6B26E
:10258000B2450DD10137FFB2B9450BD194F82F31C7
:10259000002663F07F0384F82F3135463746E1E7A4
:1025A0000025DFE700263546DCE700BFC80C002029
:1025B00070B582B002460E46002569461A4801955C
:1025C0000095FFF71FFE9DE806001748FFF7FAFE8B
:1025D0000128307114D09DF80030082B21D8DFE895
:1025E00003F016120505050512051A00019B1B686C
:1025F0003360022802D1019B00221A7002B070BD24
:10260000356002B070BD019B1B883360F1E7019B10
:102610001B783360EDE7019B1B6823F07F43336039
:10262000E7E700233360E4E7F833002030B583B0F8
:10263000002302460D461848019369460093FFF7B0
:10264000E1FD9DF80130012B6C4612D09DF8003061
:10265000082B1ED8DFE803F01A17141414141714EB
:102660000500019A136825F07F4503F07F431D4361
:10267000156094E806000848FFF71EFF03B030BD60
:10268000019B1D60F5E7019B1D80F2E7019B1D701A
:10269000EFE70120F2E700BFF83300202DE9F8430F
:1026A000184D002A2C6809DD0A4411F8013B2370FB
:1026B0002C688A4204F101042C60F6D16E68A71BD5
:1026C00006D0114BD3F80080B8F1000F03D00027DB
:1026D0003846BDE8F8830D4A0D49D2F800900D4800
:1026E00001221A603A460AF027FF4846BAB2094961
:1026F0002E6005F051FB0028EAD047462C60384692
:10270000BDE8F88360000020D4090020B038002024
:10271000B0370020303600202DE9F843134B1D68F8
:10272000854203D000242046BDE8F883104ED6F839
:1027300000807768B8EB0704F5D00E4BD3F8009013
:10274000B9F1000FEED1012022460B4918600B4869
:102750000AF0F2FE2846A2B20849376005F01CFBD9
:102760000028E0D0C6F800804C46DCE7B0380020F6
:1027700060000020D4090020B0370020303600204F
:10278000134A144B126800219042196000D0704720
:102790002DE9F041104D2F686E68B7EB060801D0A7
:1027A0001A680AB1BDE8F0810446012042460B498F
:1027B00018600B480AF0C0FE1FFA88F2204608494C
:1027C0002E6005F0E9FA0028ECD02F60EAE700BFA0
:1027D000B0380020D409002060000020B03700206D
:1027E00030360020F8B50378E3B10446124F134E9B
:1027F000134D04E00AF0E0FD14F8013F93B10A2BF9
:1028000011D00D2B0F48F5D032681A441946527872
:1028100012F0200F28460AD00AF0CEFD14F8013F2E
:10282000002BECD1F8BD38460AF0C6FDE4E71846A7
:102830000AF0DAFDE0E700BF5C4F0108A4040020C5
:10284000644F0108604F01082DE9F041634DAA680B
:10285000E968531AFE2B0ADC3BB112F8013C0D2B40
:1028600032D07F2B75D00A2B2FD0BDE8F0815C4C85
:102870005C48A960002384F8FF300AF09DFD2378AE
:10288000DBB1594F594E5A4D04E00AF095FD14F84A
:10289000013F93B10A2B45D00D2B5648F5D0326835
:1028A0001A441946527812F0200F284649D00AF0EF
:1028B00083FD14F8013F002BECD14F480AF0D0FD06
:1028C000BDE8F041FEF7AABF013A00231370444C63
:1028D000EB684A48AB600AF06FFD2378A3B1424F22
:1028E000424E434D07E00D2B42481FD10AF064FDD4
:1028F00014F8013F43B10A2BF5D138460AF05CFDCC
:1029000014F8013F002BF6D13B480AF0A9FD3448EA
:10291000FEF7B8FF10B13A480AF0A2FDBDE8F04159
:10292000FEF77CBF38460AF047FDB0E732681A442C
:102930001946527812F0200F284606D00AF03CFDC6
:10294000D6E718460AF050FDA1E718460AF04CFDFC
:10295000CEE72B681B2119702B685B22581C28605E
:102960005A702B6844205C1C2C6058702B68581CD3
:10297000286059702B68591C29605A702B683322C3
:10298000591C29605A702B687E22591C29605A7084
:1029900095E850000134A71B2C6002D0194B1A682F
:1029A0003AB1AB680022991EA96003F8022CBDE879
:1029B000F081154A1549D2F80080154801221A60A5
:1029C0003A460AF0B9FD4046BAB211492E6005F008
:1029D000E3F90028E5D02C60E3E700BF60000020A9
:1029E000303500206C4F01085C4F0108A404002022
:1029F000644F0108604F0108804F0108844F0108AF
:102A0000984F0108D4090020B0380020B0370020CA
:102A10003036002038B50F4B0F499A680C79147086
:102A20000E4C9A68256801329A60044665B90C4BD1
:102A30000C4D1C60FFF708FF01222946204605F0D7
:102A4000CDF90228F8D038BD0431012205F0A4F9EF
:102A5000EDE700BF60000020D409002054000020F2
:102A6000B0380020D809002010B5164C164B236052
:102A70004FF4165100230C22204661606261A3606E
:102A8000E3602361A361E36104F0D6FF08B1FEF7C0
:102A9000DFFF2268D36843F06003D3600221002285
:102AA000262007F083F9262007F0B6F9074B0848DF
:102AB0001C60082200210AF07FFCBDE81040FEF7F0
:102AC000ADBE00BF7037002000440040B038002089
:102AD000B44F0108F0B5214A0368934289B020D071
:102AE0001F4A934201D009B0F0BD00211D4B029155
:102AF0005A6C1D4842F020025A645B6C059103F049
:102B000020030293012208234FF4C055022403A995
:102B1000029E039504940692079300F01BFF09B0F0
:102B2000F0BD002302F5FA320193116C41F400313B
:102B30001164126C0593044602F400320C260192D3
:102B400009480693072202250DEB0601019F039613
:102B50000495079200F0FEFE2368C1E700440040A0
:102B600000140140003802400000024010B5164C2D
:102B7000164B23604FF4E13100230C2220466160A4
:102B80006261A360E3602361A361E36104F054FF29
:102B900008B1FEF75DFF2268D36843F06003D3609D
:102BA00002210422472007F001F9472007F034F9F9
:102BB000074B08481C60082200210AF0FDFBBDE815
:102BC0001040FEF72BBE00BF30370020001401403C
:102BD000B0380020B44F010810B5144B144A1A60E5
:102BE0000121002284B04FF4803418465C609A6062
:102BF0001A611A62DA62DA609961D96119635961FE
:102C000000F0B0F970B9042401220723694607488F
:102C100000940192029300F0C3FD08B1FEF718FF83
:102C200004B010BDFEF714FFEDE700BFB43800207C
:102C3000002001401F4B02689A4200D07047F0B557
:102C400087B0002603F58C3300965A6C1A4D42F477
:102C500080725A645B6C039603F4807300931022B5
:102C6000032301A904461548009F019202934FF4E3
:102C7000806700F06FFEDFF848E06E604FF400619F
:102C80004FF400524FF480732846AE60EE602E621F
:102C90006E62C5F800E02F616961AA61EB6101F025
:102CA000ABFB18B9A563AC6307B0F0BDFEF7D0FE6F
:102CB000F8E700BF00200140FC380020000002407F
:102CC000106402400A4B02689A4200D07047094AD9
:102CD00010B5536C044623F48073074853641021E5
:102CE00000F026FFA06BBDE8104001F01DBC00BF46
:102CF0000020014000380240000002401049114B02
:102D0000D1F8882042F4700210B4C1F888201A6803
:102D10000D4C002042F001021A6098601A6822F0FF
:102D2000847222F480321A605C601A684FF000648A
:102D300022F480221A60D8608C605DF8044B7047E2
:102D400000ED00E00038024010300024164A93687D
:102D500003F00C03042B24D0082B0AD0134B124A87
:102D6000134892681349C2F30312825CD3400B608C
:102D700070475068516852684302C2F3881201F0EC
:102D80003F014CBF0C4B094BB3FBF1F303FB02F3C8
:102D9000054A5268C2F3014201325200B3FBF2F31A
:102DA000DDE7054BDBE700BF003802400024F400FC
:102DB0008C4D01087000002040787D01704700BFF5
:102DC000704700BF10B5094B4FF0FF3200241A6264
:102DD0001C625A625C621A611C615A615C619A6190
:102DE0009C61FFF7EDFF204610BD00BF0038024098
:102DF000084B094A1B6810B5A2FB03230446980937
:102E000007F036F8214600224FF0FF3006F0CEFFE3
:102E1000002010BD70000020D34D621008B50B4B90
:102E20001A6842F400721A601A6842F480621A60EA
:102E30001A6842F480721A60032006F0A5FF002091
:102E4000FFF7D6FFFDF778FF002008BD003C0240E9
:102E5000024A136801331360704700BF5C390020D9
:102E6000014B1868704700BF5C39002010B582B074
:102E70000190FFF7F5FF0446FFF7F2FF019B001BEF
:102E80009842F9D302B010BD024A136823F002033E
:102E90001360704710E000E0024A136843F0020339
:102EA0001360704710E000E0004870470000050123
:102EB000014B1868000C7047002004E0024B1868B2
:102EC000C0F30B00704700BF002004E0024A5368C3
:102ED00043F0010353607047002004E0024A536846
:102EE00023F0010353607047002004E0024A536856
:102EF00043F0020353607047002004E0024A536825
:102F000023F0020353607047002004E0024A536834
:102F100043F0040353607047002004E0024A536802
:102F200023F0040353607047002004E0012191FA6C
:102F3000A1F2034BB2FA82F213449B00196070476E
:102F400000C18910012292FAA2F2044BB2FA82F275
:102F500013449B0000221A60704700BF00C1891013
:102F6000704700BF002800F0AA80F8B5036C044643
:102F70003BB1236CDB060CD50023012084F83C30E8
:102F8000F8BD436480F83C30FFF754FE236CDB0649
:102F9000F2D4226C4B4923684B4D22F4885222F024
:102FA000020242F0020222644A6822F440324A607D
:102FB0004A68606802434A6059682069D4F808E0AA
:102FC000E768A26A21F4807159605E6846EA0026CB
:102FD0005E605E6826F040765E60586840EA0E00EB
:102FE0005860986820F4006098609968AA4241EAA5
:102FF0000701996046D09968E06A21F07061996094
:1030000099680A439A60996821F0405199609A68DA
:1030100002439A609968A569206A21F002019960CB
:103020009A6842EA45029A605A68002833D122F42D
:1030300000625A60DA6AE569276B666922F47002F9
:10304000DA62D86A013D40EA0550D862986820F4F7
:1030500000709860996841EA47219960996821F465
:10306000806199609A68002042EA86229A606064D2
:10307000236C23F0030343F001032364002384F84B
:103080003C30F8BD9A6822F070629A609A6822F02B
:1030900040529A60BEE742F400625A605A6822F4D5
:1030A00060425A604FF4604191FAA1F1626A586837
:1030B000B1FA81F1013A8A4002435A60BAE701202D
:1030C000704700BF002301400100000F704700BFA0
:1030D000D0B1026C38B542F00202036802649A680B
:1030E00022F001029A609D6815F00105044603D0A4
:1030F000002084F83C0038BDFFF7E4FD0020656443
:1031000084F83C00256438BD0120704710B490F865
:103110003C3083B00022012B019255D002689368A5
:103120000121DB0780F83C1014D42A4B2A4C1B6881
:103130009168A4FB03439B0C03EB430341F00101A3
:1031400091600193019B2BB1019B013B0193019B7A
:10315000002BF9D19368DC0731D5036C23F4E063CD
:1031600023F0010343F4807303645368590505D5C4
:10317000036C23F4405343F480530364036C13F44F
:1031800080531CBF436C23F00603436400246FF09C
:103190002201124B80F83C4011605B68DB060BD1CA
:1031A000906810F040500AD1936843F080439360D8
:1031B00003B05DF8044B7047094B9A42F0D00020F1
:1031C00003B05DF8044B7047022003B05DF8044B78
:1031D000704700BF7000002083DE1B4300230140C6
:1031E0000020014090F83C30012B16D003689A680B
:1031F000012122F0010280F83C109A609B68DB07F5
:1032000006D4036C23F4885323F001030B430364B7
:10321000002380F83C30184670470220704700BFFA
:1032200003689A68520502D59B68DB053ED470B5E9
:103230000C460546FFF714FE06462A6801E0601CAE
:1032400025D113689907FAD56FF0120313602B6C20
:1032500043F400732B64936813F0405F15D1AB699E
:103260009BB9D36A13F4700F0CD12B6C23F48073C9
:103270002B64286C10F4805007D12B6C43F00103B1
:103280002B6470BD93685B05EFD5002070BD24B141
:10329000FFF7E6FD801B8442CFD22B6C002243F067
:1032A00004032B6485F83C20032070BD036C0022CE
:1032B00043F02003036480F83C200120704700BFE6
:1032C0002DE9F04107460D461646FFF7C9FD804639
:1032D0003C6801E0731C13D1236835EA0303F9D17C
:1032E000012D3B6C1DD043F480633B647B6C6FF01D
:1032F000200243F002037B6400202260BDE8F081DD
:103300002EB1FFF7ADFDA0EB08008642E0D23B6C8A
:10331000002243F004033B6487F83C200320BDE80F
:10332000F0816FF0010243F480333B64002022609F
:10333000BDE8F08110B490F83C3083B00022012B3E
:1033400001925BD0026893680121DB0780F83C1092
:1033500014D42D4B2D4C1B689168A4FB03439B0C8C
:1033600003EB430341F0010191600193019B2BB1F9
:10337000019B013B0193019B002BF9D19368DC0772
:1033800037D5036C23F4E06323F0010343F4807327
:1033900003645368590505D5036C23F4405343F483
:1033A00080530364036C13F480531CBF436C23F0FD
:1033B0000603436400216FF0220380F83C10136081
:1033C0005368134943F0806343F0200353604B6814
:1033D000DB060BD1906810F040500AD1936843F09F
:1033E0008043936003B05DF8044B7047094B9A42E9
:1033F000F0D0002003B05DF8044B7047022003B00A
:103400005DF8044B704700BF7000002083DE1B4353
:10341000002301400020014090F83C30012B1CD0DB
:1034200003689A68012122F0010280F83C109A603A
:103430009A68D2070CD45A6822F0806222F02002E7
:103440005A60036C23F4885323F001030B43036495
:10345000002380F83C30184670470220704700BFB8
:10346000F0B590F83C3083B00024012B019469D072
:103470000568AB680124DF0780F83C4014D4374B63
:10348000374E1C68AB68A6FB0464A40C43F0010330
:1034900004EB4404AB600194019B2BB1019C013C03
:1034A0000194019C002CF9D1AB68DE0747D5046C70
:1034B00024F4E06424F0010444F4807404646B6830
:1034C0005C0505D5036C23F4405343F48053036437
:1034D000036C244C244F13F480531CBF436C23F023
:1034E000060343640646806B13464FF0000E1F4AE6
:1034F00086F83CE0C2636FF02202C46407642A606D
:103500006C6844F080646C60AC6844F480740A4673
:10351000AC6005F14C0101F06FF8154B5B68DB0600
:1035200009D13368986810F0405008D19A6842F089
:1035300080429A6004E032680E4B9A4205D0002027
:1035400003B0F0BD022003B0F0BD906810F0405011
:10355000F5D1936843F080439360F1E77000002059
:1035600083DE1B438937000849360008E53500082B
:10357000002301400020014090F83C30012B11D085
:1035800003689A68012122F0010210B580F83C100E
:103590009A609A68D207044606D50023002084F872
:1035A0003C3010BD022070479A68806B22F4807214
:1035B0009A6001F063F82268536823F080635360D7
:1035C000236C23F4885323F0010343F001032364A5
:1035D000002384F83C3010BD0368D86C704700BFEE
:1035E000704700BF836B1A6C12F0500F22D11A6C17
:1035F000196842F4007210B51A648A6812F0405FCC
:1036000014D19A6992B9CA6A12F4700F15D14A6836
:1036100022F020024A601A6C22F480721A641A6C3A
:10362000D20403D41A6C42F001021A641846FDF762
:1036300063FC10BD9B6BDB6C18478A685005F5D4A2
:10364000E5E700BF704700BF08B5806BFFF7FAFFE2
:1036500008BD00BF704700BF704700BF38B50368A2
:103660001A6859680446900701D58A0653D41A6827
:103670005968520701D50D061BD41A685968D0073E
:1036800001D54A0606D41A685968900601D54A0140
:1036900069D438BD1A68D507F5D5236C43F4803357
:1036A00023642046FFF7D6FF23686FF001021A60FB
:1036B000E9E7226CD00603D4226C42F40052226463
:1036C0009A6812F4401F1ED19A6B12F4401F02D068
:1036D0009A68510517D45A68520514D49A6812F0A2
:1036E000405F10D1A26972B95A6822F080025A6014
:1036F000236C23F480532364236CDD0503D4236CF3
:1037000043F001032364204600F06EFD23686FF050
:103710000C021A60B1E7226CD50603D4226C42F485
:10372000007222649A6812F0405F14D1A26992B9C3
:10373000DA6A12F4700F23D15A6822F020025A601C
:10374000236C23F480732364236CD90403D4236C87
:1037500043F0010323642046FDF7CEFB23686FF09E
:1037600012021A6083E7626C6FF0200542F00202D9
:10377000626420461D60FFF76FFF23681D6038BD3F
:103780009A685005E7D4D7E7806B08B540230364F7
:10379000436C43F004034364FFF75EFF08BD00BFC2
:1037A000F0B590F83C3083B00022012B019257D045
:1037B0000D680123092D2E4680F83C3029D8046875
:1037C0008B68226905EB450E072707FA0EF722EAF8
:1037D00007022261226903FA0EF3134323614B6847
:1037E000062B2BD803EB8303626B053B1F2199400B
:1037F00022EA01026263626B06FA03F31343636316
:10380000364B9C423ED0002380F83C30184603B033
:10381000F0BD04688B68E768AEB206EB46021E3A5C
:103820004FF0070E0EFA02FE27EA0E07E760E76880
:1038300093403B43E3604B68062BD3D90C2B12D843
:1038400003EB8303A3F123011F22236B8A4023EAA6
:1038500002032363236B06FA01F119432163CFE7C7
:10386000022003B0F0BD03EB8302413AE36A1F215B
:10387000914023EA0103E362E36A06FA02F1194385
:10388000E162BDE7122D23D0A5F11003012BBAD8B8
:10389000134A5368102D43F400035360B3D1114B06
:1038A00002F1467202F52E321B6802F28332A2FB4D
:1038B00003239B0C03EB83035B000193019B002B11
:1038C000A1D0019B013B0193019B002BF9D19AE709
:1038D000034A536843F48003536094E70020014097
:1038E000002301407000002090F83C30012B2AD0CA
:1038F0000B690246012083421368F0B482F83C0051
:1039000058680CBF40F0400020F0400058605868F4
:103910000F688C894E688D6820F4400020F4007098
:1039200058605968394359605E629D62596821F058
:103930001F0159605968002521432846596082F8C3
:103940003C50F0BC70470220704700BF006C7047CD
:10395000406C70472DE9F04FD1F800C0DFF8CCE1A2
:1039600083B000254FF0010803E00135102D00F071
:10397000878008FA05F303EA0C029342F5D14E68FA
:1039800026F0100ABAF1020F7DD04FEA4509032450
:10399000D0F800B004FA09F4E44306F003070BEA98
:1039A000040B07FA09F70AF1FF3A47EA0B07BAF1E5
:1039B000010F076040F28E80C7688B683C4003FAB5
:1039C00009F32343C360F300CFD500230193524B87
:1039D000514C5B6C43F480436364636C25F00307D4
:1039E00007F1804703F4804307F59C37019305F006
:1039F0000303019CD7F808909B000F249C4029EA00
:103A0000040A464CA04278D004F58064A04276D0E7
:103A1000434CA04276D0434CA04278D0424CA042C6
:103A20000CBF4FF004094FF0050909FA03F343EA0C
:103A30000A03BB60DEF80030D443F70354BF2340D1
:103A40001343CEF80030DEF80430B70354BF2340F0
:103A50001343CEF80430DEF80830F70254BF234099
:103A60001343CEF80830DEF80C30B60205F101053C
:103A700054BF23401343102DCEF80C307FF479AFA0
:103A800003B0BDE8F08F4FEAD50900EB890905F0D6
:103A90000704D9F82070A4004FF00F0B0BFA04FBB9
:103AA00027EA0B0A0F6907FA04F444EA0A04C9F882
:103AB00020404FEA45090324D0F800A004FA09F495
:103AC000E44306F003070AEA040A07FA09F747EA9B
:103AD0000A070760876807EA040ACF6807FA09F748
:103AE00047EA0A078760D0F804A0C6F300172AEA5D
:103AF0000303AF401F4347605EE7002397E708FAE0
:103B000003F394E74FF0020909FA03F38FE74FF04C
:103B1000030909FA03F38AE7003802400000024073
:103B200000080240000C024000100240003C01402E
:103B30002DE9F04F002383B0DFF80C91DFF80C8102
:103B40004FF0010E4FF0030B4FF00F0A02E001336C
:103B5000102B61D00EFA03F232EA0104F7D15C00B7
:103B600005680BFA04F4E443DE08254000EB860602
:103B7000056003F00705376AAD000AFA05F527EA84
:103B8000050535628568254085604568D243154046
:103B90004560C66823F0030505F18045344005F50E
:103BA0009C35C46003F00304AE68A4000AFA04F76D
:103BB0003E404845019632D01F4EB04231D01F4E94
:103BC000B04231D01E4EB04233D01E4EB0420CBF78
:103BD0004FF0040C4FF0050C0CFA04F4019EA642C1
:103BE000B5D1AC6824EA0707AF60D8F800401440AC
:103BF000C8F80040D8F804401440C8F80440D8F889
:103C000008401440C8F80840D8F80C40013322405E
:103C1000102BC8F80C209DD103B0BDE8F08F002414
:103C2000DCE70EFA04F4D9E74FF0020C0CFA04F4C6
:103C3000D4E70BFA04F4D1E7000402400008024084
:103C4000000C02400010024000000240003C014015
:103C50000369194214BF01200020704702B909040A
:103C600081617047436959404161704782B04FF4A8
:103C700080330193019B0B430193019BC361C1619D
:103C8000019BC361C3690193C06980F48030C0F3B4
:103C9000004002B0704700BF704700BF044A51693E
:103CA000014200D1704708B55061FFF7F5FF08BD2C
:103CB000003C0140806B40230364436C43F00403E9
:103CC0004364FFF7C9BC00BF806BFFF7BBBC00BFFC
:103CD000836B1A6C12F0500F20D11A6C196842F4E1
:103CE00000721A648A6812F0405F14D19A6992B91E
:103CF000CA6A12F4700F14D14A6822F020024A6096
:103D00001A6C22F480721A641A6CD20403D41A6CEE
:103D100042F001021A641846FDF7EEB89B6BDB6CAB
:103D200018478A685005F6D4E6E700BF10B490F84B
:103D30003C3083B00022012B01924CD00268936882
:103D40000121DC0780F83C1014D4294B294C1B6856
:103D50009168A4FB03439B0C03EB430341F0010177
:103D600091600193019B2BB1019B013B0193019B4E
:103D7000002BF9D19368D90728D5036C23F440535D
:103D800023F0010343F480530364036C13F4807342
:103D900008BF436400246FF00401174B80F83C40D7
:103DA00011605B68DB060CD19368506813F4401F08
:103DB0000CD110F4806009D1936843F480039360C0
:103DC00005E00E49906853688A4209D0002003B08C
:103DD0005DF8044B7047022003B05DF8044B704758
:103DE00010F4401FF2D113F48060E5D0EEE700BF7D
:103DF0007000002083DE1B430023014000200140AF
:103E000010B490F83C3083B00022012B019250D0C6
:103E1000026893680121DC0780F83C1014D42B4B16
:103E20002B4C1B689168A4FB03439B0C03EB4303DF
:103E300041F0010191600193019B2BB1019B013B7A
:103E40000193019B002BF9D19368D9072CD5036C02
:103E500023F4405323F0010343F480530364036CC1
:103E600013F4807308BF436400216FF0040380F8EB
:103E70003C1013605368174943F0800353604B684C
:103E8000DB060CD19368506813F4401F0CD110F47A
:103E9000806009D1936843F48003936005E00E4984
:103EA000906853688A4209D0002003B05DF8044B43
:103EB0007047022003B05DF8044B704710F4401FB8
:103EC000F2D113F48060E5D0EEE700BF700000206F
:103ED00083DE1B43002301400020014090F83C207A
:103EE000012A034625D0026C0121D20580F83C103E
:103EF00008D51A6C42F020021A640120002283F8CF
:103F00003C2070470268506810F48060F1D19168DD
:103F100021F001019160926812F00102EED1196C5A
:103F200021F4885121F0010141F00101104619648A
:103F3000E4E70220704700BF70B505460C46FEF767
:103F40008FFF06462A6801E0631C27D113685807D3
:103F5000FAD56FF00C0313602B6C43F400532B6401
:103F6000936813F4401F29D1936B13F4401F22D19F
:103F700053685B0522D4936813F0405F1ED1AB6990
:103F8000E3B92B6C23F480532B64286C10F48070FD
:103F900014D12B6C43F001032B6470BD24B1FEF7E8
:103FA0005FFF801B8442CDD2042200232A6485F85F
:103FB0003C30032070BD93685905D9D5002070BDF1
:103FC00090F83C20012A034629D0026C0121D20539
:103FD00080F83C1008D51A6C42F020021A640120C7
:103FE000002283F83C2070470268506810F480601B
:103FF000F1D1916821F001019160916811F0010106
:10400000EED1506820F0800050601A6C22F4885283
:1040100022F0010242F0010208461A64E0E70220A1
:10402000704700BF036882B000206FF004020139BE
:1040300001901A60032905D8DFE801F0110C02078E
:104040005B6C0193019802B070479B6C01930198DF
:1040500002B070471B6C0193019802B07047DB6B94
:104060000193019802B07047F0B590F83C3083B0EE
:104070000024012B019465D00568AB680124DE079C
:1040800080F83C4014D4344B344E1C68AB68A6FB1B
:104090000464A40C43F0010304EB4404AB600194FA
:1040A000019B2BB1019C013C0194019C002CF9D196
:1040B000AB68DC0743D5046C24F4E06424F001040D
:1040C00044F4807404646B685B0505D5036C23F4C9
:1040D000405343F480530364036C866B204C214FA0
:1040E00013F480531CBF436C23F0060343644FF06A
:1040F000000E1D4B80F83CE0F3636FF00203F464A4
:1041000037642B606B68046B43F080636B60E4B9C9
:10411000164C636823F4005363600446134630462C
:104120000A46134900F068FA2368986810F0405076
:1041300005D19A6842F080429A6003B0F0BD002039
:1041400003B0F0BD022003B0F0BD084C636843F437
:1041500000536360E1E700BF7000002083DE1B4373
:10416000B53C0008C93C0008D13C000800230140D0
:104170000823014090F83C30012B11D003689A6865
:10418000012122F0010210B580F83C109A609B6872
:10419000DB07044606D50023002084F83C3010BD20
:1041A000022070470C4A806B536823F4005353601D
:1041B00000F064FA2268536823F080635360236C34
:1041C00023F4885323F0010343F001032364002305
:1041D00084F83C3010BD00BF00230140014B9868BB
:1041E000704700BF00230140704700BF90F83C308B
:1041F000012B00F08880F0B50D680123092D2C46B5
:1042000080F83C306CD803688A681E6905EB450E5F
:10421000072707FA0EF726EA07061E611E6902FA4B
:104220000EF232431A619F6BD1F810E04E6827F40A
:1042300040179F639F6B0EF1FF3247EA0257F21C53
:10424000A2EB0E029F63D2B29F6B02EB82024FF091
:104250001F0E0EFA02FE27EA0E079F63D3F838E01E
:10426000CF6904FA02F24C4C42EA0E02A7429A636A
:104270006CD09C68D1F820E024F470249C609A688B
:1042800017439F609C6824F440149C609A6842EA3B
:104290000E029A608A69002A48D05A6842F4806205
:1042A0005A604A69002A30D05A68022E42F480527D
:1042B0005A6030D0032E52D0012E3CD01A6AC96801
:1042C00022F47F6222F00F021A621A6A0A431A620B
:1042D000324A93424ED0002380F83C301846F0BD5D
:1042E00003688A68DF68ACB204EB44061E3E4FF0F8
:1042F000070E0EFA06FE27EA0E07DF60DF68B240FF
:104300003A43DA608FE7022070475A68022E22F49F
:1043100080525A60CED19A69C96822F47F6222F035
:104320000F029A619A690A439A61D1E75A6822F4A6
:1043300080625A60B5E75A69C96822F47F6222F048
:104340000F025A615A690A435A61C1E79A6822F416
:1043500070229A609A6822F440129A609AE7DA69A9
:10436000C96822F47F6222F00F02DA61DA690A4337
:10437000DA61ADE7122D08D0103D012DABD8084A07
:10438000536843F400035360A5E7D2F8043343F4C1
:104390008003C2F804339EE701000F0000200140B3
:1043A0000023014090F83C30012B21D0114B0246F4
:1043B000586820F01F0010B4586058680C682043FB
:1043C0005860586820F44040586058684C68204352
:1043D0005860586820F470605860886859680024F4
:1043E00001435960204682F83C405DF8044B704719
:1043F0000220704700230140F8B50446FEF730FD67
:10440000002C6FD00222236884F835201A6800211E
:1044100022F0010284F8341005461A6005E0FEF728
:104420001FFD401B05283BD823681A68D107F6D426
:10443000A7686268E66825696169A0693A43324302
:104440002A430A43E169256A1F68344E02430A433E
:10445000616A2A433E40042942EA060227D01A60D4
:104460005A6922F007021143DAB22D4D5961103A10
:10447000A5FB021212092B4823F47F73815CE165CE
:1044800023F00303032A88BF04333F228A40012517
:104490000021A36508469A60616584F83550F8BD2F
:1044A000032320226265184684F83530F8BDE66A99
:1044B000216BA56A31430A431A605A6945F0040129
:1044C00022F00702114378B9012D23D001D3022D28
:1044D000CAD1F201C8D5012340226265184684F88A
:1044E0003530F8BD0120F8BDB0F5005F04D0022DD5
:1044F000F1D9032DB8D1ECE7032DB5D801A252F8BC
:1045000025F000BFD7440008D3440008D744000872
:1045100015450008B6F1C07FA6D1DCE73F8010F05A
:10452000ABAAAAAA9C4D010800282FD090F83530DC
:10453000DBB2022B2BD003681649DAB270B4103A02
:104540001C68154DA1FB02121209002124F0010480
:1045500021261C60196059609960D96019615E61FB
:1045600023F47F73AD5CC56523F00303032A88BF82
:1045700004333F210022A940836570BC99604265E5
:1045800080F8342080F83520104670470123184603
:10459000704700BFABAAAAAA9C4D010870B490F85E
:1045A0003440012C0CD090F835400125AC4280F805
:1045B000345008D0002380F83430022070BC70479B
:1045C000022070BC704704680226002580F8356020
:1045D00045652568866825F48025402E2560636042
:1045E0000BBFA260A160E160E260236843F00103B9
:1045F00023600020E2E700BFF0B490F83440012CC3
:104600000DD090F83540866D0125AC4280F83450CD
:1046100008D0002380F834300220F0BC704702201C
:10462000F0BC704704680227002580F835704565A6
:104630002568876825F48025402F256063600ABFC0
:10464000A260A160E160C16D18BFE2603F238B40B2
:10465000026CB360236843F016032360636943F080
:10466000800363611AB1236843F008032360236861
:1046700043F0010323600020CFE700BF70B504467C
:10468000866DFEF7EDFB94F83530022B06D08022C4
:104690000023626584F83430012070BD2368216CEA
:1046A0001A6822F016021A605A6922F08002054642
:1046B0005A6131B31A6822F008021A601A6822F0AF
:1046C00001021A6005E0FEF7CBFB401B05280FD85E
:1046D00023681B6813F00103F5D1E16D3F228A4086
:1046E0000121B260184684F8343084F8351070BD6A
:1046F000202200230320626584F8343084F83500DA
:1047000070BDA26C002AD5D1D8E700BF90F8353033
:10471000022B03D0802343650120704702680523E4
:1047200080F83530136823F00103136000207047D0
:104730002DE9F04F044683B092460091FEF790FBBE
:1047400023681B68DD054AD4009B8146002B42D0BC
:10475000E36D10219940A56DDFF80C81D5F800B00C
:10476000404F01EA0B0201925246A2461446019ABA
:104770000826002A47D1611C08D0BCB3FEF770FBA5
:10478000A0EB0900844231D3DAF85C3006FA03F07A
:104790001BEA000F08FA03F107FA03F206D0DAF871
:1047A00054E04EF0010ECAF854E0A8601BEA010F75
:1047B00006D0DAF8540040F00200CAF85400A960AC
:1047C0001BEA020FD7D0DAF8541041F00401CAF8FE
:1047D0005410AA60CBE7E36D20219940BBE74FF46A
:1047E00080736365012003B0BDE8F08F20210022B3
:1047F00001230320CAF854108AF834208AF835308F
:1048000003B0BDE8F08FDAF85400544620B1DAF86E
:104810005420D20715D40120009A32B1102202FA96
:1048200003F3AB6003B0BDE8F08F302202FA03F36C
:10483000AB6001229DF8003084F8343084F83520D4
:10484000D1E75046FFF71AFFDAF85C203023934097
:1048500000210122AB6010468AF834108AF8352016
:10486000C1E700BF0400800001008000F0B583B004
:104870000023876D0193C36D3D68624908229A4009
:10488000154204460E6803D001680868400776D4D4
:104890005D4A9A40154203D021684969080668D4E8
:1048A0005A4A9A40154203D02168096889075AD4A8
:1048B00010229A40154203D02168086800073FD4AF
:1048C00020229A40154203D021680868C00625D4EA
:1048D000636D0BB3636DDA071AD50523216884F87D
:1048E00035300B684A4A23F00103A2FB06020B6035
:1048F000920A02E00B68DB0704D5019B01339A4260
:104900000193F7D20022012384F8342084F8353053
:10491000E36C0BB12046984703B0F0BDBA6094F841
:104920003520052A3BD00B6813F4802F0B6854D038
:1049300019035FD5E36B002BCAD020469847C7E721
:10494000BA600A6812F4802F0A6822D1D20503D413
:104950000A6822F008020A60226C002AB0D02046C1
:104960009047E36DACE7BA60626D42F004026265A5
:104970009EE7BA60626D42F00202626590E70868E5
:1049800020F004000860BA60626D42F001026265C6
:104990007EE71103E0D5A26C002AE0D190E70A6817
:1049A000206C22F016020A604A6922F080024A61F5
:1049B00020B30A6822F008020A603F22216D02FA41
:1049C00003F300200122BB6084F8340084F8352012
:1049D0000029A1D0204688479EE713F48073A9D10F
:1049E0000A68012022F010020A6084F8343084F84A
:1049F00035009FE7636C002B9FD169E7A26C002A0A
:104A0000D7D1DAE7700000200100800004008000A8
:104A1000B5814E1B034690F8340001280DD010B428
:104A200093F835400120844283F8340007D00022F7
:104A300083F834205DF8044B704702207047052945
:104A400016D8DFE801F0120F0C0906031A650020E2
:104A5000EDE7DA640020EAE79A640020E7E75A64A9
:104A60000020E4E71A640020E1E7DA630020DEE7D3
:104A70000020DCE790F83430012B02460BD090F890
:104A800035000123984282F8343006D001200023FB
:104A900082F834307047022070470629F6D8DFE8E4
:104AA00001F01B1815120F0C04000020D0631064D5
:104AB00050649064D0641065E9E700201065E6E773
:104AC0000020D064E3E700209064E0E70020506419
:104AD000DDE700201064DAE70020D063D7E700BFED
:104AE00090F83500704700BF406D7047F0B5046A1C
:104AF000D1F808E00E68124D24F001040462036A44
:104B00004768826923F0020322F07302A84243EA55
:104B10000E0342EA060205D049684760826141639C
:104B20000362F0BDCE684C698D6923F0080327F459
:104B3000407733432C4323F004032743ECE700BFC3
:104B400000000140F0B5046AD1F808E00E68134D8A
:104B500024F480740462036A4768C26923F4007312
:104B600022F07302A84243EA0E2342EA060205D06D
:104B700049684760C261C1630362F0BDCE684C6999
:104B80008D6923F4006327F4405743EA06232C433E
:104B900023F4806347EA0417EAE700BF00000140FE
:104BA000F0B4046A8F680E680E4D24F480540462D9
:104BB000036A4468C26923F4005322F4E642A8421F
:104BC00043EA073342EA062206D049684460C261DC
:104BD000F0BC0164036270474D6924F4804444EAE8
:104BE0008514F2E70000014002684868936823F0EA
:104BF000700370B403430C6823F007032343502869
:104C0000936036D024D960280ED070280AD1CB68A2
:104C10008C6808699168234343EA002321F47F41AB
:104C20000B43936070BC7047106A8C680D6920F06C
:104C3000100010629169136A21F4704123F0A003FF
:104C400041EA053143EA0413916170BC1362704775
:104C50004028E7D1146A106A0D6920F00100106243
:104C6000936923F0F00343EA05139361146270BC67
:104C70007047146A156A0E69886825F00105156287
:104C8000936924F00A0123F0F00343EA0613014379
:104C9000936170BC11627047704700BF704700BFDE
:104CA0000222036810B580F83920196A41F2111206
:104CB0001142044608D1196A40F24442114203D11C
:104CC0001A6822F001021A602046FBF7C7FE002096
:104CD00084F8390084F8380010BD00BF0168022252
:104CE00010B480F839200A680124034622430A6080
:104CF000002083F839405DF8044B704702220368B6
:104D000080F83920196A41F21112114208D1196A4A
:104D100040F24442114203D11A6822F001021A60A3
:104D2000012380F839300020704700BF0368DA683B
:104D300042F00102DA601A6842F001021A600020B3
:104D4000704700BF0368DA6822F00102DA60196A6E
:104D500041F21112114208D1196A40F24442114243
:104D600003D11A6822F001021A600020704700BFC8
:104D700070B590F83940E4B2022C21D090F8394057
:104D8000E4B2012C15D004461346C06922680D4ECA
:104D90000D4DC663C5642C32FFF72EFC2368DA681C
:104DA00042F48072DA601A6842F001021A60002050
:104DB00070BD19B1022380F83930E4E7002AF9D038
:104DC000204670BD69600008896200080368DA68DF
:104DD00022F48072DA601A6A41F211110A4208D193
:104DE000196A40F24442114203D11A6822F00102CA
:104DF0001A60012380F8393000207047704700BFE7
:104E0000704700BF0222036810B580F83920196A84
:104E100041F211121142044608D1196A40F244428B
:104E2000114203D11A6822F001021A602046FFF7EE
:104E3000E7FF002084F8390084F8380010BD00BF77
:104E4000036801201A6A00FA01F110B422EA010293
:104E5000134C1A621A6A1A62A34211D0196A41F2FB
:104E60001112114208D1196A40F24442114203D191
:104E70001A6822F001021A6000205DF8044B7047A6
:104E8000196A41F211121142E8D1196A40F2444202
:104E90001142E3D15A6C22F400425A64DEE700BFAB
:104EA00000000140704700BF704700BF0222036846
:104EB00010B580F83920196A41F2111211420446E6
:104EC00008D1196A40F24442114203D11A6822F013
:104ED00001021A602046FFF7E7FF002084F839003E
:104EE00084F8380010BD00BF03680122186A02FA76
:104EF00001F120EA010010B418621A6A084C11434B
:104F0000A342196207D01A685DF8044B42F001020F
:104F100000201A6070475A6C42F400425A64F2E76B
:104F200000000140FFF7E0BF036830B41A6A174D74
:104F3000012404FA01F122EA01021A621A6A1A62D1
:104F4000AB4213D0196A41F21112114208D1196A09
:104F500040F24442114203D11A6822F001021A6061
:104F6000012380F8393030BC00207047196A41F2C3
:104F700011121142E6D1196A40F244421142E1D1C4
:104F80005A6C22F400425A64DCE700BF0000014082
:104F900010B40C2935D8DFE801F0283434342E342D
:104FA00034342234343407000368DA6842F01002E3
:104FB000DA60186A164C012202FA01F120EA0100B7
:104FC00018621A6AA34241EA020119621BD01A68E8
:104FD0005DF8044B42F0010200201A60704703683C
:104FE000DA6842F00802DA60E3E70368DA6842F060
:104FF0000202DA60DDE70368DA6842F00402DA6090
:10500000D7E70368D5E75A6C42F400425A64DEE7FA
:1050100000000140FFF7BCBF10B40C293DD8DFE809
:1050200001F0363C3C3C303C3C3C2A3C3C3C0700DC
:105030000368DA6822F01002DA601A6A1F4C012055
:1050400000FA01F122EA010119621A6A1A62A34206
:1050500025D0196A41F21112114208D1196A40F2A1
:105060004442114203D11A6822F001021A60002062
:105070005DF8044B70470368DA6822F00802DA60D2
:10508000DBE70368DA6822F00402DA60D5E7036838
:10509000DA6822F00202DA60CFE70368CDE7196A26
:1050A00041F211121142D4D1196A40F24442114224
:1050B000CFD15A6C22F400425A64CAE70000014082
:1050C000FFF7AABFF8B590F83940E4B2022C15D02A
:1050D00090F83940E4B2012C0CD00D4604460C2D5A
:1050E00065D8DFE805F00D6464644264646431648B
:1050F00064645300002A5CD1002B5AD02046F8BDCE
:105100002668006A2F49304FC163C764114606F113
:105110003402FFF771FA2368DA6842F40072DA6049
:10512000186A2A4C012202FA05F120EA01001862ED
:105130001A6AA34241EA020119623ED01A6842F09B
:1051400001021A600020F8BD2668806A1D491E4FC2
:10515000C163C764114606F13C02FFF74DFA2368AC
:10516000DA6842F40062DA60DAE72668406A1549D4
:10517000154FC163C764114606F13802FFF73CFAC8
:105180002368DA6842F48062DA60C9E72668C06A98
:105190000C490D4FC163C764114606F14002FFF789
:1051A0002BFA2368DA6842F48052DA60B8E70368C1
:1051B000B6E7022480F839408FE75A6C42F4004287
:1051C0005A64BBE7D1600008896200080000014012
:1051D000FFF778BF30B40C293FD8DFE801F0383E44
:1051E0003E3E323E3E3E2C3E3E3E07000368DA68BD
:1051F00022F48052DA601A6A204D012404FA01F187
:1052000022EA010119621A6A1A62AB4227D0196AAE
:1052100041F21112114208D1196A40F2444211427E
:1052200003D11A6822F001021A60012380F8393094
:1052300030BC002070470368DA6822F40062DA604C
:10524000D9E70368DA6822F48062DA60D3E703689A
:10525000DA6822F40072DA60CDE70368CBE7196AF6
:1052600041F211121142D2D1196A40F24442114264
:10527000CDD15A6C22F400425A64C8E700000140C4
:10528000FFF7A8BF704700BF704700BF0222036846
:1052900010B580F83920196A41F211121142044602
:1052A00008D1196A40F24442114203D11A6822F02F
:1052B00001021A602046FFF7E7FF002084F839005A
:1052C00084F8380010BD00BF03680122186A02FA92
:1052D00001F120EA010018621A6A114319621A6882
:1052E00042F001021A600020704700BF03680120ED
:1052F0001A6A00FA01F122EA01021A621A6A1A62B3
:10530000196A41F21112114208D1196A40F244425D
:10531000114203D11A6822F001021A60002070477E
:105320000C292FD8DFE801F0282E2E2E222E2E2E2B
:105330001C2E2E2E07000368DA6842F01002DA6095
:10534000186A012202FA01F120EA010018621A6AC1
:10535000114319621A6842F001021A600020704776
:105360000368DA6842F00802DA60E9E70368DA689D
:1053700042F00402DA60E3E70368DA6842F002020E
:10538000DA60DDE70368DBE70C2938D8DFE801F0F5
:10539000313737372B37373725373737070003682B
:1053A000DA6822F01002DA601A6A012000FA01F1CC
:1053B00022EA010119621A6A1A62196A41F211128B
:1053C000114208D1196A40F24442114203D11A68CD
:1053D00022F001021A60002070470368DA6822F0A8
:1053E0000802DA60E0E70368DA6822F00402DA60B3
:1053F000DAE70368DA6822F00202DA60D4E70368C9
:10540000D2E700BFF8B590F83940E4B2022C12D0D0
:1054100090F83940E4B2012C0FD00D4604460C2D13
:105420005CD8DFE805F0105B5B5B2E5B5B5B3D5B94
:105430005B5B4C001BB12046F8BD002AFAD0022469
:1054400080F83940E9E72168006A254F254EC76397
:10545000C6643431FFF7D0F82068C36843F40073A2
:10546000C360026A012303FA05F122EA0102026223
:10547000036A19430162036843F0010303600020DB
:10548000F8BD2168406A164F164EC763C6643831AE
:10549000FFF7B2F82068C36843F48063C360E0E7B5
:1054A0002168806A0E4F0F4EC763C6643C31FFF718
:1054B000A3F82068C36843F40063C360D1E72168A0
:1054C000C06A074F074EC763C6644031FFF794F8C0
:1054D0002068C36843F48053C360C2E70068C0E734
:1054E000816000088962000810B40C293DD8DFE80B
:1054F00001F0363C3C3C303C3C3C2A3C3C3C070008
:105500000368DA6822F48052DA601A6A012404FA25
:1055100001F122EA010119621A6A1A62196A41F25A
:105520001112114208D1196A40F24442114203D1CA
:105530001A6822F001021A60012380F839305DF800
:10554000044B002070470368DA6822F40062DA60D6
:10555000DBE70368DA6822F48062DA60D5E7036883
:10556000DA6822F40072DA60CFE70368CDE700BFA3
:10557000704700BF704700BF0222036810B580F873
:105580003920196A41F211121142044608D1196AF0
:1055900040F24442114203D11A6822F001021A601B
:1055A0002046FFF7E7FF002084F8390084F8380030
:1055B00010BD00BF03680D491A6A22F001021A6289
:1055C0001A6A42F001021A621A6A22F010021A6282
:1055D0001A6A8B4242F010021A6201D00020704712
:1055E0005A6C42F400425A640020704700000140A7
:1055F000036817491A6A22F001021A621A6A1A62CB
:105600001A6A22F010021A621A6A1A628B420FD0CA
:10561000196A41F21112114208D1196A40F244424A
:10562000114203D11A6822F001021A60002070476B
:10563000196A41F211121142EAD1196A40F2444248
:105640001142E5D15A6C22F400425A64E0E700BFEF
:105650000000014003681149DA6842F00202DA6092
:10566000DA6842F00402DA601A6A22F001021A6271
:105670001A6A42F001021A621A6A22F010021A62D1
:105680001A6A8B4242F010021A6201D00020704761
:105690005A6C42F400425A640020704700000140F6
:1056A00003681B49DA6822F00202DA60DA6822F045
:1056B0000402DA601A6A22F001021A621A6A1A6295
:1056C0001A6A22F010021A621A6A1A628B420FD00A
:1056D000196A41F21112114208D1196A40F244428A
:1056E000114203D11A6822F001021A6000207047AB
:1056F000196A41F211121142EAD1196A40F2444288
:105700001142E5D15A6C22F400425A64E0E700BF2E
:1057100000000140704700BF704700BF02220368CD
:1057200010B580F83920196A41F21112114204466D
:1057300008D1196A40F24442114203D11A6822F09A
:1057400001021A602046FFF7E7FF002084F83900C5
:1057500084F8380010BD00BFD1B1042916D0036809
:105760001A6A22F001021A621A6A42F001021A62EF
:105770001A6A22F010021A621A6A42F010021A62C1
:105780001A6842F001021A60002070470368EFE7D0
:1057900003681A6A22F001021A621A6A42F00102D0
:1057A0001A62EDE701B304291CD003681A6A22F0DB
:1057B00001021A621A6A1A621A6A22F010021A6246
:1057C0001A6A1A62196A41F21112114208D1196A51
:1057D00040F24442114203D11A6822F001021A60D9
:1057E000002070470368E7E703681A6A22F00102A5
:1057F0001A621A6A1A62E5E700292ED004291ED01F
:1058000003681A6A22F001021A621A6A42F001025F
:105810001A621A6A22F010021A621A6A42F0100220
:105820001A62DA6842F00202DA60DA6842F00402D0
:10583000DA601A6842F001021A60002070470368BB
:105840001A6A22F010021A621A6A42F010021A62F0
:10585000DA6842F00402DA60EBE703681A6A22F0C1
:1058600001021A621A6A42F001021A62DA6842F010
:105870000202DA60DDE700BF03681A6AD9B922F0D4
:1058800001021A621A6A1A62DA6822F00202DA6007
:10589000196A41F21112114208D1196A40F24442C8
:1058A000114203D11A6822F001021A60012380F824
:1058B000393000207047042913D022F001021A6207
:1058C0001A6A1A621A6A22F010021A621A6A1A62B4
:1058D000DA6822F00202DA60DA6822F00402DA60A2
:1058E000D6E722F010021A621A6A1A62DA6822F007
:1058F0000402DA60CCE700BF2DE9F04190F83940AE
:10590000BDF81860E4B2022C0FD090F83940012C99
:105910000ED004291F460C46054615D0182950D034
:10592000002930D00020BDE8F0812046BDE8F0819C
:10593000002A7CD0002B7AD00224042980F8394038
:105940001F460C460546E9D12968406A3A4B3B4C54
:10595000C3633A463346C4643831FEF74DFE2B68C4
:10596000DA6842F48062DA601A6842F001021A6072
:105970001A6A22F010021A621A6A42F010021A62BF
:105980000020BDE8F0812968006A2B4B2B4FC363D0
:10599000C76433463431FEF72FFE2B68DA6842F4D1
:1059A0000072DA601A6842F001021A601A6A22F084
:1059B00001021A621A6A42F0010220461A62BDE828
:1059C000F0812968006ADFF870801C4CC0F83C80C8
:1059D0003346C4643431FEF70FFE2968686A3346E3
:1059E0003A46C0F83C80C4643831FEF705FE2B68A7
:1059F0001A6842F001021A601A6A22F001021A6261
:105A00001A6A42F001021A621A6A22F010021A623D
:105A10001A6A42F010021A62DA6842F40072DA601E
:105A2000DA6842F48062DA600020BDE8F081002E7E
:105A300082D00120BDE8F081816000088962000801
:105A400003681A6AD9B922F001021A621A6A1A6244
:105A5000DA6822F40072DA60196A41F21112114216
:105A600008D1196A40F24442114203D11A6822F067
:105A700001021A60012380F83930002070470429A0
:105A800013D022F001021A621A6A1A621A6A22F00C
:105A900010021A621A6A1A62DA6822F40072DA6074
:105AA000DA6822F48062DA60D6E722F010021A6225
:105AB0001A6A1A62DA6822F48062DA60CCE700BF00
:105AC000F8B590F83940069DE4B2022C19D090F850
:105AD0003940E4B2012C2AD0B2F5006F16460F46C9
:105AE00004462FD00FD8B2F5007F40D0B2F5806FBA
:105AF00041D0B2F5807F0FD1C0692268244924E0EB
